:020000040800F2
:10000000E0810020150300083303000835030008D1
:1000100037030008390300083B0300080000000014
:100020000000000000000000000000003D03000888
:100030003F030008000000008D480008430300084B
:100040004503000845030008450300084503000870
:100050004503000845030008450300084503000860
:100060004503000845030008450300084503000850
:100070004503000845030008450300084503000840
:10008000450300084503000845030008856500088E
:100090008D64000845030008450300084503000877
:1000A0004503000845030008450300084503000810
:1000B00045030008AF5B000845030008450300083E
:1000C00045030008450300084503000845030008F0
:1000D000FD5B0008450300084503000845030008D0
:1000E00045030008331100084503000845030008D4
:1000F00045030008450300084503000845030008C0
:1001000045030008450300084503000845030008AF
:10011000450300084503000845030008450300089F
:10012000450300084503000845030008450300088F
:10013000450300084503000845030008450300087F
:10014000450300084503000845030008450300086F
:10015000450300084503000845030008450300085F
:10016000450300084503000845030008450300084F
:10017000450300084503000845030008450300083F
:10018000450300084503000800F002F800F0B2F84B
:100190000AA090E8000C82448344AAF10107DA45E2
:1001A00001D100F0A7F8AFF2090EBAE80F0013F082
:1001B000010F18BFFB1A43F001031847A00A010002
:1001C000C00A01000A444FF0000C10F8013B13F084
:1001D000070408BF10F8014B1D1108BF10F8015BA0
:1001E000641E05D010F8016B641E01F8016BF9D193
:1001F00013F0080F1EBF10F8014BAD1C0C1B09D1EA
:100200006D1E58BF01F801CBFAD505E014F8016B5B
:1002100001F8016B6D1EF9D59142D6D370470000ED
:100220000023002400250026103A28BF78C1FBD8FF
:10023000520728BF30C148BF0B6070476E290CF0D1
:10024000C18570290CF0168666290EF0578665293F
:100250000EF0548667290EF051866129AFF30080B5
:1002600003681B0A28BF41F0800169290CF06E85E4
:1002700064290CF06B8575290CF068856F290DF0E9
:100280004B8478290CF0E285E9290DF0E383E42919
:100290000DF0E083F5290DF0DD83EF290DF04884A2
:1002A000F8290CF0E1850368DB0928BF41F08001E3
:1002B00063290DF0648373290DF06983E3290DF040
:1002C0002185F3290DF02685002070471FB50EF01B
:1002D0000BFE0DF07BFC0400002000210EF098FBCB
:1002E000401C6060002000210EF07CFBE0601FBD20
:1002F00010B510BD0DF060FF1146FFF7E7FF03F0EA
:10030000A1F80DF087FF03B4FFF7F2FF03BC0DF077
:1003100087FF00000F481049026800608A4203D03E
:100320000E4880470E4800470E48D0F800D040687D
:100330000047FEE7FEE7FEE7FEE7FEE7FEE7FEE733
:10034000FEE7FEE7FEE7000007480849084A094BB8
:1003500070470000F01F0020EFBEADDEC71200089E
:10036000890100080000FF1FE07B0020E0810020E1
:10037000E07D0020E07D00200020FE49096841F07A
:100380000101FC4A11604FF40031FB4A91611146B2
:10039000096841F0040111601146096821F0080163
:1003A00011601146896861F00C019160042191612E
:1003B0001146096841F0100111601146096821F0E9
:1003C000200111601146896861F03001916091004F
:1003D00091611146096841F04001116011460968B8
:1003E00021F0800111601146896861F0C0019160BF
:1003F0001146096821F4406111601146C96821F471
:100400004061D16011460969C1F3401040219161FA
:100410001146096841F4805111601146096821F4C0
:10042000005111601146896861F440519160D10119
:1004300091611146096841F48031116011460968E3
:1004400021F4003111601146896861F440319160F6
:10045000C849096841F00201C64A11600121C74A32
:100460001160C6491839096841F00101C34A183AB8
:1004700011601146096821F002011160BF4910396D
:10048000096861F00301BD4A103A11600221BB4ABC
:100490001160BA491839096841F00401B74A183A9D
:1004A00011601146096821F008011160B349103943
:1004B000096861F00C01B14A103A11600421AF4A99
:1004C0001160AE491839096841F01001AB4A183A79
:1004D00011601146096821F020011160A749103907
:1004E000096821F03001A54A103A11601021A34A91
:1004F0001160A2491839096841F480719F4A183A7D
:1005000011601146096821F4007111609B4910398E
:10051000096861F44071994A103A11602021974AA4
:10052000116096491839096841F48061934A183A74
:1005300011601146096821F4006111608F4910397A
:10054000096861F440618D4A103A1160894909686F
:1005500041F00401874A11600121894A11608849EC
:100560001839096841F00101854A183A11601146AD
:10057000096821F00201116081491039096861F0B0
:1005800003017F4A103A116002217D4A11607C49C3
:100590001839096841F00401794A183A1160114686
:1005A000096821F00801116075491039096861F086
:1005B0000C01734A103A11604FF48021704A1160A7
:1005C0006F491839096841F010016D4A183A1160F5
:1005D0001146096821F02001116069491039096844
:1005E00061F03001664A103A11604FF48011644A9C
:1005F000116063491839096841F48071604A183AFA
:1006000011601146096821F4007111605C491039CC
:10061000096861F440715A4A103A11602021584A21
:10062000116057491839096841F48061544A183AF1
:1006300011601146096821F40061116050491039B8
:10064000096861F440614E4A103A116040214C4AF9
:1006500011604B491839096841F48051484A183AE9
:1006600011601146096821F40051116044491039A4
:10067000096861F44051424A103A11604FF4004158
:100680003F4A11603E491839096841F080413C4AAF
:10069000183A11601146096821F00041116038498B
:1006A0001039096861F04041354A103A1160334908
:1006B0001839096821F04071304A183A11602F4901
:1006C0000C39096841F080712C4A0C3A11601146CE
:1006D000096821F00071116028491839096821F46E
:1006E0004041264A183A116024490C39096821F41E
:1006F0004041224A0C3A116021491839096821F019
:10070000C0011F4A183A11601D490C39096821F0CF
:10071000C0011B4A0C3A116019491839096821F4C3
:100720004021174A183A116015490C39096821F41B
:100730004021134A0C3A116011491839096821F017
:1007400040610F4A183A11600D490C39096821F0CF
:1007500040610B4A0C3A116009491839096821F0C7
:100760004051074A183A116005490C39096821F0CF
:10077000805107E030380240000002401804024077
:10078000180802405B4A0C3A11601146096841F0B2
:1007900000511160704708B1402101E04FF4800121
:1007A000554A9161704708B1022101E04FF40031D0
:1007B000514A916170474F4808380068012121EA89
:1007C000502070474D48006820F440404B49086075
:1007D000012048490860BFF35F8F48481030006827
:1007E000C0F3C01070474FF48031424A116008B125
:1007F000802101E04FF40001404A183211603F4966
:10080000096841F480413D4A116070473948183801
:10081000006820F0C00037491839086002203549C7
:100820000860BFF35F8F334808380068C0F3C0002A
:1008300070474FF400312F4A116008B1082101E0E0
:100840004FF400212B4A11602A491839096841F0F8
:100850004001284A183A1160704710B14FF48031B6
:1008600000E00121254A18321160704708B12021AB
:1008700001E04FF40011214A18321160704708B1AD
:10088000202101E04FF400111A4A1160704708B1AD
:10089000022101E04FF40031184A1832116070470C
:1008A00008B1402101E04FF48001124A1160704705
:1008B00008B1102101E04FF48011104A1832116084
:1008C000704708B1042101E04FF48021094A11600A
:1008D000704708B1082101E04FF40021064A9161F8
:1008E000704708B1042101E04FF48021034A183217
:1008F00011607047180802400000024000040240E6
:100900008448006840F4802082490860814810389B
:100910000068814908437F49103908607F480068B2
:1009200020F480107D4908600846006840F40010FB
:100930000860081D006820F48060091D0860774881
:100940000C30006820F4401074490C310860081F16
:10095000006820F44010091F08607048406A20F4C5
:10096000706040F4E0616D484162006820F48000EE
:100970006A4908600846006840F40000086067485B
:100980000C30006820F4400064490C310860634872
:10099000406A20F4704040F4E0416048416240F217
:1009A0006D105F49088000205D4908310880091DED
:1009B00008805B48001D008840F400505849091D1C
:1009C000088057480C30008840F0C00054490C3172
:1009D00008805448806D20F001005249886500E08D
:1009E00000BF5048806D10F0010FF9D14D48806D67
:1009F00020F060604B4988650846806D40F00060DB
:100A000088650846806D40F4886088654448001F0A
:100A100008660020C8650846806A20F001008862E8
:100A200000E000BF3F48806A10F0010FF9D13D4857
:100A3000806A20F060603B4988620846806A40F026
:100A4000006088620846806A40F4A060886234488A
:100A5000001F0863344848630815C86230480838E6
:100A6000008820F040002E49083908802C48001DDD
:100A7000008840F00C002A49091D08802948806A36
:100A800040F001002749886270472649C96AC1F5CC
:100A90008061264A1268914202D14FF6FF700FE042
:100AA00022490A680968491C204B19601E49885C64
:100AB00019460968B1F5806F02D100211A4611600C
:100AC0007047184A926D22F00102164B9A6500E0B9
:100AD00000BF144A926D12F0010FF9D1114A50660D
:100AE000D1650F4A083A128822F040020C4B083BAD
:100AF0001A804FF000620B4B9A601A46926D42F0DA
:100B000001029A65704706480838008800F04000E6
:100B100070470000403802400200200000040240FC
:100B20000848004000600240F4020020000000205D
:100B3000FE48006840F40030FC490860A720FC49EA
:100B4000088040F2E730091D08604010F8490C3178
:100B50000860F7480838008840F00100F449083977
:100B60000880F3481038008840F06000F0491039E0
:100B70000880081F008840F00100091F0880EC4829
:100B80002838008840F00100E94928390880E74802
:100B9000006840F48030E54908602020E54908817C
:100BA0000846008940F007000881002008854FF6BC
:100BB000FF70C8620846008840F001000880704756
:100BC000DC48406A80B270470246501A80B27047D3
:100BD000D648001F006840F01000D449091F086083
:100BE0005320D54908854FF6FF704862C862084611
:100BF000008840F0080008800846008840F00100A6
:100C0000088070474142CC484162018841F00101AF
:100C100001800188C907FCD17047C448001F0068E3
:100C200040F00800C149091F0860C0482438006826
:100C300040F00800BD492439086000E000BFBB480F
:100C40002438006810F0080FF8D0B848243800683D
:100C500020F00800B549243908600020B749088011
:100C6000091F0860B1481438006840F00100AF491E
:100C700014390860B248006820F00100B0490860EB
:100C80000846006840F0020008600846006A20F04C
:100C90000F00801C08624FF0FF30A849091D086052
:100CA0005720A64920390880A4481038008840F011
:100CB0000100A24910390880081F008840F0010097
:100CC000091F08809D482838008840F001009B4992
:100CD0002839088095481438006840F0020093498C
:100CE000143908609748006820F4805095490860DE
:100CF0000846006840F400500860924820300068C0
:100D000020F0706040F000708E4920310860084685
:100D1000006820F0704040F0005008608348001FD9
:100D2000006840F004008149091F086000208649DE
:100D30000880091F086041F267008349091D0860A7
:100D4000401081490C31086008460068091D0860A0
:100D500047F270007C49103908807B4808380088C9
:100D600040F0010078490839088077481438008835
:100D700040F00100744914390880704730B50346CB
:100D8000FFF71EFF044600E000BFFFF719FF05460E
:100D90002146FFF719FF9842F6DB30BD02466B484B
:100DA00050434FF47A73B0FBF3F1B1F1807F01D37C
:100DB000012070474FF0E020006940F001004FF043
:100DC000E0231861184641610020F2E74FF0E0206F
:100DD000006900F4803070470CB558B95C49096867
:100DE00001915B49283909685A4A116058492439E8
:100DF000096800914D49091F096841F080514B4A2B
:100E0000121F11605449096841F48071524A1160FF
:100E100046492C31096841F48031444A2C32116032
:100E20001146096821F4803111601146096841F4C6
:100E3000407111601146096841F400411160CA21F6
:100E4000434A121F11605321116041491C3909683E
:100E500041F080013E4A1C3A116000E000BF3C496D
:100E60001C39096811F0400FF8D039491839096860
:100E70006FF30E0142F20F721144354A183A1160B5
:100E80001146096821F4FE0141F4C601116031499F
:100E900009682F4A283A11603049121D11602C4907
:100EA0001C39096821F08001294A1C3A116000E0D0
:100EB00000BF27491C39096811F0800FF8D1FF21C4
:100EC000234A121F116022491C39096821F02001B0
:100ED0001F4A1C3A11600CBD1449091F096841F0F2
:100EE0008051124A121F11601B49096841F4807138
:100EF000194A11600D492C31096841F480310B4ABF
:100F00002C3211601146096821F4803111601146BC
:100F1000096840F205121143044A2C32116011464F
:100F2000096841F40041116010B319E044380240EF
:100F3000284401400040014000100040280C0040BF
:100F4000000002400004024028080040406F4001B9
:100F500028280040040000200070004002441300D4
:100F600084492839098841F00101824A283A1180D0
:100F7000CA21814A1160532111607F4918390968DB
:100F800041F080017C4A183A116000E000BF7A49C4
:100F90001839096811F0400FF8D0774914390968F9
:100FA0006FF30E0142F20F721144734A143A11604A
:100FB0001146096821F4FE0141F4803111606F4946
:100FC00009686D4A243A11606D49121D11606A4921
:100FD0001839096821F08001674A183A116000E069
:100FE00000BF65491839096811F0800FF8D1FF2159
:100FF000614A116060491839096821F020015E4A90
:10100000183A116070475F4901405C4A11607047AF
:10101000CA21594A1160532111605749183909688A
:1010200041F08001544A183A116000E000BF524973
:101030001839096811F0400FF8D0524901404E4A62
:10104000243A11604C491839096821F080014A4A54
:10105000183A1160FF21484A1160704730B50246C6
:10106000CA20454B18605320186043481C3800685C
:1010700020F48070404B1C3B1860181D006840F045
:1010800001001B1D186000E000BF3B4818380068D5
:1010900010F0010FF8D03B48104040F00040364BB4
:1010A000083B1860C1F30E0040F07060324B2033F3
:1010B000186031481838006820F001002E4B183BAA
:1010C00018601846006820F480701860181F0068C7
:1010D00040F488501B1F1860181D006820F00100A4
:1010E0001B1D1860FF20244B18602748006840F43F
:1010F0000030254B186024480838006840F4003060
:10110000214B083B186020480C30006840F4003048
:101110001D4B0C331860292000F01F040123A3404D
:1011200044094FF0E02505EB8404C4F8003100BF0A
:1011300030BD10B510481838006820F480700E4992
:101140001839086000E000BF0B481838006810F438
:10115000807FF8D10C480C30006840F400300A4918
:101160000C310860094A50691169884708A002F0EB
:1011700031FD10BD28080040242800400400002054
:10118000024413007F7F3F00083C01406429002097
:101190000D0A52544320416C61726D210D0A00000A
:1011A000002100205E4A126842F480325C4B1A60D3
:1011B00000BF5B4A126802F40030491C10B9B1F557
:1011C000705FF6D1564A1268C2F34040002879D0C9
:1011D000534A4032126842F08052514B40331A60F9
:1011E000504A126842F480424E4B1A6040F2056247
:1011F0004D4B1A604A4A08321268494B08331A604C
:101200001A46126842F400421A601A46126842F402
:10121000A0521A601A46126822F4F81242F44022D0
:101220001A601A46126822F07C521A601A46126836
:1012300042F080621A601A46126842F060521A60E8
:101240001A46126822F040421A601A46126842F0AA
:1012500080421A60354A1B1F1A601A1F126842F03A
:1012600080721B1F1A6000E000BF2D4A126812F046
:10127000007FF9D02A4A0832126822F00302284B74
:1012800008331A601A46126842F002021A6000E03F
:1012900000BF234A0832126802F00C02082AF7D174
:1012A000234A1F4B84331A601D4A126842F0806241
:1012B0001B4B1A6001E005E000BF194A126812F0EA
:1012C000006FF9D0704710B51A48006840F47000FC
:1012D000184908601248006840F001001049086091
:1012E00000200F49083108600D4800681249084085
:1012F0000B4908601148091D0860081F006820F4A8
:101300008020091F0860002005490C310860FFF7A4
:1013100047FF4FF0006007498039086010BD0000AA
:101320000038024000700040003C02400C5440076E
:101330000040005088ED00E0FFFFF6FE1030002472
:10134000704710B54FF00054FE4890F85400C0F3B9
:10135000800010B144F0004401E024F0004404F0A7
:10136000BEF9022802D144F4806401E024F48064D0
:10137000F448406F012819D1F248C06F012808D104
:10138000FFF720FA10B144F4801411E024F4801423
:101390000EE0EC48C06F02280AD1FFF713FA10B133
:1013A00024F4801404E044F4801401E024F4801454
:1013B000E448806F01281DD1E248D0F88000012860
:1013C00008D1FFF723FA10B144F4001412E024F41A
:1013D00000140FE0DB48D0F88000022808D1FFF7A6
:1013E00015FA10B124F4001404E044F4001401E0F0
:1013F00024F40014204610BD2DE9F04397B0804638
:101400000D461646D0480068854202D117B0BDE8A7
:10141000F083B5F5004F1FD06C46A71D81202080BA
:101420004420A0700020E070812020715020607165
:10143000A7F800807D804FF0000900BF3278484651
:1014400009F10109391D0A5416F8011B0029F5D1CB
:101450004A21204604F032F8BB48056000BFD5E7BA
:1014600010B54FF48A720021B84803F05EFD0446BF
:10147000012C08D0B6A248F2D0410020FFF7BCFFF3
:10148000B5A002F0A7FB00234FF48A721946AF48BB
:1014900003F008FD044644B1B6A248F2D041002052
:1014A000FFF7AAFFB6A002F095FB10BD10B504220D
:1014B0001102BA4803F039FD0446012C08D0A4A259
:1014C00048F2D0410020FFF797FFA3A002F082FB73
:1014D000012304221102B14803F0E4FC044644B1A4
:1014E000A4A248F2D0410020FFF786FFA4A002F09A
:1014F00071FB10BD2DE9F04F2DED048BABB000203A
:1015000011901090A64800881390A548007900F02B
:101510007F000A9014ADAC1DA14EB61D0020E870EE
:10152000012028710A9868710020099040F25562E4
:101530001398811A904201F0F8813CDC40F223229A
:10154000A0EB0201904274D017DC152872D009DCA0
:10155000052874D011286FD012286ED0142841F0BD
:1015600036876AE1B0F5047F68D0A0F500701138C5
:101570007BD00228F3D101F0C0BE40F22342881A8A
:10158000914201F056800CDCA1F580611D3900F01C
:101590009187012900F0CF87032967D00429DED184
:1015A000FDE3012801F09D800C2801F0AB800D289F
:1015B000D5D101F054B9B1F5BE7F01F07F811CDCBB
:1015C000AF2901F031830CDC012901F0F3810B29F3
:1015D00001F0E586AB2901F0FD82AE29BFD101F013
:1015E0000BBBB12901F04D83B22901F05183A1F564
:1015F00080717B39B3D100F03FBF40F29B12881A53
:10160000914201F04C830ADCA1F580717D3901F033
:101610007081022979D00329A1D100F0ECBE012804
:1016200001F0C383032801F00984042897D101F055
:1016300046BE53E0F0E302E05AE067E06DE00620CA
:1016400028805420A870287940F080002871542206
:10165000544920460BF032FE3C4800682060524856
:10166000006C012803D1032002E0D5E0FEE3022054
:10167000A4F84E004DA0007884F842004BA04178B9
:101680004320015549A0C1784420015547A0017964
:101690004520015548A00079202801D1302001E0E3
:1016A00045A000794621085543A0417947200155BE
:1016B00041A00178482001553FA0417849200155BB
:1016C0003DA081784A20015500214B200155012081
:1016D000099002203B49086001F079BE4020324960
:1016E000C863184AD2F88810106D05F07DF9F3E749
:1016F0003548C06820F0100010303349C860002021
:101700008860FA20FFF73AFBE6E7F2E32E48C0686C
:1017100020F010002C49C860DEE72148C07801287D
:101720005BD10848406D20F00400001D0549486564
:101730000BF022F9034890F8540010F0010F64D127
:1017400044E00000A8280020140000209427002076
:1017500045455772697465000D0A454550524F4D15
:10176000205772697465204661696C7572650D0A4F
:10177000000000004545566572696679000000006A
:101780000D0A454550524F4D2056657269667920C5
:101790004661696C7572650D0A0000003C0000200E
:1017A00048000020A4F000086429002030393A32B3
:1017B000313A3034000000004D617920333120325D
:1017C000303138000C000020B429002009F0F1FC71
:1017D0000020FE490968884717E0FD48C0780228C4
:1017E00013D1FC48406D20F00400FA4948650BF025
:1017F000C3F8F84890F8540010F0010F05D109F033
:10180000D8FC0020F14909688847F24AD2F88810CC
:10181000106D05F0E9F85FE740F212202880012002
:10182000A870ED48007BC0F3401008B1012000E033
:101830000220E870012009904EE730680390D6F846
:1018400004B0B0680290F068019003F045FF4B28A7
:1018500001D1012000E0002011900398482879D0A0
:101860001CDC0C2877D00CDC092862D004DC0128B1
:1018700035D0022870D149E00A2871D00B28F9D15F
:1018800084E045286AD004DC142868D04228F1D1CD
:10189000F0E3462875D04728ECD1B7E0672871D02F
:1018A0000CDC64286FD004DC49286DD06328E1D1BA
:1018B00045E1652869D06628DCD15DE3B0F5C87FD5
:1018C00070D004DC68286ED0C828D3D1F5E3B0F519
:1018D000167F69D0A0F500705938CBD1EEE3BF4830
:1018E000C0F800B00168BEA002F074F92C22C34910
:1018F000BA48001D0BF027FD49F65A20B749C1F838
:101900001001FFF7ADFD00200990D8E2002705E0A7
:101910000020BB4901EB870108607F1C0A2FF7DB21
:10192000B74903980860AD480068486000200990F6
:10193000EBE7002705E00020B14901EB87010860D3
:101940007F1C0A2FF7DBAF480068AD4948600020D4
:101950000990DAE79CE01FE0DAE301E02AE024E006
:10196000A848C0F800B00146086808F099FE9949F7
:10197000086D9649096888470020A3494864099082
:10198000C3E731E001E39BE295E0B3E25846FEF79E
:101990002AFF00200990B8E75846FEF74AFF0020CA
:1019A0000990B2E7B3E340E3B3E3FFF77FFD002024
:1019B0000990AAE7ABF5E060D33814D145F6A5202D
:1019C0008E4988622C228548001D0BF0BCFC49F62C
:1019D0005A208249C1F81001FFF742FD8BA002F0A6
:1019E000F9F80020099090E7029801B2794842681E
:1019F0008248001D20F81210019800B2754949680C
:101A00007E4A22F81100002009907EE7002705E0B9
:101A100000207B4901EB870108607F1C0A2FF7DB60
:101A20006C4841687548001D30F911000290694802
:101A30004068724931F910000190714903980860BB
:101A4000029888600198C860624843686B48001D2E
:101A500030F913205F484068012801D174A000E0EC
:101A600074A0014675A002F0B5F85A484068634B6F
:101A700033F9102057484068012801D16CA000E0DC
:101A80006CA001467BA002F0A5F800200990E0E3DD
:101A9000029801B24F4842685848103020F812109E
:101AA000019801B24B48426854480C3020F812109B
:101AB00000200990CDE3002705E00020504901EB0C
:101AC000870108607F1C0A2FF7DB424841684B48BA
:101AD000103030F9110002903E48416847480C3000
:101AE00030F9110001904649039808600298886017
:101AF0000198C860374843684048103030F91320D7
:101B000034484068012801D149A000E049A00146BD
:101B100066A002F05FF82F48436838480C3030F96F
:101B200013202C484068012801D141A000E041A0C9
:101B300001466CA002F04EF80020099089E303F002
:101B40006AF99FED760A2D4880ED080A9FED740A28
:101B500080ED090A90221F49204830300BF0F3FB3A
:101B60002C2226491D48001D0BF0EDFB49F65A209A
:101B70001A49C1F81001FFF773FC6AA002F02AF8B5
:101B80000120144948604B20086003F026FD40F214
:101B9000F27028802220A870287940F080002871F7
:101BA000012020800B48B0F85C0060800948B0F844
:101BB0006000A0800748406EC4F806000548B0F8F1
:101BC000680060810348C06EE060B7E078020020E2
:101BD00048000020A8280020B429002094270020D5
:101BE0000D0A53657269616C206E756D62657220B5
:101BF00073657420746F202575000000382900205B
:101C0000F40600203C000020642900200D0A454510
:101C100050524F4D2063616C6962726174696F6EDE
:101C20002064617461207361766564210D0A00008F
:101C30003735560031353056000000000D0A43613B
:101C40006C6962726174696F6E2076616C75652073
:101C50002D20444143207363616C6520666F7220C0
:101C600025732072616E67652069733A2025640DC3
:101C7000000000000D0A43616C6962726174696F53
:101C80006E2076616C7565202D20444143206F667F
:101C90006673657420666F722025732072616E67AB
:101CA000652069733A2025640D0A00000D0A43611E
:101CB0006C6962726174696F6E2076616C75652003
:101CC0002D20414443207363616C6520666F722050
:101CD00025732072616E67652069733A2025640D53
:101CE000000000000D0A43616C6962726174696FE3
:101CF0006E2076616C7565202D20414443206F660F
:101D00006673657420666F722025732072616E673A
:101D1000652069733A2025640D0A0000FF5D0F3EBF
:101D2000D29EDC390D0A4F70506172616D73206C68
:101D30006F61646564210D0A00000000F548006FC2
:101D40002061F448B0F85000A082F248D0F8840036
:101D50006FF00041884202D10020E08207E0ED48A8
:101D6000D0F884004FF4167190FBF1F0E082E9485E
:101D7000B0F888002083002706E0002104F11A0053
:101D800000EB470001807F1C042FF6DB9DF8540018
:101D900010F0800F04D09DF85200801D01E0B2E2E7
:101DA0000620129014A8129903F088FB40F2D67016
:101DB00028800A20A870287940F08000287101202E
:101DC000208060800320A0800020E08020819DF89A
:101DD000540010F0800F03D09DF85200801D00E0E9
:101DE0000620129014A8129903F068FB40F2546088
:101DF00028800420A870287940F0800028710120F4
:101E00002080022060809DF8540010F0800F04D0E4
:101E10009DF85200801D01E01EE20620129014A8D9
:101E2000129903F04BFB40F2F57028801620A87041
:101E3000287940F08000287101202080B548B0F852
:101E400074006080B348B0F87C00A080B148B0F85E
:101E50007800E080AF48B0F8800020819DF8540001
:101E600010F0800F05D09DF8520000E004E2801DC4
:101E700000E00620129014A8129903F01FFB40F214
:101E8000576028800620A870287940F080002871CB
:101E900001202080642060801420A0809DF85400E0
:101EA00010F0800F03D09DF85200801D00E0062046
:101EB000129014A8129903F001FB00200990C8E1C8
:101EC0007B20954988622C2294480BF03CFA49F615
:101ED0005A209249091FC1F81001FFF7C1FA90A0DA
:101EE00001F078FEAFF2DC2001F074FE00200990D2
:101EF000AFE119E28748C0F864B04068012802D118
:101F00004B20049001E0962004908248406E049A91
:101F1000504300EE100AB8EE400A10EE101A0846C0
:101F20000CF06AFF41EC100BB0EE409AF0EE609AB4
:101F30009FED830B53EC102B51EC190B0CF0B0FD03
:101F400041EC100BB0EE408AF0EE608A51EC180BB9
:101F50000CF074FD089008980CF04EFF41EC100B4B
:101F6000B0EE408AF0EE608A53EC182B76A001F0B8
:101F700031FE002009906CE16648406D6BF38200F1
:101F8000644948650020099063E1DA466148C06F02
:101F900001280ED15F48406F0A280AD11AF0010FBC
:101FA00003D00120FEF71FFC15E00020FEF71BFC0C
:101FB00011E05848C06F02280DD15648406F0A28DA
:101FC00009D11AF0010F03D00020FEF70CFC02E04B
:101FD0000120FEF708FC4F48D0F8800001280ED100
:101FE0004C48806F0A280AD11AF0020F03D0012052
:101FF000FEF71FFC16E00020FEF71BFC12E0454830
:10200000D0F8800002280DD14248806F0A2809D1FB
:102010001AF0020F03D00020FEF70BFC02E00120B3
:10202000FEF707FC0020099013E13A4890F83000D1
:1020300000F00E00022806D0042807D0082808D196
:102040004FF0030906E04FF0010903E04FF00209E9
:1020500000E000BF00BF03F03FFB4B2804D0642822
:1020600005D096280AD106E04FF0010809E04FF0AC
:10207000020806E02CE04FF0030802E04FF00108F0
:1020800000BF00BF40F2D67028800A20A8702879CF
:1020900040F08000287101202080A4F80280A4F87C
:1020A00004900020E08020819DF8540010F0800F03
:1020B00005D09DF85200801D02E01BE0B0E0062034
:1020C000129014A8129903F0F9F900200990C0E0C9
:1020D000002705E00020244901EB870108607F1CF0
:1020E0000A2FF7DB4220204908600B2048600020BF
:1020F0000990AEE0BBF1000F03D1012003F0F2FA2A
:1021000002E0022003F0EEFA00200990A1E02DE0A9
:102110009CE051E0A82800203829002098270020C2
:102120000D0A556E6974206973206E6F74206361A7
:102130006C69627261746564206E6F77210D0A00AC
:1021400000000000C0FFDF400D0A4A6F6720737473
:1021500065702069732073657420746F2025332E99
:10216000336620560D0A0000F4060020F7A001F0A7
:1021700031FD6420FEF702FE72B6FB48006820F4D1
:102180008000F94908600846006820F400100860E3
:10219000F648F749086000BFBFF34F8FF548006865
:1021A00000F4E060F4490843001DF2490860BFF301
:1021B0004F8F00BF00BFFEE7F048C0F850B0F0A05E
:1021C00001F008FDED48006DB0B1EC48406D20F025
:1021D0000100401CE94948650846006D642801DD9E
:1021E0006420086508F0EAFF0AF0C6FBE349086DC1
:1021F000E9490968884710E0E048006D68B9DF48A0
:10220000406D20F00100DD49486508F0D2FF002054
:10221000E149096888470AF0AFFB0020099018E0FF
:10222000002705E00020DD4901EB870108607F1CE5
:102230000A2FF7DBD148D0F850B0D849039808608E
:102240000846C0F804B00020099002E00020099080
:1022500000BF00BF01F0BBB8162028802820A8705E
:10226000287940F0800028712822CC4920460BF0C4
:1022700025F801200990EDE7C04AD2F88810106DCA
:1022800004F0B2FBBD4890F8300000F03000102898
:1022900004D0202811D0302827D117E07088B74902
:1022A000C860002008610846C068002801DA0020E4
:1022B000C860BBA001F08EFC23E07088AF49C86005
:1022C00000200861BCA001F085FC1AE07088AB49D1
:1022D000C860002008610846C068002801DA0020B4
:1022E000C860BBA001F076FC0BE07088A3490969C7
:1022F0000844A249C86000200861BDA001F06AFC42
:1023000000BF00BFA6E740F2456028800420A87007
:10231000287940F08000287101202080B84880880A
:1023200060800120099095E7B6F80280B6F8049025
:1023300003F0D2F91090B8F1010F06D0B8F1020FF6
:102340000CD0B8F1030F1BD111E04B208B49086072
:1023500003F043F901208949486011E0642087496E
:10236000086003F03AF900208449486008E09620AC
:102370008249086003F031F900208049486000BFBD
:1023800000BFB9F1010F06D0B9F1020F12D0B9F1B7
:10239000030F2DD11DE07948006B40F00200774912
:1023A00008630846006B20F00C000863012003F06E
:1023B000B2F91EE07148006B40F004006F490863F9
:1023C0000846006B20F00A000863022003F0A3F91E
:1023D0000FE06A48006B40F008006849086308464F
:1023E000006B20F006000863032003F094F900E07E
:1023F00000BF00BF2EE7614890F8300000F00E00EB
:10240000022806D0042807D0082808D14FF0030975
:1024100006E04FF0010903E04FF0020900E000BFC1
:1024200000BF03F059F94B2804D0642805D0962842
:1024300009D105E04FF0010808E04FF0020805E07F
:102440004FF0030802E04FF0010800BF00BF40F268
:10245000D67028800A20A870287940F08000287162
:1024600001202080A4F80280A4F804900020E080DD
:10247000208101200990EDE677882C22614962488D
:102480000AF061FF90223D495F482C300AF05BFF63
:1024900050225E495C48BC300AF055FF49F65A208C
:1024A0005949091FC1F81001FEF7DAFF58A001F0E1
:1024B00091FBCFE65B48C07807900798012802D0CF
:1024C000079803281DD103F00AF9022819D1012029
:1024D00003F008F9294890F8300010F0100F03D0ED
:1024E000012003F06EF902E0002003F06AF9234AAC
:1024F0005168D2F88C0003F04EF92049C8600020E2
:1025000008610798022802D00798042812D103F026
:10251000E6F801280ED1002003F053F9022003F061
:10252000E1F8164A5168906903F024F91349C8612B
:10253000002008628EE640F2426028800120A870E8
:1025400003F0CDF801286FD16FE06DE00D0A456E04
:10255000746572696E6720626F6F746C6F61646519
:10256000722E2E2E0D0A000030380240EFBEADDE76
:10257000F01F00200CED00E00000FA05A828002064
:102580000D0A4272696768746E65737320636861CF
:102590006E6765210D0A000078020020F406002015
:1025A0000D0A534F46545741524521202B20455880
:1025B0005420494E0D0A00000D0A534F465457410E
:1025C000524521202B20504F54204F4E0D0A000021
:1025D0000D0A534F46545741524521202B20504F4E
:1025E00054202B2045585420494E0D0A000000006D
:1025F0000D0A534F465457415245210D0A00000021
:10260000B4290020382900209827002064290020C0
:102610000D0A5361766564204545506172616D73A2
:102620000D0A0000480000200220E87001200990F7
:1026300010E6FB4AD2F88810106D04F0D5F9F8487E
:1026400090F8300000F03000102804D0202811D07D
:10265000302830D11DE07088F149C861002008623F
:102660000846C069002801DA0020C861EDA001F029
:10267000B1FA2FE07088EA49C86100200862084674
:10268000C069002801DA0020C861EDA001F0A2FABB
:1026900020E07088E249096A0844E149C8610020E5
:1026A00008620846C069002801DA0020C861EDA070
:1026B00001F090FA0EE07088D949C86100200862E4
:1026C0000846C069002801DA0020C861EDA001F0C9
:1026D00081FA00BF00BFD248C169F1A001F07AFAC7
:1026E000B8E54FF4C96028800420A870287940F02C
:1026F0008000287101202080C948808C60800120E2
:102700000990A7E570880690069830B101282AD074
:10271000022856D0032876D176E0002003F04BF84B
:10272000BF48006B20F01000BD4908630846006BED
:1027300020F0200008630846C06809690844B849C9
:10274000C86000200861DB498863B548806E40F0AE
:10275000100048630020B249886603F032F8D6A022
:1027600001F038FA79E0002003F025F8AC48006B5E
:1027700020F02000AA4908630846C0680969084497
:10278000A749C86000200861CA498863A448806ED0
:1027900040F0100048630020A1498866012003F042
:1027A00010F89F48006B40F010009D4908630846F0
:1027B000C068096908449A49C860CAA001F00AFAC9
:1027C0004BE0012002F0F7FF9548006B40F020003D
:1027D000934908630120B74988630846406B9049D4
:1027E00088660846806E20F010008866002002F09F
:1027F000E8FF8B48006B20F0100089490863C8A0EF
:1028000001F0E8F929E027E0012002F0D4FF844834
:10281000006B40F02000824908630120A5498863CD
:102820000846406B7E4988660846806E20F010009E
:102830008866012002F0C5FF7948006B40F0100067
:10284000774908630846C068096908447449C86044
:10285000BFA001F0BFF900E000BF00BFFAE4002014
:1028600006906F4890F8300000F03000102804D037
:10287000202807D030280FD109E0069840F0010049
:1028800006900AE0069840F00200069005E00698DF
:1028900040F00300069000E000BF00BF40F254602B
:1028A00028800420A870287940F080002871012039
:1028B00020800698608001200990CBE43088059044
:1028C000059800EB401000EB4000FF21B0FBF1F059
:1028D00005900A210598B0FBF1F000EB8000400064
:1028E00005904F4905980865086DA849096888470B
:1028F000B0E44B48006D05900598C0EB00206321C3
:10290000B0FBF1F00590A2A0059901F063F940F247
:10291000D37028800220A870287940F080002871A8
:10292000059820800120099094E4708800EE100A38
:10293000B8EE400ADFED9C0A80EE201AB1EE000AE4
:1029400021EE000A994880ED080AB08800EE100ACE
:10295000F8EE400A9FED961A9FED960A00EE810A66
:10296000DFED950A80EE201A904880ED091A90ED6F
:10297000090A10EE101A08460CF03EFA41EC100B52
:10298000B0EE408AF0EE608A884890ED080A10EEBA
:10299000101A08460CF030FA41EC100BB0EE409AD9
:1029A000F0EE609A8DED008B53EC192B83A001F0B3
:1029B00011F94FE440F2576028800620A87028796A
:1029C00040F08000287101202080784890ED080AAE
:1029D000DFED750A20EE200AF1EE000A80EE201AE3
:1029E00011EE10BA58460CF032FA00F30F00608076
:1029F0006E48D0ED090A9FED701A9FED6E0A10EE39
:102A0000810ADFED6B0A80EE201A11EE10BA5846EB
:102A10000CF01DFA00F30F00A0800120099019E4CA
:102A2000A82800200D0A2045585420494E2028632C
:102A30006C6F736564206C6F6F70290D0A00000065
:102A40000D0A20506F74202620536F6674776172D0
:102A5000652028636C6F736564206C6F6F70290D3F
:102A60000A0000000D0A20506F742026204558549B
:102A700020494E2028636C6F736564206C6F6F7003
:102A8000290D0A000D0A20536F6674776172652064
:102A900028636C6F736564206C6F6F70290D0A007A
:102AA0000D0A506F736974696F6E2069733A20253F
:102AB000640D0A00642900200D0A20536F667477A4
:102AC000617265206F6E6C792C20506F7420747564
:102AD000726E6564206F6666206279204150540DE5
:102AE0000A0000000D0A20536F667477617265203A
:102AF000706C75732065787465726E616C20696E98
:102B00007075742C20506F74207475726E6564201B
:102B10006F6666206279204150540D0A0000000063
:102B20000D0A20536F66747761726520706C75733F
:102B300020706F742C20506F74207475726E6564F1
:102B4000206F6E206279204150540D0A0000000071
:102B50000D0A20536F66747761726520706C75730F
:102B600020706F7420616E642065787420696E70C7
:102B700075742C20506F74207475726E6564206FAC
:102B80006E206279204150540D0A00007802002026
:102B90000D0A4272696768746E6573732069733ACF
:102BA0002025640D0A0000000090324538290020DD
:102BB00007F0563E0AD7233C00401C460D0A5049F8
:102BC0003A2050203D2025662C2049203D202566B6
:102BD00000000000B6F802B0B0880390BBF5007F9B
:102BE00003DCF849039841F82B00F64850F82B1005
:102BF000F5A000F0EFFFEAE3F94836F8021F0160A4
:102C00007188416071688160B168C160F16801617B
:102C100031694161B18A8161D6F81610C161718B49
:102C2000A6F102060162D2E340F2057028801E2060
:102C3000A870287940F08000287101202080E848A1
:102C400000886080E6488088A080E5488068C4F8F5
:102C50000600E348C068C4F80A00E1480069C4F807
:102C60000E00DF484069C4F81200DD48008BE082A6
:102C7000DB48C069A061DA48008CA083012009907C
:102C8000A5E30220D7490860D7A000F0A3FF9EE388
:102C90000320D4490860D9A000F09CFF97E3708816
:102CA000DB49C865B0880866D6F8060048667089B2
:102CB00088660846006D0E900846D0F884000D9096
:102CC0000846D0F888000C90F068C866306908673C
:102CD000B08A0865F08A48B9308B38B941F2707013
:102CE000C1F884000220C1F8880011E0308BC84987
:102CF000C1F88800F08A20B96FF00040C1F8840064
:102D000006E0F08A4FF416714843C149C1F88400C7
:102D1000BF48016D0E9881420BD1BD48D0F8841098
:102D20000D98814205D1BA48D0F888100C9881429C
:102D300001D0012000E000200B90B548006D642810
:102D400002DD6420B2490865B14AD2F88810106DDE
:102D500003F04AFEAE48806E18B9002002F02BFD49
:102D60000BE0AB48806E012803D0A948806E022892
:102D700003D1A748806EA7494863A548006E012883
:102D800003D16D20A24988650EE0A148006E02289B
:102D900003D10B209E49886506E09D48006E0328FC
:102DA00002D101209A49886511E340F2F27028802F
:102DB0002220A870287940F080002871012020800E
:102DC0009348B0F85C0060809148B0F86000A08043
:102DD0008F48406EC4F806008D48B0F868006081E6
:102DE0008B48C06EE0608A48006F20618848B0F868
:102DF0005000A0828648D0F884006FF000418842DD
:102E000002D10020E08207E08148D0F884004FF42E
:102E1000167190FBF1F0E0827D48B0F888002083C5
:102E2000002706E0002104F11A0000EB47000180B2
:102E30007F1C042FF6DB01200990C8E270887449DA
:102E40004867B088C867F188714881673189C0F8E0
:102E50008010416F806F0A2202FB00100F900F98C4
:102E6000172872D008DC02280DD003282BD0142894
:102E700049D016286AD16CE01E2868D0202867D077
:102E80002128F7D1D7E16248C06F012806D16148F7
:102E9000806C20F001005F4988640AE05C48C06FE4
:102EA000022806D15B48806C20F00100401C594983
:102EB000886402205749086357A000F08BFE60A089
:102EC00000F088FEF7E15248C06F012806D1514852
:102ED000806C20F001004F4988640AE04C48C06FC4
:102EE000022806D14B48806C20F00100401C494963
:102EF00088640220474908635BA000F06BFE50A085
:102F000000F068FED7E14248D0F88000012806D1E1
:102F10004048806C20F002003E4988640BE03C4849
:102F2000D0F88000022806D13A48806C20F00200D8
:102F3000801C3849886402203649086354A000F098
:102F400049FE5FA000F046FEB5E102E1ACE1DDE044
:102F500038E12F48C06F012806D12E48806C20F040
:102F600001002C4988640AE02948C06F022806D174
:102F70002848806C20F00100401C264988642448C1
:102F8000D0F88000012806D12248806C20F0020091
:102F9000204988640BE01E48D0F88000022806D142
:102FA0001C48806C20F00200801C1A4988640220B2
:102FB000184908634BA000F00DFE41A000F00AFE86
:102FC00079E10000C42F00200D0A44697265637422
:102FD0002077617665666F726D3A2025640D0A0070
:102FE000C4370020940100200D0A4C55542053741E
:102FF0006172746564210D0A000000000D0A4C55D1
:10300000542053746F70706564210D0A0000000035
:10301000A8280020642900200D0A492F4F31206381
:103020006F6E6669677572656420746F207374656E
:103030007070696E67202E322E210D0A000000008C
:103040000D0A492F4F32206973206E6F7420636F11
:103050006E6669677572656420746F20737465703D
:1030600070696E67210D0A000D0A492F4F312063E8
:103070006F6E6669677572656420746F207374651E
:103080007070696E67202E332E210D0A000000003B
:103090000D0A492F4F31206973206E6F7420636FC2
:1030A0006E6669677572656420746F2073746570ED
:1030B00070696E67202E32302E20210D0A0000002C
:1030C0000D0A492F4F3220636F6E6669677572650E
:1030D0006420746F207374657070696E67210D0AC7
:1030E000000000000D0A492F4F3120636F6E6669A2
:1030F000677572656420746F207374657070696E93
:1031000067202E32322E20210D0A0000F948D0F817
:103110008000012806D1F848806C20F00200F649B2
:1031200088640BE0F348D0F88000022806D1F2480A
:10313000806C20F00200801CEF4988640220EE4978
:103140000863EEA000F046FDAFF28C0000F042FDF7
:10315000B1E0E848C06F012806D1E748806C20F054
:103160000100E54988640AE0E248C06F022806D100
:10317000E148806C20F00100401CDF498864DD4894
:10318000D0F88000012806D1DB48806C20F00200D6
:10319000D94988640BE0D748D0F88000022806D1CE
:1031A000D548806C20F00200801CD349886402203E
:1031B000D1490863DDA000F00DFDAFF2FC0000F086
:1031C00009FD78E0CB48C06F012806D1CA48806C61
:1031D00020F00100C84988640AE0C648C06F022890
:1031E00006D1C548806C20F00100401CC2498864AB
:1031F000C048D0F88000012806D1BF48806C20F07C
:103200000200BD4988640BE0BA48D0F8800002286B
:1032100006D1B948806C20F00200801CB649886451
:103220000220B5490863CBA000F0D4FCAFF27010C7
:1032300000F0D0FC3FE0AF48C06F012806D1AE4897
:10324000806C20F00100AC4988640AE0A948C06F96
:10325000022806D1A848806C20F00100401CA64935
:103260008864A448D0F88000012806D1A248806C68
:1032700020F00200A04988640BE09E48D0F880004E
:10328000022806D19C48806C20F00200801C9A49DC
:103290008864022098490863B8A000F09BFCAFF254
:1032A000E01000F097FC06E0BEA000F093FC0020C8
:1032B0009149086300BF00BF0020099087E040F2F9
:1032C000F57028801620A870287940F080002871B9
:1032D000012020808748B0F8740060808548B0F8ED
:1032E0007C00A0808348B0F87800E0808148B0F886
:1032F000800020810120099069E0B74890F802A081
:103300007C48C06F01280ED17A48406F0A280AD144
:103310001AF0010F03D00120FDF765FA15E0002037
:10332000FDF761FA11E07348C06F02280DD17148B2
:10333000406F0A2809D11AF0010F03D00020FDF7D1
:1033400052FA02E00120FDF74EFA6A48D0F88000F8
:1033500001280ED16748806F0A280AD11AF0020F9F
:1033600003D00120FDF765FA16E00020FDF761FAB1
:1033700012E06048D0F8800002280DD15D48806FCF
:103380000A2809D11AF0020F03D00020FDF751FAE4
:1033900002E00120FDF74DFA0020099017E040F20D
:1033A000616028800A20A870287940F08000287188
:1033B0000120208089488088608088480088A0801B
:1033C000FDF7BFFFC4F806000120099000BF00BF51
:1033D000099870B19DF8540010F0800F03D09DF84B
:1033E0005200801D00E00620129014A8129902F0ED
:1033F00065F82BB0BDEC048BBDE8F08F7FB50646B9
:10340000774B0FCB8DE80F00744D50208DF80500E1
:10341000F0B28DF80000300A8DF801000DF10604BD
:1034200001202080A88860802888A080FDF789FF7F
:10343000C4F806001021684602F040F8A868401C55
:10344000A8607FBD1CB50BF04FFDFCF795FF05464E
:10345000012D00D100E0002027490864FDF768FB3A
:103460006420FDF79BFCFDF7B3FBFDF7D6FB0020C6
:10347000FDF7C9FD0120FDF7AFFC4FF480705949FD
:10348000886100F067FD01F091FEFDF739FA00F068
:103490004DFC01F0F7FA01F0A3FD02F0C3FA02F0CF
:1034A000A9FE62B6C820FDF769FC0120FDF719FAF4
:1034B00001F00DFCC820FDF761FC4BA000F08AFB79
:1034C00052A000F087FB48A000F084FB58A15AA04E
:1034D00000F080FB9FED5E0B53EC102B5EA000F024
:1034E00079FB6548006810F4005F01D063A0CCE070
:1034F000CAE00000A8280020642900200D0A492FF6
:103500004F31206973206E6F7420636F6E66696738
:103510007572656420746F207374657070696E676E
:10352000202E33302E20210D0A0000000D0A492FD5
:103530004F3120636F6E6669677572656420746FC2
:10354000207374657070696E67202E32332E210DE2
:103550000A0000000D0A492F4F3120636F6E666923
:10356000677572656420746F207374657070696E1E
:1035700067202E33322E20210D0A00000D0A492F1C
:103580004F3120636F6E6669677572656420746F72
:10359000207374657070696E67202E33332E20217E
:1035A0000D0A00000D0A492F4F3120616E64204939
:1035B0002F4F3220617265206E6F7420636F6E66CC
:1035C00069677572656420746F20737465707069C3
:1035D0006E67210D0A00000048000020B429002079
:1035E00000EF0008000002400D0A2D2D2D2D2D2D7D
:1035F0002D2D2D2D2D2D2D2D2D2D2D2D2D2D2D2DFB
:103600002D2D2D2D2D2D2D2D2D2D2D000D0A7C2018
:103610004B505A313031205069657A6F204D6F74AC
:103620006F7220436F6E74726F6C6C6572207C00D9
:1036300030313030313100000D0A0A4669726D7741
:10364000617265207265763A092530367300000094
:1036500000000000000065400D0A53797374656D29
:1036600020636F726520636C6F636B203D20252E95
:103670003266204D487A0000100802406F6E2074B8
:103680006865206875620000F2A00146F4A000F0B1
:10369000A1FAF648006C012801D1F5A000E0F5A0E0
:1036A0000146F6A000F096FA002304221102F94820
:1036B00001F0F8FBF7480068002807DBF5480068D0
:1036C000632803DCF3480068F3490860012007F031
:1036D00099F9012D01D1022100E00121084607F0EE
:1036E000DAFB09F02DFAE148006C01280FD1EB4814
:1036F00002F035FAEA4806F0DAFFE749086806F012
:10370000CFFFE5480168E7A000F064FA08E0D74879
:10371000006C28B9002002F022FAE74806F0C7FF43
:10372000002009F084FA09F027F9E44807F058FF6F
:103730004FF4207009F042FA07F040FD3C20E049C8
:103740000968884700234FF48A721946DD4801F062
:10375000A9FBDC480068DC4990FBF1F01D2802D091
:10376000DA48D84908603220FDF708FBD548D0F880
:103770001001A0F51A415A3937D12C22D149091D1F
:10378000D34809F0E0FDD248806AA0F5B441A539DC
:1037900009D12C22CB49091DCD4809F0D4FDCD48D3
:1037A00000F018FA04E001F00EFBCBA000F012FAD2
:1037B0009022C4493031D84809F0C5FDD648D0F828
:1037C000840038B941F27070D349C1F884000220F6
:1037D000C1F88800D148C06820F080008030CF490F
:1037E000C860CFA000F0F6F904E0D7A000F0F2F92D
:1037F00001F0E9FAC849086801F0EFFEC64890F800
:10380000300000F00E00022804D0042806D008285A
:103810000CD107E0012001F07EFF08E0022001F05A
:103820007AFF04E0032001F076FF00E000BF00BF54
:10383000012001F0C0FFB84890F8300010F0100FE0
:1038400003D0012001F0BDFF02E0002001F0B9FF2C
:103850009F48806900909E48C0690190DDE90001A1
:1038600001F0D3FFAC48006B20F00100AA490863C7
:10387000012001F037FFA8484068012803D100204B
:10388000FDF705F802E00120FDF701F80120FDF742
:1038900007F8B5A000F09EF94FF47A70FDF76EFAC4
:1038A0009D48C06F012806D17048806C20F001004F
:1038B0006E4988640AE09848C06F022806D16B48B8
:1038C000806C20F00100401C684988649248D0F860
:1038D0008000012806D16548806C20F00200634911
:1038E00088640BE08C48D0F88000022806D15F483D
:1038F000806C20F00200801C5C49886402205B49D7
:103900000863A1480068012131EA502005D1032055
:103910005649886209F030F80EE09CA009F022F8C0
:103920009EA2A0A1A24809F0A9F90221002007F057
:10393000D7FE9F4809F016F8FDF742F9064601E068
:1039400006F088FFFDF73CF907463146FDF73CF9E4
:10395000B0F5FA6FF4DB7048006D60B96E48406DE9
:1039600020F001006C49486507F023FC0020544911
:10397000096888470DE06849086D5149096888471A
:103980006548406D20F00100401C6349486507F020
:1039900015FC00206049C86008618861C861086240
:1039A0004862886255E001F03BFD0446902C02D14C
:1039B00080A0FDF7C5FC8648D0F80001012805D19C
:1039C000FDF798FD02208249C1F8000101F08BFD4E
:1039D000FDF7FCF9B8B35148007BC0F3001018B1F3
:1039E00040F26160FFF70AFD2048C06B00280EDD41
:1039F0001E4890F83C10C06B401E1C4AD06311F06A
:103A0000040F02D007F0D5FB01E007F0D7FB02F06E
:103A1000E0FF1649086202F0B2FF1449486203F061
:103A200027F805F0AAF906F06EF906F0EEFA06F0AE
:103A300059FC01F008FF0D48806A032803D10020DB
:103A400035498861486206F005FF00F03DF900F055
:103A5000CFFEA8E77374616E64616C6F6E650000E1
:103A60000D0A4D6F64653A2025730000642900201B
:103A70004C4344004F4C4544000000000D0A44698B
:103A800073706C617920747970653A202573090A26
:103A900000000000400000203C00002065A6000857
:103AA0004BA600080D4C434420636F6E7472617323
:103AB000743A202564090A001FA600085C08010862
:103AC000780200209427002040420F004081BA0174
:103AD0003829002010EF00080D0A556E697420691E
:103AE00073206E6F742063616C69627261746564C7
:103AF0002E2044656661756C742063616C69627226
:103B00006174696F6E2064617461206C6F616465BB
:103B100064210D0A00000000A8280020B42900201C
:103B20000D454550524F4D20636F6E74656E742085
:103B30006C6F616465642073756363657373667528
:103B40006C6C79210D0A00000D454550524F4D20F7
:103B5000636F6E74656E74206E6F74206C6F616439
:103B60006564210D0A0000000D0A50726573732010
:103B7000456E74657220666F722064656275672099
:103B80006D656E752E0000001008024054686F725B
:103B90006C616273204B505A31303100313030311A
:103BA00031000000537752657620302530347300A1
:103BB0001C070020496E76616C69642041505420D6
:103BC0006D65737361676520666F726D61742E0039
:103BD000480000200FB438B505A800904D49096889
:103BE0004D4A12688818009A049909F035F804467D
:103BF0004948006820444849086000200090204659
:103C000038BC5DF814FB2DE9F04105460E4600274F
:103C10004248006808B9424805603DE0082C04D0DD
:103C20000A2C1DD00D2C20D119E03C480068A8B109
:103C300008213CA0FFF7CEFF20213AA0FFF7CAFFE2
:103C4000082138A0FFF7C6FF34480068401E3349FA
:103C5000086033480068401E314908601BE000BF1F
:103C6000012700202D49086015E02C480068B0426B
:103C700010D221462BA0FFF7ADFF294909680C702F
:103C800027480068401C2649086024480068401CFA
:103C90002249086000BF00BFFCF7F7FE0446A0F50C
:103CA0007F41FF39BAD16FB100201D490968087002
:103CB0001B480068401C1A49086008460068401B01
:103CC000BDE8F0810020FBE710B513480068B0B1F3
:103CD000FCF719FF98B1104801680E480068FCF71E
:103CE000F0FE0C4800681049884202D101F580506E
:103CF00000E00D480749086000200749086010BD32
:103D000010B500E000BFFCF7FEFE0028FAD0FFF778
:103D1000DBFF10BD20000020240000202800002030
:103D20002C000020256300003407002008B58448DB
:103D3000006840F00100824B186081481430006830
:103D400040F480507E4B143318607E48006820F4A5
:103D500080407C4B18601846006840F400401860B2
:103D60001846406820F0800058601846C06820F46B
:103D70004040D8601846806840F44040986018463B
:103D8000006A20F0704040F0A040186218460068B9
:103D900020F4806018601846006840F400601860E5
:103DA0001846406820F0200058601846C06820F48B
:103DB0004060D860202098611846806840F44060D8
:103DC00098601846006A20F4700040F4A000186261
:103DD0005B48006840F00100594B18601020594BB7
:103DE00098611846006840F48070186018460068B2
:103DF00020F4007018601846406820F010005860E9
:103E00001846C06820F44070D8601846806840F4B6
:103E1000407098604C48808820F040004A4B988061
:103E20001846008820F0400018802A23B3FA83F354
:103E3000C3F12001481E382303EAC00242F4417056
:103E4000414B18801846808840F0020098803C481A
:103E5000006840F480003A4B18603C48006820F04D
:103E600001003A4B186000E000BF3848006810F0CD
:103E7000010FF9D14FF40060344B7C3B186033489C
:103E8000006820F06060314B18601846006840F010
:103E9000C06018601846006840F4806018601846DA
:103EA000006840F04000186027480C30274B08336A
:103EB000186000201B1F18602348008840F0400055
:103EC000214B188018468089009001208840204BA3
:103ED000B3FBF0F008BD08B1102101E04FF48011F0
:103EE000184A91617047194A126822F00102174B73
:103EF0001A6000E000BF154A126812F0010FF9D1F4
:103F0000124A0C321060114A121D1160D2140F4B6C
:103F10007C3B1A600D4A126842F001020B4B1A609A
:103F200070470A488438006810F4006F06D00648CD
:103F3000008910F0800F01D1012070470020FCE7BC
:103F400030380240000002400030014088640240E6
:103F500000BD01053948006840F00300374908609A
:103F60003748006820F080403549086008460068FE
:103F700040F0004008600846C06840F08040C860DB
:103F80000846C06820F00040C8600846406A20F03B
:103F9000704040F080512A4841622A48006820F071
:103FA0004000284908600846006840F0800008602A
:103FB00024480C30006840F0400022490C31086071
:103FC0000846006820F0800008601E482030006825
:103FD00020F4704040F480501A492031086017489E
:103FE0001030006840F001001449103108604FF0B3
:103FF000FF300906C8620846008B40F201110843F1
:1040000089070883022008814007008840F00100EA
:10401000088070474FF08040406A70474FF0804101
:10402000098821F001014FF0804211801146486259
:10403000098841F0010111807047000030380240CA
:10404000000002400004024070472DE9F0419EB09C
:10405000074600201B901C901D9014261BAAFEA151
:10406000384608F0D9FF00240AE0FC4800EB0410B1
:1040700041681BA809F09AF908B9264602E0641CB9
:10408000142CF2DD00BF142E74D2DFE806F00A21F2
:104090003D545C747AA9B7C7CDEFEDECEBEAE9E8E3
:1040A000E7E617AAEEA1384608F0B6FF179909B15E
:1040B000012100E000210846FCF795FB179808B1A4
:1040C000012000E000200146E7A0FFF783FD76E332
:1040D000EC48C06F012807D1FCF774FB80464146CD
:1040E000E9A0FFF777FD0EE0E648C06F02280AD18D
:1040F000FCF768FB08B9012000E00020804641463B
:10410000E1A0FFF767FD5AE317AAD5A1384608F0EA
:1041100083FF179909B1012100E000210846FCF74F
:1041200088FB179808B1012000E000200146DCA0C0
:10413000FFF750FD43E3FCF769FB80464146DFA0F3
:10414000FFF748FD3BE317AAC5A1384608F064FF16
:10415000179909B1012100E000210846FCF723FB73
:10416000179808B1DBA000E0DBA00146DBA0FFF759
:1041700031FD24E3F1E202F008F9DFA0FFF72AFDA8
:104180001DE318AAE1A1384608F046FFE14800788F
:10419000E149086018A809F072F8DF4908730024A3
:1041A00005E018A8015DDC48001D0155641C18A835
:1041B00009F065F8A042F4D80020D7494873887305
:1041C000084602F05EFA0020D449086018A809F0F9
:1041D00056F88046424618A9D1A0FFF7FBFCEEE254
:1041E00017AA9FA1384608F017FFCA491798087008
:1041F00008460178D3A0FFF7EDFCE0E217AA98A1EA
:10420000384608F009FF1799C8B2002102F0D3F828
:104210001798C1B2D1A0FFF7DDFCD0E202F06DFA31
:10422000D5A0FFF7D7FCCAE217AA8DA1384608F03F
:10423000F3FE1798012803D10005D449086002E075
:104240001020D2490860179808B9D1A000E0D2A088
:104250000146D3A0FFF7BEFCB1E270E25AE24CE2A5
:1042600025E20BE2F7E167E02BE0FFE715A816ABCC
:1042700017AAD4A10090384608F0CEFE17991498DA
:1042800061F3154014901699149861F30E20149060
:10429000DDE9140161F3060014901498FCF7B8FEF0
:1042A000149800F07F03C0F30622C0F30541C8A0B4
:1042B000FFF790FCCFA0FFF78DFC0220CE490860ED
:1042C0007DE215A816AB17AABEA10090384608F0EB
:1042D000A3FE1799149861F3154014901699149839
:1042E00061F30E201490DDE9140161F306001490CF
:1042F00000211498FCF7B2FEC048C068042808D119
:104300000020FCF796FABE48BC49086101204861CC
:1043100007E00020FCF767FABA48B84908610120B5
:104320004861149800F07F03C0F30622C0F30541F2
:10433000B5A0FFF74FFC42E217AA49A1384608F0A2
:104340006BFEBA480468B948283800681590B74829
:1043500024380068159814901498C0F303401499F9
:10436000C1F3015101EB810100EB4100169014985B
:10437000C0F303201499C1F3023101EB810100EB7A
:1043800041001590149800F00F001499C1F3021128
:1043900001EB810100EB41054FF461611698484340
:1043A0001599C1EB011100EB8100284417990844CD
:1043B00017909F49179890FBF1F201FB120017909C
:1043C0004FF46161179890FBF1F016900A2116984E
:1043D00090FBF1F1149861F3155014900A2116988E
:1043E00090FBF1F201FB1201149861F31340149059
:1043F0004FF46161179890FBF1F201FB12001690E7
:104400003C21169890FBF1F01590169890FBF1F274
:1044100001FB12050A21159890FBF1F1149861F344
:104420000E3014900A21159890FBF1F201FB120155
:10443000149861F30B2014900A2095FBF0F1149866
:1044400061F3061014900A2095FBF0F100FB115166
:10445000149861F30300EDE02539730054EF000870
:10446000252A7325640000000D0A547269672049EB
:104470002F4F2023312073657420746F2025640D25
:104480000A000000A82800200D0A5472696720491C
:104490002F4F2023312069732025640D0A0000006E
:1044A0000D0A5472696720492F4F2023322073650B
:1044B0007420746F2025640D0A0000000D0A5472E8
:1044C000696720492F4F2023322069732025640D0E
:1044D0000A0000006F6E00006F6666000D0A43411F
:1044E0004E207465726D696E6174696F6E206973B8
:1044F0002025730D0A0000000D0A43414E207374FD
:1045000061727465642E0D0A00000000252A73256F
:10451000387300003800002084270020300000207D
:104520000D0A43414E206D73672073656E743A2007
:10453000222573222C2025642062797465732E0D48
:104540000A0000000D0A43414E204944207365745F
:1045500020746F2025640D0A000000000D0A4341FD
:104560004E2052782066696C746572202564206143
:10457000646465642E0D0A000D0A43414E20737475
:104580006F707065642E0D0A00000000180802406C
:10459000696E7075740000006F757470757400003A
:1045A0000D0A53796E63682070696E2069732073F9
:1045B000657420746F20626520616E2025730D0A7A
:1045C00000000000252A7325582025582025580072
:1045D0000D0A5254432074696D652073657420740C
:1045E0006F20253032583A253032583A253032582B
:1045F000000000000D0A00003400002064290020A3
:1046000033080008E70700080D0A52544320616C84
:1046100061726D2073657420746F20253032583AB2
:10462000253032583A253032580000002828004002
:1046300080510100149021461498FCF70FFD149846
:1046400000F07F03C0F30622C0F30541AFF248003B
:10465000FFF7C0FAB3E017AAAFF2FC11384608F032
:10466000DBFC1798FCF738FC179808B18DA000E028
:104670008EA001468FA0FFF7ADFAA0E017AAAFF217
:104680002021384608F0C8FC179802F08FF840B98E
:104690008E491798C8600846C1688DA0FFF79AFA3E
:1046A00004E08A48C16891A0FFF794FA87E015A852
:1046B00016AB17AAAFF2F4010090384608F0ACFC34
:1046C0001799149861F3154014901699149861F392
:1046D0000E201490DDE9140161F306001490149883
:1046E000FCF791FC149800F07F03C0F30622C0F39E
:1046F00005418AA0FFF76EFA61E09248006810F465
:10470000007F02D190A0FFF765FA4FF080709849C2
:10471000886154E017AAAFF2B821384608F07CFC53
:104720001798FCF7CEF8179810B1AFF2582001E0B7
:10473000AFF25C2001468FA0FFF74CFA3FE017AACA
:10474000AFF2E421384608F067FC8F48179950F81B
:1047500021208EA0FFF73EFA31E000209749086043
:1047600097A0FFF737FA002423E0984800EB0410E5
:104770008068007840B9954800EB041094A1426825
:10478000684608F07BFA0BE0904800EB0410836861
:104790008E4800EB04108FA14268684608F06EFA5C
:1047A0008A4800EB04106946C2688CA0FFF712FA31
:1047B000641C142CD9DB8CA0FFF70CFA00BF00BFDF
:1047C0001EB0BDE8F08110B54F218848FFF71BFAF5
:1047D000044654B104E000222046641C83490A5474
:1047E0004F2CF8DD8148FFF730FCFFF76DFA10BD64
:1047F000FEB5FFF7E8FFFFF727FC01F097FE050085
:1048000013D0002404E0281D005D0DF80400641C92
:10481000287BA042F7DC0021601C0DF800102A7BE9
:104820006B4673A02968FFF7D5F901F09EFF064695
:104830004EB17848006830B9314677A0FFF7CAF921
:10484000012074490860FEBD00B585B05B48007862
:1048500010F0020F18D07848006802907648283887
:10486000006804907448243800680390049801900C
:1048700002980090019800F07F03C0F30622C0F375
:1048800005416EA0FFF7A6F905B000BD10B574484C
:10489000006820F080507249086072A0FFF79AF912
:1048A00010BD00006D61737465720000736C6176F9
:1048B000650000000D0A5254432073796E636865E9
:1048C00064206173206120257300000064290020AA
:1048D0000D0A53796E6368206D6F6465207365748B
:1048E00020746F2025642E0D0A0000000D0A496E09
:1048F00076616C696420706172616D657465722C9B
:104900002073796E6368206D6F64652072656D61D8
:10491000696E732025642E0D0A0000000D0A5254A2
:10492000432077696C6C2073746172742061742009
:10493000253032583A253032583A253032580D0A4F
:1049400000000000100802400D0A55736520706FCA
:1049500077657220627574746F6E20746F20747541
:10496000726E2063756265206F66662E0D0A000008
:10497000000002400D0A48562072656C617920697A
:1049800073202573200D0A00C42F00200D0A4C55FA
:10499000542061727261792076616C75652066724F
:1049A0006F6D20706F736974696F6E202564206964
:1049B000733A202564200D0A000000003400002016
:1049C0000D0A4D656E753A0A0000000054EF0008AC
:1049D00025733A0025732025733A00000D0A252D12
:1049E00031307309257300000D0A3E003427002082
:1049F0000D0A43414E2052782066726F6D20256467
:104A00002C2025642062797465733A202225732254
:104A10000D0A0000300000200D0A43414E2065724F
:104A2000726F723A20737461747573203D20307810
:104A300025582E0D0A000000282800400D0A537941
:104A40006E63682054696D65203D20253032583AE8
:104A5000253032583A253032582E256400000000A7
:104A600004ED00E00D0A46656174757265206E6F95
:104A7000742079657420696D706C656D656E746500
:104A80006421000018B58B48006840F00200894995
:104A9000086088481030006840F480408549103133
:104AA00008608548006820F0804083490860084617
:104AB000006840F000400860081D006820F40040D5
:104AC000091D08607C480C30006820F040407A499D
:104AD0000C310860081F006860F04040091F086042
:104AE0007548406A20F0704040F0A0417248416231
:104AF000006820F08060704908600846006840F057
:104B000000600860081D006820F40050091D08605E
:104B100069480C30006820F0406067490C3108603B
:104B2000081F006860F04060091F08606248406A22
:104B300020F4700040F4A0015F484162006820F05A
:104B400080505D4908600846006840F000500860E9
:104B500059480C30006840F0805057490C310860CB
:104B60000846006820F0005008605348406A20F072
:104B7000706040F0A061504841624E48006840F0CB
:104B800004004C49086088154C4908604B481838A7
:104B9000006840F4803049491839086008460068C8
:104BA00020F400300860081D006820F48070091DA2
:104BB000086042480C38006820F440303F490C3906
:104BC0000860081F006860F44030091F08603C4816
:104BD000008820F040003A490880081F008820F033
:104BE0004000091F088040F61430088008460088FD
:104BF00040F040000880081D008840F04000091D7A
:104C0000088024200121002807DA0A07140E2D4A03
:104C100000F00F031B1FD45403E00A07130E2A4AA7
:104C2000135400BF242000F01F02012191404209CB
:104C30004FF0E02303EB8202C2F8001100BF2048CE
:104C400008300088009018BD10B14FF4807101E069
:104C50004FF08071194A1160704708B1802101E05E
:104C60004FF40001154A11607047014600E000BF93
:104C7000134A121D128812F0020FF8D0104B08339D
:104C8000198000E000BF0E4A121D128812F0010FB9
:104C9000F8D00B4A0832128810B2704710B504469B
:104CA0000020FFF7D1FF2046FFF7DFFF0120FFF7CD
:104CB000CBFF10BD3038024000040240180802400B
:104CC0000438004018ED00E000E400E0704710B543
:104CD00000206D49086048606C49486008606C4974
:104CE000C860086148618861C8610862486288627A
:104CF000486388636548C06820F010006349C86055
:104D0000002088600846C06820F04000C86008465F
:104D1000C06820F020002030C8600846C06820F03D
:104D20008000C8604B205A49086001204860282054
:104D300008631422574956483C3008F004FB002011
:104D40005149C860AFF27B0008610020486188616A
:104D50000862888348628862C862886032204C4951
:104D6000086541F27070C1F884000220C1F8880023
:104D70000846406D20F00100401C48650846406D23
:104D800020F00200801C48650846406D20F00400B9
:104D90004865DA2048660220C8650120886603203D
:104DA00008660120886641F21310C8664000086753
:104DB000002048670120C86700213548816701212C
:104DC000C0F8801010BD41F23C503349088042F6D3
:104DD000F07088804FF4AA50488042F6FC712E484B
:104DE000C18041F282402C49888143F6D07008820C
:104DF00041F290412848C18143F6CB7141829FED39
:104E0000270A80ED080A9FED260A80ED090A002096
:104E100021498862704728201D49086332200865AF
:104E200041F27070C1F884000220C1F888004B2064
:104E30000860012048600846406D20F00200801C98
:104E40004865DA2048660220C8650120886603208C
:104E500008660120886641F21310C86640000867A2
:104E6000002048670120C8670021094881670121A7
:104E7000C0F880109FED090A074880ED080A9FEDF1
:104E8000080A80ED090A704764290020B42900202F
:104E9000A8280020F8F0000838290020FF5D0F3E08
:104EA000D29EDC392DE9F05F81460C4617469A46C2
:104EB0004FF0010B4E46E019B0F5006F02D3012010
:104EC000BDE8F09F002000F048F9032000F04DF904
:104ED000C4F3072000F049F9E0B200F046F94FF0C2
:104EE000000816E0002000F040F90546BAF1000F76
:104EF00002D106F8015B0AE0BBF1000F05D016F8FD
:104F0000011BA94201D1012000E00020834608F1E5
:104F10000108B845E6D3012000F01FF9BBF1010FED
:104F200001D00120CCE70020CAE72DE9F05F8146DF
:104F30000D461646A819B0F5006F02D30120BDE852
:104F4000F09FC8462C4643E004F01F07AC4200D057
:104F5000AFB9002000F001F9062000F006F90120A9
:104F600000F0FBF8002000F0F8F8022000F0FDF857
:104F7000C4F3072000F0F9F8E0B200F0F6F818F8F2
:104F8000010B00F0F2F81F2F03D0A819401EA04219
:104F90001DD14FF0000B012000F0DFF800BF002012
:104FA00000F0DBF8052000F0E0F8002000F0DDF86C
:104FB0008246012000F0D1F858460BF1010BB0F504
:104FC0007A7F01D90220BAE71AF0010FE7D1641CF9
:104FD000A819A042B8D8012000F0BFF80120AEE720
:104FE00008B56E48006840F004006C490860084647
:104FF000006840F00800086068481030006840F41D
:1050000000406649103108606548006820F08070F3
:10501000634908600846006840F000700860081D99
:10502000006820F48050091D08605D480C3000685D
:1050300020F040705A490C310860081F006860F089
:105040004070091F08605648406A20F4702040F400
:10505000C02153484162006820F480105049086024
:105060000846006840F400100860081D006820F43D
:105070008060091D08604A480C30006820F4401028
:1050800047490C310860081F006860F44010091F90
:1050900008604348406A20F4706040F4C0614048B2
:1050A0004162006820F480003D49086008460068BD
:1050B00040F4000008603A480C30006840F480007A
:1050C00037490C3108600846006820F40000086089
:1050D0003348406A20F4704040F4C0413048416297
:1050E0000420304908602F481838006840F010004C
:1050F0002C49183908600846006820F02000086034
:10510000081D006820F00400091D086025480C38BF
:10511000006820F0300023490C390860081F00683F
:1051200060F03000091F08601F48008820F0400030
:105130001D490880081F008820F04000091F0880D2
:105140004FF4497008800846008840F0400008800D
:10515000154808300088009008BD08B1042101E01E
:105160004FF480210F4A11607047014600E000BFF4
:105170000D4A121D128812F0020FF8D00A4A0832A6
:10518000118000E000BF084A121D128812F0010FC2
:10519000F8D0054A08321288D0B270473038024041
:1051A00000080240180C0240043C0040954800688A
:1051B00040F0100093490860924814380068924902
:1051C00008439049143908609048006820F4802012
:1051D0008E4908600846006840F4002008600846D0
:1051E000406820F4007048600846C06820F4402001
:1051F000C8600846806820F4402088600846406AFD
:1052000020F0F00040F0700180484162006820F416
:1052100080107E4908600846006840F4001008606D
:105220000846C06820F40010C8600846C06840F412
:105230008010C8600846406A20F4706040F4E06165
:1052400072484162C002714988610846006840F0B6
:10525000807008600846006820F00070086008460A
:10526000806840F0407088600846006820F4400084
:1052700008600846C06820F40000C8600846C0689E
:1052800040F48000C86040F2D920614908810020C4
:10529000088288820846808940F400508881084648
:1052A000808A40F0C00088825A48006820F00100DF
:1052B0005849086000E000BF5648006810F0010F30
:1052C000F9D15448006820F06060524908600846EF
:1052D000006840F0006008600846006840F488609C
:1052E00008604B48001D4B49083108600020091F29
:1052F000086048487838006820F00100454978394E
:10530000086000E000BF43487838006810F0010FE3
:10531000F8D140487838006820F060603D4978391D
:1053200008600846006840F00060086008460068B1
:1053300040F4A06008603648001D364970390860A6
:105340003548091D0860081532497439086030482D
:10535000008820F040002E4908800846808940F0EF
:105360000C0088812B487838006840F001002949FA
:10537000783908607047274974390968C1F5806138
:10538000264A1268914202D14FF6FF700FE023497E
:105390000A680968491C214B19601F49885C194635
:1053A0000968B1F5806F02D100211A46116070477B
:1053B000184A126822F00102164B1A6000E000BF82
:1053C000144A126812F0010FF9D1124A0C3210601F
:1053D000104A121D11600E4A128822F040020C4B36
:1053E0001A804FF000620B4BAC3B1A60094A1268FE
:1053F00042F00102074B1A6070470548008800F030
:105400004000704744380240010040000000024064
:1054100000100140B8640240C4290020440000206C
:1054200070B501255848D0F80001022801D00220AB
:1054300070BD35E0554802680068401C534B186049
:10544000514884541846006806281BD14E480079FC
:1054500010F0800F02D04C48807800E00020801DC2
:105460004B4908604848007900F07F00502807D178
:1054700045484079012803D108460068802801D9B1
:105480009020D5E74148006841490968884207D122
:1054900000203E49086001203B49C1F80001032576
:1054A0003948D0F80001012806D0FFF764FF044610
:1054B000A0F57F41FF39BDD12846B9E710B5354B7E
:1054C0001B68354C24681A19334B1B680B44324C4B
:1054D000236003E010F8013B02F8013B0B00A1F14F
:1054E0000101F7D110BD10B52B480068B0B1FFF72E
:1054F00084FF98B12848016826480068FFF758FFE4
:10550000244800682549884202D101F5807000E0F6
:1055100022482049086000201F49086010BD2DE97D
:10552000F04393B080460D4616461D4800688542FC
:1055300002D113B0BDE8F0836C46A71D8120206026
:105540004420A0700020E070812020715020607104
:10555000A7F800807D804FF0000900BF32784846F0
:1055600009F10109391D0A5416F8011B0029F5D16A
:10557000B5F5004F03D04A212046FFF79FFF0848AA
:10558000056000BFD5E7000048000020540100205E
:10559000580100204C01002050010020C42D0020A3
:1055A0005C01002030B50246540042F210756C4395
:1055B0008C4D35F9115094FBF5F303F31003894C2E
:1055C000241F34F91140E018002800DA0020B0F55B
:1055D000803F01DB4FF6FF7030BD2DE9F0410446FE
:1055E00000264FF6FF77804804604B2C04D0642CD3
:1055F00026D0962C6CD147E00020FBF72EF9002036
:10560000FBF745F901210020FFF7CCFF06460121F9
:1056100047F6FF70FFF7C6FF074674484068B0F5CD
:10562000004F03DB47F6FF70704948606F494868D8
:105630000121FFF7B7FF05B22846FFF72FFB48E02F
:105640000120FBF70AF90120FBF721F900210846A8
:10565000FFF7A8FF0646002145F25550FFF7A2FFCD
:1056600007466248406845F25551884202DD0846C7
:105670005E4948605D4948680021FFF793FF05B225
:105680002846FFF70BFB24E00120FBF7E6F801209A
:10569000FBF7FDF800210846FFF784FF06460021CE
:1056A00047F6FF70FFF77EFF074650484068B0F5A9
:1056B000004F03DB47F6FF704C4948604B49486890
:1056C0000021FFF76FFF05B22846FFF7E7FA00E079
:1056D00000BF00BFBDE8F081434800687047444800
:1056E0000068704710B5044641480460006801280E
:1056F0000AD13D48006B20F001003B4908630021BE
:10570000084600F07BF805E03748006B40F00100E8
:105710003549086310BD10B50446012C04D0022C95
:1057200009D0032C12D10DE00020FBF79FF80020D8
:10573000FBF7BEF80BE00020FBF798F80120FBF721
:10574000B7F804E00120FBF791F800E000BF00BFCC
:1057500010BD10B50246234B083333F91130D01A6F
:1057600042F2107343431F4C0C3434F9114093FB45
:10577000F4F010BD10B502461A4B0C3333F911305A
:10578000534342F2107493FBF4F4164B083333F98D
:105790001130E01810BD10B50246124B1B1F33F933
:1057A0001130D31A0F4C34F91140634344F620648E
:1057B00093FBF4F010BD0F49086070470D48006876
:1057C000704710B504460C480460006818B100200A
:1057D000FBF755F802E00120FBF751F810BD064831
:1057E000006870473C290020A8280020B429002028
:1057F0006001002064010020680100200D4A106053
:10580000704770470C480068704703B50B49019812
:1058100008600B49009808600CBD0CB50849096880
:105820000091064909680191DDE90012C0E9001202
:105830000CBD70476C010020840100207001002025
:1058400074010020704773480068022810D1724824
:10585000007810F0080F03D101206E49086007E0BE
:105860006D480078C0F3401010B10120694908600C
:10587000704700B56848007810F0020F05D06748FF
:10588000806965498968884203D0624800680328B6
:105890000AD105206149486000205E4908605F49DF
:1058A0008861C860086008615C484068062869D261
:1058B000DFE800F0680C253E5003564800680128D8
:1058C00003D156494860002088615BE05448006875
:1058D0005249886050488069C8610846C0684E498E
:1058E0000969884205D300204C49C86002204860FD
:1058F00004E04A48C068401C4849C86042E0474844
:105900000068474951F8200044498860084600680B
:1059100041494968884203D304204049486006E071
:105920003E480068401C3D4908600320486029E06B
:105930003A4800693849C968884205D30020374988
:1059400008610220486004E034480069401C334983
:10595000086117E03148C0682F49496988420BD374
:1059600000202E49C86001204860002008600846D9
:105970008069401C886104E02848C068401C2749B1
:10598000C86000BF00BF2448007810F0040F3DD06D
:1059900022484068052839D0204800681F49C96955
:1059A00088421BD11C48007810F0100F03D0012052
:1059B000FFF748FF02E00020FFF744FF00201749EF
:1059C00048611548007810F0800F1FD00846C06964
:1059D0001149096A08441149C86117E00F48406934
:1059E0000D49C96988420CD30B48007810F0100F9C
:1059F00003D00020FFF726FF08E00120FFF722FF79
:105A000004E006484069401C044948610348806836
:105A100000BD000094010020C43700209801002040
:105A2000C42F002010B5FE48006840F00400FC4977
:105A300008604FF40000FB490860FA481838006815
:105A400020F48040F749183908600846006840F49F
:105A500000400860081D006820F08000091D0860F3
:105A6000F0480C38006820F44040EE490C390860DA
:105A7000081F006840F44040091F0860E9480830EA
:105A8000006820F0704040F00050E649083108609E
:105A9000E3481030006840F00200E149103108602E
:105AA0005320E14908803120091D08600520DE49A6
:105AB00010310860DC481038008840F4C040DA49F2
:105AC00010390880D8480838008840F01000D649BE
:105AD00008390880D4481438008840F00100D249C1
