:020000040800F2
:10000000306B002039100108571001085910010801
:100010005B1001085D1001085F100108000000007E
:100020000000000000000000000000006110010856
:100030006310010800000000CFBE0008671001082F
:1000400069100108691001086910010869100108A8
:100050006910010869100108691001086910010898
:100060006910010869100108691001086910010888
:100070006910010869100108691001086910010878
:100080006910010869100108691001084BB30008E4
:100090004BB20008691001086910010869100108D5
:1000A0006910010869100108691001086910010848
:1000B00035CF00083F670008691001086910010882
:1000C0006910010869100108691001087D670008BE
:1000D0006910010869100108691001086910010818
:1000E000691001081163000869100108691001080E
:1000F00069100108691001086910010869100108F8
:10010000691001086910010839D100086910010857
:100110006910010869100108691001085FCF000823
:1001200069100108691001086910010869100108C7
:1001300069100108691001086910010869100108B7
:1001400069100108691001086910010869100108A7
:100150006910010869100108691001086910010897
:100160006910010869100108691001086910010887
:100170006910010869100108691001086910010877
:10018000691001086910010800F002F800F0B2F8E7
:100190000AA090E8000C82448344AAF10107DA45E2
:1001A00001D100F0A7F8AFF2090EBAE80F0013F082
:1001B000010F18BFFB1A43F00103184794670100B1
:1001C000B46701000A444FF0000C10F8013B13F033
:1001D000070408BF10F8014B1D1108BF10F8015BA0
:1001E000641E05D010F8016B641E01F8016BF9D193
:1001F00013F0080F1EBF10F8014BAD1C0C1B09D1EA
:100200006D1E58BF01F801CBFAD505E014F8016B5B
:1002100001F8016B6D1EF9D59142D6D370470000ED
:100220000023002400250026103A28BF78C1FBD8FF
:10023000520728BF30C148BF0B6070476E2910F0CD
:10024000E187702911F03180662914F07F826529D9
:1002500014F07C82672914F07982612914F0788285
:1002600003681B0A28BF41F08001692910F08E87BE
:10027000642910F08B87752910F088876F2911F099
:100280008986782910F0FD87E92911F02386E42971
:1002900011F02086F52911F01D86EF2911F08686D0
:1002A000F82910F0FC870368DB0928BF41F08001C2
:1002B000632911F0A485732911F0A985E32912F0AF
:1002C000E180F32912F0E680002070471FB514F09A
:1002D00033FA11F0B9FE04000020002113F06AFC8B
:1002E000401C60600020002113F04EFCE0601FBD48
:1002F00010B510BD12F01EFB1146FFF7E7FF03F02B
:10030000E4FF12F045FB03B4FFF7F2FF03BC12F069
:1003100049FB000000BF00BF00BFBFF34F8F00BF0D
:1003200000BF00BFFB48006800F4E060FA490843E2
:10033000001DF849086000BF00BF00BFBFF34F8F2A
:1003400000BF00BF00BF00BFFEE70020F349F44A32
:100350008B8DC3F340330BB140F000408B8DC3F362
:10036000C03313B140F4806004E00B69012B01DB62
:1003700040F400708B8DC3F380330BB140F08040AC
:10038000CB6AC3F340431BB9CB6AC3F3405323B1D9
:1003900040F0100040F0200005E00B7F03F08003E8
:1003A0000BB140F4005091F8203003F0100333B14A
:1003B00091F82C30C3F3C0030BB140F4804091F8A6
:1003C000203003F080030BB140F400400B8C03F4A9
:1003D00080730BB140F480300B8C03F400730BB1CD
:1003E00040F400300B8C03F400630BB140F40020A8
:1003F0000B8C03F480630BB140F4802091F828301B
:1004000003F002030BB140F08070CB6AC3F30043EA
:1004100033B1CB68002B01DD402300E0802318437B
:10042000536F022B07D191F83C3003F0010363B105
:1004300040F0010009E0536F032B06D191F83C30E6
:1004400003F001030BB940F00100936F022B07D1B9
:1004500091F83C30C3F3800363B140F0020009E03F
:10046000936F032B06D191F83C30C3F380030BB993
:1004700040F00200D2F8A430012B01D140F48010EA
:10048000D2F8A830012B01D140F4001070470FB40E
:100490002DE9F04798B0A24D21A81790BDF8800033
:1004A000ADF8000001208DF8040050208DF8050003
:1004B0000DF106044FF00009BDF8800040F26442DF
:1004C000811A90427ED00BDC02287CD081287BD020
:1004D000B0F5836F16D0A0F24440002875D108E033
:1004E000022973D01D2972D0BE295BD0C729F5D14E
:1004F00025E001208DF8020000208DF803004FF068
:10050000060923E116208DF8020000208DF8030073
:100510009DF8040040F080008DF804004FF01C09A5
:1005200001202080288C6080686A60600020A060C4
:10053000A86AE060E86A2061288EA08206E1242093
:100540008DF8020000208DF803009DF8040040F0B3
:1005500080008DF804004FF02A09012020807148A6
:10056000B0F85C0060807048D0F8E80060606E48C9
:10057000D0F8EC00A0606C48D0F8F000E0606A4869
:10058000D0F8F40020616848D0F810016061664836
:10059000D0F8AC00A0610020A0830021E183218479
:1005A0006184D3E024208DF8020000208DF8030040
:1005B0009DF8040040F080008DF804004FF02A09F7
:1005C000012005E03BE0B3E06DE0B9E038E035E064
:1005D000208035F8400F401C6080E8696060686AE0
:1005E000A060A88DA081686D403DC4F80E009820E1
:1005F0004059C4F812004A48B0F8D800E082484890
:10060000B0F8DC0060834648D0F8E0006FF00041AD
:10061000884202D10020208307E04148D0F8E00062
:100620004FF4167190FBF1F020830020A08300218D
:1006300004F11C00E1832184618487E000BF00BFD6
:10064000364890F82C00C0F3C01020B13348006B3E
:10065000322800DD7AE00E208DF8020000208DF8AF
:1006600003009DF8040040F080008DF804004FF076
:100670001409012020802B48C06D022805D12A488A
:10068000D0F8B000C4F8020003E024480068C4F8C1
:10069000020022480089E08000202081FFF755FEFB
:1006A000C4F80A0052E0179850F804AB1790179856
:1006B00050F8048B1790179880C81790B8F5004F22
:1006C00024D044208DF8020000208DF803009DF80E
:1006D000040040F080008DF80400A4F800A0A4F805
:1006E0000280002603E00021201D8155761C402E4B
:1006F000F9DB002604E017F8011B201D8155761C4C
:10070000387808B1402EF6DB4FF04A090748C0F8A8
:1007100000801BE00CED00E00000FA05BC070020A3
:10072000AC5A00209C5B0020A80600203800002066
:1007300000208DF802008DF803004FF0060905E057
:10074000BDF88010F6A004F0EFFF00BF00BF00204E
:100750001790B9F1000F03D04946684605F04EFEE8
:1007600018B0BDE8F0075DF814FB2DE9F04FA9B013
:10077000F84CF94DDFF8E493F94800881190F848F7
:10078000007900F07F00079012AFBE1DDFF8D08324
:1007900008F106080020F870012038710798787178
:1007A0000020069040F246421198811A904201F0D2
:1007B000338377DCB0F5826F01F0078233DC40F2DF
:1007C0001122A0EB0201904201F0C28113DC122839
:1007D00067D007DC022879D0052878D0112841F0AD
:1007E000BE871BE1142873D0152872D0B0F5047FA2
:1007F000F5D101F086B93F296CD008DC022901F05F
:100800004181032901F057811229E8D102E14029F1
:1008100078D0B1F5FC7F01F0C481A1F2F911002973
:10082000DDD101F0C1B940F22642811A904201F0B7
:100830009F811DDC40F21642A0EB0201904201F0C4
:1008400045840BDCA0F21140002801F0F181022860
:1008500001F011820328C2D101F016BA012901F07A
:1008600045840D2901F027820E29B8D101F035BA4F
:100870001A2901F04E8209DC032901F0EA811429CA
:1008800001F0AB821529AAD101F0B0BA1B2901F001
:100890004D821D2901F064821F29A0D101F0B7BA51
:1008A00000E0C3E073297CD037DC4A297AD01CDC15
:1008B0000D2901F035830EDC022901F0BF820A29DF
:1008C00001F017830B298AD101F018BBBCE054E07A
:1008D00086E2F1E356E2112901F07A831F2901F043
:1008E000D383242984D101F01BBC6D2901F0EF844E
:1008F00009DC4C296FD06A2901F0C9846B2984D1A5
:1009000001F0D4BC57E26E2901F0E784702901F0B0
:10091000F684712984D101F01BBDDB2901F06C80C4
:1009200017DCAE2901F0368509DCA02901F08286AA
:10093000A12901F06086AD298DD101F045BDAF2917
:1009400001F03185B82901F0BC85DA298DD100F09C
:10095000D0BFE32901F06F8608DCDD2973D0E029E0
:1009600000F07087E1298ED100F089BFE42901F001
:10097000C786B1F5107F86D129E206203880542041
:10098000B870387940F0800038715422754930468B
:1009900010F0D1FE7448006830607448B0F844002C
:1009A00001E057E04AE0A6F8500071A0007886F810
:1009B00042006FA04178432081556DA0C17844204A
:1009C00081556BA00179452081556CA000792028C4
:1009D00002D1302002E02EE068A00079462188553F
:1009E00066A041794720815564A00178482081554F
:1009F00062A041784920815560A081784A208155C4
:100A000000214B2081550120069002205E4908609C
:100A100001F0A6BE40205D494860F9E7E86A20F091
:100A200080008030E86200202863F1E7E86A20F067
:100A30008000E862ECE700202863E9E740F28140AB
:100A4000FFF725FDE4E7FCE304204F4908600020A0
:100A50000690DDE7B8F8020011901198B0F5966F96
:100A60005AD013DC40F22642A0EB0201904254D04F
:100A700007DCA0F21340D8B1032825D010284DD1AF
:100A800087E0142931D01A29F9D138E0B0F5A06FE8
:100A900045D005DCA0F2B34080B30328EFD189E054
:100AA000B0F5A46F74D0A0F229500028E7D106E178
:100AB00000202D4988612C48A168C161216901622B
:100AC0004AF6552141624EE12748216A8162616AF6
:100AD000C162A16A0163E16A416300218163216B04
:100AE000C1634AF6552101643DE11F48616C4164D0
:100AF000616C81644AF65521C16434E185E01A488D
:100B0000216D0165616D4165A16C8165A16DC16556
:100B10004AF65521016626E16EE081E022E18DE092
:100B20000D0A556E68616E646C65642041505420F6
:100B30006E6F74696669636174696F6E2C204150D1
:100B40005420636F6D6D616E64203D2025303458F4
:100B500000000000AC5A0020BC070020E45D00202B
:100B60007800002038020020A85C00202C5C0020C7
:100B700030393A32313A3430000000004175672094
:100B80002039203230313800185C00209C5B002076
:100B9000BEE0F248616F4166A16F8166E16FC16698
:100BA000D4F880100167D4F8841041674AF65521C3
:100BB0008167D8E0EA48B0F87E10E848C167E848A5
:100BC000D0F88010E548C0F88010E548D0F88410CF
:100BD000E248C0F88410E248B0F88810DF48C0F856
:100BE0008810DF48B0F88A10DC48C0F88C104AF64C
:100BF0005521C0F89010B6E0D848E16DC0F89C10BF
:100C00004AF65521C0F8A010ADE0D548B0F87C10E8
:100C1000D248C0F894104AF65521C0F89810A2E0C6
:100C2000CE48D4F88810C0F8CC10D4F88C10C0F896
:100C3000D0104AF65521C0F8D41094E0C948016894
:100C4000C648C0F8E010C7484168C448C0F8E4107E
:100C5000C4488168C148C0F8E810C248C168BF48AC
:100C6000C0F8EC10BF480169BC48C0F8F010BD489E
:100C70000169BA48C0F8F010BA488169B748C0F8AD
:100C8000F810B848C169B548C0F8FC10B548016A09
:100C9000B248C0F80011B348416AB048C0F8041126
:100CA000B048816AAD48C0F80811AE48C16AAB4887
:100CB000C0F80C114AF65521C0F8101153E0A848AD
:100CC000D0F8E810A548C0F81811A548D0F8EC10E5
:100CD000A248C0F81C11A248D0F8F0109F48C0F8F4
:100CE00020119F48D0F804119C48C0F824119C485A
:100CF000D0F810119948C0F828119948D0F8AC10D4
:100D00009648C0F82C114AF65521C0F830112AE057
:100D10009248216CC0F8A410E16DC0F8A810616E73
:100D2000C0F8AC10E16EC0F8B010D4F89410C0F860
:100D3000B410982001598948C0F8B8108A48D0F8F2
:100D4000D8108648C0F8BC108748B0F8E40081B2DB
:100D50008248A0F8C4108448D0F8E0107F48C0F85A
:100D6000C01000E000BF00BF8048406C7B49C860F5
:100D70004AF6552008617E48406C40F001007C49ED
:100D8000486445E67B48C078012802D178498867E5
:100D900005E07848C078022801D17549886740F29B
:100DA000522038600120B870714890F87800F870CF
:100DB000012006902CE640F2522038600120B870E5
:100DC0006B4890F87800F8700120069020E606F055
:100DD000FEF9012005F0D4F8022005F0D1F817E65D
:100DE000D8F800000590D8F804000490D8F808005E
:100DF0000390D8F80C000290D8F810000190D8F8B1
:100E0000140000900598342871D022DC10286FD08F
:100E10000ADC6ED2DFE800F06D78936DFC6D6D6DCD
:100E20006D9EC59AFBFA6DF92F2870D008DC112849
:100E30006ED014286DD020286CD0212859D1E0E143
:100E4000302868D0312867D0322876D03328F5D1C1
:100E50001EE13E2872D00ADCA0F135000928D8D264
:100E6000DFE800F0F4F3F2F1F0EFEEEDEC00B0F5B6
:100E7000147F19D00BDC3F286FD040287ED0B0F50E
:100E8000C87F7CD0A0F213200028D7D1C7E1A0F200
:100E9000512000B3A0F2BF1060B3802870D0A0F240
:100EA00076200028CAD126E00498012802D13049D2
:100EB000886704E00498022801D12D49886740F230
:100EC000522038600120B870294890F87800F870F6
:100ED00001200690D5E140F2522038600120B87020
:100EE000234890F87800F87001200690C9E1D9E015
:100EF0005CE1C5E173E006F06AF9012005F040F815
:100F0000022005F03DF8BCE10020089011E08BE0E4
:100F10004FE156E07DE19AE0A4E00021164A0898EE
:100F200042F820100D480068114648600898401C9F
:100F3000089008980A28F0DBA3E19FE031E1D8F897
:100F4000040006490860002006909AE108490498C8
:100F5000886696E1002008901BE00AE1A85C00206A
:100F6000A806002008000020AC5A00202C5C0020BD
:100F70009C5B00207800002084080020FEE066E1F1
:100F800079E10021F94A089842F820100898401C9D
:100F9000089008980A28F4DBF5484068F34948604F
:100FA0006FE1D8F80400F2494860486808F04DFC49
:100FB0000020F0490867F049D1F8D80007F0C9FFD0
:100FC0005FE1EC48406C40F00200EA494864E848C0
:100FD0004068EA4948604AF65520886051E1D8F8EF
:100FE00004A0C5F800A0E6492868486001218120D6
:100FF00006F0F5FCE2484068E14948620846406A6C
:10100000C9F808000121892003E0E7E0E2E0DDE023
:10101000D2E006F0E4FCDA484168C0F8B0100121E3
:10102000912006F0DCFC2CE1D8F80410D448C0F87C
:1010300004110121A72006F0D2FC22E1ACE0A2E0DD
:101040008EE06FE062E056E04BE040E035E0CC48F7
:10105000008840F48070CA4908800121802006F091
:10106000BEFC0EE1C64800884FF6FF610840C44947
:1010700008800121802006F0B2FC02E1D8F80400CB
:10108000BF49C1F8E8000121A02006F0A8FCF8E063
:10109000D8F80410BA48C0F8EC100121A12006F0DD
:1010A0009EFCEEE0D8F80410B548C0F8F01001211D
:1010B000A22006F094FCE4E0E5E0D8F80410B04883
:1010C000C0F8F4100121A32006F089FCD9E0D8F87B
:1010D0000410AB48C0F800110121A52006F07FFCE8
:1010E000CFE0D8F80410A648C0F810110121AA20BA
:1010F00006F075FCC5E0A248008840F40070A049E5
:1011000008800121802006F06AFCBAE09C48008833
:101110004FF6FF5108409A4908800121802006F0CF
:101120005EFCAEE0D8F804009549C1F8AC0001219E
:10113000902006F054FC00219148C0F8B010012125
:10114000912006F04CFC0121112006F048FC8C484F
:10115000D0F8B010009100204FF08041486290E03C
:1011600000218748C0F8B0100121912006F037FC1B
:1011700087E007F086FC7F49C86582E007F0E4FC61
:101180007C49C8657DE00121112006F028FC7C48DF
:10119000D0F8B010009174E00121002006F01FFC8F
:1011A0006FE00121282006F01AFC6AE006F0D2FD6B
:1011B00067E007F090FE64E0D8F808107048C0F8C7
:1011C000D4100121D52006F00AFC5AE0D8F804001A
:1011D000E06256E0D8F80400A06252E0D8F80410AB
:1011E0006848C0F8D8104AF65521C0F8DC1005F060
:1011F00035FE6448D0F8D800C4F89000002006906E
:101200003FE061A348F6BA0200218120FFF73FF9D1
:1012100037E0049881B25A48A0F8E01031E0D8F8DD
:101220000400012801D1C4F8AC00D8F80400022859
:1012300002D10120C4F8B000D8F8040030B9002071
:1012400000E040E0C4F8AC00C4F8B00019E064204D
:1012500004F096FE72B65148006820F480004F49B1
:1012600008600846006820F4001008604C484D49AA
:101270000860FFF74FF840F28140FFF708F900E0FF
:1012800000BF00BF7DE51620387000207870282050
:10129000B870387940F080003871282233493046E0
:1012A00010F049FA002030607060B060F06035489E
:1012B0000068306100207061B061F061306270627E
:1012C000012006905DE5B8F8020037490861B8F8DA
:1012D00006004861B8F804008860B8F80800C860E3
:1012E00008460069132840D2DFE800F00A131A30DC
:1012F0006F853F3F3F3F9AA1BAD3F5F3F2F1F0007B
:10130000012003F02EFF0020284948622848086089
:1013100039E1012003F025FF26482449086032E125
:10132000012003F01EFF02201F498861002008628F
:1013300008468068012802D11C49086102E00220A9
:101340001A4908611C48194908601CE1012003F092
:1013500008FF04201449886100200862084680685C
:1013600001282BD1114908612BE00BE184080020F2
:10137000085E00209C5B0020AC5A0020145E002018
:10138000A8060020A85C00204D6F746F72204F7675
:10139000657263757272656E7400000030380240C9
:1013A000EFBEADDEF01F002008000020F402002098
:1013B0005BC10008C3C100082BC200080220FC4921
:1013C0000861FC48FA490860DDE0012003F0C9FE2D
:1013D0000820F949886100200862084680680128D1
:1013E00002D1F349086102E00220F1490861F348A3
:1013F000EF490860C7E0012003F0B3FE0020EE498A
:101400008861086208468068012802D1E8490861BD
:1014100002E00220E6490861E948E5490860B2E0D7
:10142000022003F09EFEE748E1498860ABE002201D
:1014300003F097FE0120DE4948622020DE49086261
:101440000020886108468068012802D1D849486197
:1014500002E00220D6494861DB48D549886092E025
:10146000022003F07EFE0120D14948628020D2494B
:1014700008620020886108468068012802D1CC49B2
:10148000486102E00220CA494861D048C8498860E2
:1014900079E0022003F065FEC7488068012805D185
:1014A000CB48CC4988620120486204E0CA48C94957
:1014B000886200204862C7480BF0FDFC0BF0CBFBB4
:1014C0000020C44908620120C8625CE053E04BE0A0
:1014D00043E027E0FFE7022003F043FEBD48006938
:1014E000BC49086008464069404248600846806937
:1014F0008860B1488068012804D1B548886201201D
:10150000486204E0B448B349886200204862B148A8
:101510000BF0D1FC0BF09FFB0020AE4908620120CC
:10152000C86230E0022003F01CFEA3488068012856
:1015300005D1A748A74988620120486204E0A6486F
:10154000A449886200204862A2480BF0B4FC0BF06A
:1015500082FB01209F49C86215E0022003F001FED2
:101560009E48934988600EE0022003F0FAFD9C48F3
:101570008F49886007E0022003F0F3FD99488C4909
:10158000886000E000BF00BF8B484069132872D21A
:10159000DFE800F00A131A30465C717171717279DC
:1015A00092ABC8F3F1F0EF00012003F0A8FD8E48E4
:1015B0007F4948600020886242E1012003F09FFDDE
:1015C0008A487B4948603BE1012003F098FD0220F6
:1015D0007949C861002048620846C068012802D1E4
:1015E0007349886102E0022071498861804870492E
:1015F000486025E1012003F082FD04206E49C861A6
:10160000002048620846C068012802D16849886104
:1016100002E00220664988617648654948600FE12A
:10162000012003F06CFD08206349C8610020486276
:101630000846C068012802D15D49886102E00220A5
:101640005B4988616C485A494860F9E0012003F021
:1016500056FD00205849C861086208468068012884
:1016600002D15349086102E00220514908616348F0
:101670004F494860E4E0E2E0022003F040FD6048AA
:101680004B49C860DCE0022003F039FD01204849E5
:1016900088622020484948620020C8610846C06826
:1016A000012802D14249C86102E002204049C861D4
:1016B00054483F49C860C3E0022003F020FD0120E8
:1016C0003B49886280203C4948620020C861084646
:1016D000C068012802D13649C86102E002203449BD
:1016E000C86149483249C860AAE0022003F007FDFA
:1016F0003148C068012805D1444836498862012034
:10170000486204E042483349886200204862314818
:101710000BF0D1FB0BF09FFA00202E49086201204C
:10172000C8628DE0022003F0EAFC2A4800692949DA
:101730000860084640694042486008468069886001
:101740001D48C068012804D13048886201204862E1
:1017500004E02F481F498862002048621D480BF0B2
:10176000AAFB0BF078FA00201A4908620120C8622F
:1017700066E05DE055E04DE0FFE7022003F0BFFCCE
:101780000D48C068012805D120481249886201200F
:10179000486204E01E480F498862002048620D48F4
:1017A0000BF089FB0BF057FA01200A49C86247E0A9
:1017B000F4020020C7C300080800002011C600087A
:1017C00037C5000883C1000801C7000809C8000820
:1017D000D9CB0008BC020020E9CB0008C7CA00082A
:1017E00087CA000823CA00085BC10008E5C10008D9
:1017F0000BC300087FC4000889C60008B7C50008ED
:10180000A1C1000867C700085FC80008F9CB00083D
:1018100009CC0008022003F072FCFC48FC49C860B7
:101820000EE0022003F06BFCFA48F949C86007E0BB
:10183000022003F064FCF848F549C86000E000BFEE
:1018400000BF1FE5D8F80200F4490860D8F8060088
:101850004860D8F80A008860D8F81A00C860D8F83C
:101860000E000861D8F812004861D8F816008861A7
:10187000D8F81A00C861D8F81E00086202E54FF4D3
:10188000A56038602E20B870387940F0800038713B
:101890000120B61C26F8020CE04800683060DF48E2
:1018A00040687060DD488068B060DC48C068B06146
:1018B000DA48006AF061D9480069C8F80E00D748D4
:1018C0004069C8F81200D5488069C8F81600D348A6
:1018D000C069C8F8160000203084B61E002106F149
:1018E0002200B184F18431857185B1850120069093
:1018F000C8E4B8F80200401E2064D8F80400E0658F
:10190000D8F808006066B8F80C00E066D8F80E0059
:10191000C4F89400D8F8121098200151C048D4F8A7
:101920009410C0F8C01098200159BD48C0F8C410E8
:101930007F21E06D90FBF1F0BA494867B848D0F8D4
:10194000D8000E90B648D0F8E0100D91D0F8E40021
:101950000C90B8F81600B249C1F8D800B8F81800D1
:1019600050B9B8F81A0038B941F27070C1F8E00007
:101970000220C1F8E40014E0B8F81A00A849C1F840
:10198000E400B8F8180020B96FF00040C1F8E0009A
:1019900007E0B8F818004FF416714843A049C1F8A1
:1019A000E0009F48D0F8D8100E9881420BD19C4897
:1019B000D0F8E0100D98814205D19948D0F8E41094
:1019C0000C98814201D0012000E000200B900B9880
:1019D00088B10020944908670846406E012805D167
:1019E0008F49D1F8D80007F097FA04E08C49D1F874
:1019F000D80007F0AEFA45E440F2225038602420C7
:101A0000B870387940F0800038710120308034F8A7
:101A1000400F401C7080E0697060606AB060A08D0B
:101A2000B0817F48B0F8D800F082606D403CC6F8C5
:101A30000E0098200059C6F812007948B0F8E4006A
:101A400070837748B0F8E00030837548D0F8E00044
:101A50006FF00041884202D10020308307E07048D7
:101A6000D0F8E0004FF4167190FBF1F030830020C5
:101A7000B083002106F11C00F183318471840120C0
:101A800006901FE46948807800F0010018B1012039
:101A9000C4F8AC0002E00020C4F8AC0063488078D1
:101AA00000F0020018B10120C4F8B00002E00020EC
:101AB000C4F8B00006E440F2152038600120B87088
:101AC000A88DC0F3403008B1012000E00220F8707A
:101AD000D4F8AC00012804D1F87840F00100F87087
:101AE00001E00020F870D4F8B000012804D1F878A3
:101AF00040F00200F87001E00020F870012006902C
:101B00009FE64A48C078012812D1E86A20F4804054
:101B1000E862E86A20F008000830E862E86A20F429
:101B2000005000F50050E862002007F0A6FF0EE02C
:101B3000E86A20F00800E862E86A20F40030E86211
:101B4000E86A20F40050E862012007F096FF78E68A
:101B500040F2122038600120B870A88DC0F34030E8
:101B600008B1012000E00220F8700120069068E62C
:101B7000B8F8040044F8880FB8F8020060602188C3
:101B800008B206F0C3F9A188883C08B206F027FB2A
:101B900006F0E0F806F0D0F80121D52005F01FFF8F
:101BA0004FE6D8F802A04CE640F20B403860062021
:101BB000B870387940F08000387101203080D5F855
:101BC00000A0C6F802A006903BE6D8F802A0C5F82F
:101BD00000A01449286848600121812005F0FFFE1B
:101BE000104840680F4948620846406AC9F8080032
:101BF0000121892005F0F3FE0A484168C0F8B010C1
:101C00000121912005F0EBFE1BE60000E3C900086E
:101C1000F402002083C900081FC90008BC0200208C
:101C2000AC5A0020A80600209C5B00207800002011
:101C300040F2124038600620B870387940F08000D9
:101C4000387101203080D5F800A0C6F802A00690B7
:101C5000F7E540F22A4038600620B870387940F045
:101C60008000387101203080FEF76FFBC6F802005B
:101C700001200690E5E5D8F80600A060A068E060C5
:101C8000D8F80A002061DCE540F2154038600E20EB
:101C9000B870387940F08000387101203080002021
:101CA000C6F80200A068C6F806002069C6F80A0057
:101CB00001200690C5E5B8F802006067B8F8040096
:101CC000A067D8F80600E067D8F80A00C4F88000DA
:101CD000B8F80E00C4F88400B3E540F2254038603F
:101CE0001020B870387940F08000387101203080C1
:101CF00034F8740F7080A088B080A068C6F8060021
:101D0000E068C6F80A00208A743CF0810120069041
:101D100097E5D8F80600A064B8F802002065B8F886
:101D200004006065D8F80A00A0658AE540F24240E8
:101D300038600E20B870387940F08000387101208A
:101D40003080B4F850007080B4F85400B080A06CBB
:101D5000C6F80600A06DC6F80A000120069070E5DE
:101D6000F848006E012804D10220F649086606F002
:101D70009FF8E86AC0F3404000B162E50620C9F868
:101D800004004FF08040C9F808000020C9F80C009A
:101D90004AF28700E064C9F81000A06CC9F814008A
:101DA000206DC9F81C000020C9F81800C9F82000EF
:101DB00001202861E86A20F4003000F50030E86274
:101DC000E86A20F40010E862E86A20F04000403041
:101DD000E862A06CC9F8140033E5D8F8020060642A
:101DE000606C002801DA002060642AE540F23C4083
:101DF00038600620B870387940F0800038710120D2
:101E00003080606CC6F802000120069019E5D8F811
:101E10000200CD49086014E540F2474038600620D2
:101E2000B870387940F08000387101203080C648A1
:101E30000068C6F802000120069002E5E86AC0F3D7
:101E4000405018B1E86AC0F3404038B9E86AC0F3BE
:101E5000404020B1D9F82000022800D10BE2D5F88B
:101E600000A0BA48007940F0800018B1D8F802000C
:101E7000824402E0B448006882440021504607F0E2
:101E8000D8FE8346BBF1010F00D1F4E1E86A20F4EB
:101E9000003000F50030E862E86A20F40010E862E3
:101EA000E86A20F00200E8620120C9F80400C9F8DD
:101EB00008A0D9F808002968884201DA606C00E0BF
:101EC0000020C9F80C00A068C9F810002069C9F802
:101ED0001400A069C9F81800E069C9F82000E86A90
:101EE00020F010001030E8629649C86D06F0F5FE4B
:101EF000C1E1D8F8020094494860BCE140F2524088
:101F000038600620B870387940F0800038710120C0
:101F100030808D484068C6F8020001200690AAE192
:101F2000E86AC0F3405018B1E86AC0F3404038B9DD
:101F3000E86AC0F3404020B1D9F82000022800D15F
:101F400099E18248007940F0800010B1D8F802A0F1
:101F500002E07D48D0F804A00021504607F069FE59
:101F60008346BBF1010F00D1FAE3E86A20F40030A8
:101F700000F50030E862E86A20F40010E862E86AE0
:101F800020F00200E8620120C9F80400C9F808A0A6
:101F9000D9F808002968884201DA606C00E0002066
:101FA000C9F80C00A068C9F810002069C9F814002D
:101FB000A069C9F81800E069C9F82000E86A20F0B3
:101FC00010001030E8625F49C86D06F0D6FDC7E327
:101FD000E86AC0F3405018B1E86AC0F3404038B92D
:101FE000E86AC0F3404020B1D9F82000022800D1AF
:101FF000B6E32069C9F81400D9F814001090002045
:10200000109907F016FE8346BBF1010F00D1A7E33C
:10201000E86A20F4003000F50030E862E86A20F455
:102020000010E862E86A20F00200E8622069C9F85E
:1020300014000120C9F80400C9F808A00020C9F85C
:102040000C00A068C9F810002069C9F81400A06944
:10205000C9F81800E069C9F82000E86A20F010000B
:10206000E8623A48C078012804D13649C86D06F0C4
:10207000D0FE08E0D9F814004042C9F814003149F4
:10208000C86D06F0C6FE6BE33048C078012802D167
:1020900005F0B9FD01E005F0B6FDE86A20F010009A
:1020A000E862E86A20F020002030E8620520C9F8E4
:1020B000040028690D2802D12869286101E0002068
:1020C0002861002022498862C86249E3B8F802000A
:1020D0002062D8F804006062D8F80C00A062D8F83A
:1020E0001000E062B8F81400206339E34FF4836015
:1020F00038601620B870387940F0800038710120BF
:102100003080208C7080606A70600020B060A06AAF
:10211000F060E06A3061208EB082012006901FE3FB
:10212000E86AC0F3405018B1E86AC0F3404038B9DB
:10213000E86AC0F3404068B1D9F82000022809D10C
:102140000EE300009C5B00200000002078000020CF
:1021500008000020E86A20F4003000F50030E86252
:10216000E86A20F40010E862E86A20F4803000F5A4
:102170008030E862E86A20F00200E8620120C9F8D5
:1021800004000020C9F80C00A06AC9F81000E06A39
:10219000C9F81400A069C9F81800E069C9F820005E
:1021A000206A012836D1E06AC9F81400D9F8140071
:1021B0001090FA48C078012812D10020109907F039
:1021C00038FD8346BBF1010F04D1E86A20F40030EA
:1021D000E862C5E2F248C16D032006F0CDFA14E0D2
:1021E0001098404210900020109907F022FD83467D
:1021F000BBF1010F04D1E86A20F40030E862AFE2DD
:10220000E748C16D052006F0B7FAE86A20F0100033
:10221000E8623BE0E148C078012819D12868616A8A
:102220000844C9F80800D9F808A00021504607F072
:1022300000FD8346BBF1010F04D1E86A20F40030B1
:10224000E8628DE2D648C16D042006F095FA18E0E8
:102250002868616A401AC9F80800D9F808A0002166
:10226000504607F0E6FC8346BBF1010F04D1E86A53
:1022700020F40030E86273E2C948C16D062006F020
:102280007BFAE86A20F010001030E86268E2D8F8C3
:102290000400C44908670846006F0F900F98C117E3
:1022A00000EBD1514912BF4A516759E240F2B240A6
:1022B00038601A20B870387940F0800038710120F9
:1022C0003080B848006F70600120069048E2B8F88E
:1022D0000200B449A1F87C0042E240F2B540386007
:1022E0000420B870387940F08000387101203080C7
:1022F000AC48B0F87C0070800120069030E2A9481C
:10230000B0F87E000A90B8F80200A649A1F87E0055
:102310000846B0F87E100A98814203D00320A149F4
:10232000C1F89C00B8F802009E49A1F87E00D8F8D8
:102330000400C1F88000D8F80800C1F88400B8F89B
:102340000C00A1F88800B8F80E00A1F88A0007E296
:102350004FF4976038601020B870387940F08000F2
:102360003871012030808F48B0F87E0070808D4831
:10237000D0F8800070608B48D0F88400B060894845
:10238000B0F88800B0818748B0F88A00F081012059
:102390000690E5E1B8F8020082490884012188200E
:1023A00005F01DFBDCE140F2F64038600420B87017
:1023B000387940F080003871012030807948008CF5
:1023C000708001200690CBE100207749886143F6B8
:1023D000A3217548C161754901624AF655214162E0
:1023E000022181627249C16241F652510163714911
:1023F0004163002181630221C1634AF655210164D2
:102400006B49416481644AF65521C164022101652A
:1024100001214165684981654FF44821C1654AF64B
:10242000552101660221416681660021C16601676E
:10243000012141674AF6552181675A48B0F87E105C
:102440005948C1675748D0F880105748C0F88010E5
:102450005448D0F884105448C0F884105148B0F85B
:1024600088105148C0F888104E48B0F88A104E487D
:10247000C0F88C104AF65521C0F890104948016FF9
:102480004948C0F89C104AF65521C0F8A0104548AC
:10249000B0F87C104448C0F894104AF65521C0F8B2
:1024A00098101E21C0F8CC100521C0F8D0104AF6B3
:1024B0005521C0F8D41041483B49486004F0CEFC97
:1024C0004EE136488078202804D13749C860002082
:1024D00028648FE031488078212804D13249C860CF
:1024E0000020286486E02D488078222804D12E49D7
:1024F000C860002028647DE028488078302804D116
:102500002949C8600020286474E024488078312874
:1025100004D12549C860002028646BE01F488078FA
:10252000322804D12049C8600020286462E01B489A
:102530008078402804D11C49C8600020286459E0F4
:1025400016488078412804D11749C86000202864C3
:1025500050E012488078422804D11349C860002016
:10256000286447E00D488078502804D10E49C8609F
:10257000012028643EE009488078512804D10A49A6
:10258000C8600120286435E004488078702817D19D
:102590000549C860012028642CE000007800002074
:1025A0009C5B0020A8060020A85C0020C0445E04BC
:1025B0005515020060222F02FC7A4F01090001002C
:1025C000FE488078712804D1FD49C8600020286445
:1025D00010E0FA488078752804D1F949C8600020D5
:1025E000286407E0F5488078722803D1F449C86070
:1025F00000202864B4E04FF49D6038601420B87067
:10260000387940F0800038710120B61C26F8020CA1
:10261000E06D3060206E7060606EB060A06EF06043
:10262000B61EE06E08B1022000E001207082012099
:10263000069095E094E0B8F80200E249C865E249E6
:10264000D8F80400C1F8E8000121A02005F0C7F97E
:10265000DD48D8F80810C0F8EC100121A12005F0E1
:10266000BEF9D948D8F80C10C0F8F0100121A2200A
:1026700005F0B5F9D448D8F81010C0F804110121BC
:10268000A72005F0ACF9D048D8F81410C0F8101104
:102690000121AA2005F0A3F90121CB48C0F80011BF
:1026A000A52005F09CF9C848D0F8AC000F90012196
:1026B000902005F094F9C348C06D022814D1C24897
:1026C000008840F40070C04908800121802005F096
:1026D00086F9BD48008840F48070BB49088001211C
:1026E000802005F07CF90AE0B74800884FF6FF61CA
:1026F0000840B54908800121802005F070F92FE0DD
:1027000040F22B5038602420B870387940F08000B7
:10271000387101203080AB48B0F85C007080AA4866
:10272000D0F8E8007060A848D0F8EC00B060A64887
:10273000D0F8F000F060A448D0F804013061A2485D
:10274000D0F810017061A048D0F8AC00B061002052
:10275000B083B083B083B0830120069000E000BF57
:1027600000BF069870B19DF84C0000F0800018B1D1
:102770009DF84A00801D00E00620099012A80999E2
:1027800003F03CFE29B0BDE8F08F10B50446012CE3
:102790000AD106F0E1FD8D488949486004F05EFBEE
:1027A00006F0BDFE002402E000208649486410BD0A
:1027B00010B5044672B6012C04D0022C06D0032CAE
:1027C0000CD107E0002007F099F907E0012007F09D
:1027D00095F903E0012007F091F900BF00BF7948A7
:1027E000048062B610BD70B5744EB61DB01FC088AF
:1027F00085B2012D06D0052D0BD0072D03D00D2D50
:1028000008D105E007E074882046FFF7D1FF02E019
:1028100001E000E000BF00BF70BD10B50146002020
:102820000023664CA2780F2A24D2DFE802F02308A6
:10283000230D231023122318231E23200A0008200F
:1028400019E01E200A8016E00C200A8013E01220F6
:1028500011E004200A805B4C24884C800BE00620A9
:1028600000230A80C1F8023005E0082003E00620BA
:102870000A8000E000BF00BF10BD55480021504A4B
:102880009161103050F8082C4D49CA6102680A6203
:102890004AF655224A6202698A624269CA628269BC
:1028A0000A63C2694A6300228A63026ACA634AF6FB
:1028B00055220A64426B4A64426B8A644AF6552286
:1028C000CA64026C0A65426C4A65826B8A65826CD6
:1028D000CA654AF655220A66426E4A66826E8A6662
:1028E000C26ECA66026F0A67426F4A674AF655228D
:1028F0008A67C26CC1F89C204AF65522C1F8A02014
:10290000026BC1F8A420C26CC1F8A820426DC1F8C6
:10291000AC20C26DC1F8B0202D49D1F8C0202849A3
:10292000C1F8B4202A49D1F8C4202549C1F8B820FB
:102930002749D1F8D8202249C1F8BC202449B1F850
:10294000E4108AB21E49A1F8C4202149D1F8E02040
:102950001B49C1F8C0204AF65522C1F8C8201A49BF
:10296000B1F87C201649C1F894204AF65522C1F8E6
:102970009820826FC1F8CC20C26F1038C1F8D020E7
:102980004AF65522C1F8D42012490A680C49C1F808
:10299000E02010494A680A49C1F8E4200D498A68D4
:1029A0000749C1F8E8200B49CA680549C1F8EC207D
:1029B00008490A690249C1F8F0200DE078000020BA
:1029C000A85C00209C5B0020A806002009000100F4
:1029D000AC5A002008000020FE490A69FE49C1F8EF
:1029E000F020FC498A69FC49C1F8F820F949CA6914
:1029F000F949C1F8FC20F7490A6AF749C1F80021F2
:102A0000F4494A6AF449C1F80421F2498A6AF24950
:102A1000C1F80821EF49CA6AEF49C1F80C214AF60A
:102A20005522C1F81021ED494A6FEB49C1F8342114
:102A30004AF65522C1F83821704770B5E84D002399
:102A40000C224FF48861E74804F05EF90446E5483B
:102A500080684AF65521884204D1E2484068E2493C
:102A6000486002E03920E049486070BD10B5DC4C98
:102A7000D948406A4AF65521884205D1D648C069EE
:102A8000A060D548006A2061D348006C4AF6552101
:102A900088420ED1D048806A2062CF48C06A606206
:102AA000CD48006BA062CC48406BE062CA48C06B66
:102AB0002063C948C06C4AF65521884205D1C648F2
:102AC000406C6064C448806C6064C348006E4AF621
:102AD000552188420BD1C048006D2065BE48406D2D
:102AE0006065BD48806DA064BB48C06DA065BA48F4
:102AF000D0F810014AF65521884230D1B648D0F8B6
:102B0000E000B4490860B448D0F8E4004860B24836
:102B1000D0F8E8008860B048D0F8EC00C860AE4853
:102B2000D0F8F0000861AC48D0F8F0000861AA487D
:102B3000D0F8F8008861A848D0F8FC00C861A64821
:102B4000D0F800010862A448D0F804014862A24805
:102B5000D0F808018862A048D0F80C01C8629E48ED
:102B6000D0F8C8004AF6552188424CD19A48D0F88E
:102B7000A40020649848D0F8A800E0659B49E06D67
:102B80000969884202DD99480069E0659248D0F8F9
:102B9000AC0060669048D0F8B000E0668E48D0F88F
:102BA000B4108F48C0F8C0108B48D0F8B8108C48CB
:102BB000C0F8C4108848D0F8A8007F2190FBF1F03D
:102BC0008B4948678448D0F8BC008549C1F8D800D3
:102BD0008148B0F8C400C1F8E4007F48D0F8C000D4
:102BE000C1F8E0007D48406E012803D1D1F8D8003B
:102BF00006F092F97948406E022804D17849D1F85C
:102C0000D80006F0A6F97648D0F8D800002804DBF2
:102C10007348D0F8D800642807DD0A207049C1F84D
:102C2000D800D1F8D80006F077F96D48D0F8E00068
:102C30007049884205DC6A48D0F8E000B0F5167F9C
:102C40000FDA6748D0F8E0006FF00041884203D106
:102C50006349C1F8E00004E041F270706049C1F8D6
:102C6000E0005F48D0F8E400002804DB5C48D0F8BE
:102C7000D800642803DD02205949C1F8E400564811
:102C8000006C4AF65521884202D15348C06A6062FE
:102C90005148D0F830014AF65521884226D14E4895
:102CA000D0F818015249C1F8E8004B48D0F81C117F
:102CB0004F48C0F8EC104848D0F820114C48C0F8F4
:102CC000F0104548D0F824114948C0F80411424892
:102CD000D0F828114648C0F810113F48D0F830010C
:102CE0003E49C86501214248C0F800113A48D0F871
:102CF00038014AF65521884204D13748D0F83401CA
:102D00003649486710BD70B5354C00234FF49E72AC
:102D10001946314803F0F8FF06462F48406A4AF644
:102D20005521884205D12C48C069A0602A48006A14
:102D300020612948006C4AF6552188420ED1264868
:102D4000806A20622448C06A60622348006BA062E7
:102D50002148406BE0622048C06B20631E48C06C75
:102D60004AF65521884205D11B48406C60641A48D8
:102D7000806C60641848006E4AF6552188420BD179
:102D80001548006D20651448406D60651248806DDF
:102D9000A0641148C06DA0650F48806F4AF65521A8
:102DA000884210D10C48406E60670B48806EA06767
:102DB0000948C06EE0670848006FC4F88000064804
:102DC000406FC4F884000448D0F890004AF65521BA
:102DD000884211E008000020A85C00209C5B0020D5
:102DE000AC5A0020145E0020085E0020000800207D
:102DF000A80600200065040019D1FA48B0F87C004C
:102E0000F949A1F87E00F748D0F88000C1F88000A9
:102E1000F448D0F88400C1F88400F248B0F8880083
:102E2000A1F88800EF48B0F88C00A1F88A00ED48BE
:102E3000D0F8C8004AF6552188422BD1E948D0F88D
:102E4000A4002064E748D0F8A800E065E548D0F881
:102E5000AC006066E348D0F8B000E066E148D0F826
:102E6000B410E248C0F8C010DE48D0F8B810DF480F
:102E7000C0F8C410DB48D0F8BC00DC49C1F8D80069
:102E8000D848B0F8C400C1F8E400D648D0F8C00073
:102E9000C1F8E000D348D0F8A0004AF65521884296
:102EA00003D1D048D0F89C00E065CE48D0F8980017
:102EB0004AF65521884203D10120CB49A1F87C0074
:102EC000C848D0F8D4004AF65521884209D1C548EF
:102ED000D0F8CC00C4F88800C248D0F8D000C4F8BC
:102EE0008C00C048D0F8DC004AF65521884204D155
:102EF000BC48D0F8D800C4F89000BA48D0F8100107
:102F00004AF65521884230D1B648D0F8E000B84999
:102F10000860B448D0F8E4004860B248D0F8E8004F
:102F20008860B048D0F8EC00C860AE48D0F8F00037
:102F30000861AC48D0F8F0000861AA48D0F8F80061
:102F40008861A848D0F8FC00C861A648D0F8000104
:102F50000862A448D0F804014862A248D0F80801E9
:102F60008862A048D0F80C01C8629E4800694AF601
:102F70005521884201D19B48C5689EA19F480EF00B
:102F800097FB9848D0F830014AF6552188420FD176
:102F90009448D0F81401022807D19248C0687228DA
:102FA00006D001209649C86502E001209449C86511
:102FB00070BD70B5044693480068052808D2DFE864
:102FC00000F003081564740014B901208D490860ED
:102FD00077E08DA002F0A8FBFFF74FFC02F0D8FECF
:102FE0008E4908800220874908606AE01CB10020F1
:102FF0008449086048E002F0CBFE05468748018816
:10300000284602F0C1FEB0F5FA6F3DDD012006F062
:1030100081FB06F0A1F9012002F0B2FF4AF655202B
:103020007049086103F01AFF7548406C012801DD02
:1030300003F02AFF022002F0A3FF06F070FA02203C
:1030400002F09EFF76A002F06FFB0220FDF71FFA50
:103050000320764908600220754948610846C06A25
:1030600020F01000C8620846C06A20F02000C86244
:1030700005206E4948606E48C06A20F080006C49A7
:10308000C86203205F4908601BE002F081FE05462C
:1030900062480188284602F077FE40F6B83188423F
:1030A00002DD0420574908600BE04FF4003061490D
:1030B0000860400108604FF4FA7002F061FFFDF70C
:1030C00029F900BF4F48006870BD10B52DED048B85
:1030D0000446412C7DD011DC302C7BD007DC202C29
:1030E00079D0212C78D0222C41F06480DEE2312C82
:1030F00073D0322C72D0402CF6D1FDE3702C00F04E
:10310000578707DC422C6AD0502C69D0512CEBD168
:1031100000F0ACBE722C05D0732C62D0752CE3D1BC
:1031200000F0C6BF4448006844490860424840680F
:1031300048604148806888603F48C068C8603E4831
:10314000006908613C48406948613B488069886182
:103150003948C069C8613848006A08623648406A20
:1031600048623548806A88623348C06AC86232481B
:10317000006B08633048406B48632F48806B88635E
:103180002D48C06BC8632C48006C08642A48406C0A
:1031900048642948806C88642748C06CC864264805
:1031A000006D08652448406D4865234890ED190A74
:1031B000084680ED190A204890ED1A0AB8EE400A38
:1031C000084680ED1A0A90ED1A0ABCEEC00A0648BD
:1031D00036E0FDE3E1E264E1DAE155E3CDE3F8E373
:1031E000F8E39BE0A85C0020A8060020AC5A002071
:1031F000080000204B535431303100003C020020C5
:103200009C5B0020400000200D0A506F77657269BA
:103210006E6720646F776E2E2E2E00003C0000201B
:10322000676F6F646279650D0A000000E45D00203D
:10323000BC070020180802409C4C01080008002030
:1032400080ED2B0A0120FE490864FE4800694863AE
:10325000084690ED0D0AB8EEC00A10EE101A0846A6
:1032600011F0F2F941EC190B9FEDF70B53EC102B19
:1032700010F09CFD41EC180B10F0BEFCF049886684
:10328000F04840684861EF4890ED010AB8EEC00A86
:10329000D0ED190A80EE201A084680ED061AEC4897
:1032A000C06EE849C8660846C06EEA49C1F8E80041
:1032B000E748006FE34908670846016FE548C0F832
:1032C000EC10E348406FDF4948670846416FE1482A
:1032D000C0F8F010DE48806FDA4988670846816FD1
:1032E000DC48C0F8F410DA48816FDA48C0F80411FD
:1032F0000120D449C8670846C16FD648C0F80011FC
:10330000D348D0F88000CF49C1F880000846D0F8F3
:103310008010D048C0F8101100F04CBFCE480068B3
:10332000C8490860CC4840684860CB4880688860DD
:10333000C948C068C860C84800690861C648406993
:103340004861C54880698861C348C069C861C2488E
:10335000006A0862C048406A4862BF48806A886262
:10336000BD48C06AC862BC48006B0863BA48406B7D
:103370004863B948806B8863B748C06BC863B64878
:10338000006C0864B448406C4864B348806C88643E
:10339000B148C06CC864B048006D0865AE48406D67
:1033A0004865AD4890ED190A084680ED190AAA480B
:1033B00090ED1A0AB8EE400A084680ED1A0A90ED20
:1033C0001A0ABCEEC00AA34880ED2B0A01209C49D2
:1033D00008649C4800694863084690ED0D0AB8EE01
:1033E000C00A10EE101A084611F02EF941EC190B24
:1033F0009FED950B53EC102B10F0D8FC41EC180B03
:1034000010F0FAFB8E4988668E48406848618D4806
:1034100090ED010AB8EEC00AD0ED190A80EE201A2C
:10342000084680ED061A8C48C06E8649C866084674
:10343000C06E8849C1F8E8008748006F8149086775
:103440000846016F8348C0F8EC108348406F7D49FF
:1034500048670846416F7F48C0F8F0107E48806F8B
:10346000784988670846816F7A48C0F8F4107A482E
:10347000816F7848C0F8041101207249C867084676
:10348000C16F7448C0F800117348D0F880006D49CE
:10349000C1F880000846D0F880106E48C0F81011BE
:1034A0003AE76E480068674908606C4840684860C1
:1034B0006A48806888606948C068C8606748006971
:1034C000086166484069486164488069886163486A
:1034D000C069C8616148006A08626048406A486221
:1034E0005E48806A88625D48C06AC8625B48006B5B
:1034F00008635A48406B48635848806B8863574854
:10350000C06BC8635548006C08645448406C4864FC
:103510005248806C88645148C06CC8644F48006D44
:1035200008654E48406D48654C4890ED190A0846BC
:1035300080ED190A01204249086442480069486345
:10354000084690ED0D0AB8EEC00A10EE101A0846B3
:1035500011F07AF841EC190B9FED410B53EC102B55
:1035600010F024FC41EC180B10F046FB344988663F
:10357000344840684861334890ED010AB8EEC00A0B
:10358000D0ED190A80EE201A084680ED061AC3E62F
:10359000354800682B490860334840684860324825
:1035A000806888603048C068C8602F48006908613A
:1035B0002D48406948612C48806988612A48C06963
:1035C000C8612948006A08622748406A486226485C
:1035D000806A88622448C06AC8622348006B086316
:1035E0002148406B48632048806B88631E48C06B4D
:1035F000C8631D48006C08641B48406C48641A4846
:10360000806C88641848C06CC8641748006D0865F1
:103610001548406D4865144890ED190A084680ED3C
:10362000190A0120064908640648006948630846EB
:1036300090ED0D0AB8EEC00A10EE101A084615E01B
:103640002C5C002000080020BA498C1BE332914119
:103650009C4C0108A8060020204D01085447010891
:10366000EC51B81E85E7B741BC47010810F0ECFFEC
:1036700041EC190B1FED060B53EC102B10F096FBD1
:1036800041EC180B10F0B8FAF9498866F94840681F
:103690004861F84890ED010AB8EEC00AD0ED190A69
:1036A00080EE201A084680ED061A35E6F2480068DA
:1036B000F0490860F04840684860EF4880688860DA
:1036C000ED48C068C860EC4800690861EA48406994
:1036D0004861E94880698861E748C069C861E6488F
:1036E000006A0862E448406A4862E348806A886287
:1036F000E148C06AC862E048006B0863DE48406B7E
:103700004863DD48806B8863DB48C06BC863DA4878
:10371000006C0864D848406C4864D748806C886462
:10372000D548C06CC864D448006D0865D248406D67
:103730004865D14890ED190A084680ED190A012024
:10374000CB490864CB4800694863084690ED0D0AF0
:10375000B8EEC00A10EE101A084610F075FF41ECE2
:10376000190B1FED410B53EC102B10F01FFB41EC1C
:10377000180B10F041FABE498866BE48406848619F
:10378000BC4890ED010AB8EEC00AD0ED190A80EEEF
:10379000201A084680ED061ABEE5B8480068B5490B
:1037A0000860B64840684860B44880688860B3489C
:1037B000C068C860B14800690861B04840694861A4
:1037C000AE4880698861AD48C069C861AB48006A8D
:1037D0000862AA48406A4862A848806A8862A74886
:1037E000C06AC862A548006B0863A448406B486380
:1037F000A248806B8863A148C06BC8639F48006C77
:1038000008649E48406C48649C48806C88649B486F
:10381000C06CC8649948006D08659848406D48655B
:10382000964890ED190A084680ED190A0120904942
:103830000864904800694863084690ED0D0AB8EEA8
:10384000C00A10EE101A084610F0FEFE41EC190BEB
:103850009FED8B0B53EC102B10F0A8FA41EC180BDA
:1038600010F0CAF9824988668248406848618148F8
:1038700090ED010AB8EEC00AD0ED190A80EE201AC8
:10388000084680ED061A47E57F48006879490860D8
:103890007D48406848607C48806888607A48C06895
:1038A000C86079480069086177484069486176488E
:1038B000806988617448C069C8617348006A086299
:1038C0007148406A48627048806A88626E48C06A7F
:1038D000C8626D48006B08636B48406B48636A4878
:1038E000806B88636848C06BC8636748006C086475
:1038F0006548406C486400E0CAE06348806C8864B6
:103900006148C06CC8646048006D08655E48406DE1
:1039100048655D4890ED190A084680ED190A0120B6
:1039200053490864534800694863084690ED0D0AFE
:10393000B8EEC00A10EE101A084610F085FE41ECF1
:10394000190B9FED4F0B53EC102B10F02FFA41EC9D
:10395000180B10F051F9464988664648406848619E
:10396000444890ED010AB8EEC00AD0ED190A80EE85
:10397000201A084680ED061ACEE4444800683D4906
:1039800008604248406848604048806888603F4816
:10399000C068C8603D48006908613C4840694861AA
:1039A0003A48806988613948C069C8613748006A07
:1039B00008623648406A48623448806A8862334800
:1039C000C06AC8623148006B08633048406B02E04F
:1039D000D5E04BE1C1E148632C48806B88632B48FC
:1039E000C06BC8632948006C08642848406C486470
:1039F0002648806C88642548C06CC8642348006DE4
:103A000008652248406D4865204890ED190A08462F
:103A100080ED190A012016490864164800694863B8
:103A2000084690ED0D0AB8EEC00A10EE101A0846CE
:103A300010F00AFE41EC190B9FED110B53EC102B0B
:103A400010F0B4F941EC180B10F0D6F8084988666C
:103A5000084840684861074890ED010AB8EEC00A7E
:103A6000D0ED190A80EE201A084680ED061AA1E36F
:103A70002C5C002000080020244801088C48010824
:103A8000000000860FB59941F44801085C4901081F
:103A9000FE480068FE490860FC4840684860FB48F2
:103AA00080688860F948C068C860F84800690861A3
:103AB000F64840694861F548006A0862F348806941
:103AC0008861F248C069C861F048406A4862EF48BE
:103AD000806A8862ED48C06AC862EC48006B08637F
:103AE000EA48406B4863E948806B8863E748C06BED
:103AF000C863E648006C0864E448406C4864E348E6
:103B0000806C8864E148C06CC864E048006D08655A
:103B1000DE48406D4865DD4890ED190A084680EDA5
:103B2000190A0120DB490864D9480069486308463E
:103B300090ED0D0AB8EEC00A10EE101A084610F00B
:103B400083FD41EC190B9FEDD40B53EC102B10F0BF
:103B50002DF941EC180B10F04FF8CE498866CC488F
:103B600040684861CA4890ED010AB8EEC00AD0ED3D
:103B7000190A80EE201A084680ED061A1AE3C84892
:103B80000068C3490860C64840684860C448806807
:103B90008860C348C068C860C14800690861C048FF
:103BA00040694861BE4880698861BD48C069C86194
:103BB000BB48006A0862BA48406A4862B848806AEE
:103BC0008862B748C06AC862B548006B0863B448E9
:103BD000406B4863B248806B8863B148C06BC86370
:103BE000AF48006C0864AE48406C4864AC48806CD8
:103BF0008864AB48C06CC864A948006D0865A848D3
:103C0000406D4865A64890ED190A084680ED190AEE
:103C10000120A04908649E4800694863084690ED69
:103C20000D0AB8EEC00A10EE101A084610F00CFD8E
:103C300041EC190B9FED980B53EC102B10F0B6F8DC
:103C400041EC180B0FF0D8FF924988669048406805
:103C500048618F4890ED010AB8EEC00AD0ED190A0C
:103C600080EE201A084680ED061AA3E28D4800680F
:103C7000874908608B48406848608A488068886047
:103C80008848C068C86087480069086185484069FD
:103C900048618448806988618248C069C8618148F8
:103CA000006A08627F48406A48627E48806A88628B
:103CB0007C48C06AC8627B48006B08637948406BE7
:103CC00048637848806B88637648C06BC8637548E2
:103CD000006C08647348406C48647248806C886467
:103CE0007048C06CC8646F48006D08656D48406DD1
:103CF00048656C4890ED190A084680ED190A0120C4
:103D000064490864624800694863084690ED0D0AFA
:103D1000B8EEC00A10EE101A084610F095FC41ECFF
:103D2000190B9FED5D0B53EC102B10F03FF841EC9D
:103D3000180B0FF061FF5749886655484068486185
:103D4000534890ED010AB8EEC00AD0ED190A80EE92
:103D5000201A084680ED061A2CE2534800684C49A8
:103D600008605148406848604F48806888604E4805
:103D7000C068C8604C48006908614B4840694861A8
:103D80004948806988614848C069C8614648006AF6
:103D900008624548406A48624348806A88624248EF
:103DA000C06AC8624048006B08633F48406B486384
:103DB0003D48806B88633C48C06BC8633A48006CE0
:103DC00008643948406C48643748806C88643648D9
:103DD000C06CC8643448006D08653348406D486560
:103DE0003148806D88653048C06DC8652E48006ECA
:103DF00008662D4890ED190A084680ED190A012041
:103E000024490864224800694863084690ED0D0A79
:103E1000B8EEC00A10EE101A084610F015FC41EC7E
:103E2000190B9FED220B53EC102B0FF0BFFF41EC51
:103E3000180B0FF0E1FE17498866084690ED1A0A44
:103E4000DFED1C0A80EE201A80ED1A1A1048406837
:103E500048610F4890ED010AB8EEC00AD0ED190A8A
:103E600080EE201A084680ED061AA3E11248006889
:103E7000074908601048406848600F4880688860BB
:103E80000D48C068C8600C48006917E0C4490108C3
:103E9000000800202C5C0020CDCCCC5455F59B4173
:103EA0002C4A0108944A0108CC4B0108D7A3703D65
:103EB0000AD74A400000C848344C01080861F94854
:103EC00040694861F74880698861F648C069C861FF
:103ED000F448006A0862F348406A4862F148806A20
:103EE0008862F048C06AC862EE48006B0863ED481B
:103EF000406B4863EB48806B8863EA48C06BC863DB
:103F0000E848006C0864E748406C4864E548806C09
:103F10008864E448C06CC864E248006D0865E14804
:103F2000406D4865DF48806D8865DE48C06DC865B6
:103F3000DC48006E0866DB4890ED190A084680ED03
:103F4000190A0120D8490864D8480069486308461E
:103F500090ED0D0AB8EEC00A10EE101A084610F0E7
:103F600073FB41EC190B1FED2F0B53EC102B0FF0D3
:103F70001DFF41EC180B0FF03FFECB498866084649
:103F800090ED1A0A5FED350A80EE201A80ED1A1ABC
:103F9000C64840684861C54890ED010AB8EEC00ABD
:103FA000D0ED190A80EE201A084680ED061A01E1CC
:103FB000BF480068BD490860BD4840684860BC48CB
:103FC00080688860BA48C068C860B94800690861FC
:103FD000B74840694861B64880698861B448C0699B
:103FE000C861B348006A0862B148406A4862B04894
:103FF000806A8862AE48C06AC862AD48006B0863D8
:10400000AB48406B4863AA48806B8863A848C06B84
:10401000C863A748006C0864A548406C4864A4487D
:10402000806C8864A248C06CC864A148006D0865B3
:104030009F48406D48659E4890ED190A084680EDFE
:10404000190A02209849086498480069486308469C
:1040500090ED0D0AB8EEC00A10EE101A084610F0E6
:10406000F3FA41EC190B1FED6F0B53EC102B0FF013
:104070009DFE41EC180B0FF0BFFD8B49886608468A
:1040800090ED1A0A5FED750A80EE201A80ED1A1A7B
:10409000864840684861854890ED010AB8EEC00A3C
:1040A000D0ED190A80EE201A084680ED061A81E04C
:1040B000804800687D4908607E48406848607D48C7
:1040C000806888607B48C068C8607A480069086179
:1040D0007848406948617748806988617548C06957
:1040E000C8617448006A08627248406A4862714850
:1040F000806A88626F48C06AC8626E48006B086355
:104100006C48406B48636B48806B88636948C06B40
:10411000C8636848006C08646648406C4864654839
:10412000806C88646348C06CC8646248006D086530
:104130006048406D48655F4890ED190A084680ED7B
:10414000190A02205849086458480069486308461B
:1041500090ED0D0AB8EEC00A10EE101A084610F0E5
:1041600073FA41EC190B1FEDAF0B53EC102B0FF052
:104170001DFE41EC180B0FF03FFD4B4988660846C9
:1041800090ED1A0A4948D0ED190A80EE201A084627
:1041900080ED1A1A454840684861444890ED010A8C
:1041A000B8EEC00AD0ED190A80EE201A084680ED5C
:1041B000061A00BF00BFBDEC048B10BD01463E4A8D
:1041C000D268412A45D010DC302A2ED006DC202AC5
:1041D0001CD0212A1FD0222A70D121E0312A29D0D7
:1041E000322A2CD0402A69D12EE0702A45D006DC34
:1041F000422A33D0502A36D0512A5FD138E0722A71
:1042000045D0732A48D0752A58D13BE0002020229F
:10421000254B5A6457E001202122234B5A6452E077
:1042200002202222204B5A644DE0032030221E4BF4
:104230005A6448E0042031221B4B5A6443E00520B5
:104240003222194B5A643EE006204022164B5A6433
:1042500039E007204122144B5A6434E008204222FE
:10426000114B5A642FE0092050220F4B5A642AE068
:104270000A2051220C4B5A6425E00B2070220A4B75
:104280005A6420E00C207522074B5A641BE00D2075
:104290007222054B5A6416E00E207322024B5A64B8
:1042A00011E00BE0344C01082C5C002000080020D9
:1042B000FC4A0108644B0108A85C00200020202271
:1042C000FA4B5A6400BF00BF70472DED0C8B84B0D1
:1042D00000BF00BF00BF00BF00BF00BFF44DF54CE2
:1042E000F54E10F029FA00F068FF05F08DFAF34959
:1042F000486601F001FD642001F050FE01F06CFD04
:1043000001F08FFD02F0BBF905F026F8FEF7FBFC8B
:10431000FEF793FB01F060FE019820F47C10019001
:10432000019820F4FE400190019820F07F00019058
:10433000019801F05BFF08F0BDFA01F0B3FA00F05C
:10434000A7FD06F0C9FD05F044FF02F00FFB402079
:10435000DB49086008F098FE642008F074FE08F05D
:104360007AFC642008F012FD08F043FD03F000FD24
:10437000642001F005FE05F0D2F8642001F000FE93
:104380002020CA49486400200860E06A20F4004008
:10439000E06262B6C948406E022809D1C94948683E
:1043A00005F053FAC449D1F8D80004F0D2FD08E072
:1043B000C248406E012804D1BF49D1F8D80004F0AA
:1043C000ABFD012005F007FABC49486E0AF038FE43
:1043D0000CF08EFC00200CF002FD0CF0A5FBBA489E
:1043E0000BF0D4F94FF420700CF0C0FC142001F055
:1043F000C7FDB648D0F80E20B5A14FF4FA600AF018
:10440000FDF901F0C5FC0AF0C9FB8046B8F1000FC8
:1044100047D107F036FDB54AB5A14FF4FA600AF06E
:10442000EDF9B248801FD0F80200A0490860AF48FB
:10443000801FD0F80200039042F6FE220398811AF2
:1044400090421BD009DCA0F51850A0F58B7048B144
:1044500007280BD013281DD10CE0072912D01329EF
:1044600018D113E040209149486414E041208F495D
:10447000486410E042208D4948640CE030208B49AC
:10448000486408E031208949486404E032208749C3
:10449000486400E000BF00BF8448406C9A49C8608F
:1044A0000EE09949C868FFF789FE07467F4887678D
:1044B000964800EB071296A14FF4FA600AF09EF9B5
:1044C0007A49486CFEF701FE02F0C6FDFEF7CEFA0F
:1044D000E06A20F48040E062E06A20F008000830E2
:1044E000E062E06A20F4005000F50050E062002035
:1044F00005F0C3FA4FF480308B49C1F8AC000121BC
:10450000902003F06CFA894890ED1A0ABCEEC00ABC
:10451000854880ED2B0A0021C0F8B01001219120C0
:1045200003F05DFA0121112003F059FA642001F033
:1045300027FD0121112003F052FA7B48D0F8B0107A
:1045400040F6C410814205DC7748D0F8B0007849C5
:10455000884215DAE06A20F4804000F58040E0628D
:10456000E06A20F00800E062E06A20F40050E062B7
:10457000012005F082FA6FA14FF4FA600AF03EF9CB
:104580006148C068722803D05F48C068732820D192
:1045900003F043FB02204949C8656348B0F800A016
:1045A0000846C06D022817D15F48008840F40070AB
:1045B0005D4908800121802003F011FA5A480088E3
:1045C00040F48070584908800121802003F007FAE8
:1045D00002E001203949C8653848406E022803D1FD
:1045E0003849486805F031F9FEE301F0B9FE81462B
:1045F000B9F1900F02D157A001F0B7F85C48D0F89C
:104600000001012805D1FCF7B0F802205849C1F893
:10461000000101F008FF01F0D9FC002844D0254832
:1046200090F82C00C0F3C01018B140F28140FBF7A5
:104630002EFF504800680A2808DA04204E49086016
:104640004C480068401C4B4908609EE0494800689F
:104650000A280DDB47480068142809DA4FF4802047
:104660004549086043480068401C424908608CE0A6
:10467000A08DC0F3803020B12EA14FF4FA600AF073
:10468000BDF800203B4908603C480068401C3B499D
:10469000086008460068022877DB002008600748A9
:1046A000006E012871D16BE07FE36EE02C5C00208E
:1046B000E45D0020BC070020AC5A00209C5B002079
:1046C00018080240085E00200C5E01083802002035
:1046D00054686F726C616273204B53543130310AED
:1046E00053775265762025303658000056600020FA
:1046F000537461676520636F6E6E65637465643AB9
:104700000A252E3873000000A85C00205C050020FC
:104710005374616765205065727369737465643A98
:104720000A252E3873000000A8060020000800208B
:104730003CF6FFFF57726F6E672053746167652008
:104740000A5475726E206F6666204B5354313031B7
:1047500000000000496E76616C696420415054206D
:104760006D65737361676520666F726D61742E008D
:10477000780000204400002018040240540000206B
:10478000F3A14FF4FA600AF039F8F748C06D022837
:104790004BD10121112003F022F90121282003F03F
:1047A0001EF9F248406C722802D0732806D102E04C
:1047B000DFF8BCA305E0DFF8BCA302E0DFF8B0A39C
:1047C00000BF00BFEC48D0F80801504506DCEA48BD
:1047D000D0F80801CAF10001884226DA0120E24936
:1047E0000866C865E44800884FF6FF610840E24962
:1047F00008800121802003F0F2F803F004FA002081
:10480000D9490863DD480068022803D140F22B50E3
:10481000FBF73DFED9480068022806D1D84B48F680
:10482000BB0200218120FBF732FE04F0E3FFCE49FA
:10483000C861C86905F00FF8CB4908620846806F67
:1048400002280ED10846006B20B9C74A316CD069E6
:1048500006F057F8CB480068012121EA5020C249F0
:10486000C862C149C86A08F0D2FCBF49486208461C
:10487000406A10B3C448C06AC0F3404010B9C2488F
:104880000069D0B10320C14908600220BE494861D7
:10489000002008610846C06A20F01000C86208467F
:1048A000C06A20F020002030C8620520B749486067
:1048B00003F0A9F90020AC494862AB4B9B6A0BB1ED
:1048C000012300E000231A46A74BD969586A343304
:1048D00008F05BFEA4490863086B09F0CAF9AC480C
:1048E0000069012121EA10209F494865486DFEF7C3
:1048F00060FB9D4988620846006B002876D1084617
:10490000406B002872D04FF0010B15E29648406BC7
:1049100000EA0B00402832D00CDC082826D004DC4A
:1049200001287CD002287BD110E0102846D0202816
:10493000F9D15CE0802874D0B0F5807F20D0B0F54C
:10494000007F32D0B0F5806FEDD10EE07F21F06DA9
:1049500090FBF1F08849486788480068022803D135
:1049600040F22250FBF793FDE3E100BF834800686B
:10497000022803D140F22250FBF789FDD9E1D8E1AA
:10498000844890ED340A8448D0ED050A20EE200AD0
:10499000BDEEC00A86ED090A78480068022803D1F6
:1049A0004FF48360FBF773FDC3E17448006802288D
:1049B00003D140F22B50FBF76AFDBAE17248808DBB
:1049C000C0F3403088B9E06A20F48040E062E06AD9
:1049D00020F008000830E062E06A20F4005000F5A2
:1049E0000050E062002005F048F8A2E1ACE1664822
:1049F000808DC0F34030F8B103F005F9E06A20F093
:104A00001000E062E06A20F020002030E062052023
:104A10006860E06A20F48040E062E06A02E017E04B
:104A200086E10AE020F00800E062E06A20F400502D
:104A3000E062012005F021F87BE14C49486CFEF76B
:104A400044FB02F009FB4948406C5349C86070E1DF
:104A50004D48808DC0F34030002876D04A48808D84
:104A6000C0F3C030002870D04048406C70286DD131
:104A7000484890ED34AA90ED340A4748D0ED050A35
:104A800020EE200AF0EE409A4248D0ED358A3AEE08
:104A9000688A18EE100A0FF0D7FD41EC1C0BB0EE3F
:104AA0004C0AF0EE6C0A0EF057FBB0EE40BAF0EE96
:104AB00060BA51EC1B0B0FF09FF809EE900A3648D4
:104AC00090ED050A60EE08AA9FED340AF4EEC09A54
:104AD000F1EE10FA66DDB5EEC08AF1EE10FA19DDDE
:104AE00090ED050ADFED2E0A20EE200AF0EE409A46
:104AF000D0ED050AB0EE690A18EE200AB0EE40DAF1
:104B0000214890ED000AB8EEC00A30EE0D0AB0EE72
:104B1000409A50E0204890ED050ADFED210A20EE92
:104B2000200AF0EE409AD0ED050AB0EE690A08EED0
:104B3000200AB0EE40DA144890ED000AB8EEC00A40
:104B400030EE0D0AB0EE409A35E07CE038E029E026
:104B5000536572766F204572726F72200A486F6DCE
:104B600065205374616765009C5B00202C5C00200D
:104B7000B8050100E0930400A8060020185C00209E
:104B80006465010810080240BC070020E45D0020B5
:104B900000000240AC5A0020A85C00200000344312
:104BA0000000B443A64890ED000AB8EEC00A30EE0B
:104BB0002A0AB0EE409ABDEEC90A8DED020A0DE058
:104BC000A04890ED340AA048D0ED050A20EE200A56
:104BD000B0EE409ABDEEC90A8DED020AE06A20F4FB
:104BE000003000F50030E062E06A20F40010E0627E
:104BF000E06A20F00200E062012068600298A8608C
:104C0000A8682168884201DA706C00E00020E86042
:104C1000B068286130696861B069A861F06928628C
:104C200094F82C00C0F3C01028B1E06A20F0100006
:104C30001030E06203E0E06A20F01000E062834997
:104C4000C86D03F09AFF7E48808DC0F3C030E8BB8A
:104C50007F48006C02280FD118EE900A0FF0F4FC88
:104C600041EC1B0B842053EC1B2B7AA100904FF4DA
:104C70007A7009F0C3FD5AE07548406C732803D080
:104C80007348006C722845D16E4890ED340A6E4826
:104C9000D0ED050A20EE200AB0EE409ABDEEC90A1A
:104CA0008DED020AE06A20F4003000F50030E06289
:104CB000E06A20F40010E062E06A20F00200E062A6
:104CC000012068600298A860A86800E02FE02168D1
:104CD000884201DA706C00E00020E860B06828616A
:104CE00030696861B069A861F069286294F82C00A5
:104CF000C0F3C01028B1E06A20F010001030E0626C
:104D000003E0E06A20F01000E0625049C86D03F053
:104D100034FF0CE018EE900A0FF096FC41EC1B0BF0
:104D200053EC1B2B51A14FF47A7009F067FD00E0A2
:104D300000BF00BF4FEA4B0BBBF1000F7FF4E6ADA5
:104D400000204249486300BF4048806A012819D1C9
:104D50004C4800F0E9FC0220FBF799FB02F053FFFE
:104D6000052068603648C06A20F010003449C862E7
:104D70000846C06A20F02000C8620846C06A20F0D9
:104D80008000C8623148406800280DDD2F48017955
:104D90004068401E2D4A506001F0040010B10AF036
:104DA000DEFA01E00AF0E0FA00BFA08DC0F3403067
:104DB00018B105F098FC05F023FA334840683249F1
:104DC000C1F8A00004F071F83048C06A01281DD174
:104DD0002E48006B2C49D1F8A010884207DB2B48E5
:104DE000006B2949496800E027E088420CDD27482C
:104DF000006B2549D1F8A010884207DC2348006BDE
:104E000021494968884201DB08F07AF807F06AFD19
:104E100007F072FD07F077FE00200C49086404F0EB
:104E2000C4F90A48006C012803D10849486CFDF711
:104E3000ACFC04F0AFFE04F075FEFFF7D6BB00003B
:104E4000BC070020AC5A0020A85C00209C5B00201E
:104E50002C5C0020417420252E346625630A486F9F
:104E60006D65205374616765202000004174202522
:104E70002B2E3466206D6D0A486F6D65205374616A
:104E80006765000008320008A8060020BC02002068
:104E9000864A126842F48022844B1A60834A103A90
:104EA0001268834B1A43814B103B1A60814A126887
:104EB00022F480127F4B1A601A46126842F40012E4
:104EC0001A601A1D126822F480621B1D1A60794A4A
:104ED0000C32126822F44012764B0C331A601A1FFF
:104EE000126822F440121B1F1A60724A526A22F49E
:104EF000706242F4E0636F4A5362126822F48002E7
:104F00006C4B1A601A46126842F400021A60694A31
:104F10000C32126822F44002664B0C331A60654A68
:104F2000526A22F4704242F4E043624A5362624998
:104F3000881040F26D12614B1A8000225F4B0833DB
:104F40001A801B1D1A805D4A121D128842F40052FD
:104F50005A4B1B1D1A80594A0C32128842F0C0026B
:104F6000564B0C331A80564A926D22F00102544B74
:104F70009A6500E000BF524A926D02F00102002AD9
:104F8000F8D14F4A926D22F060624D4B9A651A46F5
:104F9000926D42F000629A651A46926D42F4886200
:104FA0009A65464A121F1A660022DA651A46926A04
:104FB00022F001029A6200E000BF414A926A02F0C8
:104FC0000102002AF8D13E4A926A22F060623C4B0C
:104FD0009A621A46926A42F000629A621A46926A8D
:104FE00042F4A0629A62354A121F1A63354A5A6324
:104FF0001A15DA62314A083A128822F040022F4B21
:10500000083B1A802D4A121D128842F00C022B4BCD
:105010001B1D1A802A4A926A42F00102284B9A62AA
:1050200070472749C96AC1F58061274A12689142D1
:1050300002D14FF6FF700FE023490A680968491C46
:10504000214B19601F49885C19460968B1F5806FCA
:1050500002D100211A4611607047194A926D22F060
:105060000102174B9A6500E000BF154A926D02F0ED
:105070000102002AF8D1124A5066D1650F4A083A57
:10508000128822F040020D4B083B1A804FF000625C
:105090000B4B9A601A46926D42F001029A65704776
:1050A00006480838008800F0400070474038024049
:1050B0000200200000040240007A030A0848004071
:1050C00000600240AC0800205C00002010B14FF4EA
:1050D000004101E04FF00041FE4A1160704708B105
:1050E000042101E04FF48021FB4A1160704708B1B0
:1050F000082101E04FF40021F84A9161704701282E
:1051000000D102E0022800D1002008B1042101E012
:105110004FF48021F24A116068B9EE4918390968E4
:1051200041F00401EB4A183A11601146096821F078
:105130000801116014E0E7491839096821F00C01F1
:10514000E44A183A1160E3490C39096821F0040176
:10515000E04A0C3A11601146096821F0080111601B
:105160007047012800D102E0022800D1002010B1D0
:105170004FF4004101E04FF00041D94A116058B9A5
:10518000D649096841F00401D44A11601146096802
:1051900021F0080111600FE0D049096821F00C01ED
:1051A000CE4A11601146C96821F00401D160114650
:1051B000C96821F00801D1607047CA48006840F012
:1051C0000100C8490860C548006820F00300C349D1
:1051D00008600846C06820F00100C8600846C06842
:1051E00020F00200C8600846006820F00C0008604B
:1051F0000846C06820F00400C8600846C06820F077
:105200000800C8600846006840F4A87008600846B6
:10521000006820F4287008600846806940F010009B
:1052200088610846006820F4403008600846C0687D
:1052300020F48030C8600846C06820F40030C860A0
:105240000846006820F0404008600846C06820F02A
:105250008040C8600846C06820F00040C860A1488F
:10526000006840F002009F4908609A4818380068BA
:1052700040F011009749183908600846006820F08E
:10528000220008609348006840F48030914908602B
:105290000846006840F4802008608E48183800688E
:1052A00040F004008B49183908600846006820F077
:1052B000080008608748006840F4003085490860AD
:1052C00084481838006820F0C00082491839086006
:1052D00080480C38006820F040007E490C39086096
:1052E0000846006820F0800008607A481838006896
:1052F00020F4407077491839086076480C38006807
:1053000020F4807073490C3908600846006820F466
:10531000007008606F481838006820F440606D49DC
:10532000183908606B480C38006820F480606949BF
:105330000C3908600846006820F400600860654881
:105340001838006820F440506249183908606148F4
:105350000C38006820F480505E490C39086008461B
:10536000006820F4005008605A481838006820F49B
:10537000404058491839086056480C38006820F4F5
:10538000804054490C3908600846006820F4004009
:10539000086050481838006820F440304D491839EA
:1053A00008604C480C38006820F4803049490C39BA
:1053B00008600846006820F4003008604548183846
:1053C000006820F4402043491839086041480C38EF
:1053D000006820F480203F490C39086008460068C6
:1053E00020F4002008603B481838006840F0AA40CC
:1053F0003849183908600846006820F02A400860DB
:105400003448006840F0805032490860084600681F
:1054100040F0005008600846006840F48040086092
:105420000846006840F0004008602E48006840F0E0
:1054300004002C4908602A481838006840F05500DC
:105440002749183908600846006820F0AA0008605B
:1054500010202349086022481838006840F4807002
:105460001F49183908600846006820F40070086079
:105470001B481038006820F4407019491039086042
:1054800017481838006820F440601549183908603A
:1054900013480C38006820F4406011490C3908604A
:1054A0000F48006840F480300D49086008460068E5
:1054B00040F4003008600846006840F4802008602E
:1054C0000846006840F40020086005481838006865
:1054D0000AE0000018040240180C024000000240DC
:1054E000180802403038024020F440607B490860D0
:1054F0007A480C30006820F4806078490C310860EC
:105500000846006820F4006008607448006840F4B1
:10551000A040724908600846006820F420400860F6
:105520006E481830006840F040006C49183108603F
:105530000846006840F0800008606848006820F471
:1055400040306649086065480C30006820F48030BF
:1055500062490C3108600846006820F40030086099
:105560005E48006820F440205C4908605B480C30CD
:10557000006820F4802059490C3108600846006812
:1055800020F4002008605548006820F0406053492E
:10559000086052480C30006820F080604F490C31A0
:1055A00008600846006820F0006008604B4800680A
:1055B00020F040504949086048480C30006820F00D
:1055C000805046490C3108600846006820F00050C1
:1055D00008604248006840F0804040490860084642
:1055E000006820F0004008603C481830006840F433
:1055F00000403A49183108603948006840F0080016
:10560000374908603748006840F0100035490860A5
:105610003248006820F020003049086031481830D6
:10562000006840F004002F491831086070472E4888
:10563000006820F00C002C4908600420274918312C
:10564000086000BF00BF00BFBFF35F8F00BF00BF97
:1056500000BF254810300068C0F3400070474FF489
:1056600080211E4A1832116008B1022101E04FF476
:1056700000311D4A183211601B49096841F00401CC
:10568000194A116070471948006820F00C0017494A
:1056900008604FF4004011491831086000BF00BF96
:1056A00000BFBFF35F8F00BF00BF00BF0F4800699E
:1056B000C0F3400070474FF00041084A18321160B3
:1056C00008B1022101E04FF40031084A916111460E
:1056D000096841F0040111607047000000080240B1
:1056E00030380240000C024000040240000002403A
:1056F00010B558480068B0B1FFF7D2FC98B15548D2
:10570000016855480068FFF7A8FC534800685349F2
:10571000884202D101F5806000E050484E4908609F
:1057200000204C49086010BD0FB438B505A80090A2
:1057300048480068B0F5806F02D349A000F015F822
:1057400045490968434A12688818009A04990BF081
:10575000A5FC04463F48006820443E4908600020FC
:105760000090204638BC5DF814FB0446214644A056
:10577000FFF7DAFF01E0FFF7BBFFFCE72DE9F0419F
:1057800005460E4600274448006808B943480560AE
:105790003DE0082C04D00A2C1DD00D2C20D119E09E
:1057A0003D480068A8B108213DA0FFF7BDFF2021BA
:1057B0003BA0FFF7B9FF082139A0FFF7B5FF364836
:1057C0000068401E3449086034480068401E334970
:1057D00008601BE000BF012700202F49086015E08A
:1057E0002D480068B04210D221462DA0FFF79CFF43
:1057F0002A4909680C7029480068401C274908603C
:1058000025480068401C2449086000BF00BFFFF71E
:1058100008FC04464FF6FF718842BAD16FB10020F0
:105820001E49096808701D480068401C1B49086033
:1058300008460068401BBDE8F0810020FBE710B57A
:1058400000E000BFFFF72CFC0028FAD0FFF750FF64
:1058500010BD00006400002060000020AC0C00209F
:10586000436F6E736F6C65207072696E7420627521
:1058700066666572206F766572666C6F77000000F1
:105880000D0A457869742077697468206572726FB3
:10589000723A202573000000680000206C00002090
:1058A00025630000F948006840F01000F7490860DF
:1058B000F64814380068F6490843F449143908607A
:1058C000F448006820F48020F24908600846006827
:1058D00040F4002008600846406820F400704860EA
:1058E0000846C06820F44020C8600846806820F45C
:1058F000402088600846406A20F0F00040F07001C7
:10590000E4484162006820F48010E24908600846DB
:10591000006840F4001008600846C06820F40010D9
:10592000C8600846C06840F48010C8600846406AF5
:1059300020F4706040F4E061D6484162C002D5496D
:1059400088610846006840F080700860084600687A
:1059500020F0007008600846806840F04070886061
:105960000846006820F4400008600846C06820F43B
:105970000000C8600846C06840F48000C86040F27B
:10598000D920C5490881002008828882084680897C
:1059900040F4005088810846808A40F0C000888228
:1059A000BE48006820F00100BC49086000E000BF6C
:1059B000BA48006800F001000028F8D1B748006834
:1059C00020F06060B54908600846006840F000605B
:1059D00008600846006840F488600860AE48001D12
:1059E000AE49083108600020091F0860AB487838CC
:1059F000006820F00100A9497839086000E000BF84
:105A0000A6487838006800F001000028F7D1A348C4
:105A10007838006820F06060A0497839086008464E
:105A2000006840F0006008600846006840F4A0602C
:105A300008609948001D9949703908609848091D07
:105A4000086008159549743908609348008820F06B
:105A50004000914908800846808940F00C00888108
:105A60008E487838006840F001008C497839086029
:105A700070478648001F006840F400308349091FC2
:105A8000086008460068824908438049091F086089
:105A90008048006820F480207E490860084600683D
:105AA00040F4002008600846406820F40070486018
:105AB0000846C06820F44020C8600846806820F48A
:105AC000402088600846406A20F0F00040F07001F5
:105AD00070484162006820F480106E4908600846F2
