:020000040800F2
:10000000A08E0020BD040008C5040008C704000835
:10001000C9040008CB040008CD040008000000005B
:10002000000000000000000000000000CF040008F5
:10003000D104000800000000E59B0008D50400087A
:10004000D7040008D7040008D7040008D704000824
:10005000D7040008D7040008D704000839C30008F3
:10006000D7040008D7040008D7040008D704000804
:10007000D7040008D7040008D7040008D7040008F4
:10008000D7040008D7040008D7040008E3B9000823
:1000900043B90008D7040008D7040008D7040008B3
:1000A000D7040008D7040008D7040008D7040008C4
:1000B000D7040008D7040008D7040008D7040008B4
:1000C000D7040008D7040008D7040008D7040008A4
:1000D000D7040008D7040008D7040008D704000894
:1000E000D7040008D7040008D7040008D704000884
:1000F000D7040008D7040008D7040008D704000874
:10010000D7040008D704000847CE0008D704000829
:10011000D70400081DB20008D7040008D70400085F
:10012000D7040008D7040008D7040008D704000843
:10013000D7040008D7040008D7040008D704000833
:10014000D7040008D7040008D7040008D704000823
:10015000D7040008D7040008D7040008D704000813
:10016000D7040008D7040008D7040008D704000803
:10017000D7040008D7040008D7040008D7040008F3
:10018000D7040008FB9B000800F002F800F0B2F86A
:100190000AA090E8000C82448344AAF10107DA45E2
:1001A00001D100F0A7F8AFF2090EBAE80F0013F082
:1001B000010F18BFFB1A43F0010318471832010062
:1001C000383201000A444FF0000C10F8013B13F0E4
:1001D000070408BF10F8014B1D1108BF10F8015BA0
:1001E000641E05D010F8016B641E01F8016BF9D193
:1001F00013F0080F1EBF10F8014BAD1C0C1B09D1EA
:100200006D1E58BF01F801CBFAD505E014F8016B5B
:1002100001F8016B6D1EF9D59142D6D370470000ED
:100220000023002400250026103A28BF78C1FBD8FF
:10023000520728BF30C148BF0B6070476E290DF0D0
:10024000518270290DF0C085662911F088846529D6
:1002500011F08584672911F082846129AFF3008051
:1002600003681B0A28BF41F0800169290CF0D2867F
:1002700064290CF0CF8675290CF0CC866F290DF01F
:100280004B8578290DF08C85E9290DF0E384E4296C
:100290000DF0E084F5290DF0DD84EF290DF048859F
:1002A000F8290DF08B850368DB0928BF41F0800138
:1002B00063290DF0648473290DF06984E3290EF03D
:1002C000C580F3290EF0CA80002070471FB511F0D9
:1002D0003CFC0EF01BF804000020002110F0C8FDCB
:1002E000401C60600020002110F0ACFDE0601FBDEC
:1002F00010B510BD0EF004FB1146FFF7E7FF01F04B
:1003000003F80EF053FD03B4FFF7F2FF03BC0EF049
:1003100067FD000000210020604A126842F480322C
:100320005E4B1A6000BF5D4A126802F40030491C3F
:1003300010B9B1F5705FF6D1584A1268C2F3404067
:1003400000287DD0554A4032126842F08052534B0B
:1003500040331A60524A126842F48042504B1A608D
:1003600040F205624F4B1A604C4A083212684B4B00
:1003700008331A601A46126842F400421A601A469C
:10038000126842F4A0521A601A46126822F4F81257
:1003900042F400221A601A46126822F07C521A6057
:1003A0001A46126842F080621A601A46126842F0D9
:1003B00060521A601A46126822F040421A601A46C9
:1003C000126842F080421A60374A1B1F1A601A1FD7
:1003D000126842F080721B1F1A6000E000BF2F4AB3
:1003E000126812F0007FF9D040F205622D4B1A60BE
:1003F0002A4A0832126822F00302284B08331A6096
:100400001A46126842F002021A6000E000BF234A56
:100410000832126802F00C02082AF7D1234A1F4B57
:1004200084331A601D4A126842F080621B4B1A60C6
:1004300001E005E000BF194A126812F0006FF9D020
:10044000704710B51A48006840F4700018490860F9
:100450001248006840F001001049086000200F4970
:10046000083108600D480068124908400B490860CF
:100470001148091D0860081F006820F48020091F2A
:100480000860002005490C310860FFF743FF4FF07A
:10049000006007498039086010BD00000038024044
:1004A00000700040003C02400850400700400050EF
:1004B00088ED00E0FFFFF6FE103000240948804779
:1004C00009480047FEE7FEE7FEE7FEE7FEE7FEE736
:1004D000FEE7FEE7FEE7FEE704480549054A064B4E
:1004E000704700004304000889010008A084002030
:1004F000A08E0020A0860020A086002010B5044613
:100500002146F9A009F06BFD10BDF0B52DED068B6D
:1005100085B0002602F0C0FC05466DB9F948D0F858
:10052000F40020F00400001DF649C1F8F40007F0C3
:10053000EDF901F005FF2BE0F248D0F8F40020F0CF
:100540000400F049C1F8F4000846006801280CD105
:100550002946EDA009F043FDEA48D0F8F80040F044
:100560000100E849C1F8F80012E00320EE494860B4
:10057000EEA009F034FD4FF00060F74908609FEDF0
:10058000F70AF74880ED130A9FEDF60A80ED140A8A
:10059000F5A009F024FDF848D0F8B400F7498842E6
:1005A0003AD1B822F449EE480CF0AEFFDE48C068FC
:1005B000F1494968884221D1DB48007A582804D1A2
:1005C000D948007B10F0010F08D0D748007A59288D
:1005D00010D1D548007B10F0010F0BD0C948D0F8DE
:1005E000F80040F00400C749C1F8F800E4A009F0A1
:1005F000F6FC1CE0E9A009F0F2FC18E0C148D0F8D4
:10060000F80040F00200BF49C1F8F800D448416842
:10061000E54809F0E4FC0AE0BA48D0F8F80040F0F8
:100620000200B849C1F8F800E0A009F0D8FCCC48B5
:10063000D0ED030AB0EE600A01F0C6FBC848D0ED69
:10064000040AB0EE600A01F0A7FBC54890ED030A6A
:1006500010EE101A084611F0F9F941EC100BB0EE4B
:10066000408AF0EE608A53EC182BDAA009F0B7FC50
:10067000BB4890ED040A10EE101A084611F0E6F996
:1006800041EC100BB0EE408AF0EE608A53EC182B70
:10069000D6A009F0A4FCB248D0ED060AB0EE600A7C
:1006A00001F0A5FBAE48D0ED050AB0EE600A01F0FE
:1006B000C1FBAB4890ED060A10EE101A084611F087
:1006C000C5F941EC100BB0EE408AF0EE608A53ECB5
:1006D000182BCBA009F083FCA14890ED050A10EE81
:1006E000101A084611F0B2F941EC100BB0EE408A36
:1006F000F0EE608A53EC182BC7A009F070FCCCA078
:1007000009F06DFC00241CE09548603000EB84008B
:1007100090ED000A10EE101A084611F097F941EC1E
:10072000100BB0EE408AF0EE608A042C01D0C4A019
:1007300000E07CA053EC182B0090C2A009F04FFC05
:10074000641C052CE0D3C1A009F049FC00241CE086
:1007500083484C3000EB840090ED000A10EE101A34
:10076000084611F073F941EC100BB0EE408AF0EE40
:10077000608A042C01D0B2A000E06AA053EC182BD0
:100780000090B0A009F02BFC641C052CE0D30522DE
:100790005C49C0317248603003F010FC05463DB141
:1007A0005848D0F8F40020F040005649C1F8F40051
:1007B000544890F8F400C0F3801008B1A7A000E0FE
:1007C000A7A00146A7A009F00AFC9FEDAA0A0CF019
:1007D00021FA4C4880ED240A9FEDA70A0CF01AFA82
:1007E000484880ED250A90ED250A10EE101A0846BB
:1007F00011F02CF941EC100BB0EE408AF0EE608A5B
:10080000404890ED240A10EE101A084611F01EF927
:1008100041EC100BB0EE409AF0EE609A8DED008B3B
:1008200053EC192B95A009F0DAFB9CA009F0D7FB3B
:100830005148D0F860015149884209D157A009F0C8
:10084000CEFBAC224C49B83199480CF05DFE02E079
:1008500056A009F0C4FB4248016896A009F0BFFB0E
:10086000934890ED000A10EE101A084611F0EEF8C9
:1008700041EC100BB0EE408AF0EE608A53EC182B7E
:1008800090A009F0ACFB8A4890ED030A10EE101A14
:10089000084611F0DBF841EC100BB0EE408AF0EEA8
:1008A000608A834890ED020A10EE101A084611F093
:1008B000CDF841EC100BB0EE409AF0EE609A7C4817
:1008C00090ED010A10EE101A084611F0BFF841EC45
:1008D000100BB0EE40AAF0EE60AA8DED028B8DED0C
:1008E000009B53EC1A2BF9E00D0A556E7265636F8D
:1008F00076657261626C65206572726F723A20254E
:1009000073000000D81900200D0A4F6E65576972F8
:1009100065206572726F723A097374617475732021
:100920003D202564000000000C1B00200D0A4E6FC6
:10093000204F6E65576972652049443A096F70749B
:100940006963616C20666565646261636B206173D5
:1009500073756D6564000000180C024055380E4731
:1009600068180020558D63C60D0A43616C69627278
:100970006174696F6E3A09005816002066191225D5
:100980005820616E642059206368616E6E656C73D7
:1009900020737761707065640000000064617461A9
:1009A0002076616C69640000601C010864617461F8
:1009B00020696E76616C69642C207573696E67209E
:1009C00064656661756C7420706172616D657465D3
:1009D000727300000D0A53696E6520667265713A84
:1009E00009252E306620487A000000000D0A536960
:1009F0006E6520616D706C3A09252E3366205600B5
:100A00000D0A44656D6F642070686173653A09254D
:100A10002E336620646567000D0A44656D6F64209F
:100A20006F66667365743A09252E3366205600009A
:100A30000D0A506F6C7920706F776572733A0900F8
:100A40002C200000252B6625730000000D0A506F36
:100A50006C7920636F656666733A09006F6E0000FB
:100A60006F6666000D0A506F6C7920636F72723A80
:100A700009257300CDCCCC3DCDCC9C400D0A506FE8
:100A80007320446D642052616E67653A09252E33E8
:100A90006620746F20252E33662056000D0A55738C
:100AA0006572204F70506172616D733A09000000E9
:100AB000BC1700200D0A556E697420532F4E3A0959
:100AC000257500000D0A55736572204856206C6923
:100AD0006D69743A09252E3166205600F4A009F09C
:100AE0007EFAFE48406A012802D1AFF2900001E090
:100AF000AFF294000146FAA009F071FAF74890EDC0
:100B00000D0A10EE101A084610F0A0FF41EC100B71
:100B1000B0EE408AF0EE608AF04890ED0B0A10EEDD
:100B2000101A084610F092FF41EC100BB0EE409AFC
:100B3000F0EE609A8DED008B53EC192BEDA009F0CF
:100B40004EFAE648806A012802D1AFF2F00001E0D7
:100B5000AFF2F4000146EDA009F041FADF4890ED54
:100B60000E0A10EE101A084610F070FF41EC100B40
:100B7000B0EE408AF0EE608AD84890ED0C0A10EE94
:100B8000101A084610F062FF41EC100BB0EE409ACC
:100B9000F0EE609A8DED008B53EC192BD5A009F087
:100BA0001EFACE4890F86400C0F3C01020B14FF494
:100BB000804001F055FA0DE0C849B1F86410C1F366
:100BC000002111B14FF4005101E04FF4805108466B
:100BD00001F046FAD2480068012805D0D04991F8C2
:100BE000FC00842104F010FFBC4890F86400C0F3BE
:100BF0004001CB48D0F8F40061F30410C849C1F8B3
:100C0000F400B64890F86400C0F3C00020B14FF083
:100C10000040C449886103E04FF40040C149886145
:100C2000AE4890F86400C0F3001020B14FF480008B
:100C3000BD49086002E04020BB490860A74890F821
:100C40006400C0F3401020B14FF08050B6490860F6
:100C500003E04FF48050B4490860A04890F8640065
:100C6000C0F3001018B10220AD49C1F8F0009B4854
:100C7000D0ED000AB0EE600A01F00AF8A849086356
:100C80009FEDAA0A01F01BF84FF4FA7009F0DEFCA0
:100C90004FF40040A649086009F0ACFC064603E0AA
:100CA000A44909680868804709F0A4FC0746314652
:100CB00009F0A5FCB0F57A7FF2DB05B0BDEC068B40
:100CC000F0BD70B505460C46012D04D0022D1BD099
:100CD000032D6FD143E04FF48040954908605020C8
:100CE000954908609548934908609548954908607A
:100CF0001CB995489549086002E0954893490860F9
:100D00008E489449086055E04FF480408849086057
:100D10008000914988612220874908608848854978
:100D2000086086488749086034B987488749086061
:100D300082488849086005E08548844908608248FF
:100D4000844908604220764981F8FC000AF094FC4E
:100D5000002132200AF08AFD0AF06CFD2AE04FF4EF
:100D60008040734908602120734908607B487C49B2
:100D7000086072486F49086071487249086034B968
:100D800071487249086072487249086005E070480D
:100D90006E49086069486F4908604120604981F8E0
:100DA000FC000AF069FC002131200AF05FFD0AF026
:100DB00041FD00BF00BF70BD70B5694800685F4964
:100DC00088420AD16549674800F0D8FC6548D0F8E8
:100DD000040110B9614862490860614800685749D8
:100DE00088420FD159480068594988420AD05D4865
:100DF00000F0C4FC5B48D0F8040170B9544858496D
:100E000008600AE056480168564800F0B7FC0446FE
:100E1000902C02D154A0FFF771FB5248D0F8040186
:100E200000283FD14F4A57A108F0FEFE4D480079F7
:100E300000F07F05112D11D154494A4804F04CFCB3
:100E40005248D0F80001F8B15149504800F0D6FCA2
:100E50004E4A50A1012008F0E7FE1FE03648006826
:100E6000A84212D1494A00213E4804F0A9FE474851
:100E7000D0F8000140B14649444800F0BFFC434A65
:100E800044A1012008F0D0FE08E0212D06D135480C
:100E90000146D0F80021414809F088FD0120314980
:100EA000C1F804013A492E48006800F0B1FC77E02F
:100EB0000D0A50494420706172616D733A095020E7
:100EC0003D20252E30662C2049203D20252E3066E1
:100ED0002C2044203D20252E30660000BC17002029
:100EE0000D0A4E6F7463682023313A0925732C2054
:100EF000000000006663203D20252E316620487AE0
:100F00002C2051203D20252E316600000D0A4E6F09
:100F10007463682023323A0925732C2000000000F6
:100F2000D819002000000240180402400000000010
:100F3000180802400C000020DC1A0020842501085B
:100F4000A825010850030020C02501089C040020AA
:100F50009C250108BC0400200010024090250108D7
:100F60000800002010000020496E76616C69642042
:100F7000415054206D65737361676520666F726DB3
:100F800061742E0041505452783A200054050020DC
:100F90002802002041505454783A200038020020A2
:100FA000FB49FC48006800F033FCFA480168FA4845
:100FB00000F0E4FB0446902C02D1F8A0FFF79EFA63
:100FC000F548D0F8040178B9F34AFEA1012008F0F1
:100FD0002BFEF1480146D0F80021FC4809F0E6FC60
:100FE0000120ED49C1F8040170BD70B5F8480068F2
:100FF00001281DD00AF0F2FB050002D0284606F0B9
:101000000DF80AF0E8FD04468CB1F148D0F8F8007C
:1010100010F4801F0BD12146EEA008F0E0FFEC4851
:10102000D0F8F80040F48010E949C1F8F80000BF9A
:1010300070BD70B500F064FEE549D1F8F8100843C2
:10104000E349C1F8F80001F018F928B3E04890F836
:10105000F400C0F3C000F8B1DD48D0F8F80040F467
:101060008040DB49C1F8F800084690ED0E0A80ED9B
:10107000120A1FED520A00F022FE142009F0E6FACF
:101080004FF00040DB490860D148D0F8F40020F070
:101090000800CF49C1F8F40001F0E4F868B1CC4889
:1010A000D0F8F80040F40040C949C1F8F800102019
:1010B000D1490860642001F0C9F8C548D0F8F800AB
:1010C00000282FD0C248D0F8F800CC4909688842DF
:1010D00023D0BF48D0F8F810C9A008F080FF08203E
:1010E00001F0CCFD012416E0B948D0F8F800204208
:1010F00010D0B749D1F8F81001EA040000F090FBD5
:101100000546B348D0F8F80000EA04022946C2A018
:1011100008F065FF6400002CE6D1AD48D0F8F80077
:10112000B6490860BF48406801283FD109F062FA1B
:101130000546BC480189284609F061FA44F6206159
:10114000884233DDA248D0F8F800B649096A084061
:10115000B449C96900EA0105EDB1284600F060FB19
:101160000646B14A3146284604F00CFD9749AE4880
:1011700000F044FBAC4AAFF2E411012008F054FD4A
:101180009348D0F8F800A749C9690840A549096AF9
:101190008143A4480162A348C0694000A149C861D5
:1011A0000846C06908B90120C86100BF70BD10B50C
:1011B00001F091FC04468648D0F8D40020448449CC
:1011C000C1F8D40044B1994890F86400C0F380009D
:1011D00010B1204600F0FBFE10BD10B59148C0686C
:1011E00078B1914A40F26161002004F0E9FC77494E
:1011F0008D4800F003FB8C4AAFF26821012008F013
:1012000013FD73480068012805D0714991F8FC006E
:10121000832104F0F9FB10BD10B500F015FF6C49F7
:10122000D1F8F41060F341016948C0F8F41090F867
:10123000F400C0F340007E490968884210D0644839
:1012400090F8F400C0F340007949086040B160496B
:10125000896909B9022100E0002108460BF00CFE63
:101260005B48D0F8F8008002800A03D0042000F028
:10127000F7FE02E0082000F0F3FE554989690229D3
:1012800001D1102100E02021084600F0E9FE50487D
:10129000C069002816DD4E490A7FC969491E4C4BBA
:1012A000D96112F0040F01D0022100E001210846AB
:1012B00000F0D6FE46480068012803D08421402073
:1012C00004F0A2FB10BD10B501F00CFE04460A2C80
:1012D00002D102F02DFA09E00B2C07D13C48D0F8DE
:1012E000F80040F480203A49C1F8F80001F051FFBD
:1012F00004460C2C07D13648D0F8F80040F40030F2
:101300003349C1F8F80010BD88B010F01EFC00F0A1
:101310009FFA09F021F909F076F9642009F0A6F99D
:1013200009F0C2F94FF000503349086008F0E6FFB9
:101330002749086008460068012801D0012100E023
:1013400000213A48406E61F38200384948662049DE
:101350000968032901D1022100E00021084609F0B3
:101360004DFB1B490968022900D100E00021084615
:1013700009F0FCFD09F054FC09F0F0FE002009F032
:10138000EFFF0AF0FDF80AF0D5FE0BF08FF851E000
:10139000380200200C0000201C010020496E7661FC
:1013A0006C696420415054206D65737361676520DA
:1013B000666F726D61742066726F6D20736C6176FA
:1013C000652E0000536C7652783A200028020020E7
:1013D000D81900200D0A43414E206572726F723A8F
:1013E00020737461747573203D20307825582E0D5C
:1013F0000A00000018080240180C024000000020FB
:101400000D0A4572726F722C20636F6465203D2057
:10141000307825583A0D0A00257320283078255851
:10142000290D0A00DC1A002054050020BC170020FA
:10143000040000200AF0EEFB002000F0B3FE9FED58
:101440007D0A00F0A9FC9FED7C0A00F0F3FC40202F
:101450007A49086080207A4908600AF01BFC46F24D
:10146000A8100AF0DCFD0AF098FD9FED730A0AF05F
:1014700013FD62B600F0CAFE002000F0E7FE00F0A7
:1014800003FFFA2009F0E2F84FF080706D4988619F
:1014900040016D490860052009F0D8F84FF48070CC
:1014A00068498861400168490860C0036349086071
:1014B000C00064498861000D614908609FED5E0AC3
:1014C00000F0FDFB0A2009F0C1F860480BF0BFFCFA
:1014D0004FF400705949086009F090F94FF4FA7020
:1014E00009F0B4F8212000F0B1FE4FF40050544947
:1014F0000860012000F0B4FD082000F0B1FD2020BC
:1015000000F0AEFD4FF4005000F0AAFD00234FF4B0
:10151000B27219464E4801F0D9F94D48D0F8600131
:101520004C49884207D14A4890F81C0110F0010F3D
:1015300001D0012000E00020044647490868214608
:10154000FFF7BFFB44480068032801D1012000E0F9
:101550000020424A1268424B9A4201D1012200E027
:101560000022904201D13FA000E040A0014641A0EE
:1015700008F035FD40A008F032FD49A008F02FFD2D
:101580003DA008F02CFD34480068012801D14EA090
:1015900000E04FA0014650A008F021FD2E48006851
:1015A000032801D153A000E054A0014655A008F043
:1015B00016FD5948D0F80E1058A008F010FD9FED08
:1015C0005D0B53EC102B5DA008F009FDFEF79DFFAD
:1015D00061A008F004FD08F022FD2AE0FFF7ECFB13
:1015E000FFF703FDFFF7E3FD09F058F838B1FFF707
:1015F000F4FDFFF71EFDFFF766FEFFF70DFE08F096
:10160000B2FD01A802F068FEDDE90101CDE90601A5
:101610006846DDE9061202F062FF9DE8070003ABB1
:1016200007C303A807C803F0E2FB02F05AFE06F066
:1016300067F9D3E7CDCC5C400000000018040240FD
:10164000180C024000000240180802401000200060
:101650005816002066191225D81900209C04002075
:10166000C02501081B5B33306D0000001B5B333469
:101670006D000000257300000D0A2D2D2D2D2D2D40
:101680002D2D2D2D2D2D2D2D2D2D2D2D2D2D2D2D8A
:101690002D2D2D2D2D2D2D2D2D2D2D2D000000002E
:1016A0000D0A505043313058205049455A4F204D73
:1016B0004943524F53434F505920434F4E54524F7A
:1016C0004C4C45520000000073696E676C65000069
:1016D0006D756C74690000000D0A50726F6475635B
:1016E0007420747970653A092573206368616E6EA1
:1016F000656C0000736C6176650000006D61737449
:10170000657200000D0A4368616E6E656C20747925
:1017100070653A09257300009C0200200D0A466995
:10172000726D77617265207265763A092530365898
:101730000000000000000000000064400D0A537922
:101740007374656D20636C6F636B3A09252E326686
:10175000204D487A0D0A00000D0A0A507265737315
:1017600020456E74657220666F72206465627567CD
:10177000206D656E752E0D0A000000002DE9F04108
:1017800004460E460127D4F80401012802D00220A5
:10179000BDE8F08126E0D4F80821501CC4F8080107
:1017A000A554D4F80801062810D1207910F0800F34
:1017B00001D0A07800E00020801DC4F80001D4F81A
:1017C0000001B0F5807F01D99020E1E7D4F8001145
:1017D000D4F80801884205D10020C4F80801C4F8F3
:1017E00004010327D4F8040130B13068804705466E
:1017F000A0F57F41FF39CED13846C9E770B5044620
:101800000D4621462846D4F8002109F0CFF870BDD6
:1018100070B504460D462946204609F0D8F870BD3B
:1018200002460021F84B18680AE0F84B53F83130B3
:10183000134204D0F54B03EBC103586806E0491C82
:10184000F24B03EBC1035B68002BEED100BF704786
:1018500010B586B0EE48EF490860EF4908600020F7
:10186000EE49086048600872C8609FEDED0A0846BE
:1018700080ED040AB7EE000A80ED050AB2EE040A14
:1018800080ED060A9FEDE70A80ED070A5020E64941
:10189000086000204860C8604861086132208861A3
:1018A0000120C861801E086200208862DF48E0498C
:1018B00008604FF0FF304860022088609FEDDD0A2D
:1018C000084680ED030AB7EE000A80ED040A9FED9A
:1018D000DA0A80ED050A9FEDD80A80ED060A9FED31
:1018E000D70A80ED080A9FEDD60A80ED070A9FED22
:1018F000D50A80ED090A9FEDD40A80ED0A0A9FED12
:10190000D30A80ED0B0A9FEDCC0A80ED0C0A9FED07
:10191000D00A80ED0D0A9FEDC80A80ED0E0A9FEDFA
:10192000CD0A80ED0F0AB0EE040A80ED100A9FED9B
:10193000CA0A80ED110A9FEDC90A80ED120A9FEDD7
:10194000C80AC84880ED160A002417E0012C02D10D
:10195000B7EE000A01E09FEDB80AB5484C3000EB45
:10196000840080ED000A00EE104AB8EE400AB0484C
:10197000603000EB840080ED000A641C052CE5D388
:10198000B948AB49C1F8B400B822B8480BF0BCFD67
:101990000522B449C031A648603002F00FFBB448BC
:1019A000406E20F00100B24948660846406E20F0C3
:1019B000040048660846406E20F00200486608466B
:1019C000406E20F0080048660846406E20F0100087
:1019D00048660846406E20F0200048660846406E83
:1019E00020F0800048660846406E20F4807000F5C4
:1019F000807048669FED9F0A084680ED010A9FEDC2
:101A00009E0A80ED020A9FED9D0A80ED030A9FED7C
:101A10009C0A80ED0B0AB0EE000A80ED0D0A90EDF5
:101A20000D1AF0EE410A90ED0B1AB0EE410A01A832
:101A300002F038FB142201A98D483C300BF064FD04
:101A400001208B4948629FED8F0A084680ED0C0A01
:101A5000B0EE000A80ED0E0A90ED0E1AF0EE410A8B
:101A600090ED0C1AB0EE410A01A802F01BFB142203
:101A700001A97F4850300BF047FD01217C4881626D
:101A80009FED810A80ED050AB7EE000A80ED040A99
:101A90009FED690A80ED060A9FED670A80ED070A4F
:101AA0000020734908629FED5F0A084680ED000A36
:101AB0009FED610A00F0D8F900206A4908600846E5
:101AC000D0F8F40020F008000830C1F8F40000203D
:101AD00048609FED590A084680ED020A9FED560ABC
:101AE00080ED030A9FED540A80ED040A9FED520A2F
:101AF00080ED050A00208861C861012008629FED21
:101B00004E0A084680ED0F0A9FED600A80ED100A2C
:101B10009FED490A80ED0E0A9FED470A80ED120AFB
:101B20000020C1F8D400C1F8D8009FED3E0A00F0B3
:101B3000AFF84C490863BBEE0E0A00F0A9F849491A
:101B400048639FED3D0A00F0A3F846494864012030
:101B5000C1F8F000B0EE000A084680ED190A9FEDCA
:101B6000360A80ED1A0A0120C1F89C009FED320A66
:101B7000084680ED220ABEEE000A80ED240AB1EE8E
:101B8000040A80ED250AB0EE020A80ED260A012043
:101B9000C864B7EE000A084680ED170AB6EE000AE0
:101BA00080ED180AB2EE040A01A802F051FB1422DB
:101BB00001A92C48DC300BF0A7FC2A48D0F8F4002F
:101BC00020F0200020302749C1F8F4000846D0F862
:101BD000F40020F040004030C1F8F4000020C1F8CB
:101BE000F8000846D0F8F40020F00400C1F8F40032
:101BF0000846D0F8F40020F08000C1F8F40000207E
:101C000081F8FC0006B010BD44030020C01C010890
:101C1000842501089C040020BC0400200C1B00202B
:101C200000409C4600001643DC1A002000639F021F
:101C3000681800200050C34600000000A3A13C48E3
:101C40008776AC45020048B7989999CA0200C8B592
:101C500081A4A0B50000A0B8E16BAF460068BD4507
:101C600000004843D819002099E6EDDA2019002039
:101C7000BC17002000C0A8450000F0430000484207
:101C80000000A6420000D64200007A4400009642BE
:101C900070B52DED028BB0EE408AFA4890ED080A3F
:101CA000D0ED070A00EE880A10EE105A28460FF011
:101CB000F8FE80F314042046BDEC028B70BD10B515
:101CC0002DED028BB0EE408AEF4880ED0E8AB0EE2B
:101CD000480AFFF7DDFF0446EB4844642046BDECAC
:101CE000028B10BDE749D1ED080A00EE100AB8EEEC
:101CF000400A70EE600A91ED071A80EE810A704783
:101D000070B52DED028B002600243FE0651C2846AF
:101D100008F00AFE00EE100AB8EE400ADFEDDB0A1A
:101D200060EE200ADA4800EBC50090ED011AD848B1
:101D300000EBC50090ED000AB0EE408A00EE818A0B
:101D400004EB8400D34901EB800090ED000AB4EE6F
:101D5000C80AF1EE10FA06DD04EB840001EB800006
:101D6000C068064311E004EB8400CA4901EB80001F
:101D700090ED020AB4EEC80AF1EE10FA05D204EBB7
:101D8000840001EB800000690643641C052CBDDB68
:101D90003046BDEC028B70BD10B52DED028BB0EE60
:101DA000408A9FEDBD0A28EE000A10EE101A084680
:101DB0000FF077FE80F31004A1B2012009F039FF83
:101DC0002046BDEC028B10BD10B52DED028BB0EEA0
:101DD000408A18EE100A0FF064FE04460AF01FF95C
:101DE000F0EE408AB0EE680ABDEC028B10BD10B573
:101DF0002DED048BB0EE408AB5EEC08AF1EE10FAFC
:101E000005D29FEDA60A30EE480AB0EE408A9FED5B
:101E1000A30AC8EE000AB0EE609AB0EE490A0AF0D2
:101E20003BF8F0EE408A9FED9D0A28EE800ABDEC5B
:101E3000048B10BD10B52DED028BB0EE408AB1EED3
:101E4000480ADFED970A20EE200A10EE101A084625
:101E50000FF027FE80F31004A1B2002009F0E9FE84
:101E60002046BDEC028B10BD10B52DED028BB0EEFF
:101E7000408A854880ED1B8A824890ED120AD0ED99
:101E8000110A08EE200A10EE101A08460FF009FE9B
:101E900080F312047C4804672046BDEC028B10BD21
:101EA000794890ED0B0AB8EEC00A7648D0ED0A0AE0
:101EB00030EE200AD0ED090A20EE200A7047724861
:101EC00090ED090AB8EEC00A6E48D0ED0C0A30EE6B
:101ED000200AD0ED0B0A20EE200A70476A4890EDE8
:101EE0000A0AB8EEC00A6748D0ED0E0A30EE200AA2
:101EF000D0ED0D0A20EE200A7047634890ED1E0ACF
:101F00007047614890ED1F0A704710B52DED028BA8
:101F1000B0EE408A5B4890ED100A38EE400AD0EDF2
:101F20000F0A80EE201A11EE104A20460FF0B9FD7C
:101F300000F30F00BDEC028B10BD10B5FFF7B0FF32
:101F4000DFED580A20EE200A10EE104A20460FF06E
:101F5000A8FD00F30F0010BD10B52DED028B4A480F
:101F600090F8F400C0F3801078B1474890F8F4007E
:101F7000C0F3401018B1444890ED210A02E04248F5
:101F800090ED200AB0EE408A0EE03F4890F8F40051
:101F9000C0F3401018B13C4890ED1F0A02E03A48E7
:101FA00090ED1E0AB0EE408A374890ED170AC8EE51
:101FB000000AB0EE608A18EE100A0FF072FD324986
:101FC000C96C484300F30F00BDEC028B10BD10B587
:101FD0002DED048B04462C48806928B92A48406CB2
:101FE0002044294948642CE027488069022828D1E8
:101FF0002549C86C0FF0E0F941EC100BB0EE409AA7
:10200000F0EE609A9FED280B53EC102B51EC190B5E
:102010000FF026FA41EC100BB0EE408AF0EE608A29
:1020200051EC180B0EF046FF00EE900A164890EDAA
:10203000221A00EE104AB8EEC00A00EE801A80EDB7
:10204000221ABDEC048B10BD0F480068012801D096
:102050000020704716480068012121EAD020F8E7E7
:1020600009490968012900D0704710283CD021DCBB
:10207000012847D002284CD0042827D008285BD15B
:102080002BE0000068180020D81900206740533A60
:102090003C250108681D01084473D6450000B4437F
:1020A000CDCCCC4559725A432D431CEBE2361A3F36
:1020B0001004024020281ED0B0F5805F30D0B0F56B
:1020C000005F31D0B0F5804F36D131E0FE4909686C
:1020D00041F00401FC4A11602EE0FB49096821F03F
:1020E0000401F94A116027E0F749096841F002014B
:1020F000F54A116020E0F449096821F00201F24A32
:10210000116019E0F049096841F00101EE4A1160DF
:1021100012E0ED49096821F00101EB4A11600BE082
:102120000221EA4A116007E00121E84A116003E058
:102130000021E64A116000BF00BFE449096859B3B5
:10214000E149097811F0040F01D0082101E04FF4B2
:102150000021DF4A1160DC49097811F0020F01D03B
:10216000022101E04FF40031D94A1160D6490978C3
:1021700011F0010F01D0012101E04FF48031D44A68
:102180001160D2490968022901D1C90101E04FF06B
:102190008071D04A116003E04FF43021CC4A1160C5
:1021A00000BF61E7CC490968022900D1704710F0EF
:1021B000010F01D0012101E04FF48031C74A916144
:1021C00010F0020F01D0022101E04FF40031C34AA8
:1021D000916110F0040F01D0042101E04FF480213F
:1021E000BE4A916110F0080F01D0082101E04FF4C0
:1021F0000021BA4A916110F0100F01D0911501E051
:102200004FF08071B54A916100BFCFE7B4480068D4
:1022100040F00100B2490860B1481030006840F059
:102220000050AF4910310860AE48006840F440707B
:10223000AC4908600846C06820F44070C860AA48ED
:10224000006840F00100A84908607047642800D980
:102250006420C0EB00216422B1FBF2F1A24A1032EB
:102260001160704710B5062008F05EFBB0F59B6F5B
:1022700001DB012010BD0020FCE79648083800680B
:10228000012121EAD010704710B500240DE0102084
:102290008F4908600A2008F0D9F94FF480108C4962
:1022A0000860A0B208F0D2F9641C142CEFDB10BD5A
:1022B0008A4A1169C1F3033011F4007F01D040F064
:1022C0001000704770B52DED028B04462D250020BF
:1022D00008F02AFB00EE100AB8EE400ADFED830A90
:1022E00080EE201AB0EE418A9FED810A38EE400A56
:1022F000B0EEC00ADFED7F0AB4EEE00AF1EE10FAAC
:1023000001D258250DE09FED7C0A38EE400AB0EE70
:10231000C00ADFED780AB4EEE00AF1EE10FA00D25E
:10232000592504B125709FED750A68EE000A9FEDEE
:10233000740A30EE481A80EE810ABDEC028B70BD43
:1023400030B585B06F4CA07E012806D102206E49C1
:10235000486080055E49086005E001206A494860E0
:1023600080205B49086004F1030454F8010C6649BD
:102370000860608B00EE100AB8EE400A084680ED57
:10238000060A208B00EE100AB8EE400A084680EDDF
:10239000070AD4F81300C860E06900EE100AB8EE2E
:1023A000400A084680ED040A206AA4F1030400EE06
:1023B000100AB8EE400ADFED550A80EE201A0846F2
:1023C00080ED051A0068642803D101F10800FFF7C9
:1023D00079FF4D480068642874D0B0F5E17F04D0DF
:1023E000A0F50070C6386ED1CBE001203A49C86430
:1023F0009FED470A084680ED0F0A9FED460A80EDE3
:10240000100ABEEE000A80ED240AB1EE040A80ED47
:10241000250AB0EE020A80ED260A9FED3D0A80ED06
:102420001A0AB0EE000A80ED190AB7EE000A3A481F
:1024300080ED000AB6EE000A80ED010AB0EE000A57
:1024400080ED020A9FED320A80ED030A9FED330A08
:1024500080ED040A9FED320A324880ED030AB7EEA0
:10246000000A80ED040A9FED300A80ED060A9FED18
:10247000280A80ED050A9FED2D0A2D4880ED010AFE
:102480009FED2C0A80ED020A9FED2B0A80ED030AD6
:102490009FED2A0A80ED0B0AB0EE000A80ED0D0ACE
:1024A00090ED0D1AF0EE410A90ED0B1AB0EE410AD4
:1024B000684601F0F7FD142269461D483C300BF0D8
:1024C00023F83DE0EAE08CE1480300204C030020C3
:1024D000180C024018040240D819002000100240D5
:1024E00030380240000002400074004000F07F4598
:1024F0009425303FCDCC4C3D143BB13E0080D445BB
:10250000C520803FC41B00200C1B002000007A4423
:102510000000000000009642D003002000000243AB
:102520000050C346681800200000A04200C0A84523
:10253000BC1700200000F043000048420000A64203
:102540000120CB4948629FEDCB0A084680ED0C0A7A
:10255000B0EE000A80ED0E0A90ED0E1AF0EE410A80
:1025600090ED0C1AB0EE410A684601F09BFD142272
:102570006946BF4850300AF0C7FF0121BC4881625C
:102580002FE10120BC49C8641FED1F0A084680EDF9
:102590000F0A1FED200A80ED100ABEEE000A80ED42
:1025A000240AB1EE040A80ED250AB0EE020A80ED9D
:1025B000260A1FED290A80ED1A0AB0EE000A80ED06
:1025C000190AB7EE000AAD4880ED000AB6EE000A1F
:1025D00080ED010AB0EE000A80ED020A1FED340A18
:1025E00080ED030A1FED330A80ED040A1FED340A63
:1025F000A34880ED030AB7EE000A80ED040A1FED40
:10260000360A80ED060A1FED3E0A80ED050A1FED31
:10261000400A974880ED010A9FED9A0A80ED020A70
:102620001FED450A80ED030A9FED970A80ED0B0A26
:102630009FED960A80ED0D0A90ED0D1AF0EE410A1D
:1026400090ED0B1AB0EE410A684601F02BFD142202
:10265000694687483C300AF057FF012084494862A8
:102660009FED8B0A084680ED0C0AB5EE000A80ED5E
:102670000E0A90ED0E1AF0EE410A90ED0C1AB0EE33
:10268000410A684601F00EFD142269467848503030
:102690000AF03AFF012176488162A2E07D48007A83
:1026A000592802D14FF0FF3000E001207249C86480
:1026B000BBEE0E0A084680ED0F0A9FED770A80ED0B
:1026C000100AB9EE040A80ED240AB1EE040A80ED86
:1026D000250A1FED710A80ED260A1FED730A80EDB1
:1026E0001A0AB0EE000A80ED190AB1EE000A63483A
:1026F00080ED000AB0EE040A80ED010AB1EE020A94
:1027000080ED020ABBEE090A80ED030A9FED630A21
:1027100080ED040A9FED620A594880ED030AB1EE8C
:10272000000A80ED040A9FED5F0A80ED060A1FEDA6
:10273000880A80ED050AB9EE020A80ED130A9FEDC2
:102740005A0A80ED140A9FED590A494880ED010AA2
:102750009FED570A80ED020A1FED890A80ED030AFA
:102760009FED540A80ED0B0AB7EE000A80ED0D0ACA
:1027700090ED0D1AF0EE410A90ED0B1AB0EE410A01
:10278000684601F08FFC1422694639483C300AF053
:10279000BBFE0120364948629FED470A084680ED9E
:1027A0000C0AB7EE000A80ED0E0A90ED0E1AF0EE5C
:1027B000410A90ED0C1AB0EE410A684601F072FC35
:1027C000142269462A4850300AF09EFE012128480A
:1027D00081621FEDB20A80ED050A012024490862DA
:1027E00000BF00BF244890ED100ADFED340A20EE50
:1027F000200ADFED330A80EE201A11EE105A284627
:102800000FF04FF91C490865084690ED260ADFEDE8
:102810002B0A20EE200AF1EE020A80EE201A11EEB9
:10282000105A28460FF03DF9134948659FED250AD7
:10283000084680ED170A1748D0ED060A084690EDC5
:10284000130AB8EEC00A20EE800AF1EE020A80EE0A
:10285000201A80ED161A90ED130AB8EEC00ADFEDCB
:102860001A0A20EE200A80ED180A05B030BD0000DB
:10287000BC1700200000D642D8190020D003002049
:1028800068180020008045440000DC429A99993F76
:1028900000005C430C1B002000007042000011434C
:1028A00000A08C46000020436666E63F00401C46C0
:1028B0000000964400003E430000BE4300FEFF4679
:1028C00000001643200110396666E63E2DE9F05FF0
:1028D00081460C4617469A464FF0010B4E46E019CA
:1028E000B0F5804F02D30120BDE8F09F002008F032
:1028F00097FE032008F09EFEC4F3072008F09AFE1E
:10290000E0B208F097FE4FF0000816E0002008F053
:1029100091FE0546BAF1000F02D106F8015B0AE00C
:10292000BBF1000F05D016F8011BA94201D101200F
:1029300000E00020834608F10108B845E6D30120F5
:1029400008F06EFEBBF1010F01D00120CCE70020A2
:10295000CAE72DE9F04180460C4615466019B0F5EE
:10296000804F02D30120BDE8F0814746002008F0E7
:1029700057FE062008F05EFE012008F051FE002000
:1029800008F04EFE022008F055FEC4F3072008F0C0
:1029900051FEE0B208F04EFE002604E017F8010BED
:1029A00008F048FE761CAE42F8D3012008F038FE4D
:1029B000002008F035FE042008F03CFE012008F05D
:1029C0002FFE0120CFE7000010B5214909680868F3
:1029D00080470446A4F57F40FF3800D110BD1D4854
:1029E000006C012801D00120F8E71B48006860B99D
:1029F0002A2C01D00320F1E7174802680068401C28
:102A0000154B18601348845407E0134802680068A7
:102A1000401C114B18600F4884540F480068082868
:102A200004D100200C4908600A4908640220D5E757
:102A300070B504460D462A462146084807F0B6FF01
:102A400070BD10B505490248006807F0C0FF10BD11
:102A50005003002054030020A80300209803002006
:102A60008D48417899B1012919D181798B4AD1607A
:102A700090F903105161817801F0F00111618178C2
:102A800001F00F0151600121854A116007E0012129
:102A9000824A1160817801F00F01516000BF00BFD0
:102AA000704710B504467F498C7003217D48FFF7BD
:102AB000BFFF10BD38B504462A208DF80000E0B2F3
:102AC0008DF80100754800798DF8020003216846F1
:102AD000FFF7AEFF38BD70B50024FFF775FF6E48F5
:102AE000006C20B9FFF7BCFF01206B490864FFF7B9
:102AF000A8FF6D480068082874D2DFE800F0040CD5
:102B000052657B222E7407F075FD6849088001200C
:102B100065490860AFE000206549086007F06AFD7C
:102B2000054662480188284607F069FD40F6C41151
:102B3000884205DD5FA007F052FA05205A49086077
:102B400099E05B480068FFF7ACFF07F053FD574979
:102B500008800620544908608DE007F04BFD0546CB
:102B600052480188284607F04AFD642818DD4B4882
:102B7000007810F0010F03D002204B4908600FE0ED
:102B80004B4800680F2803DD07204749086007E02D
:102B900047480068401C46490860052042490860D3
:102BA00069E03E4841684AA007F019FA0920FFF79A
:102BB00081FF0620FFF77EFF07F01CFD3B490880E0
:102BC00003203949086056E007F014FD05463748F0
:102BD0000188284607F013FD642802DD04203249ED
:102BE000086048E046E042A007F0F9F908202E49C5
:102BF000086040E02A48006801282FD127488068F3
:102C000008B1012000E000202449096909B101212F
:102C100000E0002188420FD02048006908B101205F
:102C200000E000201D498860896809B1052100E0A5
:102C300006210846FFF73EFF1848C068401C1749A8
:102C40004969484315498968012901D10A2100E0F1
:102C5000012100FB01F4022011490860104840687E
:102C6000012806D128480068FFF724FF02200C49FC
:102C7000486000E000BF00BF204670BD0121084A47
:102C8000516021490860704710B504461822034975
:102C900020460AF039FC10BD54030020AC1B002074
:102CA000AC030020B4030020B8030020C0030020C0
:102CB000BC0300200D0A4A6F79737469636B206945
:102CC00064656E74696669636174696F6E3A200049
:102CD0006A6F79737469636B20666F756E642C20FC
:102CE0006368616E6E656C203D2025642E0D0A00C0
:102CF0006A6F79737469636B206E6F7420666F7589
:102D00006E642E0D0A000000C403002010B5604858
:102D1000806940F010005E4988614FF4F07007F060
:102D20008AFC5B48806940F48010594988614620DC
:102D300007F081FC56480069C0F3401080F00104A0
:102D40004FF4CD7007F077FC204610BD10B5044657
:102D500094B14F48806940F010004D4988610620C9
:102D600007F069FC4A48806940F48010484988614E
:102D7000402007F060FC11E04548806940F01000F9
:102D8000434988613C2007F056FC4148806940F483
:102D900080103F4988610A2007F04DFC10BD10B536
:102DA0003B48806940F0100039498861062007F0EF
:102DB00042FC3748806940F4801035498861092019
:102DC00007F039FC32480069C0F34014372007F09F
:102DD00032FC204610BD70B50446002506E004F024
:102DE0000100FFF7B3FF6410681CC5B2082DF6DBC5
:102DF00070BD70B50024002507E06410FFF7CFFF19
:102E000008B144F08004681CC5B2082DF5DB2046EB
:102E100070BD70B5054600BFEFF310801D49086016
:102E20001B48806940F4801019498861002404E03F
:102E30004FF47A7007F0FFFB641C642CF8DBFFF79B
:102E400065FFB8B10126CC20FFF7C5FFF020FFF7E2
:102E5000C2FF0020FFF7BFFF0020FFF7BCFF0024E8
:102E600004E0FFF7C6FF05F8010B641CB4F5007F12
:102E7000F7DB00E000260648806940F010000449B6
:102E800088610449086880F3108800BF304670BD2F
:102E900000100240C80300202DE9F0411048FFF760
:102EA000B8FF074617B90120BDE8F0810C4D28781E
:102EB0003D2801D00220F7E768784642002403E06D
:102EC0000748005D0644641CB4F5007FF8DBF1B2EE
:102ED0006878814201D00320E6E70020E4E70000A3
:102EE000C41B002010B52DED028BED4800680C28A6
:102EF0001AD2DFE800F0061A1B32406A7684AEF17F
:102F0000EFEEE848006801280ED19FEDE70AE74898
:102F100080ED020A9FEDE40A80ED030A0020E149FA
:102F200008600120DE49086026E100BFE0A007F04C
:102F300056F89FEDDD0AFEF7C2FE9FEDDB0AFEF7B5
:102F400079FF9FEDD90AFEF752FF07F053FBDE49E8
:102F500008800320D24908600EE107F04BFB0446CD
:102F6000D9480188204607F04AFB642802DD042086
:102F7000CB49086000E1FEF7B1FFD44880ED000ABC
:102F800000680EF063FD41EC100BB0EE408AF0EEED
:102F9000608A53EC182BCEA007F021F8CB4890EDB7
:102FA000000AB0EEC00AF2EE030AB4EEE00AF1EE57
:102FB00010FA06DD0520BD4948600B20B8490860BD
:102FC00002E00520B6490860D6E09FEDC90AFEF789
:102FD0000EFF07F00FFBBC4908800620B0490860CF
:102FE000CAE007F007FB0446B7480188204607F00F
:102FF00006FB642802DD0720A9490860BCE0FEF753
:103000006DFFBC4880ED000A00680EF01FFD41EC2A
:10301000100BB0EE408AF0EE608A53EC182BB6A08D
:1030200006F0DDFFB34890ED000AB0EEC00AF2EE04
:10303000030AB4EEE00AF1EE10FA06DD05209B4922
:1030400048600B209649086002E008209449086017
:1030500092E09E4890ED000AB0EEC00AF6EE000A3B
:10306000B4EEE00AF1EE10FA12D2A24890ED000A96
:10307000B0EEC00AF6EE000AB4EEE00AF1EE10FA85
:1030800006D20420894948600B208549086073E016
:103090009848D0ED000A8D4890ED000A0CF0E0FA57
:1030A000DFED9D0A20EE200A9C4880ED000A0068B2
:1030B0000EF0CCFC41EC100BB0EE408AF0EE608AD2
:1030C00053EC182B96A006F08AFF0920744908607B
:1030D00052E04AE02AE0FFE7904890ED000AB1EEA6
:1030E000400ADFED830A30EE200A10EE101A08467F
:1030F0000EF0ACFC41EC100BB0EE408AF0EE608AB2
:1031000053EC182B8BA006F06AFF8448D0ED000A20
:10311000F1EE600A9FED761A70EE810AB0EE600A59
:10312000FEF765FE0A205E49086025E07B4890EDC9
:10313000000AB1EE400ADFED6E0A30EE200A844844
:1031400080ED060A614890ED000A584880ED020AB9
:10315000684890ED000A554880ED030A7DA006F00E
:103160003EFF00204E49086006E080A006F037FFD1
:1031700000204B49086000BF00BF49480068BDEC13
:10318000028B10BD01204749086002204749486072
:10319000704710B52DED048B82B07F4800680D2874
:1031A0001BD2DFE800F0071B44537C7B7A797877E9
:1031B000767574007948006801280ED19FED3A0AAF
:1031C0003A4880ED040A9FED380A80ED050A002098
:1031D00072490860012070490860A2E270A006F000
:1031E000FEFE7448D0ED030AB0EE600AFEF767FDFC
:1031F0009FED2D0A564880ED050AD0ED050AB0EE88
:10320000600AFEF717FE6B4890ED000A504880ED0B
:10321000040AD0ED040AB0EE600AFEF7BDFD07F027
:10322000E9F96549088002205B49086079E207F006
:10323000E1F9044660480188204607F0E0F9B0F55E
:103240007A7F02DD0320544908606AE2FEF746FEF9
:103250005A4880ED000A00680EF0F8FB41EC100BB4
:10326000B0EE408AF0EE608A524890ED030A10EE0C
:10327000101A08460EF0EAFB41EC100BB0EE409A33
:10328000F0EE609A8DED008B53EC192B98E03DE247
:1032900016E2D3E104E2A0E18FE111E1C3E0B3E083
:1032A000EC030020CC03002000000000D81900200F
:1032B0000D0A5374617274206F66207068617365C3
:1032C00020696E69742E0000E8030020F0030020DE
:1032D0000D0A4174205068203D20302C2056646532
:1032E0006D6F64203D20252E3366205600000000BF
:1032F0000000B442F40300200D0A417420506820FD
:103300003D2039302C205664656D6F64203D2025AA
:103310002E33662056000000E02E6542F8030020A0
:103320000D0A506830203D20252E336620646567E5
:10333000000000000D0A53657474696E67207068A0
:1033400061736520746F20252E33662064656700E5
:10335000681800200D0A506861736520696E6974F1
:1033600020636F6D706C6574652E00000D0A5068E7
:1033700061736520696E6974206661696C65643A81
:1033800020616D706C6974756465206F7574206F51
:10339000662072616E676500FC030020E403002074
:1033A0000D0A5374617274206F66207A65726F69BA
:1033B0006E672E00D00300200004002008040020C7
:1033C000E5A006F00CFEF04890ED000AB5EEC00A4C
:1033D000F1EE10FA09D2EDA006F001FE0420F94941
:1033E00048600C20F84908609BE107F003F9F749B1
:1033F0000880F748D0ED040AB0EE600AFEF75FFCE3
:103400000420F14908608CE107F0F4F80446EF4825
:103410000188204607F0F3F8B0F57A7F02DD052039
:10342000E94908607DE1FEF759FDEA4880ED000AB0
:1034300000680EF00BFB41EC100BB0EE408AF0EE92
:10344000608AE34890ED040A10EE101A08460EF068
:10345000FDFA41EC100BB0EE409AF0EE609A8DED63
:10346000008B53EC192BBCA006F0B9FDD94890EDA8
:10347000000AB5EEC00AF1EE10FA08D390ED000A8A
:10348000F2EE030AB4EEE00AF1EE10FA09DDD2A082
:1034900006F0A5FD0520CB4948600C20CA4908600C
:1034A0003FE107F0A7F8C9490880C948D0ED030AF1
:1034B000B0EE600AFEF703FC0620C349086030E165
:1034C000C44890ED000AB048D0ED000A30EE600A22
:1034D000F1EE020A80EE801ACC4890ED040A21EE4B
:1034E000000A80ED040A90ED040A10EE101A084656
:1034F0000EF0ACFA41EC100BB0EE408AF0EE608AB0
:1035000053EC182BC2A006F06AFDC04890ED040AE7
:10351000AF48D0ED010AB4EEE00AF1EE10FA0AD39A
:10352000BA4890ED040AAA48D0ED020AB4EEE00AC7
:10353000F1EE10FA32DDC0A006F051FDA44890ED86
:10354000020A10EE101A08460EF080FA41EC100B39
:10355000B0EE408AF0EE608A9D4890ED010A10EED0
:10356000101A08460EF072FA41EC100BB0EE409AB9
:10357000F0EE609A8DED008B53EC192BBEA006F097
:103580002EFD934890ED000AA04880ED040A062025
:103590008C4948600C208C490860C2E09B48D0ED03
:1035A000040AB0EE600AFEF7F7FB07F023F887493C
:1035B0000880072084490860B3E007F01BF8044640
:1035C00082480188204607F01AF840F6B831884250
:1035D00002DD08207C490860A3E0FEF77FFCAA48D2
:1035E00080ED000A90ED000AB5EEC00AF1EE10FA87
:1035F0000AD390ED000AB1EE400AFAEE040AB4EEE6
:10360000E00AF1EE10FA06D203206E4948600C2061
:103610006D49086085E09C4800680EF017FA41EC9F
:10362000100BB0EE408AF0EE608A53EC182B9748EE
:1036300006F0D5FC0A206449086072E01FEDE60A36
:10364000FEF73DFB9048D0ED000AF1EE600AB5EEC2
:10365000001A70EE810AB0EE600AFEF7EBFB8A48B2
:1036600090ED000AB1EE400AF5EE000A30EE200AB5
:1036700010EE101A08460EF0E9F941EC100BB0EE0E
:10368000408AF0EE608A53EC182B81A006F0A7FC6C
:1036900006F0B0FF4D49088009204B49086040E022
:1036A00006F0A8FF044649480188204606F0A7FF17
:1036B00040F6B831884202DD0B204349086030E013
:1036C0009FED7B0AFEF7FBFA6F4890ED000AB1EE22
:1036D000400AF5EE000A30EE200A4C4880ED050A5B
:1036E000294890ED000A374880ED040A394890EDEA
:1036F000000A344880ED050A0120324948606DA077
:1037000006F06DFC0020304908600AE09FED680A71
:10371000FEF7D5FA6DA006F062FC00202A49086089
:1037200000BF00BF2848006802B0BDEC048B10BD8C
:1037300001207149086070472DE9F74F2DED0A8B84
:1037400092B006468946DDF87880DDF87880CDF8BD
:103750003C804FF0000AD6E00D0A44656D6F647539
:103760006C61746F72206F75747075742061742051
:1037700048566F7574203D20252E316620563A201C
:10378000252E336620560000080400200D0A4465EB
:103790006D6F64756C61746F72206F757470757481
:1037A00020746F6F206C6F77206166746572207073
:1037B000686173652061646A7573746D656E742EDB
:1037C0000D0A0000D8190020FC030020000400208E
:1037D000D00300200C0400200D0A44656D6F647551
:1037E0006C61746F72206F75747075742065786386
:1037F00065737369766520617420686967682076EF
:103800006F6C746167652E0D0A0000006818002057
:103810000D0A53696E6520616D706C69747564651D
:1038200020636F7272656374656420746F20252E47
:1038300033662056000000000D0A41646A757374F7
:1038400065642073696E657761766520616D706C63
:103850006974756465206973206F75747369646534
:103860002061636365707461626C652072616E676C
:1038700065206F6620000000252E336620746F20BF
:10388000252E33662E0D0A0004040020CC1D0108ED
:103890000D0A536574207A65726F696E67206F66D2
:1038A0006673657420746F20252E336620560000E1
:1038B000000000000D0A5A65726F696E6720636F21
:1038C0006D706C6574652E0D0A0000000D0A5A6556
:1038D000726F696E67206661696C65643A20616D1C
:1038E000706C6974756465206F7574206F662072E2
:1038F000616E67652E0D0A00E403002000204DF87C
:103900002A000AF1010AC245F8DB00201190C4E147
:103910009FEDFE0BB0EE40BAF0EE60BA4FF0000A39
:103920003BE05DF82A00012835D0002731E05DF842
:10393000270068BB0AEB8A0006EBC00000EBC7005B
:1039400090ED001BB0EE410AF0EE610A0CF0A4F815
:10395000B0EE40CAF0EE60CA53EC1B2B51EC1C0BCE
:103960000DF07CFE14D80AEB8A0006EBC00000EBD9
:10397000C70090ED001BB0EE410AF0EE610A0CF0BA
:103980008BF8B0EE40BAF0EE60BACDF840A03D46FC
:103990007F1C4745CBDB0AF1010AC245C1DB5DF85C
:1039A0002500401C4DF825001098A84256D0002450
:1039B00026E0109800EB800006EBC00000EBC4008E
:1039C00090ED000BB0EE409AF0EE609A05EB8500AA
:1039D00006EBC00000EBC40090ED000B109800EB6C
:1039E000800006EBC00000EBC40080ED000B05EB8F
:1039F000850006EBC00000EBC40080ED009B641C5A
:103A00004445D6DB002426E0109800EB800009EB4B
:103A1000C00000EBC40090ED000BB0EE409AF0EE59
:103A2000609A05EB850009EBC00000EBC40090ED47
:103A3000000B109800EB800009EBC00000EBC40005
:103A400080ED000B05EB850009EBC00000EBC40026
:103A500080ED009B641C0F988442D5DB05AADDE94C
:103A6000100142F821000AA9119841F8205005EBF5
:103A7000850006EBC00000EBC50090ED001BB0EE2A
:103A8000410AF0EE610A9FEDA11B53EC112B51ECA2
:103A9000100B0DF055FC05D1012012B0BDEC0A8BC6
:103AA000BDE8FE8F05EB850006EBC00000EBC5000E
:103AB00090ED001BB0EE410AF0EE610A53EC102BC2
:103AC0009FED941B51EC110B0DF0E2FA41EC180B39
:103AD0009FED900B05EB850006EBC00000EBC500E9
:103AE00080ED000B00241CE005EB850006EBC00018
:103AF00000EBC40090ED001BB0EE410AF0EE610A4D
:103B000053EC182B51EC100B0DF0AAFC41EC100BF0
:103B100005EB850006EBC00000EBC40080ED000B58
:103B2000641C4445E0DB00241CE005EB850009EB48
:103B3000C00000EBC40090ED001BB0EE410AF0EEB7
:103B4000610A53EC182B51EC100B0DF089FC41EC81
:103B5000100B05EB850009EBC00000EBC40080ED05
:103B6000000B641C0F988442DFDB4FF0000B8EE0EB
:103B7000AB457DD00BEB8B0006EBC00000EBC50026
:103B800090ED000BB0EE40AAF0EE60AA9FED5F0B47
:103B90000BEB8B0006EBC00000EBC50080ED000BCB
:103BA000002434E005EB850006EBC00000EBC40008
:103BB00090ED001BB0EE410AF0EE610A53EC1A2BB7
:103BC00051EC100B0DF04CFC41EC100BB0EE40CA68
:103BD000F0EE60CA0BEB8B0006EBC00000EBC400FC
:103BE00090ED001BB0EE410AF0EE610A53EC102B91
:103BF00051EC1C0B0DF068FD41EC100B0BEB8B0036
:103C000006EBC00000EBC40080ED000B641C4445D3
:103C1000C8DB002436E005EB850009EBC00000EBB3
:103C2000C40090ED001BB0EE410AF0EE610A53ECC7
:103C30001A2B51EC100B0DF013FC41EC100BB0EEF5
:103C400040CAF0EE60CA0BEB8B0009EBC00000EB42
:103C5000C40090ED001BB0EE410AF0EE610A53EC97
:103C6000102B51EC1C0B0DF02FFD41EC100B00E064
:103C70000BE00BEB8B0009EBC00000EBC40080ED08
:103C8000000B641C0F988442C5DB0BF1010BC3458C
:103C9000FFF66EAF1198401C119011984045FFF649
:103CA00037AEA8F1010446E005A850F824000AA99F
:103CB00051F8241088423DD0002739E007EB8700F7
:103CC00006EBC00005A951F8241000EBC10090EDEF
:103CD000000BB0EE409AF0EE609A07EB870006EB1F
:103CE000C0000AA951F8241000EBC10090ED000BB0
:103CF00007EB870006EBC00005A951F8241000EB84
:103D0000C10080ED000B07EB870007E0000000001A
:103D100000000000000000000000F03F06EBC000C3
:103D20000AA951F8241000EBC10080ED009B7F1C14
:103D30004745C3DB641E002CB6DA0020ADE62DE952
:103D4000F04F2DED0C8BE7B08046894692469B469E
:103D5000CA4505DD012067B0BDEC0C8BBDE8F08FD6
:103D60005646052E01DD0220F5E7002453E000252C
:103D70004EE01FED1A0BB0EE408AF0EE608A00278D
:103D80003AE008EBC70090ED000A10EE101A084662
:103D90000DF05CFE41EC190B0BEB840090ED000A7A
:103DA0000BEB8500D0ED000A30EE200A10EE101A61
:103DB00008460DF04BFE41EC100BB0EE40CAF0EEA1
:103DC00060CAB0EE4C1AF0EE6C1AB0EE490AF0EE92
:103DD000690A0BF0E1FEB0EE40BAF0EE60BA53ECC7
:103DE000182B51EC1B0B0DF097F841EC100BB0EEBB
:103DF000408AF0EE608A7F1C4F45C2DB04EB8400F2
:103E000034A901EBC00000EBC50080ED008B6D1CF8
:103E1000B542AEDB641CB442A9DB002470E000258F
:103E20006BE01FED460BB0EE408AF0EE608A002793
:103E30004FE008EBC70090ED000A10EE101A08469C
:103E40000DF004FE41EC100BB0EE409AF0EE609ADB
:103E500008EBC70090ED010A10EE101A08460DF0AD
:103E6000F5FD41EC1A0B0BEB840090ED000A10EE0F
:103E7000101A08460DF0EAFD41EC100BB0EE40DAE6
:103E8000F0EE60DAB0EE4D1AF0EE6D1AB0EE490ABF
:103E9000F0EE690A0BF080FEB0EE40CAF0EE60CAA8
:103EA00053EC1A2B51EC1C0B0DF0DAFA41EC100B11
:103EB000B0EE40BAF0EE60BA53EC182B51EC1B0B8D
:103EC0000DF02AF841EC100BB0EE408AF0EE608A5B
:103ED0007F1C4F45ADDB25B9B0EE480AF0EE680A0D
:103EE00001E01FED760B04EB840002A901EBC0009A
:103EF00000EBC50080ED000B6D1CB54291DB641C2E
:103F0000B4428CDB324602A934A8FFF715FC0190BD
:103F1000019808B103201EE7741E12E004EB840030
:103F200002A901EBC00090ED001BB0EE410AF0EEDB
:103F3000610A51EC100B0CF0BDFF7C9941F8240094
:103F4000641E002CEADA002005E7F0EE400AB7EE26
:103F5000000A704710B52DED028BB0EE408AB0EE2E
:103F6000480A0CF061FCBDEC028B10BD7047F0EE0E
:103F7000400A20EEA00A7047F0EE400A20EEA00AA8
:103F800020EE200A7047F0EE400A20EEA00AB0EEC4
:103F9000401A21EE010A7047F0EE400AB7EE001A0F
:103FA00081EE200A7047F0EE400AB7EE000AC0EE3C
:103FB000201AB0EE611A21EE010A704730B50346AF
:103FC0000C461546002258E003EB820090ED000AF3
:103FD00004EB8201B5EEC00AF1EE10FA02D12948D5
:103FE000086049E0F6EE000AB4EE600AF1EE10FA5D
:103FF00002D1254808603FE0F7EE000AB4EE600AFF
:10400000F1EE10FA02D12148086035E0F0EE000A26
:10401000B4EE600AF1EE10FA02D11D4808602BE000
:10402000F0EE080AB4EE600AF1EE10FA02D1194877
:10403000086021E0F1EE000AB4EE600AF1EE10FA39
:1040400002D11548086017E0FFEE000AB4EE600ADE
:10405000F1EE10FA02D1114808600DE0F8EE000A06
:10406000B4EE600AF1EE10FA02D10D48086003E0E8
:1040700004480860012030BD521CAA42A4D300208D
:10408000F9E700004B3F0008553F00086D3F00086E
:104090006F3F0008793F0008873F0008993F0008FC
:1040A000A73F000810B52DED0A8B86B00446B0EE90
:1040B00040AAF0EE608A9FED800A2AEE000ADFED4A
:1040C0007F0A80EE201AB0EE41CAB0EE4C0A0CF026
:1040D000C9FBF7EE000A80EE801AB0EE418AB7EE17
:1040E000000A08EE080AB0EE409A88EE280A30EE80
:1040F000090AF0EE409A89EE290AF0EE40AAB0EEE5
:10410000000A68EE000AB0EE000A00EEC80AC0EE2F
:10411000290AB0EE60BA88EE280A39EE400AC0EEED
:10412000290AF0EE60BACDED01AA8DED02BACDED0F
:1041300003AAB1EE4B0A8DED040AB1EE6B0A8DEDC8
:10414000050A142201A9204609F0DEF906B0BDECEB
:104150000A8B10BD10B52DED088B86B00446F0EE2D
:10416000409A9FED550A29EE800ADFED540A80EE51
:10417000201AF0EE41BAB0EE6B0A0CF073FBF7EECA
:10418000000A80EE801AB0EE418AB7EE000A08EE0F
:10419000080AB0EE40AADFED4A0A88EE200A30EEA7
:1041A0000A0AB0EE409AB7EE000AC0EE090AF0EE35
:1041B000608AB0EE000A68EE000AB0EE000A00EE77
:1041C000C80AC0EE090AF0EE60AADFED3D0A88EEEB
:1041D000200A3AEE400AC0EE090AB0EE60BACDED10
:1041E000018AB0EE000A28EE800A8DED020ACDEDBC
:1041F000038AB1EE6A0A8DED040AB1EE4B0A8DED29
:10420000050A142201A9204609F07EF906B0BDEC8A
:10421000088B10BD10B52DED048BB0EE408A9FEDDC
:10422000290A28EE000ADFED250A80EE201AB0EEFA
:10423000419AB0EE490A0BF037FBF7EE000A30EE78
:10424000C00AF0EE408AB0EE680ABDEC048B10BDE7
:1042500010B52DED048B86B00446B0EE408A9FED7C
:10426000190A28EE000ADFED150A80EE201AB0EEDA
:10427000419AB0EE490A0BF017FBF0EE408AB7EE18
:10428000000A30EE680A8DED010A9FED0F0A8DEDF0
:10429000020A9FED0D0A8DED030ACDED048A9FED14
:1042A0000A0A8DED050A142201A9204609F02CF90D
:1042B00006B0BDEC048B10BDDB0F494000409C46AE
:1042C000F304353FDB0FC9C00000000003B5FE4812
:1042D000DDE9001206C00CBDFB4A06CAC0E90012A7
:1042E00070470020F84908607047F0B589B005466E
:1042F0000E4600200690079008900B2706AAF3A10F
:10430000304608F089FF00240DE0F14800EB04106E
:10431000416806A809F02AF920B9ED4800EB04101D
:10432000076802E0641C0B2CEFDD00BF0020019049
:104330000B2F6ED2DFE807F006172329316F7B853C
:1043400093888D0004AAE3A1304608F065FF044677
:10435000012C02D1E14904980860E0480168E0A01E
:1043600005F03DFE82E003AAE4A1304608F054FFC8
:10437000072001909DED030A8DED020A76E0E1A091
:1043800005F02DFE0820019070E0E7A005F027FE63
:1043900000200190FEF7F6FE68E005AAE9A130468C
:1043A00008F03AFFE9A105A809F0E0F818B90120E2
:1043B000019002902EE0E7A105A809F0D7F820B9F6
:1043C000012001900220029024E0E4A105A809F058
:1043D000CDF820B901200190042002901AE0E1A15B
:1043E00005A809F0C3F820B901200190052002902A
:1043F00010E0DDA105A809F0B9F820B9012001906D
:104400000320029006E000200190D9A005F0E7FD0E
:104410002CE028E02AE003AAB8A1304608F0FCFE10
:10442000022001909DED030A8DED020A1EE004AA10
:10443000A8A1304608F0F0FE0320019004980290F5
:1044400014E00420019011E009200190CD48029071
:104450000CE009200190CB48C043029006E0062002
:104460000190029002E00A20019000BF00BFDDE948
:104470000101C5E9000109B0F0BD10B594B0C2A0BA
:1044800005F0ADFD002423E0914800EB04108068A6
:10449000007840B98E4800EB0410BFA1426868461E
:1044A00008F050FD0BE08A4800EB04108368884850
:1044B00000EB0410B9A14268684608F043FD844847
:1044C00000EB04106946C268B6A005F088FD641CC4
:1044D0000B2CD9DBB6A005F082FD14B010BD77B56A
:1044E00085B0064600200290039004900290B148E7
:1044F000006806287DD005DC7CD2DFE800F010E300
:10450000E2E1E0DF0A2876D004DC072874D008282E
:1045100070D1CEE20B2870D06328F9D1F6E306986B
:104520000A286BD2DFE800F06A056A6A6A6A8CB60C
:10453000CF91A1490798086008460068062876D2FE
:10454000DFE800F07503132333439C4890ED080A1D
:10455000624880ED080A994890ED070A5F4880EDAF
:10456000070A02209449486061E0944890ED0A0AE5
:104570005A4880ED0A0A914890ED090A574880EDA3
:10458000090A02208C49486051E08C4890ED0C0AE1
:10459000524880ED0C0A894890ED0B0A4F4880ED97
:1045A0000B0A02208449486041E0844890ED120AD9
:1045B0004A4880ED120A814890ED110A474880ED83
:1045C000110A02207C49486031E07D48D0F8F400AF
:1045D00020F010007A49C1F8F4009FED7A0A0846ED
:1045E00080ED240A9FED780A80ED250AD0F8F400CA
:1045F00005E06CE256E2B6E355E2BAE314E120F0DE
:104600004000C1F8F4000A206B4948606F484068D8
:10461000012806D0022803D16D486E49086004E0E5
:1046200000BF6D486B49086000BF00BF00BF00BFFE
:1046300000206149886001205E4908600290F3E033
:104640000D20029007980390EEE06048C06823496F
:1046500048600798C1F8B400B822604808F054FFD9
:104660005F490798C1F8A800AC225C48B83008F050
:104670004BFF4FF4B27200215848FEF76AF90F2041
:10468000029001234FF4B27200215448FEF71EF944
:104690000390C9E001204A49C1F8F0008005514962
:1046A0000860400250498861DDED070AB0EE600AFB
:1046B000FDF7DAFB0D200290042097E0ABE21CE24C
:1046C00059E143E1B2E093E0100400202539730082
:1046D0001C1E0108252A732575000000681800209B
:1046E0000D0A53657269616C206E756D626572208A
:1046F00069732025752E0D0A00000000252A7325F8
:10470000660000000D0A41646A7573742073747248
:1047100061696E206761756765207072656D617093
:10472000206E6F772E0D0A000D0A5A65726F696E42
:104730006720706861736520616E676C652E0D0A75
:1047400000000000252A73257300000068766F754D
:104750007400000068766D6F6E0000006D6F6E640F
:1047600061630000706F7300657874696E0000000B
:104770000D0A496E76616C69642063686F696365D0
:104780002E0D0A00661912250D0A43616C6962201C
:104790006D656E753A0A000025733A002573202571
:1047A000733A00000D0A252D32307309257300007D
:1047B0000D0A000018040020C41D0020201900204C
:1047C000D8190020CDCCCC3DCDCC9C400C1B00207A
:1047D000EC1E01081C040020141F010858160020BC
:1047E000BC170020180402400000024003901BE0A8
:1047F0009FEDF70AFDF71EFB9FEDF60AF64880EDE8
:10480000030AD0ED030AB0EE600AFDF7DDFAB1EE5F
:10481000000AFDF7C1FA9FEDF10AFDF7E8FA0D2055
:1048200002900720039000BF00BFD9E2EC48406E21
:1048300020F00200EA4948660846406E20F0040075
:104840004866E848006806287BD2DFE800F07A0373
:104850000438591B00BFE3488068E34901EB80003E
:10486000D0ED000AB0EE600AFDF729FA02200290AE
:10487000DC488068DC4901EB800090ED000A8DED9A
:10488000030A5EE0D948D0F8F40020F04000D74990
:10489000C1F8F40002208861D2488068D4490968D0
:1048A00001EB800090ED000AD04880ED220A09203B
:1048B0000290CE4890ED220A8DED030A41E00120DE
:1048C000CA49C1F8F0008005CA4908604002CA49D7
:1048D0008861C4488068C94901EB8000D0ED000AB6
:1048E000B0EE600AFDF7C0FA03200290BD48806870
:1048F000C34901EB800090ED000A8DED030A20E032
:104900000120BA49C1F8F0008005BA4908604002A8
:10491000B9498861B3488068B84901EB8000D0ED9F
:10492000000AB0EE600AFDF79FFA0A200290AD4837
:104930008068B24901EB800090ED000A8DED030A1A
:1049400000BF00BF0220AF49086049E2069860B18D
:10495000022802D0032809D103E00320A9490860F6
:1049600007E00620A749086003E002E00E2002905D
:1049700000BF00BF34E29B48006806286BD2DFE826
:1049800000F06A03172A3D51984890ED0E0A9548A9
:104990008168343000EBC10080ED010A9DED070A0B
:1049A00090488168343000EBC10080ED000A52E08D
:1049B0009DED070A8B488168343000EBC10080ED23
:1049C000010AFDF76DFA87488168343000EBC100B9
:1049D00080ED000A3FE09DED070A8248816834308F
:1049E00000EBC10080ED010AFDF769FA7D4881689E
:1049F000343000EBC10080ED000A2CE07B4890EDE4
:104A00001B0A78488168343000EBC10080ED010A50
:104A10009DED070A73488168343000EBC10080EDDA
:104A2000000A18E0714890ED1F0A6E488168343022
:104A300000EBC10080ED000A9DED070A6B48D0ED48
:104A4000160A80EE201A67488168343000EBC100F6
:104A500080ED011A00BF00BF042002906148816808
:104A6000343000EBC10090ED000A8DED030A5D4883
:104A70008168343000EBC10090ED010A8DED040A2D
:104A8000584881684068401E814208D25548806875
:104A9000401C5449886001205A49086002E0072000
:104AA000584908609CE1062002900820554908609A
:104AB00096E10698032804D0042806D151490860DD
:104AC00003E006204F49086000BF00BF88E1079857
:104AD00000280EDD4348806842494968884208D86A
:104AE0000798401E3F49886005200290084680686C
:104AF000039001204349086072E1002408E09FED23
:104B0000340A38480C3000EB840080ED000A641C45
:104B1000052CF4DB3348006806284CD2DFE800F0AF
:104B20004B030405061D00BF00BF00BF9FED280A10
:104B30002C4880ED080AB7EE000A80ED090A0C3017
:104B400000900C388068411C264B2033022203F170
:104B50001400FFF7F4F805462DE09FED1D0A2148EB
:104B600080ED080AB6EE000A80ED090AB7EE000AE9
:104B700080ED0A0AB0EE000A80ED0B0AB1EE000AE1
:104B800080ED0C0A05221949C0312030FFF716FAD2
:104B9000054614480C3000900C388068411C114BBD
:104BA0002033052203F11400FFF7C9F805460D482C
:104BB000C0F8385100BF00BF4DB905201149086049
:104BC000082002900748006805281DD11DE01EE05E
:104BD0000000000000A08C46681800200000204360
:104BE000BC170020C41D0020DC1E0108D8190020BD
:104BF0001C0400201804024000000240441F010869
:104C00003C1F0108180400200220039002E06320EA
:104C1000F4490860E4E0F4480068062822D2DFE89E
:104C200000F09D03223C5676F04890ED080AD0ED46
:104C3000070AED4890ED031A00EE810AEB4880ED7B
:104C4000080A90ED070AE848D0ED040A20EE200A91
:104C5000E64880ED070AE648D0ED0E0AB0EE600A9D
:104C6000FDF72DF87AE0E14890ED090ADE48D0ED35
:104C7000040A20EE200ADD4880ED090ADA48D0ED6A
:104C8000030ADA4890ED091A80EE810AD0ED0A0A8B
:104C900030EE200A80ED0A0A60E0D44890ED0B0A5D
:104CA000D148D0ED040A20EE200AD04880ED0B0A4E
:104CB000CD48D0ED030ACD4890ED0B1A80EE810A65
:104CC000D0ED0C0A30EE200A80ED0C0A46E0C74811
:104CD00090ED120AD0ED110AC34890ED031A00EED0
:104CE000810AC24880ED120A90ED110ABE48D0ED4B
:104CF000040A20EE200ABD4880ED110ABC48D0ED20
:104D00001B0AB0EE600AFDF7AFF827E062E000246E
:104D100018E0B5480C3000EB840090ED000AB34871
:104D20004C3000EB840080ED000AAF48203000EBEF
:104D3000840090ED000AAD48603000EB840080ED07
:104D4000000A641C052CE4DBA948D0F8F40020F02C
:104D500040004030A649C1F8F40000BF00BF0A205F
:104D6000A04908603CE0072002900B209D490860A4
:104D700036E09D480068012806D0022805D00428A6
:104D800008D005281FD10AE000BF1FED6F0AFCF70D
:104D900096FF18E01FED720AFDF766F813E01FEDAD
:104DA000740A934880ED220A9FED920A07F032FFC1
:104DB0008F4880ED240A9FED900A07F02BFF8C4866
:104DC00080ED250A00BF00BF0020864908600B2047
:104DD000029005E00020834908600C20029000BF8B
:104DE00000BF02A807C886E8070008B070BD17B565
:104DF0002DED068B87B00D9810287AD2DFE800F0F1
:104E0000F008273D81A5ABEFB36953EEEDECAFEBB6
:104E100075480068062818D2DFE800F01703070B72
:104E20000F1376A005F0DBF80FE07BA005F0D7F8B4
:104E30000BE080A005F0D3F807E084A005F0CFF8E0
:104E400003E08AA005F0CBF800BF00BFC9E29DEDEA
:104E50000E0A10EE101A08460CF0F8FD41EC100B8B
:104E6000B0EE409AF0EE609A53EC192B86A005F054
:104E7000B6F88BA005F0B3F8B3E29DED0E0A10EE84
:104E8000101A08460CF0E2FD41EC100BB0EE409A0F
:104E9000F0EE609A53EC192B90A005F0A0F897A0C3
:104EA00005F09DF89DE29DED0E0A10EE101A0846E1
:104EB0000CF0CCFD41EC100BB0EE409AF0EE609A95
:104EC00053EC192B99A005F08AF89EA005F087F8FD
:104ED00087E29DED0E0A10EE101A08460CF0B6FDA2
:104EE00041EC100BB0EE409AF0EE609A53EC192BA7
:104EF00000E072E2A2A005F072F8A9A005F06FF838
:104F00006FE29DED0F0A10EE101A08460CF09EFDA0
:104F100041EC100BB0EE409AF0EE609A9DED0E0A57
:104F200010EE101A08460CF091FD41EC100BB0EE9B
:104F300040AAF0EE60AA8DED009B2B4853EC1A2B93
:104F40008168A6A005F04BF84BE20E98411CAEA07C
:104F500005F045F845E2B5A005F041F841E2BDA0F5
:104F600005F03DF83DE2C7A005F039F80E98441E63
:104F70002EE01D48203000EB840090ED000A10EE7A
:104F8000101A08460CF062FD41EC100BB0EE409A8E
:104F9000F0EE609A14480C3000EB840090ED000AAB
:104FA00010EE101A08460CF051FD41EC100BB0EE5B
:104FB00040AAF0EE60AA0CB92BA000E0B6A00290C7
:104FC0008DED009B53EC1A2BB4A005F008F8641E7D
:104FD000002CCEDA05E2F6E179E171E16CE167E1FE
:104FE000FAE1000018040020C41D00206818002009
:104FF000D8190020CDCCCC3DCDCC9C400D0A4361CE
:105000006C6962726174696E67204856206F7574AE
:105010007075742E0D0A00000D0A43616C6962728E
:105020006174696E67204856206D6F6E69746F7287
:105030002E0D0A000D0A43616C6962726174696E1B
:10504000672045585420494E2E0D0A000D0A436131
:105050006C6962726174696E67206D6F6E69746FDE
:1050600072204441432E0D0A000000000D0A4361E6
:105070006C6962726174696E6720706F73697469BC
:105080006F6E2E0D0A0000000D0A48566F757420D1
:1050900073657420746F20252E336620560000003F
:1050A0000D0A4D656173757265204856206F7574E1
:1050B00070757420766F6C7461676520616E642012
:1050C000656E746572207573696E67202763616C05
:1050D00064617461272E0D0A000000000D0A496EFC
:1050E00070757420252E336620566F6C747320748F
:1050F0006F2045585420494E000000000D0A456EAF
:105100007465722074686520696E6A65637465648D
:1051100020766F6C74616765207573696E672027F0
:1051200063616C64617461272E0D0A000D0A455895
:1051300054204F55542073657420746F20252E33EE
:10514000662056000D0A4D6561737572652074689E
:105150006520455854204F555420766F6C74616714
:105160006520616E6420656E746572207573696E6A
:1051700067202763616C64617461272E0D0A00004B
:105180000D0A506F736974696F6E2064656D616E8E
:10519000642073657420746F20252E3366205600BA
:1051A0000D0A4D65617375726520746865206163D1
:1051B0007475616C20706F736974696F6E20616EB5
:1051C0006420656E746572207573696E672027634D
:1051D000616C64617461272E0D0A00000D0A436141
:1051E0006C6962206461746120706F696E7420253F
:1051F000643A202566202D3E202566206164646582
:10520000642E0D0A000000000D0A43616C696220E3
:10521000676F206261636B20746F2064617461202A
:10522000706F696E742025642E0D0A000D0A4461AA
:10523000746120656E74727920636F6D706C657433
:10524000652C207573652027706F6C7966697427EB
:105250002E0D0A000D0A447572696E672063616C39
:105260006962726174696F6E207468697320636F1C
:105270006D6D616E6420697320696E76616C69641E
:105280002E0D0A000D0A436F7272656374696E67B2
:1052900020706F6C793A2000202B200028252B36B7
:1052A0002E3666202A20785E252E31662925730049
:1052B00051A004F094FE94E05AA004F090FE90E017
:1052C0006048D0F8381160A004F089FE89E00E989B
:1052D000042858D0062802D0072871D167E0AFF221
:1052E000CC2004F07CFE002409E0224660A103A843
:1052F00007F028FE03A961A004F071FE641C092CCC
:10530000F3DBAFF2F02004F06AFE002434E0204624
:1053100005F00AFB00EE100AB8EE400ADFED590A6C
:1053200060EE200A584800EBC40090ED011A564880
:1053300000EBC40090ED000AB0EE408A00EE818AD6
:1053400018EE100A0CF082FB41EC100BB0EE409A04
:10535000F0EE609A072C01D14CA001E0AFF2C4201E
:1053600053EC192B4AA1009003A807F0EBFD03A909
:1053700042A004F034FE641C092CC8DBAFF26C3090
:1053800004F02DFE1DE0454890ED1B0A10EE101AAA
:1053900008460CF05BFB41EC100BB0EE409AF0EECF
:1053A000609A53EC192B3EA004F019FE09E0454821
:1053B00004F015FE43487C3004F011FE01E0FFE7E5
:1053C00000BF00BF0DE00E9909B93FA100E042A166
:1053D000084604F004FE04E003E044A004F0FFFDEE
:1053E00000BF00BF07B0BDEC068B1EBD10EE100A5B
:1053F000704700EE100A70470D0A43616C696272D3
:105400006174696F6E20636F6D706C657465642084
:10541000666F722074686973206974656D2E0D0A59
:10542000000000000D0A526573746F72696E672088
:1054300064656661756C74732073746174652E0D98
:105440000A000000C41D00200D0A43616C696272ED
:105450006174696F6E206661696C65642077697438
:105460006820537461747573203D2025640D0A0013
:105470004368616E6E656C2025640000252D313215
:10548000730000006740533A3C25010843000000C8
:1054900025332E326620257300000000D819002025
:1054A0000D0A4D6F6E69746F72204441432073651D
:1054B0007420746F20252E336620566F6C74730D24
:1054C0000A0000004C1F01080D0A45455772697417
:1054D00065204F4B2E0D0A000D0A45455772697421
:1054E00065206661696C65642E0D0A000D0A556EB3
:1054F00068616E646C65642063616C69627261747A
:10550000696F6E20616374696F6E2E0D0A00000072
:1055100070B54FF00054F74890F8F400C0F3C000A5
:1055200008B144F00044F448006808B144F00104B4
:10553000F0488069022801D144F48064ED48406855
:10554000012802D144F0100405E0EA48406802282E
:1055500001D144F02004E748D0F8F80043F6F07198
:10556000084201D144F08054E248D0F8F80043F6F4
:10557000F071884301D044F08044DE4890ED1E0A6B
:10558000DFEDDE0AB4EEE00AF1EE10FA01D244F4E7
:105590008054D84890ED1E0ADFEDD90AB4EEE00A37
:1055A000F1EE10FA05DCFCF7D7FC47F6FF718842F4
:1055B00001DB44F40054FCF77BFE054615F0010FB7
:1055C00001D044F4801415F0020F01D044F400140B
:1055D00015F0040F01D044F4800415F0080F01D039
:1055E00044F40004204670BD2DE9FC5F06460C46DD
:1055F0000027B846B946BA46BB4600E000BF30684F
:1056000080470546A0F57F41FF39F7D100E000BF94
:10561000206880470546A0F57F41FF39F7D152E069
:105620000BE0E8B20190B7490122486801A905F0F2
:10563000BDF97F1C04F0DEFF8346306880470546D5
:10564000A0F57F41FF39ECD10CE0E8B20190AD4903
:105650000122086801A905F0A9F908F1010804F080
:10566000C9FF8346206880470546A0F57F41FF3982
:10567000EBD1A4480168304605F0A9F9A14841687A
:10568000204605F0A4F907EB080919F4806F04D14E
:105690004FF000509C49086003E04FF400509A49D5
:1056A000086042F2107081450BD904F0A3FF5946FF
:1056B000009004F0A4FF41F28831884201DD01200E
:1056C00000E000208246BAF1010FA9D18F4807609F
:1056D000C0F80480BDE8FC9F2DE9FE4F06460D464C
:1056E00030881FFA80F906F106082C46A81D0290A2
:1056F0000020E07001202071112060710020C5F8A9
:105700000001B9F1600F23D009DCB9F1020F7DD09F
:10571000B9F1050F0BD0B9F1140F78D12DE0B9F51F
:10572000047F75D0A9F500702338F6D11FE006205C
:1057300020805420A070207940F0800020715422F5
:105740007349029807F09BFE5A20C5F8000158E102
:10575000B77861202080A7700FB1012F01D10120FF
:1057600000E00220E0700620C5F8000149E1B078B1
:10577000604908624020C86143E1D8F800A0D8F829
:1057800004B0D8F808000190BAF5C87F74D1ABF521
:10579000E060C538FAD1019830B1012815D002284F
:1057A00071D040286AD187E072B65A48006820F468
:1057B0008000584908600846006820F4001008601E
:1057C00000205549086001F0A7FC05F000F80090A2
:1057D000009800F07F02C0F3062150A004F0FFFB08
:1057E00004F01DFC4FF40040474908604010086079
:1057F000C003086001205749886140F2DC5004F082
:1058000025FF4FF480305349886102E070E0F3E0F7
:105810006DE0642004F01AFF4FF400503A4908602C
:1058200040040860022005F0A1FB4B494B48FFF7FC
:10583000DBFE04F0CCFF0090009800F07F02C0F384
:10584000062147A004F0CBFB30484268016852A013
:1058500004F0C5FB4FF400502B490860002005F010
:1058600085FB01203B498861052004F0EFFE4FF4E1
:1058700080303849886102E038E004E035E04DA02E
:1058800004F0ADFB31E052A004F0A9FB04F0C7FB2B
:10589000322004F0DBFE72B61E48006820F480005F
:1058A0001C4908600846006820F4001008604F4852
:1058B0001949086001F030FC02202649886140F255
:1058C000DC5004F0C3FE4FF40030224988616420AC
:1058D00004F0BCFE022005F043FD45494548FFF7B2
:1058E00083FE002005F03CFD00BF00BF89E000BF43
:1058F00087E00000D81900200C1B0020CDCCCC3D47
:10590000CDCC9C4040040020180C02404C040020E8
:105910004802002030380240F01F00200D0A537466
:10592000617274656420736C617665207265707253
:105930006F6772616D6D696E67206174202530320A
:1059400058206D696E203A202530325820736563E7
:105950000000000000100240A82501089025010861
:105960000D0A53746F7070656420736C61766520E6
:10597000726570726F6772616D6D696E67206174B8
:105980002025303258206D696E203A20253032585B
:1059900020736563000000000D0A54782F527820B0
:1059A0006279746520636F756E74203D2025752CB7
:1059B000202575000D0A536C61766520686173209F
:1059C0006265656E2072657365742E0D0A000000B5
:1059D0000D0A456E746572696E6720626F6F746C34
:1059E0006F616465722E2E2E0D0A0000EFBEADDED3
:1059F000C0250108B42501084946F8A004F0EFFAD3
:105A000000BF00BFBDE8FE8F70B505460E46822E72
:105A100004D0832E08D0842E05D173E00120FA49EA
:105A2000087382200871A2E00620F74908738320DA
:105A30000871FCF782FAF449A1F80500FCF78CFA2A
:105A4000F149A1F807000021EF484172EF48806951
:105A5000022823D1EC48407A40F00101EA48417223
:105A60000146B1F90710E94A526D881A01D401467E
:105A700000E041420C46B4F5A37F02DCE448006834
:105A800030B1B4F5F57F05DCE1480068012801D1AB
:105A9000012000E00020DE4908601CE0DA49B1F98D
:105AA0000510DA4A126D881A01D4014600E041421D
:105AB0000C46B4F5A37F02DCD548006830B1B4F5DC
:105AC000F57F05DCD2480068012801D1012000E003
:105AD0000020CF490860CE480068012805D1CA4897
