:020000040800F2
:1000000028770120191E0008371E000871320008E9
:100010003B1E00083D1E00083F1E000800000000B7
:10002000000000000000000000000000411E000869
:100030005B1E000800000000593200085F1E000827
:10004000611E0008611E0008611E0008611E000894
:10005000611E0008611E0008611E0008611E000884
:10006000611E0008611E0008611E0008611E000874
:10007000611E0008611E0008611E0008611E000864
:10008000611E0008611E0008611E0008C3390008D7
:100090000D390008611E0008611E0008611E00087D
:1000A000611E00081F560008611E0008611E00083E
:1000B000611E0008611E0008611E0008611E000824
:1000C000611E0008611E0008611E0008611E000814
:1000D000611E0008611E0008611E0008611E000804
:1000E000611E0008611E0008611E0008611E0008F4
:1000F000611E0008611E0008611E0008611E0008E4
:10010000611E0008611E0008611E0008611E0008D3
:10011000611E0008611E0008611E0008611E0008C3
:10012000611E0008611E0008611E0008611E0008B3
:10013000611E0008611E0008611E0008611E0008A3
:10014000611E0008611E0008611E0008611E000893
:10015000611E0008611E0008611E0008611E000883
:10016000611E0008611E0008611E0008611E000873
:10017000611E0008611E0008611E0008611E000863
:10018000611E0008611E000800F002F800F0B2F8DD
:100190000AA090E8000C82448344AAF10107DA45E2
:1001A00001D100F0A7F8AFF2090EBAE80F0013F082
:1001B000010F18BFFB1A43F001031847B4C8000031
:1001C000E4C800000A444FF0000C10F8013B13F0A3
:1001D000070408BF10F8014B1D1108BF10F8015BA0
:1001E000641E05D010F8016B641E01F8016BF9D193
:1001F00013F0080F1EBF10F8014BAD1C0C1B09D1EA
:100200006D1E58BF01F801CBFAD505E014F8016B5B
:1002100001F8016B6D1EF9D59142D6D370470000ED
:100220000023002400250026103A28BF78C1FBD8FF
:10023000520728BF30C148BF0B6070476E2908F0D5
:10024000E980702908F0398166290AF0D487652988
:100250000AF0D18767290AF0CE876129AFF30080C1
:1002600003681B0A28BF41F08001692908F09680C5
:10027000642908F09380752908F090806F2908F0B0
:100280003786782908F00581E92908F0D185E42925
:1002900008F0CE85F52908F0CB85EF2908F03486E3
:1002A000F82908F004810368DB0928BF41F08001C8
:1002B000632908F05285732908F05785E32908F06F
:1002C0003587F32908F03A87002070471FB50AF0F8
:1002D00088FF08F08BFE0400002000210AF06EFA6F
:1002E000401C6060002000210AF052FAE0601FBD4F
:1002F00010B510BD09F072F91146FFF7E7FF01F0E4
:1003000087F909F099F903B4FFF7F2FF03BC09F08C
:10031000D9F900002DE9F04FFD484FF080635C00F3
:10032000B0F83CC05D011E131F01FA48FA49FB4AB0
:100330004FF003094FF0010A4FF4006E4FF4806B49
:10034000BCF10F0F55D2DFE80CF0080808080F16B3
:100350001C222A2F343A40444C00036004608D6113
:100360008E614FF47A7017E0036004608D618E61D6
:100370004FF4967010E0036004608D618E6164201C
:100380000AE0036004608D618E611E2004E003605A
:1003900004608D618E610A201080BDE8F08F0360DB
:1003A00004608D618E6121E0036004608D618E6167
:1003B00014E0036004604FF40040886115E00360BE
:1003C00004604FF40040886107E00360C0F800E07B
:1003D0000AE00360C0F800E08D618F61A2F800A020
:1003E000DBE7C0F800B004608D618F61A2F8009077
:1003F000D3E7C0F800B00460EEE77047C44A014696
:100400000120936C8B4201DD02207047D26C8A423E
:10041000FBDA03207047BE494A89802A0CD0898FB5
:10042000BF4A02EB810191ED000A00EE900AF8EE5E
:10043000E00A20EE200A70479FEDBA0AF5E770B592
:10044000B34D2DED028B286D0AF03BFC41EC100BF7
:1004500053EC102B9FEDB40B51EC100B0AF0AAFAE1
:100460000AF0CEF908EE100A0024B14E14E000EEB6
:10047000104AB8EE400A28EE000A10EE100A0AF000
:100480003FFE41EC100B09F0F7FC51EC100B0AF0A9
:10049000B7F946F82400641C286DA042E7D8BDECEB
:1004A000028B70BD30B5A34D0024286B410504D5E7
:1004B0000124010503D4052407E0010505D544F016
:1004C0000104400501D444F00804E869FFF7A3FFE4
:1004D0008F48D0ED1F0AB4EEE00AF1EE10FA01DD0C
:1004E00044F002044089802801D144F0020495F8C8
:1004F0003000400601D544F01004E869FFF77EFFA4
:10050000022802D0032803D004E044F0200401E0D4
:1005100044F04004286BC10401D544F480348004C5
:1005200001D544F40034686B810601D544F480247D
:10053000400601D544F40024204630BD01467EA08B
:1005400002F0ECFE02F049FFFCE78148016841F04F
:10055000010101607E481030016841F000510160E6
:100560007C48016841F440710160C16821F4407128
:10057000C1607949012008607047774920310860DF
:1005800070470FB4FEB50022BDF82000CDE900028F
:1005900072A109AD0291812812D1DDE90941704EA5
:1005A00000920835306BA04212D0B4F5004F06D04F
:1005B0008120CDE9000402916AA002F0AFFE34630D
:1005C000BDF82000A0F50061023901D12868019032
:1005D0006A4A6946002000F029F8012802D16748DC
:1005E00002F073F8FEBC5DF814FB494910B564488D
:1005F0004860D4220021464802F091FD48F2D044E0
:10060000012804D05FA221468120FFF7BAFF012311
:10061000D42200213E4802F04BFD002805D021469F
:10062000BDE8104059A28120ABE710BD2DE9F74F7E
:10063000DFF80091584B82B099F807208E469C5CF9
:100640000023012C14D1D9F81440022C10D1602AB7
:100650000ED810B1018800F10608A1F5C062A23AD7
:1006600002D040F2A16116E0602289F8072012E072
:100670004A4CB4F900200AB191B2238018B1018824
:1006800000F1060807E0BEF1000F04D0BEF800102C
:100690000020804689B2049C0122A51DE3702271CE
:1006A00050226271049C0026194F9A464FF0060BA7
:1006B0004FF0810CC4F80062B1F5C66F70D070DCE9
:1006C00040F20363A1F2036299426BD073DC6529A7
:1006D0006AD00EDC122968D006DC022978D0052900
:1006E00077D0112976D122E1142974D01529F9D1B6
:1006F000FEE340F22323A1F2232299426CD055DC81
:1007000081296AD012F1100168D00129EAD1F0E301
:10071000986E012018040240001002409803002047
:10072000FCB100085CFDA038A7E8482EFF21194065
:1007300000290020000000200D0A45786974207708
:10074000697468206572726F723A20257300000028
:1007500030380240000002400074004000000000F9
:100760006C6F01200D0A415054206E6F74696669E8
:10077000636174696F6E3A20257300008035002034
:100780000A01010045455772697465004545566583
:100790007269667900000000D06F0120B602002067
:1007A00016E333E061E106E038E1D0E02D2A7DD0A8
:1007B0002E2A97D1FBE3152A79D017DC062A77D0A9
:1007C0000DDC012A75D0032A74D0042A8AD1C2E133
:1007D000C3E077E0A3E0EBE3A5E0EAE3EAE30D2A78
:1007E00069D00F2A68D0102A90D1EEE120211F2A6B
:1007F0007ED006DC162A7CD0172A7BD01E2A85D113
:100800007FE2232A77D0242AD3D1BBE240F2866349
:10081000A1F286624FF0800E99426DD021DC40F249
:100820003E63A1F23E62994267D00BDCA1F23161D6
:100830000C2974D2DFE801F0F173F0EF7373EE73FB
:10084000ED73ECEB182A6BD006DC022A69D0032A80
:1008500068D0172AADD1FBE3262A73D0282AA8D165
:1008600094E064211B2A6ED010DC052A6CD006DCD3
:10087000012A6AD0022A69D0042A9AD1E9E3072A18
:100880007CD0082A7BD01A2A93D1F5E340F2631377
:10089000A2F263104FF0070B9A4271D00DDC1C2AB4
:1008A0006FD0821C6ED0012A90D1BDE0F5E3B7E194
:1008B00069E11BE13DE16EE17BE102287DD0032887
:1008C00084D1EBE35420A4F800B0A070024684F871
:1008D00004C0FE49284607F04DFF386845F82B0B49
:1008E0003120E8753320287635206876362005E0FB
:1008F000D7E1BAE137E254E245E07AE3A876322064
:10090000E8762877412068777520A8776720E87710
:10091000EF48012685F820A00221C163FEE321E211
:10092000FDE3FDE3FDE3EA48402181621AE2E84885
:10093000016C41F0100101643221C9F81810C0F8AF
:100940002CA00FE226E0EDE3EDE383E316E3E048BD
:10095000016C21F01001016404E2DD485146BEF152
:10096000000FC0F83CA0026C22F010020264DDD03F
:1009700002202080A170E1700126CFE3F5E3F5E3CA
:1009800064E0F4E379E36FF0050077E33220C9F81F
:100990001800E7E199F80800401C89F80800652074
:1009A000207084F801B01C20A07084F804C0B9F84D
:1009B000400000F50040288000E064E3B9F84400FE
:1009C00000F500406880B7F8CC003C374000A880B4
:1009D000D9F83C301846FFF71EFDBE4880ED000AEE
:1009E0000178A9714178E97181782972C0786872BB
:1009F0006B813888A8810120E881FFF753FD2861C9
:100A0000B888A882388BE882B88B2883B4E79BE249
:100A10008EE2D0E2F9E2A3E286E247E266202070AD
:100A2000504684F801A099E2B8F8000064225043CF
:100A3000FF22B0FBF2F0C9F82C00642801D9C9F8F4
:100A40002C10D9F82C0004F033FB8BE1EA20207045
:100A500084F801B00220A07084F804C0D9F82C00FA
:100A6000C0EB0020B0FBF1F086E289F800A0012382
:100A700089F8063082784FF6FF314FF2FF70062A70
:100A80007ED2DFE802F07D270A03131DD9F830007B
:100A900040F0010040F4806017E0D9F8302042F0C7
:100AA00001020A400240C9F830205BE1D9F8301059
:100AB00041F0010141F480610140C9F8301051E179
:100AC000D9F8300040F00100084040F40060C9F857
:100AD000300047E1D9F830204FF6FE7422400A403A
:100AE0000240C9F8302089F800303BE10520207031
:100AF00084F801B0D9F83000C10716D010F4406F67
:100B000001D0042100E00221420504D5000509D4EA
:100B100041F400700AE0020504D5400502D441F416
:100B2000407003E041F4807000E00120A070000AF2
:100B3000BFE3684898F80010017098F80110417000
:100B400098F80210817098F80310C17090ED000AB7
:100B500087ED1F0A06E10820207084F801B0042008
:100B6000A07084F804C05B4897ED1F0A80ED000A6E
:100B700001782970417869708178A970C07800E0A7
:100B8000EFE3E870F8E6B8F8000047F8800FB8F82F
:100B900002007860E6E01120207084F801B00420A3
:100BA000A07084F804C037F8800F2880B888688067
:100BB000E2E657F8800FA0F50040C9F840007868D9
:100BC000A0F50040C9F84400CCE01420207084F85F
:100BD00001B00E20A07084F804C0B9F8400000F500
:100BE00000402880B9F8440000F500406880D9F83A
:100BF0003C301846FFF70FFC364880ED000A0178BC
:100C00002971417869718178A971C078E8712B8167
:100C1000B88F6881D9F81C00FFF7F0FBA881ABE61C
:100C2000012089F80600B8F804004FF448718842A2
:100C300001D9084602E0502800D250203865FFF75D
:100C4000FEFBB8F802004008C7F8C800B8F800007A
:100C50000328D9F8340003D04FF67F71084001E033
:100C600040F08000C9F83400EEE3217084F801B050
:100C70000C20A07084F804C099F83400000601D557
:100C8000032000E001202880B7F8C80040006880F9
:100C9000B7F85000A880A5F806A0A5F808A0012084
:100CA00040E12320207084F801B0A17084F804C0D2
:100CB00037F8880F2880B88868803889A880B88974
:100CC000E880388A2881B88A688105E08CB30008FA
:100CD0006C6F012038000020388BA881B88BE88128
:100CE000388C2882B88C6882388DA882B88DE882CA
:100CF000388E2883B88E6883388FA883B88FE883AE
:100D00003AE6B8F8000047F8880FB8F802007860B3
:100D1000B8F80400B860B8F80600F860B8F8080041
:100D20003861B8F80A007861B8F80C00B861B8F812
:100D30000E00F861B8F810003862B8F81200786256
:100D4000B8F81400B862B8F81600F862B8F81800DD
:100D50003863B8F81A007863B8F81C00B863B8F8BC
:100D60001E00F86370E3D9F834104FF67F7211401B
:100D7000C9F834108178C07801EB00204008C7F82A
:100D8000C80061E32820207084F801B084F802B024
:100D900084F804C00220288037F8540F6880B8888F
:100DA000D5E1B8F80200002801DA396D0844396D40
:100DB000814202DD002800DB7865B8F804000028D5
:100DC00000DA08448142CDDD0028CBDBB8653BE387
:100DD000B8F80220B8F80410B8F80600786498F85B
:100DE00000004FF6FF53012808D04FF6BF740228C9
:100DF00019D003281CD004280CD104E0D9F8300005
:100E000040F0400012E0D9F8300040F0400012E01D
:100E1000C9F8300098F8080001280FD0022812D035
:100E2000032819D132E0D9F8300020401840EFE70C
:100E3000D9F83000204040F40070E9E7D9F83000DC
:100E400040F0800006E0D9F830004FF67F7318407C
:100E500040F48070C9F83000D0034FF47A7200F289
:100E6000262090FBF2F0F864C80300F2262090FBE5
:100E7000F2F0B864B9F830008005A8D598F80A00F7
:100E8000B98FB8870F2807D90F2008E0D9F83000AC
:100E90004FF67F631840DDE7032801D20320B887AF
:100EA00080B2884293D0FFF735FACDE2322020702D
:100EB00084F801B00C20A07084F804C0F86C4FF4E2
:100EC0007A71484300F58040C0136880B86C48438D
:100ED00000F58040C013A880B7F84400E880D9F836
:100EE000300041064FEA805008D5002804DA01E0BE
:100EF00011E251E1042006E0012004E0002801DABB
:100F0000032000E002202880D9F83000010601D536
:100F1000012004E0C00501D5022000E00320288163
:100F200097F83C00688127E5B8F8020038648BE246
:100F30008078012802D0A7F80AE085E27889802825
:100F4000B3D1A7F80AA07FE23D20207084F801B059
:100F5000B889802801D0032000E00120A0700BE5B3
:100F60003520207084F801B00420A07084F804C0FB
:100F7000B7F84000688002202880FDE489202070B6
:100F800084F801B00A20A07084F804C0D9F83C307D
:100F90001846FFF740FAFE4880ED000A01782970F4
:100FA000417869708178A970C078E8701BE038E2F8
:100FB000ADE1FEE0CDE03A20207084F801B00A20D7
:100FC000A07084F804C0D9F83C301846FFF723FA23
:100FD000EF4880ED000A0178297085F801A040787B
:100FE000A87085F803A0AB80B88FE8800120288125
:100FF000C2E43F20207084F801B00A20A07084F879
:1010000004C0FFF74FFA2860B6E43820207084F857
:1010100001B01420A07084F804C0009807EB800091
:1010200090ED1B0ADA4880ED000A017829704178BA
:1010300069708178A970C078E870002150462874E2
:101040002873491C2872C9B228710429F7D393E484
:1010500033E1C0E0CE4898F80010017098F8011014
:10106000417098F80210817098F80310C17090EDEB
:10107000000A87ED1B0AE7E15FE10520A7F8D00031
:10108000FFF7B3FAE0E198F8060000F00700012846
:1010900005D07889802805D006E0BEE127E0A7F8D2
:1010A0000AE001E0A7F80AA098F80600C0F30210D1
:1010B000012803D0B889802803D004E0A7F80CE009
:1010C00001E0A7F80CA0B8F80600C00502D5012081
:1010D000B88401E0A7F824A098F8040000F0030009
:1010E000788398F80400C0F30110B883ACE1ED20D8
:1010F000207084F801B00820A07084F804C0022099
:10110000288001206880A5F806A0B889802801D130
:101110001020E880788980280AD105E08AE1DDE0A6
:10112000A5E0B6E01EE15DE0E88840F00100E8805F
:10113000B88C012803D1E88840F48070E880B87E3C
:10114000397F00F0030001F0030140EA0110A8809C
:1011500012E4904C8278216C62F3861121648078CD
:10116000800705D541F0800004E050E062E02AE10C
:1011700021F08000206479890A2903D1C0F380100E
:1011800001F001FAB8890A2805D194F84000C0F3AB
:10119000C01001F00DFA57E140F2152020807D4883
:1011A0000221B0F84000C0F3801201EA9010104410
:1011B000D4E6A4F800C04421A17084F804C0A5F8C6
:1011C00000A0BEF80400688073A1281DDEF8082086
:1011D00007F07EF81AE4B8F802003881B8F8000089
:1011E000788431E140F28C6020801020A07084F877
:1011F00004C038896880788C28800020514605EB2F
:101200004002401CC0B291800628F8D3BAE4B8F876
:1012100000007881B8F80200F881B8F804007882FC
:10122000B8F80600B881B8F808003882B8F80A00A3
:10123000B88209E140F28F6020801420A07084F809
:1012400004C078892880F8896880A5F804A0B88946
:10125000E880388A28815146A5F80AA0002005EBCD
:101260004002401CC0B291810428F8D38AE48178FE
:10127000012901D0022906D1C078022804D007EB49
:101280004101A1F814A0DFE007EB410101208882B1
:10129000DAE08178012901D002291ED140F24261B1
:1012A00021808178A170807807EB4000808A10B19E
:1012B0000220E07066E40120FBE78178012901D07B
:1012C00002290AD107EB8101B8F802204A6280782E
:1012D000B8F8041007EB8000C162B5E081780129FD
:1012E00001D0022916D140F25761218084F802B062
:1012F00084F804C081782980817807EB8101898C8A
:101300006980807807EB8000808DA8803AE4D8F867
:101310000000386098E0162020802820A07084F813
:1013200004C0386828600120514605EB8002401C4B
:10133000C0B211600A28F8D324E4817805290FD1BE
:10134000C07805280CD1012089F8000089F8010037
:1013500089F802A089F803A089F8060089F8070037
:1013600072E066E040F2A1602080A17084F804C0C1
:1013700099F807100B4BC1F160002880B88F01EB82
:101380004112688002EB811201201A44135C0BE0C9
:10139000380000206C6F0120252D36332E36337334
:1013A000000000003C0400202E18401CC0B2F37066
:1013B0006028EBD9FE4A02F801A0491C89F8071001
:1013C000C9F814A02BE489F800A089F801A089F8D5
:1013D00002A089F803A0012089F8060089F8070017
:1013E000D7F88000A0F50040C9F84000D7F8840085
:1013F000A0F50040C9F8440050203865FFF71FF8F9
:10140000D9F83000D9F8341040F0010041F480518F
:1014100040F44C60C9E90C0145E5C07889F8040046
:1014200012E040F2522121808078A07099F80400E7
:101430003FE74EB12079000602D5A078801D00E07C
:1014400006200499C1F8000205B03046BDE8F08FCF
:10145000D848406A704770B5D64CD74DB4F90C10D7
:1014600005294AD2DFE801F00309203C4C0010B105
:101470002869400741D401203EE0D0A001F04EFF92
:10148000D3490520A1F8D000FFF7AFF801F04BFBDE
:10149000E0810220CF49A08120200860CE490003CE
:1014A00008608001A86128E040B12869400705D59F
:1014B0000020A081C9A001F031FF1EE001F033FB44
:1014C000E18901F034FBB0F5FA6F16D90220FFF77D
:1014D00058F8C549086C20F01600086403200BE09A
:1014E000002003F0E5FD01F01EFBE18901F01FFB88
:1014F000B0F57A6F01D90420A081B4F90C0070BD59
:10150000002003F0D5FD40F6B83001F0BAFB4FF0F3
:101510008040018821F001010180B448816A21F0F6
:1015200001018162816AC907FCD1816D21F001014D
:101530008165816DC907FCD1AD48016821F00101C9
:1015400001600168C907FCD1A9484830016821F051
:10155000010101600168C907FCD1A5487830016824
:1015600021F0010101600168C907FCD1A1480168AF
:1015700021F480010160016821F40011016072B65C
:101580009C482838016821F0F0010160016841F0B1
:10159000F0010160016821F003010160016841F080
:1015A000010101600168C1F381010129FAD191486B
:1015B0003038016821F08071016000F075FC4FF453
:1015C0008030A86128698007FCD528694007F9D5D3
:1015D000BFF34F8F88480168884A01F4E0611143E6
:1015E0000160BFF34F8FFEE770B50D4601004FF06D
:1015F00000000CD1002D0AD0012405EA04012029A5
:1016000002D17FA001F08AFE6400F6D1012070BDF6
:10161000684C4FF0000884F8098009F0E2FD00F002
:1016200054FC6C4820210160DFF8ACA10D03CAF81E
:101630000050614F8804B8617B4801260660022192
:10164000016038698007FCD501F030FAFEF77DFFB4
:10165000764940F6FF700860642001F01EFB01F03F
:1016600069FA01F088FA002001F0E4FB012001F0A2
:101670002EFB03F0BBFC01F025F901F053F801F05B
:1016800085FF03F02BFC01F0CFFE62B604F035F8C5
:10169000FEF7D5FE4748016B426B41F0010142F471
:1016A000805241F44C61C0E90C12FEF733FE642015
:1016B00001F0E7FA5EA001F031FE67A001F02EFE16
:1016C0005BA001F02BFE694C69A054F80E1F01F0DD
:1016D00025FE9FED6D0B6EA053EC102B01F01EFE4E
:1016E00072490120086005F03CFE002005F0B3FEC1
:1016F00005F038FD6E4804F0DFF94FF4207005F076
:1017000073FE22686BA14FF4FA6003F0B3FADFF8BE
:10171000D8B00023D422DBF840102D4821F010016E
:10172000CBF84010194601F0C3FC294E68493068D7
:1017300090FBF1F0392801D0664931604FF4003157
:10174000CAF800108B01BB61224809010160C11475
:10175000B9610115B9614115B9618115B961CC0152
:101760000460314A116013608905016000F05FFF79
:10177000E110CAF8001000F043FF6003B861C01325
:10178000B861144D6FF00502083D334601E0A3F83F
:10179000D0202968A946286841F3C01140F3801081
:1017A000401C491C0142F2D10948B0F8D00093E036
:1017B000D06F012000000020001002400D0A506F81
:1017C000776572696E6720646F776E2E2E2E00002B
:1017D000986E0120180C02401804024063616E6389
:1017E000656C6C65640D0A006C6F0120006002403E
:1017F00040640240303802400CED00E00400FA057D
:101800000D0A415054206E6F746966696361746992
:101810006F6E3A206A6F79737469636B20736574B5
:1018200074696E677300000018080240207400405D
:101830000D0A2D2D2D2D2D2D2D2D2D2D2D2D2D2D1B
:101840002D2D2D2D2D2D2D2D2D2D2D2D2D2D2D2DC8
:101850002D2D2D2D000000000D0A4B4E41094E612B
:101860006E6F20747261636B000000008CB300081F
:101870000D0A0A4669726D77617265207265763A63
:101880000930313031313000000000000000654087
:101890000D0A53797374656D20636C6F636B3A093D
:1018A000252E3266204D487A0000000024040020D6
:1018B000E8C2000854686F726C616273204B4E413D
:1018C000200A5377526576203031303131300000B4
:1018D00040420F0040C0650305287CD0F948012232
:1018E000F94B4281C281828102824B2120F8081F7C
:1018F000D962A0F81C80A0F81680A0F81880A0F883
:101900001280A0F81480A0F80E80A0F81080428306
:101910006421C162816241620162092181865102B2
:10192000816341F27411016446F2F2214164502155
:1019300081649321C1649FEDE50A016580ED150A7C
:101940009FEDE30A80ED160A9FEDE20A80ED170A8B
:101950009FEDE10A80ED180A9FEDE00A80ED190A7B
:101960009FEDDF0A80ED1A0A9FEDDE0A80ED1B0A6B
:101970009FEDDD0A80ED1C0A9FEDDC0A41F629414E
:1019800080ED1D0A8467E0E91F4141F6E221816094
:1019900041F69A11C16041F65201016141F20B71A9
:1019A000416141F2C351816141F27B41C16141F228
:1019B0003431016241F2EC11416241F2A4018162D1
:1019C00040F65C71C16240F61561016340F6CD419D
:1019D00040F6853200E00CE0C0E90D1240F63E22F0
:1019E000C26340F6F602C0E910218164042140F888
:1019F000401CFEF724FDB44EFEF754FDB062BC4817
:101A000000F026FE902802D1BAA001F087FCB84C65
:101A1000D4F8000201280CD1B74A00212046FEF775
:101A200005FE012802D1B44800F04FFE0220C4F8A0
:101A3000000200F05BFE01F044F90028DCD0AF4862
:101A40000068800410D50420CAF80000707A10B134
:101A50000120B86110E000F027FA4FF48030B8613F
:101A6000707A401C707207E04FF48021CAF80010B1
:101A700086F8098000F00EFA02F0FDF802F082F814
:101A8000904C608B60B34FF00060B8614014B86157
:101A9000A08B50B34FF00070B8614014B86170690A
:101AA000022801D2401C7061307901287DD003F0FA
:101AB000F5FACBF80400DBF818105A461A2902D0C0
:101AC00000EB40005060DBF8040008B16420707146
:101AD000D9F8000040063DD40120B07151B184E036
:101AE0004FF40060B861C003D1E74FF40070B861F3
:101AF000C003D3E7D9F8001009060AD4D4F880004F
:101B0000A0F500403064D4F88400A0F50040706473
:101B10006BE0317839B13070707086F8028086F8E9
:101B20000380F07161E0B17AF1BBB072308AD8BB4A
:101B3000734981F80080306B10F4406F03D04FF28E
:101B4000FF31084001E040F44060306340F6AC50A3
:101B500030824AE03078012800D00020DBF81010F5
:101B6000E9B300210840D9F8001041F3C011491C25
:101B7000084231D086F8008086F8018086F802801D
:101B8000012086F80380B07160215E4AF17140F255
:101B9000A16111805C49454681F86000D4F880005D
:101BA000A0F50040306401E01FE037E0D4F8840085
:101BB000A0F50040706450202065FEF740FC306BBB
:101BC000716B40F0010041F4805140F44C60C6E973
:101BD0000C01FEF79FFB7561D9F8000000E016E0EC
:101BE00040F3C011491CCBF81010D9F80000400692
:101BF00001D586F80A805D46DBF8100002F0EAF8AD
:101C00006861286950B1A869142802D006E0012152
:101C1000A8E73E48018861834088A0835D463C4B2D
:101C2000DBF80C20DBF80410DBF8140002F015F9E7
:101C3000A86102F0CEFA3869C0F34000A860FFF74F
:101C40000AFCE860D5E90601FFF7CEFC286201280E
:101C500001D1C5F81C80A86A002809DD4107A0F160
:101C60000100A86201D500200DE0B4F908000AE0E7
:101C7000B08928BBA8691A2809D070790028F4D047
:101C8000401E7071642003F013FAB089C0B9306B44
:101C9000C10761D0618980295ED041065CD5316A77
:101CA00079B9B4F83CC0000601D5012500E0022551
:101CB000F069FEF7A3FB02282CD003284CD12CE0BE
:101CC00097E049E0986E012000000020E960FD3DAA
:101CD00000000000CBDB713F5114783F9F76F83D48
:101CE0003E79783EA6671F3F35EF2E3F95BFD6332E
:101CF0007000002021000000803500201008024004
:101D00009C030020B6020020D06F0120DC020020DE
:101D1000886F0120A08F401B01E0A08F2844A0877E
:101D2000022D09D1308EC005A08F02D540F00100F0
:101D300001E020F00100A08780B20F2801D90F2018
:101D400002E0032801D20320A08780B2604503D0BF
:101D5000FEF7E0FA606C3062716B08060ED5A08F5A
:101D6000102804D204EB8000D0F8880001E0D4F8F9
:101D7000C400C4F8CC00308A18B13AE0D4F8C800E6
:101D8000F7E7306B42072BD5C20718D04BF6FF722E
:101D900011404FF6FE721040C1F30E014205C6E934
:101DA0000C0102D541F480417163010503D5716BCB
:101DB00041F4004171634FF2FF3108400CE04A04E6
:101DC00002D540F4806030630804306B02D540F4E3
:101DD0000060306340F00100306340F6AC50308268
:101DE000306B010705D580F04000306340F6AC5001
:101DF0003082E08B01280AD04FF40030CAF800008E
:101E0000208C012805D04FF40000B861F4E50220D1
:101E1000F4E78020F9E700001548164902680060E1
:101E20008A4203D014488047144800471448D0F829
:101E300000D040680047FEE7FEE7FEE7FEE7FEE76A
:101E40001EF0040F0CBFEFF30880EFF309808069E8
:101E500010F8020C01F008BAFEE7FEE7FEE7FEE725
:101E6000FEE7000007480849084A094B7047000090
:101E7000F01F0020EFBEADDE4730000889010008EA
:101E80000000FF1F287101202877012028730120FE
:101E900028730120FE48016821F003010160C16838
:101EA00021F00301C1607047F9484FF4803181612E
:101EB000016841F001010160016821F00201016047
:101EC000816861F00301816070472DE9F04FF148AE
:101ED000016841F001010160016841F00201016007
:101EE000016841F004010160016841F008010160EE
:101EF000016841F010010160E7484FF400340460CC
:101F0000E5481838016841F004010160016821F0DA
:101F100008010160E04B103B196861F00C01196089
:101F2000DB4AA1019161116841F48041116011689F
:101F300021F400411160916861F440419160D74DF6
:101F400021012960D54918390968D44D41F48061CF
:101F5000183D2960296821F400612960CF491039B2
:101F60000968CE4D61F44061103D2960CA4D6100A1
:101F70002960016841F010010160016821F0200131
:101F80000160196821F03001196001049161116844
:101F900041F480111160116821F400111160916801
:101FA00021F440119160E1019161156845F480359B
:101FB0001560156825F400351560956825F44035E1
:101FC00095604FF00069C2F81890156845F48005D7
:101FD0001560156825F400051560956825F4400521
:101FE00095604FF0007CC2F818C0156845F4802554
:101FF0001560156825F400251560956825F44025C1
:102000009560A64D183D2D68A44E25F44045183E18
:102010003560A24D0C3D2D68A04E25F440450C3E88
:1020200035609E4D183D2D689C4E25F44055183E58
:1020300035609A4D0C3D2D68984E25F440550C3E68
:102040003560056825F0C00505601D1D2D681E1D45
:1020500025F0C0053560924D2D68914E25F0404524
:102060003560F56825F04045F5608C4D46052E60DD
:102070008A4D183D2D68894F45F08045183F3D60D9
:102080003D6825F000453D60844D103D2D68834F2F
:1020900025F04045103F3D60824D29608149183947
:1020A0000968804F41F48031183F3960396821F464
:1020B000003139607B4910390F6827F440370F60D1
:1020C0004FF4800AC5F800A0764F183F3F68DFF84C
:1020D000D48147F48057A8F11808C8F80070D8F8E0
:1020E000007027F40057C8F800700F6827F44057B5
:1020F0000F60C5F800C0D8F8007047F48027C8F812
:102100000070D8F8007027F40027C8F800700F6836
:1021100027F440270F604FF4803BC5F800B04746D6
:102120003F68C44647F00107CCF80070DCF8007047
:1021300027F00207CCF800700F6827F003070F6044
:102140002C60DCF8007047F00407CCF80070DCF875
:10215000007027F00807CCF800700F6827F00C0714
:102160000F60A7012F6047463F6847F48047CCF8CF
:102170000070DCF8007027F40047CCF800700F689E
:1021800027F440470F60454F4FF0804CC7F800C020
:10219000424F183F3F68DFF8048147F08057A8F1AD
:1021A0001808C8F80070D8F8007027F00057C8F871
:1021B00000703A4F103F3F68DFF8E08027F040574B
:1021C000A8F11008C8F80070354FBC613C6844F0B5
:1021D00004043C603C6824F008043C60BC6824F0C3
:1021E0000C04BC60740BBC613C6844F010043C609F
:1021F0003C6824F020043C60BC6824F03004BC60DF
:102200002E60284C183C2468264F44F08044183F28
:102210003C603C6824F000443C600C6824F040447E
:102220000C603C6824F040543C600C1D276827F08B
:10223000405727601A4F3F68DFF8648027F0030794
:10224000C8F80070D8F80C7027F00307C8F80C70B5
:10225000DFF84480C8F80090076847F480070760FB
:10226000076827F4000707601F6827F440071F600E
:102270000704C8F80070076847F48017076007680C
:1022800027F4001707601F6827F440171F600BE052
:10229000001002403038024018040240180C02407E
:1022A00000000240180802409661166846F0804619
:1022B0001660166826F000461660966826F04046BE
:1022C0009660C2F818C0166846F080561660166808
:1022D00026F000561660966826F040569660C604B2
:1022E0009661166846F080661660166826F00066ED
:1022F0001660966826F040669660860496611768B8
:1023000047F080771760176827F0007717609768A5
:1023100027F04077976047463E60066846F0807633
:102320000660066826F0007606601E6826F0407695
:102330001E60166826F00C061660D66826F00C069D
:10234000D660066826F4404606601E1D36681F1DCE
:1023500026F440463E60B94E3668B84F26F0C006B7
:102360003E60266826F0C0062660B54F4FF4002672
:10237000BE613E6846F040063E603E6826F080063C
:102380003E60BE6826F0C006BE60FE002E60AB4D0B
:102390002D68AA4E45F480753560356825F40075C2
:1023A00035600D6825F440750D604546C5F800A000
:1023B000016841F480510160016821F4005101601D
:1023C000196821F440511960116821F03001116041
:1023D000D16821F03001D16031460968334621F0DF
:1023E000C0011960216821F0C0012160016821F459
:1023F0004041016093480068924920F440400860E1
:10240000394640208861086840F4805008600868B8
:1024100020F400500860886840F440508860081537
:1024200089490860884818380068874940F4801056
:1024300018390860086820F40010086082481038D5
:102440000068814920F440101039086088147E49E2
:1024500008607D48183800687B4940F08070183962
:102460000860086820F0007008607748103800683D
:10247000754920F040701039086073494FF40050DE
:1024800008607148183800686F4940F0806018395A
:102490000860086820F0006008606B481038006829
:1024A000694920F0406010390860C8146649086026
:1024B000654818380068644940F48000183908609D
:1024C000086820F4000008605F48103800685E4922
:1024D00020F440001039086018460068194620F0C2
:1024E00040500860206820F080502060206840F054
:1024F00000502060FFF7D8FCC2F818B0BDE8F08F9C
:1025000008B1402001E04FF480004D4988617047D8
:1025100008B1022001E04FF400304949886170475A
:102520004A480069C0F3400070474449012018310F
:1025300008604249086820F0030040F0010008608C
:1025400070473E48016821F0030101603B490120CA
:1025500018310860BFF35F8F3A48001D0068C0F370
:10256000C01070473548016821F00C010160334903
:10257000022018310860BFF35F8F304810300068C8
:10258000C0F3C00070472D490A6842F004020A6097
:102590002A4A4FF400331832136008B1082001E0D2
:1025A0004FF400201060086840F040000860704759
:1025B00022490A6842F001020A60204A4FF4803141
:1025C0001832116008B1802001E04FF400001D496D
:1025D0000C3108601B480C38016841F480410160EF
:1025E00070471648016821F00C0101601348022170
:1025F000183001600160BFF35F8F402101607047B8
:102600000E494FF480001831086070470B4801688C
:1026100021F00301016009480121183001600160C7
:10262000BFF35F8FBFF35F8F4906016070470349B7
:102630004FF4007018310860704700000008024035
:10264000000002400C040240180C0240001002403E
:102650002DE9F0410446D0F80002012700262F4D55
:10266000022829D00220BDE8F081A8682154401C2E
:10267000A860062811D12079010601D5A17800E0D3
:102680000021891D00F07F00E960502804D16079A5
:10269000012801D1FF2900D9AE60D5E902018842A5
:1026A00005D10120AE600327C4F800020BE0D4F886
:1026B0000002012802D106E04FF6FF7800F0B0F9E1
:1026C00001464045D1D13846CDE710B5134CD0F87E
:1026D0000022D4E9001319441344636003E010F8A6
:1026E000013B01F8013B521EF9D210BD10B50B4C55
:1026F0006068002811D000F0C6F900280DD0D4E998
:10270000000100F0A3F9064920688842084601D17B
:1027100000F5007020600020606010BD7402002091
:1027200084370020604810B5016841F480210160C1
:102730005D48103801685D4A114301605C480168DA
:1027400021F480310160016841F400310160011D14
:102750000A6822F480720A6055490C310A6822F432
:1027600040320A600A1F136823F440331360504A52
:102770002432136823F00F03DB1D1360036823F476
:1027800080230360036843F400230360086820F497
:1027900040200860106820F0F00040F070001060E9
:1027A000444940F26D1008804248002308300380FD
:1027B000001D03800A1D118841F400511180018819
:1027C00041F0C00101803C48816D21F0010181652B
:1027D000816DC907FCD1816D21F060618165816DDA
:1027E00041F000618165816D41F488618165314C02
:1027F000241F0466C365816A21F001018162816A38
:10280000C907FCD1816A21F060618162816A41F06F
:1028100000618162816A41F4A06181620463274999
:1028200041638021C162234908390B8823F04003AA
:102830000B80118841F00C011180816A41F0010187
:10284000816210BD1C48C06A1D4AC0F18000116839
:10285000884202D14FF6FF7070471848405C491C0F
:1028600011608029F8D1002111607047124A936DE0
:1028700023F001039365936DDB07FCD15066D165AE
:102880000C480838018821F0400101804FF00060B9
:102890009060906D40F001009065704705480838E1
:1028A000008800F0400070474038024008002000D7
:1028B000000C02400848004000600240843B0020B9
:1028C00084020020724810B5016841F010010160D7
:1028D0006F48143801686F4A114301606E480168FF
:1028E00021F480210160016841F400210160416808
:1028F00021F400714160C16821F44021C160816808
:1029000021F440218160416A21F0F00141F0700121
:102910004162016821F480110160016841F40011F5
:102920000160C16821F40011C160C16841F48011E7
:10293000C160416A21F4706141F4E0614162C10209
:102940008161016841F080710160016821F00071CE
:102950000160816841F040718160016821F44001AB
:102960000160C16821F40001C160C16841F48001C7
:10297000C1604A4940F2D920088100230B828B8232
:10298000888940F400508881888A40F0C00088829D
:102990004348026822F0010202600268D207FCD1BB
:1029A000026822F060620260026842F00062026027
:1029B000026842F488620260384C3948241D0830AD
:1029C0000460001F036036487838026822F0010274
:1029D00002600268D207FCD1026822F060620260E5
:1029E000026842F000620260026842F4A062026083
:1029F0002B4A703A14602A4B2A4A6C3B1A605A15CB
:102A0000274B743B1A600A8822F040020A808A89A8
:102A100042F00C028A81016841F00101016010BDA1
:102A20001F4874380068204AC0F500701168884259
:102A300002D14FF6FF7070471A48405C491C116084
:102A4000B1F5007FF7D1002111607047144A136877
:102A500023F0010313601368DB07FCD1104B0C3328
:102A600018600F48001D01600C48018821F04001EA
:102A700001800B494FF00060AC390860106840F0ED
:102A80000100106070470548008800F04000704762
:102A900044380240010040000000024000100140A4
:102AA000B8640240043C002088020020FE4801680F
:102AB00041F400310160FD49A7220A80FB4A40F23F
:102AC000E731121D1160F94A49100C321160F749C3
:102AD00008390A8842F001020A80F44910390A884C
:102AE00042F060020A80091F0A8842F001020A804F
:102AF000EE4928390A8842F001020A80016841F44F
:102B000080310160EA4820210181018941F00701FB
:102B10000181002101854FF6FF71C162018841F0FA
:102B2000010101807047E248406A80B27047401A54
:102B300080B27047DC48001F016841F0100101605D
:102B4000DC48532101854FF6FF714162C162018863
:102B500041F008010180018841F0010101807047C6
:102B60004142D4484162018841F00101018001885D
:102B7000C907FCD17047CC4B10B51B1F186840F03B
:102B800008001860C8482438016841F00801016055
:102B900001680907FCD5016821F008010160C648F9
:102BA00000210180001F0160BF4A143A106840F004
:102BB00001001060C148046824F001040460046846
:102BC00044F002040460046A24F00F04A41C0462AC
:102BD000B94C481E241D2060B74C5720203C208053
:102BE000B5481038048844F001040480001F0488AC
:102BF00044F001040480B0482838048844F00104FB
:102C00000480186840F002001860AD480180001F81
:102C10000160106840F002001060AA48016821F0CD
:102C200001010160016841F002010160A548203006
:102C3000016821F00F01891C0160016821F0F00199
:102C400041F0200101609E4941F26700091D0860C2
:102C500041109B48143001600068994918310860A0
:102C6000974947F270000C390880081D018841F42B
:102C70008071018092481438018841F0010101807F
:102C800010BD00B50246FFF74EFF0146FFF74BFFB0
:102C9000401A80B29042F9D300BD8B4948434FF4AB
:102CA0007A71B0FBF1F0B0F1807F01D30120704761
:102CB0004FF0E0210A6942F001020A6148610020F8
:102CC00070474FF0E020006900F480307047F8B59D
:102CD0007E4B7F4C1D1D38B97C4828300068009021
:102CE00018682060286800906F48001F016841F054
:102CF000805101607748016841F4807101606A4841
:102D00002C30016841F480310160016821F4803188
:102D10000160016841F440710160016841F40041C3
:102D200001606A4ACA20243210605320106067484C
:102D30000C30016841F08001016001684906FCD552
:102D4000624910310E6842F20F776FF30E063E446F
:102D50000E600E6826F4FE0646F4C6060E60216874
:102D600019605D492960016821F0800101600168F6
:102D70000906FCD4FF211160016821F020010160E7
:102D8000F8BD494910B5091F0A6842F080520A602F
:102D900050490A6842F480720A6043492C310A683B
:102DA00042F480320A600A6822F480320A600A68BB
:102DB00040F205131A430A600A6842F400420A60AE
:102DC00028B13F482838018841F0010101803F4A7D
:102DD000CA2024321060532010603C480C30016837
:102DE00041F08001016001684906FCD53749103186
:102DF0000B6842F20F746FF30E0323440B600B68F1
:102E000023F4FE0343F480330B6031492F4B0968F0
:102E100019601B1D30491960016821F080010160B3
:102E200001680906FCD4FF211160016821F020012E
:102E3000016010BD29490840254908607047234BAF
:102E4000CA21243319605321196020490C310A68C2
:102E500042F080020A600A685206FCD51F4A104000
:102E60001A4A1060086820F080000860FF2018608F
:102E7000704730B5154DCA2224352A6053222A6086
:102E8000124C0834226822F480722260221D1368DA
:102E900043F0010313601368DB07FCD00F4B1840AD
:102EA00040F00040094B1BE04438024028440140F8
:102EB0000040014000100040280C0040000002408B
:102EC0002804004000040240406F400100280040F8
:102ED0008C02002000700040024413007F7F3F00FE
:102EE0001C331860C1F30E001D4940F0706008608B
:102EF000106820F001001060106820F480701060ED
:102F0000206840F488502060106820F001001060B4
:102F1000FF2028601348016841F400310160114826
:102F20000838016841F4003101600E480C30016836
:102F300041F4003101600C494015C1F8000130BD79
:102F400007480CB51C3800680090054844380068F4
:102F50000090034840380068019000980CBD0000C4
:102F600044280040083C014004E000E0484A0020BA
:102F7000116841F4803111604FF47053116800F111
:102F8000010011F4003F01D19842F7D11068C0F35D
:102F90004040002856D03E484030016841F0805102
:102FA00001603C48016841F4804101603A4940F2C7
:102FB000056008603648083001680160016841F426
:102FC00000410160016841F4A0510160016821F4F1
:102FD000F81141F440210160016821F07C51016049
:102FE000016841F080610160016841F06051016059
:102FF000016821F040410160016841F080410160B9
:10300000011F264B0B60116841F08071116011683F
:103010008901FCD5016821F003010160016841F0DC
:10302000020101600168C1F381010229FAD1184946
:103030001B4884310860106840F0806010601068A0
:103040000001FCD57047174810B5016841F47001C4
:1030500001600F48016841F0010101600C4A002144
:10306000083211600268104B1A400260031D0F4ABB
:103070001A60026822F48022026005480C30016068
:10308000FFF774FF07494FF000608039086010BDFA
:103090000038024000700040003C02400C544007E1
:1030A0000040005088ED00E0FFFFF6FE10300024E5
:1030B0002DE9F041174604460126C81998460D46E9
:1030C000B0F5006F29D2002000F042FA032000F092
:1030D00047FAC5F3072000F043FAE8B200F040FADF
:1030E000002511E0002000F03BFAB8F1000F06D0F7
:1030F00046B114F8011B814204D1012603E004F813
:10310000010B00E000266D1CBD42EBD3012000F056
:103110001FFA16B10020BDE8F0810120FBE72DE980
:10312000F0478F1888460646B7F5006F02D3012096
:10313000BDE8F0870C4640E004F01F05444500D090
:10314000ADB9002000F004FA062000F009FA0120D1
:1031500000F0FEF9002000F0FBF9022000F000FA78
:10316000C4F3072000F0FCF9E0B200F0F9F916F81A
:10317000010B00F0F5F91F2D02D0781EA0421BD1E3
:103180000025012000F0E4F94FF47A79002000F0E6
:10319000DFF9052000F0E4F9002000F0E1F98246B3
:1031A000012000F0D5F928466D1C484501D90220C0
:1031B000BEE75FEACA70E9D1641CA742BCD801200F
:1031C00000F0C6F9B3E700003EB54F21294800F0F2
:1031D000B9F8002428B127494F2802DC0C54401CC0
:1031E000FAE700F0FAF800F0CEFB88B100216A4659
:1031F00003E043181B795354491C037B8B42F8DCD2
:1032000011446B464C70027B01681BA000F086F8ED
:1032100000F0A2FC214D010006D0286820B920A0B2
:1032200000F07CF80120286012480C380078C006B5
:1032300010D523480068C0F3C0146868844209D0E0
:103240002048B0F91000A04203D100211EA000F0D8
:1032500065F86C603EBD70472048016821F08051E0
:1032600001601FA000F05AB8014625A000F056B832
:10327000FEE77047103E00200D0A43414E20527871
:103280002066726F6D2025642C202564206279747D
:1032900065733A20222573220D0A00009002002057
:1032A0000D0A43414E206572726F723A2073746149
:1032B000747573203D20307825582E0D0A000000CB
:1032C00010040240986E01200D0A54726967676508
:1032D0007220617420252E336600000004ED00E0AA
:1032E0000D0A46656174757265206E6F742079658C
:1032F0007420696D706C656D656E74656421000085
:103300000D0A535643206E756D6265722025752037
:103310007761732063616C6C656400000FB410B555
:103320003E4C03AA6068B0F5E16F00D301BE21688E
:103330000844029904F0BAFF61680144616010BC5E
:103340005DF814FB2DE9F047344D80460026A8684F
:103350008946374608B9C5F80C804FF6FF7AFFF763
:1033600071FA044650452DD0082C12D00A2C26D0D4
:103370000D2C24D0A9684945F1D2214628A0FFF799
:10338000CDFFE86800F8014BE860A868401CA86021
:10339000E5E7A8680028E2D0082121A0FFF7BEFFDA
:1033A00020211FA0FFF7BAFF08211DA0FFF7B6FFDD
:1033B000A868401EA860E868401EE860CFE70126C4
:1033C000AF60CCE73EB1E86800F8017BE860A0EBB5
:1033D0000800BDE8F0870020FBE710B50F4C6068DF
:1033E000002811D0FFF75AFA00280DD0D4E90001C7
:1033F000FFF73CFA0B4920688842084601D100F5E6
:10340000E16020600020606010BD10B5FFF746FA53
:103410000028FBD0BDE81040DFE700009802002044
:1034200025630000603E002078B5544B186840F0DA
:103430000400186051481030016841F400410160F7
:103440004F48016821F080710160016841F000710E
:103450000160041D216821F48051216048490C312C
:103460000A6822F040720A600D1F2A6862F04072FA
:103470002A60434A2432166826F4702646F4C02691
:103480001660066826F480160660066846F4001684
:103490000660266826F4806626600C6824F44014D2
:1034A0000C602C6864F440142C60146824F470647C
:1034B00044F4C0641460046824F480040460046864
:1034C00044F400040460086840F480000860086860
:1034D00020F400000860106820F4704040F4C04000
:1034E0001060186840F00800186026490420086041
:1034F00024481838016841F010010160016821F08A
:1035000020010160001D016821F0040101601D48D7
:103510000C38016821F030010160001F016861F082
:10352000300101601848018821F040010180001F2E
:10353000018821F0400101804FF449710180018828
:1035400041F040010180104808300088009078BDAB
:1035500008B1042001E04FF480200A490860704758
:103560000949091D0A889207FCD5074A08321080CC
:103570000888C007FCD01088C0B2704730380240BD
:1035800000080240180C0240043C004018B55A4A9A
:10359000106840F00100106057481430016841F491
:1035A000805101605548016821F480410160016843
:1035B00041F400410160416821F080014160C1682F
:1035C00021F44041C160816841F440418160016A59
:1035D00021F0704141F0A0410162016821F4806155
:1035E0000160016841F400610160416821F020013F
:1035F0004160C16821F44061C1602021816181681E
:1036000041F440618160016A21F4700141F4A0013C
:1036100001623B49888820F040008880088820F0BB
:10362000400008800720B0FA80F0C0F12003D800E5
:10363000083800F0380040F441700880888840F075
:1036400002008880106840F4800010602D480268F5
:1036500022F0010202600268D207FCD1294C4FF42B
:1036600000627C3C2260026822F0606202600268B4
:1036700042F0C0620260026842F480620260026846
:1036800042F0400202601E481E4A0C3008321060B0
:103690000020121F1060088840F0400008808889D0
:1036A0000090012018499840B1FBF0F018BD704718
:1036B000144A136823F0010313601368DB07FCD17D
:1036C000104B0C3318600F48001D01600D49C014E9
:1036D0007C390860106840F00100106070470948AC
:1036E00084380068000505D505480089000601D426
:1036F000012070470020704730380240000002402F
:10370000003001408864024000BD0105FF4910B54A
:1037100000200860486088608C31086048608860DC
:10372000FB48016841F002010160FA48016821F498
:1037300080210160016841F400210160011D0A68D7
:1037400022F400720A60F3490C310A6822F4402224
:103750000A600A1F136843F440231360ED4A2432C1
:10376000136823F0F00343F090031360036823F41D
:1037700080330360036843F400330360086820F477
:1037800040300860106820F00F0040F00900106021
:10379000DF481030016841F000710160DC481038EA
:1037A000016841F00071016001688901FCD5016880
:1037B00021F000710160D84901200860D64903203A
:1037C000143108602A201521B0FBF1F2B0FBF1F3AF
:1037D00001FB130008B1012010BDCF481C30016867
:1037E000CE4B19400160521EC2F30901026841F438
:1037F000BA0111430160132000F0B1F9142000F068
:10380000AEF9002010BDC4491C310A6822F04042C4
:103810000A600A6800F0404002430A607047BE48F0
:10382000016821F0010101600168C907FCD1BA48B3
:10383000083001684901FCD57047F0B5B84C2288C2
:103840000D2A01D90120F0BD69B3C100091DB54D94
:10385000286840F001002860B24E1C363368012011
:10386000904083433360AF4B0C331F6807431F60A6
:103870002B1D1F6807431F60AB4B03EBC203C3F84C
:103880004016C3F84416A74914310B6883430B60F4
:10389000316801433160286820F001002860521C23
:1038A00022800020F0BD4105D1E710B561B3C00012
:1038B000001D9C490A6842F001020A60994A1C32C4
:1038C000136823F001031360964B0C331C6844F01B
:1038D00001041C600B1D1C6844F001041C60914B2A
:1038E000403318601B1D18608E481430036823F0A5
:1038F00001030360106840F001001060086820F0C8
:1039000001000860002010BD4005D2E7824B30B5B1
:103910000C331868800735D07C4A516802EB0110DF
:10392000491C51607F4950390C6800F10C00650753
:103930004FF0000403D444730D686D0D04E00125BD
:1039400045730D68C5F3D10505600968C1F34001F1
:10395000817374494C39096801F00F010173714991
:103960004839096841606F49443909688160506885
:10397000082800D154601068401C1060186840F09E
:103980002000186030BD10B5634C1434206820F05E
:10399000020020605D4B1A6842B1996803EB011088
:1039A000491C0C309960082902D003E0002003E094
:1039B00000219960521E1A60216841F002012160C5
:1039C00010BDF0B5544808300068C00757D0524EBB
:1039D0001436306820F0010030604C4D8C352A6878
:1039E000002A4CD0A9684F4C05EB0110491C002758
:1039F000803CA9602760D4F800C0437E0C30BBB384
:103A00000368DB001B1D4CEA030CC4F800C0D4F8AB
:103A100000C0837B03B102234CEA030CC4F800C04E
:103A2000DFF800C14368ACF1780CCCF800300CF141
:103A3000040C8368CCF800303A4B7C3BD3F800C0D0
:103A40002CF00F0CC3F800C0D3F800C0007B00F0CE
:103A50000F004CEA000CC3F800C0306840F00100D1
:103A60003060206840F001002060082904D004E0A4
:103A7000FFE703885B05C6E7AF60521E2A60F0BD12
:103A8000F0B5254C1434216821F0010121601F4B51
:103A900000258C331968082901D3012010E05A68E9
:103AA00003EB0211521C5A60C5C80C3181E8C500F5
:103AB0005868082800D15D601868401C1860002014
:103AC000216841F00101216015494A68012A06D1A7
:103AD000144A803A136843F0010313604D60F0BD4F
:103AE0000D4A1432106820F0010010600A480830B6
:103AF000016841F08001016001680906F8D401689D
:103B000021F001010160044818300FE0704C0020E2
:103B100030380240000402400064004000FC80FC99
:103B2000A802002000660040006000400168114BC0
:103B300019400160104900200860486088600F4902
:103B400001204860C1044FF0E020C0F880121068E6
:103B500040F001001060704709480068704700F0AD
:103B60001F02012191404009800000F1E020C0F8CF
:103B7000001170478CFF00FFFC4C0020A8020020C1
:103B8000186400402DE9F041764C012560898028B9
:103B90000FD0FEF735FDB4F90A00734E734F0C28B1
:103BA0000BD2DFE800F00C0C31100A0A0A0A0A0AEC
:103BB0000A55FEF716FD6E480580BDE8F081BDE8A8
:103BC000F041FEF7CFBCFEF7CDFC3978884200D03B
:103BD0003570FEF7C7FC3870E089664D664E0128E7
:103BE0000DD0FEF7BFFC0028E7D154F8800FA0F5F8
:103BF000004028606068A0F500403060DDE7FEF717
:103C0000B1FC0128F1D0D8E7FEF7ACFC3978884246
:103C100000D03570FEF7A6FC3870E089574C4FF69F
:103C2000FF364FF2FF75012803D0FEF79BFC20B949
:103C300007E0FEF797FC012803D0206830402840B9
:103C400004E0206840F0010040F440602060B4E7E8
:103C50004B48E189007801294FEA807002D00028A2
:103C600004DB01E0002801DA012000E00020BDE8CB
:103C7000F041FEF788BC2DE9F0413A4CA08980283C
:103C800010D0FEF7D4FCB4F90C000126364F374DA6
:103C90000C2892D2DFE800F00A0A2F0E29292929E0
:103CA00029292953BDE8F041FEF7B0BCBDE8F04139
:103CB000FEF747BCFEF745FC6978884200D03E70AD
:103CC000FEF73FFC6870208A2A4D2B4E01280DD04C
:103CD000FEF737FC002808D154F8800FA0F500400B
:103CE00028606068A0F50040306066E7FEF729FCB8
:103CF0000128F1D061E7FEF724FC6978884200D002
:103D00003E70FEF71EFC6870208A1C4C4FF6FF3692
:103D10004FF2FF75012803D0FEF713FC20B907E02E
:103D2000FEF70FFC012803D020683040284004E053
:103D3000206840F0010040F4406020603DE71048FA
:103D4000218A007801294FEA807002D0002804DB24
:103D500001E0002801DA012000E00020BDE8F04188
:103D6000FEF726BC986E012006000020B00200205D
:103D70009803002040000020440000203000002074
:103D80002800002030B504460020FB4B024602EB21
:103D900082055D5DA54202D0521C1D2AF7D951B1A2
:103DA00001290DD0022910D0032903D102EB820092
:103DB0001844007930BD02EB82001844407830BDD1
:103DC00002EB82001844807830BD02EB8200184478
:103DD000C07830BD70B5E84C05462C3C0026E16942
:103DE0000520062937D2DFE801F0030C36192C2F05
:103DF000012D30D101202026E061FEF794FEA08045
:103E000029E0FEF790FEA188FEF791FEC82822D98E
:103E1000012D01D1032015E0002013E0012D04D075
:103E2000E061FEF780FEE08015E0FEF77CFEA188F1
:103E3000FEF77DFEB0F57A7F0DD904201026E061F3
:103E400009E045B9E06106E0FEF76DFEE188FEF7A6
:103E50006EFEC828E0D8304670BD2DE9FF5FC64D24
:103E600080462C3D9B46286A0F46002658B11C28E8
:103E700009D0FEF758FE2989FEF759FE42F210716B
:103E8000884200D92E620298012804D1286A1C2891
:103E900001D01C2028620E2F01DD012000E000204F
:103EA00017F10E0F01DA012100E00021441AFEF79C
:103EB0003AFE2989FEF73BFEB42800D2002458EAD6
:103EC000040002D0FEF72FFE2881002F01DB3846C8
:103ED00000E07842642805DD686A052803DA401CA2
:103EE000686200E06E62DFF894C2012C06D0601CAC
:103EF00006D05FEA886005D502210AE0002108E0CB
:103F0000012106E0DCF80000400606D4287820B93C
:103F10000321286AFFF736FF2862DCF80000DFF88B
:103F200060A240F38010401C28709348954B2C38B9
:103F3000954AD0F820C001219448ACF10F0C40F212
:103F40008B6E40F2EC79BCF10E0F35D2DFE80CF04D
:103F500044714FE393B135CDD8F8F60734F500EE50
:103F6000107AB8EEC00ADFED8A0A20EE200ABDEE14
:103F7000C00A10EE101AD9B100EE107A0289B8EE1C
:103F8000C00A20EE200ABDEEC00A10EE101A11443D
:103F900009B20181002901DA068103E0642901DD0B
:103FA00064210181DBF8000040F02001CBF8001013
:103FB000002C01D0A5F802E007E1621C06D0012C1C
:103FC00007D0002C34D040F24160C0E0C6820683A6
:103FD000F9E7C1820183F6E7002C29D050F8801F51
:103FE000A1F5004111604068A0F500401FE0B0F964
:103FF0002200022804D0012805D088B1186809E001
:1040000041F6871001E040F28D2014FB00F01968A2
:1040100008441860B0F5004F05DB47F6FF7006E076
:1040200004EB8410F3E710F5004F01DC59481860E9
:10403000CBE0B0F92200022804D0012805D088B1D5
:10404000106809E041F6871001E040F28D2014FB72
:1040500000F0116808441060B0F5004F05DB47F62A
:10406000FF7006E004EB8410F3E710F5004F01DC6D
:1040700048481060A9E0621C05D0012C10D09CB308
:1040800045480170A1E0C683DAF800204FF2FF74C2
:10409000068422404FF6FF300240CAF80020EFE7C6
:1040A000C183DAF80020018442F44060CAF80000BD
:1040B000E6E7314A601CA2F1040202D0012C03D0D1
:1040C00005E01088401E01E01088401C1080B2F905
:1040D0000000002801DA168002E0012800DD1180CE
:1040E00014B11088508013E060E0611C03D0012CF3
:1040F00003D06CB969E046810AE08021418107E084
:10410000621C02D0012C02D05FE0868400E0818432
:10411000A5F8029059E020484FF2FF3201701F4885
:1041200001701F4806701F480170DAF80000104047
:10413000CAF800001C48866146E043E00EE0FFE755
:10414000611C06D0012C06D084B340F28E606880DA
:104150003BE08681F9E780218181F6E7611C26D06A
:10416000012C27D00CB1A5F802E0B0F922100229E9
:1041700024DD0221418428E0E0020020100C0240EE
:10418000300000204400002040000020986E0120F4
:10419000CDCC4C3D0180FFFF060000200100002037
:1041A00002000020000000206C6F012009E0418C1B
:1041B000491E01E0418C491C4184D4E7002904DAFE
:1041C000468402E0029800B92E62286A04B0BDE875
:1041D000F09F2DE9F04FDF4E07462DED028BA1B089
:1041E00030784FF6FF7A4FF00009012810D10020F7
:1041F00001F0B8FA7E23212154461A460846CDF82C
:1042000000A002F0F5FF204601F0ACFA86F800901D
:104210009FEDD18AD149DFF84883DFF848B3D24D0A
:10422000A1F128041D2F77D2DFE807F00FB5BCBE3F
:10423000C0E0C2C4CAC6CCC8F2F4FBEEEDECCEEBD3
:10424000EAE9E8E7E6E5E4E3E200688B0880A88BAA
:104250004880C648007868B19BF80000002844D028
:10426000C3A202A8A16904F033F8C6A116A804F0FD
:104270002FF880E3B8F8000010F4406F33D0C64840
:104280000078800701D5C5A200E0C9A202A8A169F3
:1042900004F01EF8CA48006800F5004000EE100A5D
:1042A000F8EEC00A80EE880A10EE100A06F028FF29
:1042B0000646C4480F46006800F5004000EE100AAC
:1042C000F8EEC00A80EE880A10EE100A06F018FF19
:1042D00041EC100BBCA153EC102B16A8CDE90067E4
:1042E00003F0F6FF47E3BDA2D0E7C1A202A8A1698F
:1042F00003F0EEFFC34890ED000AF8EEC00A9FED10
:10430000C21A80EE810A10EE100A06F0F9FE41ECA6
:10431000100B53EC102B00E03DE3BCA116A803F0FA
:10432000D7FF28E30CA8A16903F0D2FF4FF6FF7076
:1043300001F018FA0021084601F010FC02A802F072
:10434000F6FE0121002001F009FC0CA802F0EFFEAE
:104350007F2320211A46084602F010F88048B04E0C
:104360004FF0020A008810F4406F09D0D5F8CC0055
:1043700040F2AA2190FBF1F080B23080022801D2F5
:10438000A6F800A07948007800287BD0A5480078DE
:10439000002878D0FEE3A4A202A8A16903F098FF48
:1043A000A6A2BFE7AAA236E0AEA234E0B2A232E0F3
:1043B000B6A230E0BAA22EE0BEA22CE0C2A22AE051
:1043C000C6A228E0CAA226E0CE4901203070674A82
:1043D00008708BF800901070D8F800004FF2FF338F
:1043E0001840C8F80000C848C0F81890C7A212E0EA
:1043F000CAE2C2E2A6E29FE097E089E081E072E0D3
:104400005BE047E017E02AE088E00AE002E0FFE72F
:10441000C3A200E0C7A202A8A16903F059FFCAA283
:1044200080E7CEA202A8A16903F052FFCF48D0A135
:10443000D0F80E209CE26348006800F5004000EED2
:10444000100AF8EEC00A80EE880A10EE100A06F094
:1044500057FE41EC100BCAA153EC102B15E0584845
:10446000006800F5004000EE100AF8EEC00A80EE89
:10447000880A10EE100A06F043FE41EC100B53ECD4
:10448000102B01E08FE24EE3C1A116A803F020FF3C
:1044900016AA0AE0B5F91E00B5F92010884201D02D
:1044A000BFA202E0012806D0C2A202A8A16903F0BF
:1044B0000FFFC5A236E7C8A2F7E7B1F90000B1F9CE
:1044C0000210884201D0C9A207E018B1012803D028
:1044D000CBA202E0CEA200E0D1A202A8A16903F023
:1044E000F7FED3A21EE7B5F91600B5F918108842F9
:1044F00001D0D4A2D9E7012801D0D7A2D5E7DBA209
:10450000D3E76889802801D0DDA2CEE7E0A2CCE71E
:10451000A88C08B1E2A2C8E7E5A2C6E7E8A202A813
:10452000A16903F0D5FEEBA2FCE6A889802801D0A2
:10453000ECA2BAE7EFA2B8E7B5F9220028B101284A
:1045400005D0022805D0EFA2AFE7F3A2ADE7F7A2AE
:10455000ABE7F5E10600002066D62344DC0200202C
:104560003000002002000020986E01200000002092
:104570005072657373204D4F444520746F20202086
:10458000000000007374617274207363616E6E6961
:104590006E672E2E00000000280000205472616318
:1045A0006B696E67204163746976652020000000A6
:1045B0004C6F77207369676E616C2120202020008A
:1045C000D4030020D8030020313A25342E3166254B
:1045D0002520323A25342E31662525005472616338
:1045E0006B696E67204C617463686564000000004D
:1045F0005363616E6E696E672E2E2E202020202060
:1046000000000000680000200080254450726F67A1
:10461000726573733A25342E31662525000000003B
:104620004C000020030000204F5054494F4E204DB5
:10463000454E5520202020200000000055736520A5
:104640006D656E75202620776865656C000000003A
:104650003120484F4D45204F55545055545320203C
:104660000000000032204F55543120564F4C544129
:10467000474520200000000033204F55543220567B
:104680004F4C5441474520200000000034204F5536
:10469000545055545320454E41424C4500000000B3
:1046A00035204F5554505554532052414E474520C4
:1046B0000000000036205349474E414C20494E200F
:1046C000202020200000000037205349474E414C55
:1046D000204F5554202020200000000038204F5546
:1046E0005450555453204C4154434820000000007E
:1046F0003920414320424F4F535420202020202076
:1047000000000000010000206C6F012031302020EB
:1047100058592D5343414E202020202020000000D6
:10472000313120574845454C2053544550202020D6
:10473000000000003132204252494748544E455350
:1047400053202020000000005072657373206D65B7
:104750006E7520746F202E2E00000000313320492A
:104760004E464F524D4154494F4E20008CB30008E5
:1047700053775265763A2030313031313020200085
:104780004F555432203D202025342E3166252500FA
:104790004F555431203D202025342E3166252500EB
:1047A0004F5554505554533A5357204D495845444A
:1047B000000000004F5554505554533A444953415A
:1047C000424C454400000000557365207468652024
:1047D000776865656C2E2E004F5554505554533AEA
:1047E000454E41424C4544200000000052414E4796
:1047F00045533A5357204D49584544202000000066
:104800004F5554202052414E47453A206572720060
:104810004F5554202052414E47453A2037355600D7
:104820004F5554202052414E47453A3135305600BD
:104830004170706C792077697468204D4F44452130
:10484000000000004C415443483A5357204D49580A
:1048500045442020000000004C415443483A2020A9
:1048600020204E4F524D414C000000004C4154431B
:10487000483A2020464545444241434B0000000051
:104880005349474E20494E3A4F50544943414C00FA
:104890005349474E20494E3A20492F4F203120009E
:1048A000414320424F4F53543A2020204F4E200086
:1048B000414320424F4F53543A2020204F46460058
:1048C0004D6F76652074686520776865656C20207B
:1048D00000000000746F20686F6D65204B4E412012
:1048E000092020005349474E204F55543A2020209C
:1048F0004F4646005349474E204F55543A20492FC2
:104900004F203200537465703A206572726F7221C5
:104910002020202000000000537465703A20444598
:1049200043494D414C5320200000000053746570F2
:104930003A20554E495453202020202000000000EA
:10494000EFA2B2E5F3A202A8A16903F0C1FCB5F998
:104950000800142801DA142002E0642801DD642034
:104960002881B5F9080000F0A3FBB5F90820EDA1F6
:1049700016A803F0ADFC16AAD4E4EFA202A8A16920
:1049800003F0A6FCF1A171E4F5A202A8A16903F06D
:104990009FFCF8A2C6E4FCA202A8A16903F098FC5F
:1049A0003A46FEA1E4E7B4F90E00B4F90A10FC4F50
:1049B0004FF04F08884209D1B4F91000B4F90C1037
:1049C000884203D130883988884244D0002000F0E2
:1049D000C9FEF448006841054FEA005015D500288B
:1049E00001DA002329E0217CB7F800C001F1500072
:1049F000C3B2A07B00EB5C024F32A8EB5C0C4F31E2
:104A00006044D2B2C9B2C0B213E0002814DA217CEB
:104A10003B8801EB53004F3000F0FF0BA07BA8EB6D
:104A2000530300F1500219444F30D2B2C9B2C0B2A0
:104A30005B4601F0A3FC0AE00123388802B2208A19
:104A40004F3001B2E0894F3000B201F07FFA608947
:104A5000E081A089208230883880D3484FF44071AB
:104A60004FF6FF76006890FBF1F06081CF48006858
:104A7000404290FBF1F0A081304600F073FE3046DA
:104A800000F070FE4F21202001F0C2FA4F217F205C
:104A900001F038FB20214F2001F0BAFA7F214F208E
:104AA00001F030FB662338211A46084601F066FC07
:104AB000BC48006841054FEA005013D5002801DAD0
:104AC000002325E0207BA67A00F150013C88CBB280
:104AD00006EB54014F31CAB24F30C1B2A8EB5400BB
:104AE000304410E0002812DA217B3E8801EB5600AA
:104AF0004F30C3B2A07AA8EB560400F15002214413
:104B0000D2B2C9B24F30C0B201F038FC54E0012338
:104B1000388802B2A0894F3001B260894F3000B2AC
:104B200001F014FA48E09BF80000012840D1A04EA3
:104B3000A04FDFF88482E0820120A08280B200EBE7
:104B4000401101EB8010E18A3044405C3978401A12
:104B5000C0EB002198F8000091FBF0F0C0F3C40115
:104B60006082CA02C0F3850042EA4010084300F0A8
:104B7000F9FDE08A0122C0F17F00C1B2207D203022
:104B8000C0B201F056FBA08A401C80B2A0825F2810
:104B9000D4D300E00CE0E08A401C80B2E0825F28C1
:104BA000CAD386494FF6FF7081F8009000F0DAFD15
:104BB00083489BF8001001706889802820D008265F
:104BC00000244F46A98FE01C814201D9012000E05A
:104BD000002002F009FC06FB04F0C0F17F00C3B224
:104BE000641C06FB04F0C0F17F00CDE9007AC1B27D
:104BF0000822002001F048FEA4B20C2CE2D311E000
:104C0000002000F0AFFD002002F0EEFB4FF6FF7435
:104C10007F2308221F210020009402F0E9FA204699
:104C200000F0A0FD012002F0DFFB6648BE21006815
:104C30004843000C5F2800D95F20C0F17F04CDE914
:104C4000009A55464E46E1B27F231822102001F00B
:104C50001BFE002002F0C8FBCDE90065E3B218227C
:104C60002021112001F010FE21B00020BDEC028BAC
:104C7000BDE8F08F0FB4F0B5534DBDB0002604462B
:104C80002E6044AA6846439903F010FB6A464FA180
:104C9000104603F01DFB1EAB14AA4DA1684603F09D
:104CA000DBFC4F4F14AA28A8B96903F011FB1EAA18
:104CB00032A8B96903F00CFB02F054FA4FF47840C3
:104CC00000F050FD0022474B1146104601F088FDD0
:104CD0004FF6FF7000F046FD0721002000F03EFF78
:104CE00028A802F024FA0821002000F037FF32A89B
:104CF00002F01DFA40F6FF702860FDF714FF73E024
:104D0000537465703A20444543414441444553201F
:104D100000000000534554204252494748544E4534
:104D2000535320004272696768746E657373203D47
:104D30002025332E30640000536565206E616E6F50
:104D40007472616B20696E20000000007777772E07
:104D500074686F726C6162732E636F6D0000000087
:104D6000536176696E677320706172616D7320267E
:104D700000000000706F776572696E6720646F775E
:104D80006E2E2E2E00000000556E68616E646C65FC
:104D9000642073746174653A0000000025640000AB
:104DA0004A00002030000020D4030020D803002057
:104DB0003C04002059000020580000200100002081
:104DC000030000203C0000202074004025730A00EE
:104DD000255B5E0A5D0A255B5E0A5D0A0000000035
:104DE000B402002078B300080746FDF79CFE394660
:104DF000FDF79DFEA042F8D32E6002F0B3F93DB05E
:104E0000F0BC5DF814FB70B50446C0F3072000F059
:104E1000D8F80502E0B200F0D4F8284370BD0000D5
:104E200070B52B4C012504F11801E06820B1012870
:104E300019D0022841D134E0254E1036D6E90001C0
:104E400088423CD90020FEF732FCD4E90410C4E9C2
:104E500006102049884200D11F4971603160A0606E
:104E6000E560606029E00968A068814216D9017890
:104E7000408820806068001D6060DA2902D0C02967
:104E800002D004E0012000E00020FDF739FB21887A
:104E90006068FEF70DFC0220E0600EE00020E0609C
:104EA0000DE0FEF71CFC30B12188606808446060AA
:104EB000C4E9020501E0E06808B1012070BD0020EE
:104EC00070BD10B5FFF7ACFF0128FBD010BD00008E
:104ED00078030020884D002010DE002038B54048BF
:104EE000016841F0020101603D481030016841F461
:104EF000804101603B48016821F080410160016808
:104F000041F000410160031D196821F4004119605E
:104F100034490C310A6822F040420A600C1F2268B2
:104F200062F0404222602F4A2432156825F0704515
:104F300045F0A0451560056825F0806505600568A9
:104F400045F0006505601D6825F400551D600B687F
:104F500023F040630B60236863F0406323601368B1
:104F600023F4700343F4A0031360036823F0805319
:104F70000360036843F000530360086840F080500A
:104F80000860086820F000500860106820F0706029
:104F900040F0A06010601448018821F040010180B9
:104FA000001F018821F0400101804FF44971018008
:104FB000018841F0400101800B48083000880090D2
:104FC00038BD0949091D0A889207FCD5064A0832EE
:104FD00010800888C007FCD01088C0B2704700005D
:104FE000303802400004024004380040284808B528
:104FF000016841F002010160016841F001010160B6
:105000002448016821F040010160016841F08001FD
:1050100001602148016821F080410160016841F090
:10502000004101601B4920310A6822F4704242F4B9
:1050300080520A60416A21F0704141F08051416222
:1050400013481030016841F0010101604FF08041C8
:105050004FF0FF30C862088B40F201121043088302
:1050600003200881088840F00100088000224FF4E6
:105070007A7300920098401C00909842FADB4A62D2
:1050800008BD4FF08041486A00224A6200B2704772
:1050900030380240000402400000024010B5FFF723
:1050A000F0FFC001C11700EBD16020F3471010BD25
:1050B0000649642804DA00EBC00202EB401001E06C
:1050C00040F6FF7008607047002070472074004071
:1050D000FC49096D90FBF1F201FB1200FA4901EB6A
:1050E000800090ED000A70472DE9F04FF74A002745
:1050F000DFF8DC935069DFF8DCA3411C4FF0320B82
:10510000516104284EDD5761906910B1401E9061D5
:1051100048E09068C0B91069602802DC401C10614A
:1051200012E0D0680121602807DCEB4B17611954AD
:10513000401CC2F818B0D06006E09160E7494FF417
:1051400000400860E6490860E648DFF89C83E74EC7
:105150000468E011C8F80000D368C1B203EB43153E
:1051600005EB831535441669A95599F80050854219
:1051700001DA89F800109AF80050854201DD8AF8BA
:105180000010C6EB8610DA4900EBC00042F60415A9
:1051900028444860C3EB831000EBC000284408603B
:1051A000C8F80040D349087801280AD1C2F818B0DD
:1051B000FF2397608AF800301761D7600F7089F875
:1051C00000709068BDE8F08F70472DE9F04FBF4B3D
:1051D000BC4C4FF00008196A491C1962206D8842C6
:1051E00001DCC3F82080C1171A6A00EB917102EB51
:1051F000A1015962884201DC081A5862B948006866
:105200001865996A884200DD986202F0030CBCF1CF
:10521000010F03D0BCF1020F03D003E0B2490860D4
:1052200000E0D864606D1044FFF752FFDFF8C8B2A9
:10523000B6EE001ABCF1000F0BD1D3ED130AF8EE55
:10524000E00A60EE200A9BED000A00EE810A8BED79
:10525000000A186AFFF73CFFD3ED0C0AA749F8EEE5
:10526000E00A0978890720EE200ABDEEC00A10EE98
:10527000100A01D401263546DFF88492A14FDFF8E9
:105280005CA2B9F80010490506D439680126DAF89D
:105290000000012904D007E0D96B084401213960DE
:1052A00080F4004192480160A06D596A0844FFF7FC
:1052B0000FFFBCF1000F0CD1D3ED130A9248F8EEAA
:1052C000E00A60EE200A90ED000A00EE810A80ED0F
:1052D000000A586AFFF7FCFED3ED0B0AD9F800006C
:1052E000DFF8FC91F8EEE00A020520EE200ABDEEA0
:1052F000C00A10EE101A06D43A680125D9F8001039
:10530000012A04D007E01A6C114401223A6081F4AA
:10531000004277494A607D49B3EE000A9FED7C1A4E
:105320007C4FDFED7D1ADFED7D0A1A6A52B15E6AAD
:105330006EB39FED7B0A47F6FC71012A4DD0012E1A
:105340006DD08DE09BED002A5A4622EE000A10EE49
:10535000105A8BED000A8D4202DD83ED111A08E030
:1053600010EE101AB94202D9C3ED111A01E083ED13
:10537000110A012E03D1C2ED000AC3ED110A6949D9
:10538000CBED000A9A6A0A60C3F8288068E0664E8E
:10539000326812B1521E012532605B4A92ED002A3A
:1053A00022EE000A10EE106A82ED000A8E4202DD43
:1053B00083ED121A08E010EE101AB94202D9C3EDBB
:1053C000121A01E083ED120A012D03D1C2ED000A89
:1053D000C3ED120AC2ED000A42E0D4F8CC601E63AD
:1053E000D4ED100A93ED111ADAF80070F8EE600AA5
:1053F000891B554660EE810A20EE800ABDEEC00A88
:1054000010EE102A3A448A4202DC49428A4201DA0A
:10541000296000E02A60DAF80010D96320E0D4F8AF
:10542000CC60DE62D4ED100A93ED121AD9F8007048
:10543000F8EE600A891B4D4660EE810A20EE800A74
:10544000BDEEC00A10EE102A3A448A4202DC4942FC
:105450008A4201DA296000E02A60D9F80010196454
:10546000D969491CA1F55062D961AD3A28D1174DCF
:10547000C3F81C80474654355E682C49B4F8188040
:105480004FF0805C4FF4805E05F11002052E4FDA7C
:10549000B8F1010F0AD15FEA405805D4C1F800C045
:1054A000596B2960176001E0C1F800E0E18A012929
:1054B00004D1000502D4986B68605760761C5E606A
:1054C00080E60000986E012000290020980300204B
:1054D0005800002059000020D06F0120400000201B
:1054E000440000205C0000203C0000203C04002020
:1054F0006800002001000020640000202800002037
:1055000030000020540000205000002000F8FF462A
:1055100000F8FF4600F8FFC600F8FFC600000000D4
:10552000000000381C000020200000201804024069
:105530007E4F4FF4004B7E1CB8F1010F40D15FEA63
:1055400040583BD4C1F800C02968D3F834C04FF0AC
:105550006408A1EB0C01DFF8D8C18E46CCF800102E
:10556000D4F830C001FB0CF191FBF8F1D2F800C087
:1055700061441160594502DDC2F800B002E0B94251
:1055800000DC1660D4F828C00EFB0CF191FBF8F19A
:10559000D2F800C08C4466491031C1F800C0DAF876
:1055A0000080C444CAF800C0DC4502DDCAF800B07F
:1055B00006E0BC4504DCCAF8006001E0C1F800E088
:1055C000E18A01297FF47CAF00053FF579AF686877
:1055D000996B411A564841605068636B01FB0300A8
:1055E0005B465060984201DD536002E0B84200DC47
:1055F00056605068E26A01FB02004D491031486074
:10560000D9F800201044C9F80000984202DDC9F81A
:105610000030D7E5B842FCDCC9F80060D2E52DE9DE
:10562000F047444D288AC00765D0434C6914216077
:105630008E10266048102060800320604FF4287090
:10564000401EFDD1884621604FF000602060DFF8E9
:10565000EC90D9F80400FFF7D6FB354F5C3F786338
:10566000C4F8008026604FF0005020602660401093
:10567000206080142060D9F80000FFF7C4FBB863F5
:105680002F483049304A0068304B040502D4DC8A88
:10569000012C08D0400502D4188B012803D02C48D7
:1056A000007818B10EE0086810600EE0B7F900301D
:1056B000786B584340107863B0F5004F02DB47F633
:1056C000FF707863786B106008602249088808B121
:1056D000401E08802048007818B1204C207818B16E
:1056E00005E0FFF772FD02E0FFF7FEFC2070288A5C
:1056F00020F001002882BDE8F0871948016841F0D8
:10570000010101600B4842F6E06101850121C1629F
:105710000022028681814FF0E0224102C2F800118E
:10572000018841F001010180704700000080FFFF07
:10573000F403002000000140180C02406800002023
:1057400030000020600000205C000020986E0120E6
:10575000480000201000002000000020020000206F
:10576000443802400D4910B50968CC8AC882098BBB
:1057700002F04DFC204610BD70B50E46054601F006
:1057800053FE0446284601F056FE3046FFF7EAFF76
:105790000546204601F04FFE284670BD1C0400203F
:1057A00000B90D484078704710B501F0F6FD0B4880
:1057B0000068C17C407D0844C0B210BD052800D3FC
:1057C0000420C0EBC001064800EB8100C17C407D95
:1057D0000844C0B27047000054C800081C040020F0
:1057E000347001202DE9FC47B04E18B93068C0680C
:1057F000FFF7D6FF34684FF6FF79627D6779104472
:10580000C5B2E3787819984224D801F033FE3068A5
:10581000427DD2B1018A11F4405F16D00B044FEAE9
:10582000C17301D50BB910E003B14B460093447925
:105830002244521CD3B2890401D5827800E0027957
:10584000641CE1B2007801F013FF3068417929440B
:10585000417120E0218ADFF858C25FEA81780AD5D9
:105860009CF8001011B9B918994202D30120BDE883
:10587000FC8760710FE09CF8002012B9C01AC5B215
:105880006371C80700D04846CDE90050A27861781E
:10589000207801F0C5FF3068017801710020E6E74B
:1058A00010B501F07AFD8349002008707F488049D7
:1058B0000068008A40F30020401C087010BD7B483F
:1058C00010B50068027981788A4200D90171427965
:1058D000C1788A4200D94171017981714179C171E0
:1058E00001F0C8FDBDE8104001F0EABC6F49162286
:1058F00009680978401AC0B2B0FBF2F0401C00EB16
:10590000400202EBC00001EB4000C0B27047F8B5A6
:10591000664C05462168088A02044FEAC07001D52A
:1059200008B911E008B14FF6FF70009008790A7DC0
:105930004B79497802444E19D2B2B34201D3591B74
:10594000491CC9B201F094FE20680179027D11441E
:105950000171F8BDFEB504460A2870D00D2C6ED03A
:10596000524E092C30680BD0C068FFF719FF05466E
:105970003068027981788A4223D9491C01715EE03E
:105980000079FFF7B3FF316805460A78904256D098
:10599000C868FFF705FF3468217CC90701D04FF6BE
:1059A000FF710091617863790A18934201D3191A43
:1059B000491CC9B220792A4601F05AFE30680571A7
:1059C0003DE0D0E90221204600F036F901000DD07B
:1059D0000C7804B98C783068028A920507D4037970
:1059E000621E1A4483789A4201DD0120FEBDC2681E
:1059F000477953684278BA1AAA4201DB002201E0D3
:105A0000AA1A521ED2B28DE80E00791BC378827892
:105A1000491CC9B2007900F05BFE30680179027D53
:105A20008B181D1983789D4201D9037107E0214429
:105A3000017122B1C068FFF7B3FEFFF768FF0020D5
:105A4000FEBD70B50446FFF72BFF0A2C0FD0174D93
:105A50000D2C10D02046FFF77DFF98B12868007C00
:105A600000060FD40020FFF7BDFE58B907E0002064
:105A7000FFF7B8FE06E028680178017102E02046D1
:105A8000FFF768FFBDE8704019E770B50E460546A0
:105A900001F0CAFC0446284601F0CDFC3046FFF771
:105AA000D0FF2046BDE8704001F0C5BC1C040020BA
:105AB0000C0400203504002070B5254D2968CC6801
:105AC00000B92448C86002698A6002788A74407804
:105AD000C874C6B201F0F9FB2868761E4178427995
