:020000040800F2
:10000000607D002015030008330300083B7B0008D7
:1000100037030008390300083B0300080000000014
:100020000000000000000000000000003D03000888
:100030005703000800000000177B00085B0300085E
:100040005D0300085D0300085D0300085D03000810
:100050005D0300085D0300085D0300085D03000800
:100060005D0300085D0300085D0300085D030008F0
:100070005D0300085D0300085D0300085D030008E0
:100080005D0300085D0300085D030008238F00087E
:10009000F78D00085D0300085D0300085D0300089C
:1000A0005D0300085D0300085D0300085D030008B0
:1000B0005D9300085D0300085D0300085D03000810
:1000C0005D0300085D0300085D0300085D03000890
:1000D0005D0300085D0300085D0300085D03000880
:1000E0005D030008BF4200085D0300085D030008CF
:1000F000D13C00085D0300085D0300085D030008B3
:100100005D0300085D0300085D0300085D0300084F
:100110005D0300085D0300085D0300088B93000881
:100120005D0300085D0300085D0300085D0300082F
:100130005D0300085D0300085D0300085D0300081F
:100140005D0300085D0300085D0300085D0300080F
:100150005D0300085D0300085D0300085D030008FF
:100160005D0300085D0300085D0300085D030008EF
:100170005D0300085D0300085D0300085D030008DF
:100180005D0300085D03000800F002F800F0B2F81B
:100190000AA090E8000C82448344AAF10107DA45E2
:1001A00001D100F0A7F8AFF2090EBAE80F0013F082
:1001B000010F18BFFB1A43F0010318471CD10000C0
:1001C0003CD100000A444FF0000C10F8013B13F042
:1001D000070408BF10F8014B1D1108BF10F8015BA0
:1001E000641E05D010F8016B641E01F8016BF9D193
:1001F00013F0080F1EBF10F8014BAD1C0C1B09D1EA
:100200006D1E58BF01F801CBFAD505E014F8016B5B
:1002100001F8016B6D1EF9D59142D6D370470000ED
:100220000023002400250026103A28BF78C1FBD8FF
:10023000520728BF30C148BF0B6070476E2909F0D4
:10024000C98770290AF0288166290CF0AF836529D7
:100250000CF0AC8367290CF0A9836129AFF300800F
:1002600003681B0A28BF41F08001692909F07687DD
:10027000642909F07387752909F070876F290AF0DE
:10028000B38078290AF0F480E9290AF04B80E42948
:100290000AF04880F5290AF04580EF290AF0B0807D
:1002A000F8290AF0F3800368DB0928BF41F08001D8
:1002B000632909F0CC87732909F0D187E3290AF073
:1002C0005986F3290AF05E86002070471FB50CF0AE
:1002D00063FB0AF083FB0400002000210CF0DCF833
:1002E000401C6060002000210CF0C0F8E0601FBDE1
:1002F00010B510BD0BF098F81146FFF7E7FF06F0B8
:1003000006F80BF027FB03B4FFF7F2FF03BC0BF07A
:100310003BFB000015481649026800608A4203D082
:1003200014488047144800471448D0F800D040686B
:100330000047FEE7FEE7FEE7FEE7FEE71EF0040FDC
:100340000CBFEFF30880EFF30980806910F8020C0E
:1003500007F0ECBBFEE7FEE7FEE7FEE7FEE7000086
:1003600007480849084A094B70470000F01F002061
:10037000EFBEADDE4B440008890100080000FF1FFE
:1003800060770020607D0020607900206079002087
:1003900001468A1E0A2A1AD2DFE802F00507090B75
:1003A0000D0F11131517022013E0032011E0042094
:1003B0000FE005200DE006200BE0072009E00820F3
:1003C00007E0092005E00A2003E00B2001E00120FE
:1003D00000BF00BF704710B504464FF04040FE49D3
:1003E00048604042086088644042C8640120486612
:1003F0000846806E20F00100401C88660846806E2A
:1004000020F00200801C88660846806E20F0040000
:10041000001D88660846806E20F008000830886657
:100420000846806E20F01000103088660846806E06
:1004300020F0200020308866022008610862102029
:10044000C8620021E44801660F2C80F09987DFE83C
:1004500014F0970798070F0097001E01A501590295
:10046000E4026D034605BC04F603CF0583060D07C1
:100470000120DA49086002208860D9A1D7480C30F1
:1004800009F014FB0120D549C86108629FEDD60A26
:10049000084680ED0D0AB1EE080A80ED0E0A9FEDC8
:1004A000D30A80ED0A0A9FEDD00A80ED090A9FED7C
:1004B000D00A80ED0B0A9FEDCF0A80ED0C0AB6EE54
:1004C000000A80ED0F0AB6EE000A80ED100A9FEDDB
:1004D000CA0A80ED110A9FEDC90A80ED120A4FF495
:1004E0001030BD4908600846806E20F00100401CB5
:1004F00088660846806E20F00400001D8866084665
:10050000806E20F01000103088660846806E20F063
:100510000200801C88660846806E20F008000830C3
:1005200088660846806E20F02000203088660846E5
:10053000806E20F0400088660846806E20F08000C3
:10054000886695208860AE48C860AE4888624FF4DF
:10055000C040086340F69910486195208861A8481A
:10056000C861F520486240F2B3100865C3219A487B
:10057000416540F2E1318165C321C16500F05CBF96
:10058000012096490860032088609FA193480C30A1
:1005900009F08CFA01209149C86108629FED920A26
:1005A000084680ED0D0AB2EE080A80ED0E0A9FEDB6
:1005B0008F0A80ED0A0A9FED8C0A80ED090A9FEDF3
:1005C0008C0A80ED0B0A9FED8B0A80ED0C0AB6EECB
:1005D000000A80ED0F0AB6EE000A80ED100A9FEDCA
:1005E000860A80ED110A9FED850A80ED120A4FF40C
:1005F0009020794908600846806E20F00100401C78
:1006000088660846806E20F00400001D8866084653
:10061000806E20F01000103088660846806E20F052
:100620000200801C88660846806E20F008000830B2
:1006300088660846806E20F02000203088660846D4
:10064000806E20F0400088660846806E20F08000B2
:100650008866952088606A48C8606A4888624FF456
:10066000C040086340F6991048619520886164484D
:10067000C861F520486240F2B3100865C3215648AE
:10068000416540F2E1318165C321C16576E7012012
:1006900052490860042088605DA150480C3009F080
:1006A00005FA01204D49C86108629FED4F0A0846CE
:1006B00080ED0D0AB3EE090A80ED0E0A9FED4B0A9C
:1006C00080ED0A0A9FED480A80ED090A9FED480A6D
:1006D00080ED0B0A9FED470A80ED0C0AB6EE000A8A
:1006E00080ED0F0AB6EE000A80ED100A9FED420A77
:1006F00080ED110A9FED410A80ED120A4FF4162099
:10070000354908600846806E20F00100401C88666C
:100710000846806E20F00400001D88660846806E42
:1007200020F01000103088660846806E20F002002D
:10073000801C88660846806E20F0080008308866B5
:100740000846806E20F02000203088660846806EC3
:1007500020F0400088660846806E20F080008866A1
:10076000952088602648C860264888624FF4C040BB
:10077000086340F699104861952088612048C86157
:10078000F520486240F2B3100865C3211248416564
:1007900040F2E1318165C321C165EFE602200F49D6
:1007A0000860052088601CA10C480C3009F07EF917
:1007B00001200A49C86108629FED0B0A084680EDD6
:1007C0000D0A9FED170A80ED0E0A9FED160A80EDC7
:1007D0000A0A90ED0A0A27E0F8020020140400201B
:1007E0005A3630360000000000000000ABAA2A385C
:1007F000B53706498D773B430000704300409C4568
:100800007D080500BD3104005A3631320000000079
:100810005A36323500000000435A312D5A36000056
:100820000000B4430000203A5FED030A80EE801A16
:1008300080ED091A1FED120A80ED0B0A1FED130A55
:1008400080ED0C0AB6EE000A80ED0F0AB6EE000A43
:1008500080ED100A1FED180A80ED110A1FED190A2C
:1008600080ED120A4FF08040FE4908604042486027
:100870000846806E20F0010088660846806E20F0F1
:10088000040088660846806E20F0100010308866EC
:100890000846806E20F0020088660846806E20F0D0
:1008A0000800083088660846806E20F0200020305E
:1008B00088660846806E20F0400088660846806E94
:1008C00020F08000886663208860E748C860401098
:1008D000886240F24710086340F2666048614A202F
:1008E0008861E248C86140F24710486240F25230E5
:1008F00008653221DB4841654FF42A618165322168
:10090000C1653BE60220DA49086006208860D9A16B
:10091000D7480C3009F0CAF80120D549C8610862EF
:100920001FED4F0A084680ED0D0A1FED430A80EDCA
:100930000E0A9FEDD20A80ED0A0A90ED0A0A5FEDD9
:10094000480A80EE801A80ED091A9FEDCD0A80EDED
:100950000B0A9FEDCC0A80ED0C0AB3EE090A80ED7C
:100960000F0AB3EE090A80ED100A1FED5D0A80ED53
:10097000110A1FED5E0A80ED120ABA48806E20F05F
:100980000100B84988660846806E20F00400886639
:100990000846806E20F01000103088660846806E91
:1009A00020F0020088660846806E20F008000830BB
:1009B00088660846806E20F0200020308866084651
:1009C000806E20F0400088660846806E20F080002F
:1009D0008866AD48886241F6FE5008634FF080405B
:1009E00008604042486092208860A748C86042F290
:1009F0007E504861DB208861A448C86140F27F7066
:100A0000486240F2523008659621964841654FF49D
:100A10002A6181653221C165B0E5012094490860F1
:100A2000072088609AA192480C3009F03FF8012015
:100A30008F49C86108621FED940A084680ED0D0ACF
:100A4000B3EE090A80ED0E0A9FED940A80ED0A0AC2
:100A50001FED9B0A80ED090A9FED910A80ED0B0ABC
:100A60009FED900A80ED0C0A9FED8F0A80ED0F0A32
:100A7000B1EE040A80ED100A1FEDA10A80ED110A03
:100A80001FEDA20A80ED120A8848764908600846E0
:100A9000806E20F00100401C88660846806E20F0C1
:100AA0000400001D88660846806E20F0100010309B
:100AB00088660846806E20F00200801C8866084622
:100AC000806E20F00800083088660846806E20F0AE
:100AD0002000203088660846806E20F0400088663E
:100AE0000846806E20F080008866714888624FF466
:100AF000064008634FF4C47088606E48C8604FF4C5
:100B0000864048614FF4C47088616A48C86140F209
:100B1000B360486240F23130086533215148416585
:100B20004FF42A6181653321C16527E501205049D1
:100B300008600820886060A14D480C3008F0B6FFBE
:100B400001204B49C86108621FEDD90A084680EDB3
:100B50000D0A9FED5C0A80ED0E0A9FED500A80EDB4
:100B60000A0A1FEDDF0A80ED090A9FED4D0A80EDAC
:100B70000B0A9FED4C0A80ED0C0A9FED4B0A80EDAD
:100B80000F0AB1EE040A80ED100A1FEDE50A80EDB0
:100B9000110A1FEDE60A80ED120A4B483149086040
:100BA0000846806E20F00100401C88660846806E72
:100BB00020F00400001D88660846806E20F01000BA
:100BC000103088660846806E20F00200801C88661F
:100BD0000846806E20F00800083088660846806E5F
:100BE00020F02000203088660846806E20F040000B
:100BF00088660846806E20F0800088662C488862EF
:100C00004FF4064008634FF4C47088602948C860F8
:100C10004FF4864048614FF4C47088612548C8612C
:100C200040F2B360486240F23130086533210D482C
:100C300041654FF42A6181653321C165FCE30120E0
:100C40000B4908600B20886020A109480C3008F08F
:100C50002DFF01200649C86108629FED1E0A084663
:100C60003AE00000F802002052790400FE5A030026
:100C70001404002050524D312D5A38000E8F083A7E
:100C8000A9BD27475C8F6A41C58B0600A7D1090023
:100C90004D545332352D5A38000000008D89F437F9
:100CA000A2293B4960B582439A99194000160D006C
:100CB0009AB20B00E2C020004D545335302D5A3803
:100CC0000000000000004842002C1A005A3830365C
:100CD000000000000000000080ED0D0AB1EE080ADF
:100CE00080ED0E0A1FED130A80ED0A0A1FED070AB8
:100CF00080ED090A1FED160A80ED0B0A1FED170A99
:100D000080ED0C0A9FEDFE0A80ED0F0AB1EE040A99
:100D100080ED100A9FEDFB0A80ED110A9FEDFA0AA3
:100D200080ED120A4FF44930F84908600846806E99
:100D300020F00100401C88660846806E20F0040008
:100D4000001D88660846806E20F01000103088660E
:100D50000846806E20F00200801C88660846806E7F
:100D600020F00800083088660846806E20F02000D9
:100D7000203088660846806E20F04000886608466D
:100D8000806E20F0800088664FF4C4708860E04870
:100D9000C860E048886242F63300086340F6665057
:100DA000486140F20A208861DB48C86140F259304E
:100DB000486240F2B3100865C321D448416540F24F
:100DC000E1318165C321C16536E30120D349086063
:100DD0000A208860D2A1D1480C3008F067FE0120BB
:100DE000CE49C86108621FED450A084680ED0D0A2C
:100DF000B2EE080A80ED0E0A1FED580A80ED0A0ACD
:100E00001FED4C0A80ED090A1FED5B0A80ED0B0A0D
:100E10001FED5C0A80ED0C0A9FEDB90A80ED0F0A08
:100E2000B1EE040A80ED100A9FEDB60A80ED110ABA
:100E30009FEDB50A80ED120A4FF4C920B34908604E
:100E40000846806E20F00100401C88660846806ECF
:100E500020F00400001D88660846806E20F0100017
:100E6000103088660846806E20F00200801C88667C
:100E70000846806E20F00800083088660846806EBC
:100E800020F02000203088660846806E20F0400068
:100E900088660846806E20F0800088664FF4C47033
:100EA00088609B48C8609B48886242F633000863AC
:100EB00040F66650486140F20A2088619648C86151
:100EC00040F25930486240F2B3100865C3218F48A0
:100ED000416540F2E1318165C321C165ACE2012089
:100EE0008E490860092088608FA18C480C3008F07A
:100EF000DDFD01208949C86108621FED8A0A0846A4
:100F000080ED0D0AB3EE090A80ED0E0A1FED9D0A71
:100F100080ED0A0A1FED910A80ED090A1FEDA00A73
:100F200080ED0B0A1FEDA10A80ED0C0A9FED740AFB
:100F300080ED0F0AB1EE040A80ED100A9FED710AF0
:100F400080ED110A9FED700A80ED120A78486F4912
:100F500008600846806E20F00100401C8866084644
:100F6000806E20F00400001D88660846806E20F028
:100F70001000103088660846806E20F00200801C49
:100F800088660846806E20F00800083088660846AB
:100F9000806E20F02000203088660846806E20F0A9
:100FA000400088660846806E20F0800088664FF416
:100FB000C47088605648C8605648886242F633005C
:100FC000086340F66650486140F20A208861524842
:100FD000C86140F25930486240F2B3100865C3213D
:100FE0004A48416540F2E1318165C321C16523E290
:100FF00002204A490860052088604EA147480C300D
:1010000008F054FD01204549C861002008621FED29
:10101000CF0A084680ED0D0A9FED480A80ED0E0AC2
:101020009FED470A80ED0A0A90ED0A0ADFED430AB8
:1010300080EE801A80ED091A9FED420A80ED0B0ABE
:101040009FED410A80ED0C0AB1EE000A80ED0F0A17
:10105000B1EE000A80ED100A9FED2A0A80ED110A18
:101060009FED290A80ED120A4FF080402749086061
:10107000404248600846806E20F0010088660846BD
:10108000806E20F0040088660846806E20F0100014
:10109000103088660846806E20F002008866084698
:1010A000806E20F0080088660846806E20F02000E0
:1010B000203088660846806E20F04000886608462A
:1010C000806E20F0800088663220886044F65A40A6
:1010D000C860012088620020086340F266604861B1
:1010E0002620886143F64410C86140F247104862E8
:1010F00040F25230086532210448416526E0000084
:10110000333313400000704300409C45F802002038
:10111000E2C020009AB20B003465170014040020CE
:101120005A383132000000005A38323500000000D1
:1011300000160D004352312D5A3700000000B44311
:101140000000203A002A0F47508DBE424FF42A611A
:1011500081653221C1656FE10120C64908604020E8
:101160008860C5A1C3480C3008F0A0FC0120C1492B
:10117000C86108629FEDC20A084680ED0D0AB3EE11
:101180000E0A80ED0E0A9FEDBF0A80ED0A0A9FED60
:10119000BC0A80ED090A9FEDBC0A80ED0B0A9FEDA9
:1011A000BB0A80ED0C0AB2EE040A80ED0F0AB1EE24
:1011B000040A80ED100A9FEDB60A80ED110A9FED3A
:1011C000B50A80ED120A4FF08040B34908604042F2
:1011D00048600846806E20F00100401C8866084682
:1011E000806E20F00400001D88660846806E20F0A6
:1011F000100088660846806E20F00200801C886619
:101200000846806E20F00800083088660846806E28
:1012100020F0200088660846806E20F04000886636
:101220000846806E20F08000886640F2FA208860D0
:101230009A48C860012088620020086346F2B41012
:10124000486140F23B2088619548C86100204862AF
:1012500040F6C410086540F2D6618F4841654FF4EE
:101260007A71816541F28831C165E5E001208149EB
:101270000860412088608BA17E480C3008F016FC85
:1012800001207C49C86108629FED7D0A084680ED17
:101290000D0AB3EE0E0A80ED0E0A9FED7A0A80ED7C
:1012A0000A0A9FED770A80ED090A9FED770A80ED23
:1012B0000B0A9FED760A80ED0C0AB2EE040A80ED6F
:1012C0000F0AB1EE040A80ED100A9FED710A80ED5D
:1012D000110A9FED700A80ED120A4FF080406E49AE
:1012E0000860404248600846806E20F00100401CC3
:1012F00088660846806E20F00400001D8866084657
:10130000806E20F0100088660846806E20F0020093
:10131000801C88660846806E20F0080008308866C9
:101320000846806E20F0200088660846806E20F017
:10133000400088660846806E20F08000886640F293
:10134000FA2088605548C860012088620020086340
:1013500046F2B410486140F23B2088615048C861B1
:101360000020486240F6C410086540F2D6614A4841
:1013700041654FF47A71816541F28831C1655BE066
:1013800000BF00203B49086048A13A480C3008F0F3
:101390008DFB01203749C8619FED390A084680ED71
:1013A0000D0AB7EE000A80ED0E0AB7EE000A80EDD6
:1013B0000A0A9FED330A80ED090AB7EE000A80EDB4
:1013C0000B0AB7EE000A80ED0C0AB7EE000A80EDBA
:1013D0000F0AB7EE000A80ED100A9FED360A80ED85
:1013E000110A9FED2C0A80ED120A4FF080402A4925
:1013F0000860952088603048C860304888624FF4A3
:10140000C040086340F699104861952088612A48D9
:10141000C861F52048620846806E20F001008866A9
:1014200040F2B3100865C3211B48416540F2E13129
:101430008165C321C16500BF00BF0E4890ED0F0A52
:10144000DFED1F0A20EE200AD0ED0B0A20EE200A65
:10145000BDEEC00A104880ED0F0A90ED020AB8EE0A
:10146000C00ADFED170A20EE200ABDEEC00A80EDAB
:10147000100A10BD140400204B56533330000000F6
:101480000000000011B1273829770849239B3E430B
:101490000000FA4400401C46F8020020CA1D220049
:1014A000579619004B565333304D0000756E6B6ED6
:1014B0006F776E0000007A447D080500BD3104009E
:1014C0006666663F66480068664908436449086086
:1014D0006548006840F00C006349086062480C30C1
:1014E000006820F00C0060490C3108605E4800681C
:1014F00040F030005C4908605B480C30006820F028
:10150000300059490C3108605748006840F4406089
:101510005549086054480C30006820F44060524936
:101520000C3108604E481430006840F480704C491B
:10153000143108604D48006840F440304C49C1F80F
:10154000040340F2033088604A48C8600846C06A15
:1015500020F47000C8620846C06A40F40010C862F7
:1015600043F2EB1048634448006820F00100424910
:10157000086000E000BF4048006810F0010FF9D19A
:101580003D48006820F060603B49086008460068FC
:1015900040F45060086036484C30374908310860E4
:1015A0003648091D086003203349091D086030488A
:1015B000406840F480702E4948600846406820F03A
:1015C000007048600846406840F0807048602A48D3
:1015D000006840F00100284908602548806840F014
:1015E00080402349886070472348006820F001004C
:1015F0002149086000E000BF1F48006810F0010F9B
:10160000F9D11B48806820F001001949886008461C
:10161000C06A20F47000C8620846C06A40F48010B6
:10162000C86202201449091D086040F2EB101049FD
:1016300048630846806840F0010088600E480068F2
:1016400040F001000C4908600948806840F0804083
:101650000749886070470146084830F81100704714
:1016600030380240040040000008024004230140DA
:1016700000200140F8810300706402400000002057
:101680001A2901D201207047482901D20220FAE725
:10169000982901D20320F6E7B1F5857F01D2042015
:1016A000F1E7B1F5B47F01D20520ECE7B1F5E17FB8
:1016B00001D20620E7E740F22320814201D2072031
:1016C000E1E7B1F5207F01D80820DCE740F2E72010
:1016D000814201D20920D6E7B1F5557F01D80A2011
:1016E000D1E740F2BB30814201D20B20CBE70C2086
:1016F000C9E710B50020FFF7AEFF00EE100AB8EE04
:10170000400ADFEDF80A20EE200A10BD70B504464D
:101710000025062C7ED2DFE804F00318373B3F6833
:10172000F148006840F00400EF490860084600688E
:1017300020F008000860ED48008820F48070EB4934
:101740000880002002F00AFC7AE0E748006840F0D8
:101750000400E54908600846006820F008000860B9
:10176000E248008820F48850E0490880DF482038AB
:10177000008820F00100DD49203908808815DC4907
:101780000860082008605BE0DAA007F007F857E07F
:10179000D8A007F003F853E0D5481838006840F0A7
:1017A0001000D349183908600846006820F020006E
:1017B00008604FF48020CE490860CB48006820F0D4
:1017C0000400C94908600846006840F00800086045
:1017D0004FF08070C649086008200860C348008840
:1017E00040F48050C14908802AE0BF48006840F0BA
:1017F0000400BD4908600846006820F00800086041
:10180000C548006820F00C00C3490860B848183883
:10181000006800E012E040F08040B54918390860E7
:101820000846006820F0004008604FF40040B049CE
:101830000860400208604011086001E0012500BF17
:1018400000BF284670BD10B507F0BDFCC0011921CE
:1018500090FBF1F404F3070010BD10B5044600EE50
:10186000104AF8EEC00A9FEDAD1AB6EE000A00EE7F
:10187000810A10EE101A08460BF041F8044610BD1C
:101880002DE9F0418EB006460D4617464FF0000890
:10189000012E02D0022E11D107E0A148A149086013
:1018A000A1480C90A1480D900CE09D4810309D4936
:1018B00008609F480C909F480D9003E000200EB0F8
:1018C000BDE8F08100BF012F01D1012000E0002020
:1018D0000446132D7ED2DFE805F00A0B0C0D0EE452
:1018E000E4E4E4E41521255F8FBC2223240000BF3B
:1018F00000BF00BF00BF8B48006800F02EFD0C98B1
:101900008047CFE08748006800F027FD0CB901222E
:1019100000E0002210460D998847C3E000BF00BFD9
:1019200000BF00BFA5F10B0008281ED2DFE800F0C1
:1019300004091D1D1D0E131802207A49096808604C
:1019400013E001207749096808600EE0032075491B
:101950000968086009E0042072490968086004E029
:10196000052070490968086000BF00BF6D490D98E7
:10197000096848600CB9012000E000206949096845
:10198000886068480068C4600CB9012200E0002249
:1019900010460D99884785E06248006800F0DDFC3C
:1019A0006548406A01906448806A02906248C06A53
:1019B00003900D9804906048426AC06A401E5E49D8
:1019C000896A00FB012005905B48806A41420691CC
:1019D000594800E065E0C16A079158490891C06B19
:1019E00009905548006C40000B900A9401A807F03C
:1019F00073FC4FF0010855E04A48006800F0ADFC68
:101A00004D48006B01904C48406B404202904A4860
:101A1000806B03900D9804904748026B806B401ECA
:101A20004549496B00FB112005904348416B0691E5
:101A3000816B079141490891C06B09903E48006C49
:101A400040000B900A9401A807F046FC4FF00108F3
:101A500028E03448006800F080FC3748406A019074
:101A60003548806A02903448C06A03900D9804900B
:101A70003148006B05903048406B414206912E483A
:101A8000816B07910D990891C06B09902A48006CF1
:101A900040000B900A9401A807F01EFC4FF00108CB
:101AA00000E000BF00BF404609E72DE9F84F83463C
:101AB0000E46904600200090BBF1010F03D0BBF111
:101AC000020F43D105E0DFF860A01D4C1D4D1E4FF5
:101AD0003FE0DFF85CA01A4C241D1A4D2D1D1A4F53
:101AE0003F1D36E068A28940000402402004004007
:101AF000180802400D0A204D6F6465206E6F742037
:101B0000737570706F7274656420666F72204B56C7
:101B10005333302100000000000002409A99993EA2
:101B2000F4030020080000209B390008C339000896
:101B3000FD3900081F3A00086403002059230008FB
:101B40000C000020140000201C0000200020BDE834
:101B5000F88F00BF3868B04203D06FF001002860F2
:101B600020603E60022E06D0032E02D0042E18D133
:101B700000E000BF00BF20682860D04720602068D8
:101B80002968A0EB0109B8F1010F02D1B9F1010FE9
:101B900005D0B8F1020F03D119F1010000D1009670
:101BA00004E06FF001002860206000BF00BF0098D3
:101BB000CDE700002DE9F043044604F30F02CA48C4
:101BC00000681044DFF82083C8F80000C748C06DE3
:101BD000010240460068884202DD404601600AE09A
:101BE000C1480068C1F10008404504DA4842DFF806
:101BF000F882C8F80000BC4800680012DFF8EC82E8
:101C0000D8F8548000FB08F0DFF8E482D8F80080B0
:101C100090FBF8F5B748D0F800800068401CDFF86A
:101C2000D492C9F80000B148006E80450FDB002057
:101C3000C846C8F80000B0480068A2EB000C0CF3DE
:101C40000F00DFF8B882C8F80000AB480260A74870
:101C5000006D5043DFF8A882D8F8008090FBF8F6BA
:101C6000A6480068012803D0A4480068401C01D1A0
:101C700000230DE09D48806DDFF88082D8F8008059
:101C800000FB08F0DFF87C82D8F8008090FBF8F3C6
:101C9000A819C71807F30F00BDE8F08310B500209E
:101CA000914908602C2000F00AF910BD10B52C20D5
:101CB00000F011F900208C49086010BD10B52C20EF
:101CC00000F009F990480068904948609048006821
:101CD00008609048006848612C2000F0F0F88E48B9
:101CE0000068C0F34010814991F86810C1F30011F9
:101CF0004840C1438548006B61F38E3083490863D7
:101D000085480068C0F30010784991F86810C1F365
:101D100040114840C1437D48006B61F3CF307B499F
:101D2000086310BD01B5FFF7C1FF009807F01DFC67
:101D300076490098086076490098086000231A46A2
:101D40000099084600F0F0FA684600F0EDF802202D
:101D500000F0F4FA684600F0E7F8FFF79FFF08BDCF
:101D60006A48006A032827D1604890F86800C0F3E9
:101D7000C01050B168480068C0F340105B4991F84A
:101D80006810C1F30011884210D1584890F86800DB
:101D9000C0F3C01080B960480068C0F30010534918
:101DA00091F86810C1F34011884205D05848006886
:101DB000564988600420086270472DE9F04707F013
:101DC000D0FB5649C96900FB01F951480068A0EBF6
:101DD0000900504908604E48C0F800904A4800F099
:101DE000A3F880464948008EC0F3402058B14649C8
:101DF0000968474A1268881AFFF7DCFE4749C96933
:101E000000FB01F500E000254549098805FB01F0CC
:101E1000C11700EB5141C9130CB23C48008EC0F30E
:101E2000002020B13948008EC0F3402090B1002C32
:101E300000DC0FDA002C05DD04F1640000B201F0D3
:101E40000FFF0AE0002C08DAA4F1640108B201F0E7
:101E500007FF02E0204601F003FF2C48008EC0F38C
:101E6000002020B12948008EC0F3402010B1204648
:101E700001F0F6FE25480561C0F80C8018F0010F4E
:101E800005D0006B20F00100401C204908630026AB
:101E90000FE01E48343000EB06173868012807D1E0
:101EA000C8F3800A07F1080252F82A0079688847C7
:101EB000761C022EEDDBFFF753FFBDE8F08700F044
:101EC0001F020121914042094FF0E02303EB8202FF
:101ED000C2F80011704700F01F0201219140114A21
:101EE000430942F82310704724000020F802002024
:101EF00028000020340000203C0000203800002092
:101F00002C0000203000002044000020C0030020EE
:101F1000400000204800002010040240140400206B
:101F2000C801002080E100E02DE9F0470746FC48A9
:101F300043698446DCE90E564068012804D0022833
:101F400078D0032877D1C8E0F5480068012857D138
:101F5000F4480068DFF8C8C3CCF82000F148806876
:101F6000CCF81C00EF48C068CCF81800ED48406879
:101F7000DFF8B0C3DCF800C0A0EB0C00DFF8A0C3B2
:101F8000CCF8100060460069002811DD6046006949
:101F90004FEAE07C4FEA4C4C4CEAD03C4004DFF87E
:101FA0008083C8E90C0C0020C446CCF8080011E07E
:101FB000DB48006940424FEAE07C4FEA4C4C4CEA77
:101FC000D03C4004DFF85883C8E90C0C0120C4461B
:101FD000CCF808000020DFF848C3CCF81400E04635
:101FE000C8F82800C8F82C008446C8F838C0C8F8DB
:101FF0003CC0C446CCF80C000220CCF800005DE0E8
:10200000C8484068DFF818C3DCF820C0A0EB0C001B
:10201000DFF80CC3CCF810006046806860B1604601
:10202000006940424FEAE07C4FEA4C4C4CEAD03227
:1020300041040AE048E059E0B94800694FEAE07C11
:102040004FEA4C4C4CEAD0324104B548D0E90E90EE
:10205000DFF8CCC2DCF814C04FEAEC7819EB0C0CBA
:1020600040EB0800DFF8B892D9E90A89B1EB080A19
:1020700062EB0908BCEB0A0C70EB080016DAA84802
:10208000C0E90C12A748C068DFF894C2CCF8180069
:1020900060464069DCF818C0604501DA022000E0C3
:1020A0004020DFF87CC2CCF8000007E08020DFF899
:1020B00070C2CCF80C001020CCF800000020DFF833
:1020C00060C2CCF8040011E01020DFF854C2CCF854
:1020D00000000020CCF8040008E02020DFF840C217
:1020E000CCF800000020CCF8040000BF00BF8C48F2
:1020F0000068102877D006DC022809D0042830D0E8
:1021000008282DD12EE020286ED04028F9D150E0AB
:1021100083484069DFF808C2DCF81CC06044DFF87F
:1021200000C2CCF8140060464069DCF818C0604575
:1021300007DD7B4843610420DFF8E4C1CCF80000F0
:102140000EE07748D0E90E9C406918444FEAE078E9
:1021500019EB00004CEB080CDFF8C481C8E90E0C49
:102160007FE07EE06E484069DFF8B4C1DCF81CC057
:10217000A0EB0C00DFF8A8C1CCF814006046406961
:10218000002806DA0020CCF814000120CCF800006A
:102190000EE06348D0E90E9C406918444FEAE078AD
:1021A000B9EB00006CEB080CDFF87481C8E90E0C89
:1021B00057E05B484069DFF868C1DCF81CC0A0EB61
:1021C0000C00DFF85CC1CCF8140060464069DCF814
:1021D00018C0604509DA524843610420DFF840C165
:1021E000CCF8000010E010E024E04D48D0E90E9C4F
:1021F000406918444FEAE078B9EB00006CEB080C3A
:10220000DFF81C81C8E90E0C2BE04548D0E90A9C98
:10221000406919EB000A4CEBE070DFF80491D9E952
:102220000E891AEB080C40EB0900DFF8F480C8E9CE
:102230000CC016E00020DFF8E8C0CCF81400002342
:102240006046D0E90AC0DFF8D880C8E90CC09C46D7
:10225000C8F838C0C8F83CC00120C446CCF800001B
:1022600000BF00BF2E48D0E90A80DFF8B4C0DCF818
:1022700014C09C444FEAEC7918EB0C0C40EB0900BD
:10228000DFF89C80C8E90AC04046D0E90CC0C146CE
:10229000D9E90A8ABCEB080960EB0A00DFF8808004
:1022A000D8E90EC8B9EB0C0C70EB080012DA1C4828
:1022B0004361D0E90CC0BCEB050C60EB0600DFF815
:1022C0006080C8E90AC04046C0E90E560820C446EE
:1022D000CCF800001248D0E90AC04FEAC03848EAFA
:1022E0005C440F48806838B10D48006A001BDFF875
:1022F00030C0CCF8400006E00948006A2044DFF80E
:1023000020C0CCF840000648006C386004480068E3
:10231000DFF80CC0DCF80CC040EA0C00BDE8F08728
:10232000500000201002002030B5094C2060616090
:10233000A260E3600124074D6C6030BD012803D129
:102340000221044A516002E00321024A51607047B1
:102350001002002050000020704700210160AFF201
:10236000070141600022C26000218160704710B502
:102370008648006B20F00800844908630846006B1B
:1023800020F0100008630846006B20F0040008638A
:102390000020C86188610846006B20F04000086397
:1023A0000846006B20F02000086300200862084601
:1023B000006B20F00200801C08630846006B20F4CC
:1023C000806008630846006B20F4803008630020BA
:1023D000C8620846006B20F4807008630846006BF2
:1023E00020F4007008630846006B20F48030086316
:1023F0000846006B20F4003008630846006B20F4A8
:1024000000500863002406E06049343101EB0410F9
:10241000FFF7A3FF641C022CF6DB00205B498862F7
:102420000320486201205A498860C8601020594939
:10243000C8620120A1F844008863574908609FEDF5
:10244000570A084680ED0A0A9FED550A80ED0B0AEF
:102450009FED540A80ED0C0A9FED530A80ED110A9E
:102460009FED520A80ED120A0E20486050A14A48A2
:102470000C3007F01BFB412047498860AFF2271062
:102480004D4948600020886008628861C8604861E2
:10249000C864486288620120C86200200865084656
:1024A000806E20F0400088660846806E20F0800034
:1024B00088660020486648654FF4004088650846F5
:1024C000806E20F0020088660846806E20F00400CE
:1024D00088660846806E20F0100088660846806E88
:1024E00020F00100401C8866002008638863C863F0
:1024F0000864886448640846806E20F480708866AA
:102500000846806E20F4007088663C202B490860E5
:1025100041F27070486002208860002405E00021CC
:1025200026480C3040F82410641C022CF7DB0120F4
:1025300022494861C8610A21204881610121016264
:1025400000201E49486200211C488162C16201636B
:10255000416381631A49C1630021016401218164DF
:1025600046F2A8101549C8640020086548658865CA
:1025700010BD024692FBF1F001FB1020002A01DAA7
:102580000B4600E00023184470470000C003002001
:10259000CC040020F80200201404002000000000F9
:1025A00029770849239B3E430000FA4400401C461B
:1025B0004B565333304D000060040020640300206C
:1025C000A086010010B50446002010BD2DE9F04F93
:1025D00087B009200090F9480068C0F34010F8491E
:1025E00091F86810C1F30011484080F00107F348EA
:1025F0000068C0F30010F24991F86810C1F340116F
:10260000484080F001083FB1ED4890F8680010F0B4
:10261000010F01D0012000E000200490B8F1000F6C
:1026200007D0E74890F86800C0F3400008B10120E7
:1026300000E000200390E34890F83000C0F38010E1
:1026400048B1DF48406E022803D0DD48406E0328C1
:1026500001D1012000E000200290029838B1D94851
:102660000068D749896C884201DB012000E0002026
:102670008246029838B1D3480068D149C96C884273
:1026800001DC012000E000200190049810B9BAF1AB
:10269000000F01D0012000E000200590039808B948
:1026A000019808B1012000E000208346C448406E34
:1026B00003280BD1BAF1000F01D1019830B1049871
:1026C00020B9039810B90820009001E0092000907B
:1026D000BC48006A012824D1B94890F86800C0F3CA
:1026E000C01050B1B5480068C0F34010B44991F82B
:1026F0006810C1F30011884210D0B14890F868000A
:10270000C0F3C01068B9AD480068C0F30010AC4910
:1027100091F86810C1F34011884202D10220A94902
:102720000862A848806A012804D0022810D0032833
:102730001FD118E0A348406A022802D0A148406A8D
:1027400010B901209F49486200209E49886210E02C
:102750009C48406A022802D108209A494862002019
:102760009849886205E009209649486200208862FD
:1027700000BF00BF9348406A0D2871D2DFE800F027
:102780007007A1FCFBFADCF9F8F7F6F5D8008D48E4
:1027900090F83000C0F3801078B38948406E042868
:1027A0002BD1894800688649896C88420DDD8548AF
:1027B00000688349896C884202DD8248006801E034
:1027C0007F48806C8049086017E07F4800687E4938
:1027D0004968401A7A49C96C88420EDA794800681B
:1027E0007749C96C884202DA7648006801E074488B
:1027F000C06C7549086000204860734800687149E2
:102800000968884201DA012100E000216D48006B6F
:1028100061F3C7106B490863084690F83000C0F3B5
:10282000C01010B1BBF1000F07D1664890F830001E
:10283000C0F3C01040B9059830B103206149486227
:1028400062A0FFF7BFFE3BE05E4890F83000C0F3A7
:10285000C01030B15C4800685B494968401A02E02A
:102860008CE15948006881465749CB688A685549C8
:1028700008684946FFF758FD52484A46016856A085
:10288000FFF7A0FE4F48006B20F002004D4908639F
:102890000846006B20F4806000F5806008630846FD
:1028A000006B20F4006008630846006B20F0010014
:1028B0000863022048620846006B20F480500863D9
:1028C0005CE1404890F83000C0F3C01010B1BBF19B
:1028D000000F07D13B4890F83000C0F3C01068B932
:1028E000059858B13748008EC0F3003030B93549EB
:1028F0000098486200203449486018E0314890F858
:10290000300010F0010F12D02E48007B10F0800F25
:1029100003D00C202B49486209E02B48406818B1CD
:1029200006202849486202E004202649486225E141
:1029300001202449486221E10020234948602148C0
:10294000006B20F080001F4908630220486208469F
:10295000006B20F001000863DFF86CC0DCF80C307D
:10296000DCF80820DCF8001007E0FEE0EDE0ACE069
:102970008AE00CE040E014E05FE0DFF848C0DCF8FB
:102980000000FFF7D1FC07200E494862F6E00D4831
:1029900090F8300010F0010F02D00420094948627D
:1029A000ECE001F0F3F9124908800648006811498B
:1029B0000860052003494862E0E00000100402407E
:1029C000F8020020C0030020CC0400200D0A4D6F47
:1029D0007665496E680000000D0A4D6F76652066C9
:1029E000726F6D20256C6420746F20256C6400006C
:1029F000980000209C000020F8480068F849096809
:102A00000E1A022E15DA16F1020F12DD01F0BEF9D0
:102A1000F4490988401A80B264280DDDEF48006B44
:102A200020F4006000F50060EC4908630320486270
:102A300002E00420E9494862A0E0E848006B20F485
:102A40008050E64908630846006B20F00200801CB5
:102A500008630846006B20F4806008630846008E17
:102A6000C0F3403048B108460068DF490860DB48E1
:102A7000006B20F40050D94908630020D749486210
:102A8000DAA005F08BFE79E0DDA0FFF79BFDD348CF
:102A9000006B20F4005000F50050D0490863084650
:102AA000006B20F4805000F5805008630846006BEE
:102AB00020F0010008630020CB4948600120FFF7A7
:102AC0003DFC0A20C549486258E001F0F3F8CFA068
:102AD000FFF778FD0020C4494860C048006B20F42F
:102AE000805000F58050BD4908630846006B20F017
:102AF0000100401C08630220FFF720FC06A8FFF736
:102B000013FAB6480068B8490860FFF7CFF8DFF855
:102B1000D8C2DCF80C30DCF80820DFF8C0C2DCF8E2
:102B20000010DCF80000FFF7FFFB06A8FFF7FCF938
:102B3000FFF7B4F8A948008EC0F3402008B101F0B7
:102B4000ACF80A20A549486218E0A44890F8300083
:102B500010F0010F08D0A148006B20F00400001D08
:102B60009E4908630B20486208E09C48006B20F0F7
:102B700004009A4908630420486200BF00BF002592
:102B800046E09648343000EB05142068022806D051
:102B9000032813D004281DD0052837D127E08F4AF9
:102BA000128EC2F3802282F0010282F0010304F14E
:102BB000080252F823006168884727E0012F01D1FD
:102BC000012300E0002304F1080252F823006168A9
:102BD00088471BE0B8F1010F01D1012300E0002379
:102BE00004F1080252F82300616888470EE0012FC3
:102BF00002D0B8F1010F01D1012300E0002304F15C
:102C0000080252F823006168884700BF00BF6D1CAE
:102C1000022DB6DB7148406A07B0BDE8F08F1FB5E2
:102C200071489DE81E001EC001206C4988621FBDCE
:102C30006A49886270476C49086000216A4A51609D
:102C400070471FB56548C069012802D0022811D11C
:102C50000AE06248806910B901206049886100205B
:102C60005E49C861086205E000205C498861C8616E
:102C7000086200BF00BF594880690C287BD2DFE89A
:102C800000F0060D606B7BA2CFDAF2F1F0EF534853
:102C9000006B20F020005149086322E14F48006B8F
:102CA00020F0200020304D490863002001904FF4AF
:102CB000BF7002905748806A0390564890F86800A9
:102CC000C0F38010E0B154480068C0F3401051498F
:102CD00091F86810C1F30011884208D14FF04040CC
:102CE000009003203D4908620520886124E04FF0F0
:102CF00080400090012039490862022088611BE071
:102D000045480068C0F30010424991F86810C1F3CB
:102D10004011884208D14FF08040009003202F4995
:102D200008620520886107E04FF0404000900120D4
:102D30002A490862022088619DE80F00FFF76FFFB3
:102D4000CFE02648006A022805D10320FFF770FF74
:102D5000032022498861C4E02048406A50B91F48D6
:102D6000806A012806D001F011F82C49088004205F
:102D70001A498861B5E0B3E001F008F827490988ED
:102D8000401A80B2B0F5C87F1CDD224890F8680078
:102D9000C0F3801018B14FF04040009002E04FF0B7
:102DA00080400090002001905F20029040F25F4040
:102DB00003909DE80F00FFF732FF032007490862E8
:102DC000052088618DE00548006A042805D10320AC
:102DD000FFF72EFF06200149886182E0C003002032
:102DE0009C00002098000020CC0400200D0A204DFB
:102DF0006F76652066696E69736865642E0D0A00DA
:102E00000D0A53746F702E2E2E0000000D0A53749D
:102E10006F702100F802002010040240A000002082
:102E2000F748406A30B9F648806A012802D0072086
:102E3000F349886155E0002001904FF4BF70029083
:102E400042F6B6300390EF4890F86800C0F3801067
:102E500050B1EB488068EB49096B401A009009E0DB
:102E600037E031E01DE00DE0E5488068E549096B99
:102E7000084400909DE80F00FFF7D1FE0820E049CC
:102E800088612EE0DE48406A50B9DD48806A01283A
:102E900006D000F07BFFDC4908800920D849886112
:102EA0001FE000F073FFD8490988401A80B2B0F5DE
:102EB000C87F08DD0020FEF735FF0020FFF7BBFECE
:102EC0000A20CF4988610CE00020CD490862886162
:102ED00007E0CB48006B20F02000C949086300E000
:102EE00000BF00BFC6488069C849096888422CD025
:102EF000C3488069C5490860C14880690B2823D24E
:102F0000DFE800F022060A0E22161A1222221E0004
:102F1000BFA0FFF757FB17E0C0A0FFF753FB13E07C
:102F2000C1A0FFF74FFB0FE0C3A0FFF74BFB0BE087
:102F3000C4A0FFF747FB07E0C7A0FFF743FB03E090
:102F4000CAA0FFF73FFB00BF00BFAD48806904B0D7
:102F500010BD10B5C948006A50B1012816D1A84863
:102F6000006B20F04000A64908630120C8610EE014
:102F70000020FEF7D7FE0020FFF75DFEA048006BA3
:102F800020F0400040309E49086300E000BF00BFD1
:102F900010BD02209A49C86170471FB50446012C34
:102FA00024D19748008EC0F34020F8B994490868AE
:102FB000FFF741FE924800680090012003900290C4
:102FC000002001909DE80F00FFF729FE00F065FE4C
:102FD0008B48006B20F4007000F50070884908638E
:102FE0000846006B20F40030086313E0022C11D176
:102FF0008348008EC0F3402060B18148006B20F40C
:1030000000707F4908630220C8610320FFF710FEAB
:1030100000F050FE1FBD2DE9F04F2DED028B87B063
:1030200004460E4600200690754890F83000C0F324
:10303000401040B97248008EC0F3402018B171486A
:10304000B0F8440028B9002007B0BDEC028BBDE801
:10305000F08F00F09BFE8046201E01DB014600E061
:103060004142192900DA00246548C06A02280CD0C0
:103070006348C06A48B16248C06A022807D0604805
:1030800090F83000C0F3C00008B9012000E0002033
:103090000746012E04D0022E7ED0032E7DD152E1B0
:1030A00084B97748006868B10320FFF7C1FD544830
:1030B000006B20F00800524908630020C862704885
:1030C000046079E06E480068B4EB000901D448461A
:1030D00001E0C9F1000005286EDD6A48018840461C
:1030E00000F058FE642867D9002F65D04448006B73
:1030F00020F008000830424908630220C862002C12
:1031000001DD204600E0604208EE100A3C4880697C
:103110000A2814D1002C01DD012000E000203949EB
:10312000B1F84410012900D100E00021884202D109
:103130003448006801E033484068054613E0002C3D
:1031400001DD012000E000202E49B1F844100129E2
:1031500000D100E00021884202D14FF0804001E020
:103160004FF040400546274890ED0F0AB8EEC00AE0
:10317000F8EE480A20EE200ADFED430A80EE201A1E
:1031800011EE109A484609F0BAFB05901D48006CF4
:1031900003900598049001E00FE03CE101950020C8
:1031A000029001A80FC8FFF73AFD012006903448AD
:1031B00004603448A0F800802DE1344800680228FB
:1031C00002D00F4800680190201E01DB014600E09C
:1031D00041422A296DDD2A48D0F800B0BBF1000F2A
:1031E00001DB584601E0CBF100002A285CDD2448D1
:1031F000D0F80090B9F1000F4ADB48464AE00000E1
:10320000C0030020F8020020A0000020A40000203D
:103210000D0A485374617274000000000D0A48479B
:103220006F546F4C696D00000D0A4853746F704104
:10323000744C696D000000000D0A484F66667365A6
:10324000740000000D0A484D6F76654F75744F6627
:103250004C696D69740000000D0A4853746F704F1B
:103260007574736964654C696D6974000D0A48432F
:103270006F6D706C657465640000000014040020BC
:10328000A8000020B000002000000043AC00002097
:10329000C9F100002A2809DDB6480188404600F03F
:1032A00079FDB0F57A7F01D9012000E00020824647
:1032B0000BE04FF0000AB048006B20F00800AE4968
:1032C000086300F063FDAB490880BAF1010F37D104
:1032D000B7B3A948006B20F008000830A64908637E
:1032E0000220C8620846008EC0F3802040BBA3487D
:1032F0000168002C02DDA248406902E0A048406954
:1033000040420D189E480068A84219DB9C4840685E
:10331000A84215DC9848006B20F008000830964958
:1033200008639748806903909548C06904900195A7
:103330000020029001A80FC8FFF771FC0120069041
:103340009048046067E0201E01DB014600E0414236
:103350002A2952DD884890F83000C0F38010E8B385
:1033600088490868002801DB014600E041422A291B
:103370004EDCA7B3002C03DD01208349886304E001
:10338000002C02DA0020804988637F48816B7F48E7
:1033900050F821507C482A46816B7DA005F0FEF94B
:1033A0007548008EC0F38020C8B974480068A842F0
:1033B0002ED07148006B20F0080008306E49086379
:1033C0000220C8626E48806903906D48C06904900D
:1033D00001950020029001A80FC801E005E017E068
:1033E000FFF71DFC0120069012E06348006B20F0FF
:1033F00010001030604908630AE05F48006B20F05D
:1034000008005D4908630846006B20F0100008635F
:103410005C48046000BF00BF63480660069813E67E
:103420007FB504460025022C04D0032C3BD0042C8D
:1034300005D16CE05048008EC0F3402000B995E003
:103440004D48C06A28B94C4890F83000C0F3C0001D
:1034500000B18BE04848006B20F008000830464976
:103460000863464800684849496C0844009042494E
:1034700000980968884202DA4148406A00E000206A
:1034800001903F48806802903D48C06803909DE8E5
:103490000F00FFF7C4FB03203749C862022543A091
:1034A00005F07CF962E03448008EC0F3402000B99A
:1034B0005CE03148C06A28B92F4890F83000C0F36A
:1034C000C00000B152E02C48006B20F0080008302A
:1034D000294908630320C8622B48806C009000983B
:1034E0000968884202DA2648406A00E0002001901C
:1034F0002348806802902248C06803909DE80F002E
:10350000FFF78DFB032530A005F048F92EE01A489F
:10351000008EC0F3402000B928E01748C06A28B9DF
:10352000154890F83000C0F3C00000B11EE012480A
:10353000008EC0F3802010B90F48806900B115E0FB
:103540000D48006B20F0080008300B49086308465E
:10355000006B20F040000863FFF7FBFC03200649E6
:10356000C86204251FA005F019F900BF00BF284656
:1035700004B070BDB0000020C0030020CC040020C7
:10358000F8020020A8000020600400207003002042
:103590000D0A4D6F766520746F20706F732025645F
:1035A000203D202564000000AC0000200D0A54726C
:1035B000696767657265642072656C6174697665B8
:1035C000206D6F76650000000D0A547269676765AB
:1035D000726564206162736F6C757465206D6F76BF
:1035E000650000000D0A54726967676572656420A2
:1035F000686F6D65206D6F7665000000FB480068A0
:1036000040F00100F9490860F948006820F00C001A
:10361000F74908600846C06820F00C00C860C80080
:1036200088610846006840F48070086008460068B9
:1036300020F4007008600846806860F4407088607C
:10364000202088610846006840F4806008600846D1
:10365000006820F4006008600846806860F44060FC
:103660008860402088610846006840F48050086007
:103670000846006820F4005008600846406840F0A2
:10368000400048600846806860F440508860084602
:10369000C06820F44050C8608020886108460068F7
:1036A00040F4804008600846006820F4004008604C
:1036B0000846406840F0800048600846806860F432
:1036C000404088600846C06820F44040C860C80197
:1036D00088610846006840F4803008600846006849
:1036E00020F4003008600846806860F4403088604C
:1036F000BE48006840F00200BC4908604FF48030CA
:10370000BC490860BB481838006840F00100B9495E
:10371000183908600846006820F002000860B548C3
:103720001038006820F00300B24910390860B14831
:103730001838006820F00C00AE4918390860AD4810
:103740000C38006820F00C00AA490C3908604FF4CE
:103750008020A8490860A7481838006840F0100089
:10376000A449183908600846006820F02000086065
:10377000A0481038006820F030009E4910390860D9
:103780009C481838006820F47C509A491839086021
:1037900098480C38006820F47C5096490C39086031
:1037A00094481838006820F0407092491839086031
:1037B00090480C38006820F040708E490C39086041
:1037C00048078C4908608B481838006840F08040F2
:1037D0008849183908600846006820F000400860F1
:1037E00084481038006820F0404082491039086051
:1037F000081D006820F04040091D08607B480068F3
:1038000040F00400794908607B48006820F003001C
:103810007949086078480C30006820F00300764948
:103820000C3108600420744918310860724800683F
:1038300040F01000704908600846006820F0200041
:1038400008606D480830006820F030006A4908318F
:10385000086008206849183108606748006840F02F
:103860004000654908600846006820F08000086054
:1038700061480830006820F0C0005F4908310860E6
:103880004FF480105C49183108605B48006840F4D0
:103890008070594908600846006820F4007008608C
:1038A00055480830006820F44070534908310860DA
:1038B00048055149183108604F48006840F480308D
:1038C0004D4908600846006820F4003008604A4806
:1038D0000830006820F44030474908310860464805
:1038E000006820F040604449086043480C3000689C
:1038F00020F0406040490C3108603F48006820F0EB
:1039000040503D4908603C480C30006820F0805031
:1039100039490C3108600846006840F000500860E2
:103920004FF400403449183108603348006840F0D3
:103930008040314908600846006820F00040086077
:103940002D480830006820F040402B4908310860BD
:10395000704708B1402101E04FF48001244A916191
:10396000704708B1102101E04FF48011204A9161A5
:103970007047204808380068C0F3003070470421C1
:103980001D4A183211601C49086820F0300040F0D0
:10399000100020F0200008607047164818380068B2
:1039A00020F00C001349183908600420124918311E
:1039B0000860BFF35F8F0F4808380068C0F340000D
:1039C00070474FF480210C4A1832116008B102216F
:1039D00001E04FF40031074A1160064918390968BF
:1039E00041F00401034A183A116070473038024030
:1039F000000002401804024000080240104800681D
:103A000020F00C000E4908604FF400400D4908609A
:103A1000BFF35F8F0A480069C0F3400070474FF062
:103A20000041084A116008B1022101E04FF4003161
:103A3000034A91611146096841F004011160704721
:103A4000000002401808024070B504460126D4F870
:103A50000001022801D0022070BD2FE03848026822
:103A60000068401C364B1860A554184600680628AC
:103A700017D1207910F0800F01D0A07800E000204D
:103A8000801D30490860207900F07F00502806D161
:103A90006079012803D108460068802801D9902068
:103AA000DAE72748006827490968884206D10020DC
:103AB000234908600120C4F800010326D4F800015E
:103AC000012806D005F08EFF0546A0F57F41FF399D
:103AD000C4D13046C0E730B5D0F8003102461A4CA8
:103AE00024681A4D2D686119184C24681C44174D20
:103AF0002C6003E012F8014B01F8014B1C00A3F10C
:103B00000103F7D130BD10B510480068B0B105F021
:103B1000A7FF98B10D4801680B48006805F07EFFCB
:103B2000094800680A49884202D101F5807000E026
:103B300007480549086000200449086010BD0000DE
:103B4000C0010020C4010020B8010020BC010020F9
:103B5000E00500206448006840F004006249086005
:103B60006248006820F4A040604908600846006888
:103B700040F420400860081D006820F0C000091DC6
:103B800008605A480C30006820F4704057490C31E6
:103B90000860081F006820F47040091F086053483F
:103BA0002030006820F0706040F040704F492031B4
:103BB00008600846006820F0704040F040500860FF
:103BC00049481430006840F0020047491431086049
:103BD000002047490880481446490880401E44494F
:103BE000091D08604348008841490C31086041487C
:103BF0000088091D08603E481438008840F0010024
:103C00003B4914390880081D008846F260010843CA
:103C100037491039088036480838008840F01100CC
:103C200033490839088032481C30008840F400408D
:103C30002F491C31088006202D49083108802C4866
:103C40002838008840F00100294928390880284890
:103C50001C38008840F0010025491C390880704755
:103C6000414208B2B0F5005F02DD4FF4005003E0BE
:103C700010F5005F00DA2048002806DD00211C4A0C
:103C800010321160111F086006E04142184A1032DC
:103C900011600021121F1160704710201349183164
:103CA000086013481C30008840F4004010491C3163
:103CB000088070474FF480100C49183108600C4898
:103CC0001C30008820F4004009491C3108807047EE
:103CD00010B507481838008820F001000449183949
:103CE0000880FEF76AF810BD303802400008024034
:103CF00028040140C801002000E0FFFFFE480068E2
:103D000040F40030FC490860A720FC49088040F2DC
:103D1000E730091D08604010F8490C310860F74889
:103D20000838008840F00100F44908390880F34859
:103D30001038008840F06000F04910390880081FF2
:103D4000008840F00100091F0880EC4828380088EE
:103D500040F00100E94928390880E748006840F44C
:103D60008030E54908602020E5490881084600893F
:103D700040F007000881002008854FF6FF70C862F8
:103D80000846008840F0010008807047DC48406A1F
:103D900080B270470246501A80B27047D648001F62
:103DA000006840F01000D449091F08605320D5492D
:103DB00008854FF6FF704862C8620846008840F0E8
:103DC000080008800846008840F00100088070471D
:103DD0004142CC484162018841F0010101800188E3
:103DE000C907FCD17047C448001F006840F00800B4
:103DF000C149091F0860C0482438006840F0080025
:103E0000BD492439086000E000BFBB482438006881
:103E100010F0080FF8D0B8482438006820F00800E7
:103E2000B549243908600020B7490880091F086097
:103E3000B1481438006840F00100AF4914390860F7
:103E4000B248006820F00100B049086008460068E8
:103E500040F0020008600846006A20F00F00801C55
:103E600008624FF0FF30A849091D08605720A64995
:103E700020390880A4481038008840F00100A24989
:103E800010390880081F008840F00100091F0880D1
:103E90009D482838008840F001009B492839088057
:103EA0009548001F006840F002009349091F086010
:103EB000002097490880091F08609648006820F094
:103EC000F00040F020009349086041F267009049FB
:103ED000091D086040108E491431086008460068CA
:103EE000091D086047F2700089490C39088088482C
:103EF0001438008840F00100854914390880704763
:103F000030B50346FFF742FF044600E000BFFFF76D
:103F10003DFF05462146FFF73DFF9842F6DB30BDE9
:103F200002467D4850434FF47A73B0FBF3F1B1F190
:103F3000807F01D3012070474FF0E020006940F0FE
:103F400001004FF0E0231861184641610020F2E7BC
:103F50004FF0E020006900F48030704710B548B998
:103F60006E4B19686D4B283B1B686D4C23606B4B87
:103F7000243B1A68604B1B1F1B6843F080535E4C48
:103F8000241F2360674B1B6843F48073654C2360D8
:103F9000594B2C331B6843F48033574C2C3423602B
:103FA00023461B6823F48033236023461B6843F4B5
:103FB0004073236023461B6843F400432360CA23F5
:103FC000564C241F236053232360544B1C3B1B6817
:103FD00043F08003514C1C3C236000E000BF4F4B7A
:103FE0001C3B1B6813F0400FF8D04C4B183B1B6870
:103FF0006FF30E0342F20F742344484C183C2360C5
:1040000023461B6823F4FE0343F4C6032360444B9A
:104010001B68424C283C2360434B241D23603F4BCC
:104020001C3B1B6823F080033C4C1C3C236000E0DD
:1040300000BF3A4B1C3B1B6813F0800FF8D1FF23E5
:10404000364C241F2360354B1C3B1B6823F0200398
:10405000324C1C3C236010BD2749091F096841F000
:104060008051254A121F11602E49096841F4807160
:104070002C4A116020492C31096841F480311E4AD4
:104080002C3211601146096821F48031116011460B
:10409000096840F205121143174A2C32116011468B
:1040A000096841F40041116038B11949283909887B
:1040B00041F00101164A283A1180CA21174A121FFD
:1040C00011605321116015491C39096841F08001C4
:1040D000124A1C3A116000E000BF10491C390968FF
:1040E00011F0400FF8D00D49183909686FF30E012F
:1040F00042F20F72114419E0443802402844014052
:104100000040014000100040280C00400000024028
:104110002804004020040240406F4001282800404D
:10412000CC0100200070004002441300774A183A86
:1041300011601146096821F4FE0141F480311160DB
:1041400073490968714A283A11607249121D116059
:104150006E491C39096821F080016C4A1C3A1160D3
:1041600000E000BF69491C39096811F0800FF8D1DF
:10417000FF21664A121F116064491C39096821F049
:104180002001624A1C3A1160704763490140604A4D
:1041900011607047CA215D4A121F116053211160DE
:1041A0005A491C39096841F08001584A1C3A11608B
:1041B00000E000BF55491C39096811F0400FF8D0E4
:1041C00055490140514A283A116050491C39096843
:1041D00021F080014D4A1C3A1160FF214B4A121F09
:1041E0001160704730B50246CA20484B1B1F18604B
:1041F0005320186045482038006820F48070434BF5
:10420000203B1860181D006840F001001B1D18605D
:1042100000E000BF3D481C38006810F0010FF8D0E6
:104220003D48104040F00040384B0C3B1860C1F353
:104230000E0040F07060354B1C33186033481C385A
:10424000006820F00100314B1C3B186018460068E4
:1042500020F480701860181F006840F488501B1FFD
:104260001860181D006820F001001B1D1860FF2059
:10427000264B1B1F18602948006840F40030274B6C
:10428000186026480838006840F40030234B083B8B
:10429000186022480C30006840F400301F4B0C338B
:1042A0001860292000F01F040123A34044094FF0A7
:1042B000E02505EB8404C4F8003100BF30BD10B523
:1042C00012481C38006820F4807010491C390860BE
:1042D00000E000BF0D481C38006810F4807FF8D162
:1042E0000E480C30006840F400300C490C31086076
:1042F0000B4A90685168884710BD044B1A68034BFD
:10430000283B18681B1D19687047000028280040CA
:10431000CC010020024413007F7F3F00083C014095
:1043200060040020002100205E4A126842F48032BE
:104330005C4B1A6000BF5B4A126802F40030491CF3
:1043400010B9B1F5705FF6D1564A1268C2F3404019
:10435000002879D0534A4032126842F08052514BC3
:1043600040331A60504A126842F480424E4B1A6041
:1043700040F205624D4B1A604A4A08321268494BB6
:1043800008331A601A46126842F400421A601A464C
:10439000126842F4A0521A601A46126822F4F81207
:1043A00042F440221A601A46126822F07C521A60C7
:1043B0001A46126842F080621A601A46126842F089
:1043C00060521A601A46126822F040421A601A4679
:1043D000126842F080421A60354A1B1F1A601A1F89
:1043E000126842F080721B1F1A6000E000BF2D4A65
:1043F000126812F0007FF9D02A4A0832126822F0BF
:104400000302284B08331A601A46126842F002026F
:104410001A6000E000BF234A0832126802F00C0262
:10442000082AF7D1234A1F4B84331A601D4A1268A9
:1044300042F080621B4B1A6001E005E000BF194AA0
:10444000126812F0006FF9D0704710B51A48006872
:1044500040F47000184908601248006840F00100FC
:104460001049086000200F49083108600D480068B5
:10447000124908400B4908601148091D0860081FCF
:10448000006820F48020091F0860002005490C31D5
:104490000860FFF747FF4FF0006007498039086068
:1044A00010BD00000038024000700040003C024097
:1044B0000C5440070040005088ED00E0FFFFF6FE7E
:1044C0001030002404462146F3A004F067F901E00F
:1044D00004F0E4F9FCE70FB47FB509A80390BDF838
:1044E0002000009000200190F1A00290BDF8200073
:1044F000812818D1039810C80390039820C803900E
:1045000000200090EB48806DA0420CD0B4F5004F25
:1045100007D081200090019402952946E6A004F07E
:104520003DF9E448846500200390E248406E02288B
:104530000ED1E74A6946002000F0D2F80646012E67
:1045400006D1E348FFF7C7FA0021E14803F0F8FA83
:104550007FBC5DF814FB10B55C22DE49DE4805F037
:104560006AFD6C22DD49DC485C3005F064FDD14811
:104570000068D9490C3948604FF001108860D82292
:104580000021D5480C3802F03AFA0446012C05D037
:10459000D3A248F2D0418120FFF79DFF0123D8220A
:1045A0000021CD480C3802F0E7F904462CB1CEA228
:1045B00048F2D0418120FFF78EFF10BD70B5CD4C81
:1045C000CD48008EC0F34020F0B144F00044CA480A
:1045D0004068C9490968451A4FF40000C749886115
:1045E0004020886142F21070854202DC40428542E0
:1045F0000ADA44F08044C2A004F0D0F84FF48000FE
:10460000BE49886180208861BB48006BC0F30040D0
:1046100050B144F080444FF48000B8498861802054
:104620008861BDA004F0BAF8B348008EC0F38020C2
:1046300048B1B1484069002801DD102000E0202089
:1046400040F000500443AC4890F83000C0F38010B4
:1046500010B144F4806407E0A74890F83000C0F33C
:10466000401008B144F40074A348008EC0F38030B9
:1046700008B144F00204A048008EC0F3C03008B175
:1046800044F001049C4800689449896C884201DB2D
:1046900044F00804984800689049C96C884201DCDD
:1046A00044F00404834890F86800C0F3401038B127
:1046B00091484069002801DD402000E0802004434B
:1046C0009B480068C0F3400008B144F480148B4854
:1046D0000069C0F3400008B144F40014204670BDE6
:1046E0002DE9F74F9AB093461A9878B1DDF86890A3
:1046F000DDF86890B9F8000080B21990DDF8689094
:1047000009F1060602206B49486608E01B9830B1A3
:104710004FF0000900261B98008880B219905C4673
:10472000A51D0020E0700120207150206071002044
:104730001890CBF8000140F264421998811A904217
:104740007ED06DDC40F21642A0EB0201904278D0A0
:104750003BDC40F21322A0EB0201904272D01BDC42
:10476000142801F0B88209DC02286CD005286BD02F
:1047700011286AD0122841F0CA83A8E1152801F057
:10478000B683812801F06A82B0F5047F6BD0A0F572
:1047900000701138EFD1CDE140F2FD12881A91423C
:1047A00062D00BDC012960D010295FD0B1F5FB7F0E
:1047B0005DD0A1F58071F739DDD1CCE1012857D06A
:1047C000032856D00428D6D14EE22D2952D014DC2D
:1047D000132950D008DC01294ED002294DD00D29D3
:1047E0004CD00E29C7D172E3242948D0252947D0BF
:1047F0002A2946D02B29BED1F7E33A2942D008DC3A
:104800002E2940D02F293FD030293ED03229B2D195
:10481000ECE33B293AD03D2939D04129ABD1EEE335
:10482000C32900F0C48733DC3D2932D032DC0829AB
:1048300031D00FDC01297DD002297CD0062905E08A
:10484000C2E12AE2EFE349E1DAE033E174D007297B
:1048500091D1E9E32C2970D02D296FD02E296ED06B
:104860003C2988D1F8E34BE188E1F6E31EE186E1DB
:1048700097E1F1E1F2E3DDE11CE21AE239E2EEE375
:10488000EEE393E3EDE3EDE3EDE3EDE3EDE3EDE301
:104890006DE0ECE354E0EBE30D0A457869742077B2
:1048A000697468206572726F723A20257300000087
:1048B00000000000600400200D0A415054206E6F7B
:1048C00074696669636174696F6E3A2025730000CC
:1048D000DC040020640300202C020020F8020020E9
:1048E0004545577269746500454556657269667934
:1048F0000000000000010010C00300200000024082
:104900000D0A20506F736974696F6E206572726F43
:10491000722E0D0A000000000D0A204D6F746F7298
:10492000206F76657263757272656E742E0D0A0063
:1049300010040240FEE348E1FDE353E146E175E186
:10494000BE297AD00BDC552901F063818F2901F053
:104950006B81BC2972D0BD2941F0D982ECE3BF291B
:104960006DD0C0296CD0C229F6D100F00ABFB1F5D4
:10497000B66F00F0E88723DC40F29F52A1EB020003
:10498000914200F088870EDCDC2901F07F81DD296F
:1049900001F08881A1F5A0619C3900F03F870129D1
:1049A000DAD100F05EBF012800F090870D2800F0FA
:1049B00099870E2800F0AE871028CDD100F0B6BF41
:1049C00040F2CD52881A914201F0BE800EDCA1F572
:1049D000A061B23900F0CA87012900F0EC870A29EA
:1049E00001F000801A29B7D101F002B81F2801F0A8
:1049F000D080202801F0DE803128ADD101F0EBB865
:104A0000062020805420A070207940F08000207182
:104A10005422FC49284605F0C9FAFB480068286082
:104A2000FA480089A5F84C00F94800680E2808D11A
:104A3000F8A1281D05F03AF807E0F9E3F9E3F9E3F6
:104A4000F9E3F6A1281D05F031F8F6A0007885F805
:104A50004200F4A0417843204155F2A0C17844209F
:104A60004155F0A0017945204155F1A00079202859
:104A700001D1302001E0EEA0007946214855ECA09C
:104A8000417947204155EAA0017848204155E8A0E6
:104A9000417849204155E6A081784A2041550021BE
:104AA0004B2041550120189001F034BA4020D849DC
:104AB0000865F9E7D648806E20F010001030D44920
:104AC000886600204865FA20FFF71AFAECE7D0481C
:104AD000806E20F01000CE498866E5E70020CC49C2
:104AE00048660846806E20F0100088661B9830B13A
:104AF000022020800020A070E07001201890D3E7F1
:104B000099F8030001280CD1C003C1498865012030
:104B1000FEF743FA4FF40000C849886140208861DD
:104B200007E00220FEF739FA8020C449886140205E
:104B30008861B9E740F2122020800120A070C048AF
:104B4000008EC0F3402008B1012000E00220E07098
:104B500001201890A8E740F20B4020800620A070AA
:104B6000207940F08000207101202880B448D0F8DE
:104B70000080C5F802800120189095E700BF1998C1
:104B8000A0F58061093902D1D6F8020001E0D6F81B
:104B9000020080464046FDF7C5F84046FEF74BF858
:104BA00082E740F2124020800620A070207940F079
:104BB0008000207101202880A148D0F80080C5F82D
:104BC0000280012018906FE700BF00BF904890F866
:104BD0006800C0F3001020B18D48406D322800DD20
:104BE00062E700BF1998B0F5926F02D140F2914090
:104BF00000E0199800B220800E20A0700020E07024
:104C0000207940F080002071012028808C480068C5
:104C1000C5F802008A48808AE88000202881FFF7D2
:104C2000CDFCC5F80A00012018903DE70020784926
:104C3000486539E740F22A4020800620A07020799C
:104C400040F08000207101202880FFF7B7FCC5F8F4
:104C500002000120189027E7D6F8060079498860FD
:104C6000D6F80A00C8601FE740F2154020800E20E9
:104C7000A070207940F08000207101202880002061
:104C8000C5F802006F488068C5F806006D48C06826
:104C9000C5F80A000120189006E770886949086184
:104CA00070684861F06888613069C861B08A0862DC
:104CB000FAE600BF4FF4836020801620A0702079B0
:104CC00040F080002071012028805E48008A6880C2
:104CD0005C48406968600020A8605A488069E860C4
:104CE0005848C06928615748008CA8820120189054
:104CF000DAE6B08806285CD2DFE800F05B030F2319
:104D000036495048806E20F001004E4988660846BA
:104D1000806E20F0040088664BE04A48806E20F0E8
:104D20000100401C474988660846806E20F0040058
:104D3000001D88660846806E20F0100010308866DE
:104D400037E04048806E20F00100401C3D498866F5
:104D50000846806E20F00400001D88660846806EBC
:104D600020F01000886624E03648806E20F00100B4
:104D7000344988660846806E20F00400001D88666D
:104D80000846806E20F010001030886611E02D4833
:104D9000806E20F001002B4988660846806E20F066
:104DA0000400001D88660846806E20F010008866AA
:104DB00000BF00BF708806287ED2DFE800F07D03C8
:104DC0000F45586B1F48806E20F002001D49886611
:104DD0000846806E20F0080088666DE01948806EF5
:104DE00020F00200801C174988660846806E20F07B
:104DF0000800083088660846806E20F020002030C9
:104E0000886659E0ACCA0008200200201404002083
:104E1000600400204B565333302F4D004B56533314
:104E20003000000031353A35373A313800000000A3
:104E3000536570203131203230313800000002409B
:104E4000C0030020F8020020FB48806E20F0020022
:104E5000801CF94988660846806E20F008000830FA
:104E600088660846806E20F02000886624E0F248BC
:104E7000806E20F00200F04988660846806E20F0BF
:104E80000800083088660846806E20F02000203038
:104E9000886611E0E848806E20F00200E6498866E6
:104EA0000846806E20F00800083088660846806E4C
:104EB00020F02000886600BF00BFD6F80600DE495B
:104EC0008864D6F80A00C864F0894866ECE540F2C8
:104ED000254020801020A070207940F080002071B3
:104EE00001202880D44890F86800C007400FD249BC
:104EF00091F86810C1F3800140EA4100CE4991F871
:104F00006810C1F30011084302280ED0032809D00D
:104F1000062804D007280BD10220A8800BE003202C
:104F2000A88008E00420A88005E00520A88002E011
:104F30000120A88000BF00BFBF4890F86800C0F300
:104F400040008000BC4991F86810C1F3C00140EAFC
:104F50004100B94991F86810C1F340110843022893
:104F60000ED0032809D0062804D007280BD1022030
:104F700068800BE00320688008E00420688005E07A
:104F80000520688002E00120688000BF00BFAA48B9
:104F9000C06CC5F80A00A848806CC5F80600A64891
:104FA000B0F86400E881012018907DE5D6F806008D
:104FB000A249884201DD084601E0D6F806009E4974
:104FC0008862D6F80A0008637088012801D101219F
:104FD00000E000219848806E61F38610964988664B
:104FE000B088042803D1012102E009E0BEE00021DD
:104FF0009148806E61F3C7108F49886654E569E176
:1050000040F2424020800E20A070207940F08000C5
:10501000207101202880884890F86800C0F3801033
:1050200018B1012002E081E223E202206880824878
:1050300090F86800C0F3C01008B1042000E001201F
:10504000A8807D48806AC5F806007B48006BC5F8DB
:105050000A000120189027E51AE28FE209E04DE0EE
:1050600057E0CEE040E06AE06EE0CFE0ECE035E211
:1050700006E27348008EC0F3402000B914E5704882
:10508000C06A012809D06E48C06A30B16C4890F8F7
:105090003000C0F3C00000B106E56948008EC0F3DF
:1050A000802010B96648806900B1FDE46448006B57
:1050B00020F008000830624908630846006B20F0C1
:1050C00040000863FDF745FF01205D49C8625D4867
:1050D000806E20F0080008305A4988660846806EC5
:1050E00020F002008866DFE440F244402080012086
:1050F000A0700020E07001201890D5E4D6F80200DE
:105100004D4948620846406A002801DA002048629A
:10511000CAE440F23C4020800620A070207940F094
:1051200080002071012028804348406AC5F80200B1
:10513000012002E00CE12DE197E21890B4E4D6F8EA
:10514000020040494864AFE440F247402080062016
:10515000A070207940F0800020710120288039481B
:10516000406CC5F80200012018909DE43448008E80
:10517000C0F3402000B997E43148C06A012809D043
:105180002F48C06A30B12E4890F83000C0F3C000FC
:1051900000B189E42A48006B20F008000830284953
:1051A00008630846D0F8008099F8040010F0800FDA
:1051B00003D0D6F80200804402E02248406C8044CC
:1051C000CDF81C801E4907980968884202DA1A48FF
:1051D000406A00E00020089017488068099016484F
:1051E000C0680A9007A80FC8FDF719FD01201449EF
:1051F000C8621448806E20F00200801C1149886645
:1052000052E4D6F802000F4988644DE440F252405F
:1052100020800620A070207940F0800020710120BD
:1052200028800848806CC5F80200012018903BE4F3
:105230001AE2B8E15DE27FE2F802002012111100EB
:10524000C003002060040020FB48008EC0F3402013
:1052500000B929E4F848C06A012809D0F648C06AB4
:1052600030B1F54890F83000C0F3C00000B11BE445
:10527000F148006B20F008000830EF490863012076
:10528000C86299F8040010F0800F02D0D6F80280AE
:1052900002E0EA48D0F84880CDF81C80E64907983B
:1052A0000968884202DAE648406A00E00020089077
:1052B000E34880680990E248C0680A9007A80FC8D0
:1052C000FDF7ADFCDD48806E20F00200801CDB495C
:1052D000886614E4D848008EC0F3402000B90EE47C
:1052E000D548C06A012809D0D348C06A30B1D24835
:1052F00090F83000C0F3C00000B11AE499F8030040
:10530000022803D1CE48D0F8008002E0CC48D0F883
:105310000480C948006B20F008000830C6490863C3
:10532000CDF81C8000200890C54880680990C448CA
:10533000C0680A9007A80FC8FDF771FC0120BE499C
:10534000C862BE48806E20F00200BC49886614E442
:10535000B948008EC0F3802000B90EE499F803101C
:10536000012901D1032100E002210846FDF760FC7C
:10537000FDF70FFEB148806E20F00200AF4988664D
:105380000846806E20F00400001D88660120AA49AE
:10539000C86205E4A848008EC0F3402000B912E4BA
:1053A000A548C06A012809D0A348C06A30B1A24804
:1053B00090F83000C0F3C00000B104E49F48806E54
:1053C00020F0200020309D4988669D480069012812
:1053D00011D199F80300022803D19948D0F8008030
:1053E00002E09748D0F804809448806E20F00200D4
:1053F0009249886625E099F8030002280DD18E486D
:1054000000688F49496900EB01088D4800684045F4
:1054100010DA8B48D0F800800CE087480068884993
:105420004969A0EB010886484068404502DD844890
:10543000D0F804808148806E20F00200801C7F49F3
:1054400088667D48006B20F0080008307A490863C0
:105450000120C862CDF81C8000200890784880693F
:1054600009907748C0690A9007A80FC8FDF7D7FBD5
:1054700012E47248806E20F00100704988660BE4E7
:105480006E48806E20F00100401C6C4988660FE475
:105490000020708A10F0010F03D0D6F80E20684962
:1054A000CA6510F0080F03D0D6F80210644A1165DF
:1054B00010F0040F03D0D6F8062061494A6510F0B9
:1054C000020F03D0D6F80A205D498A65C0F307228F
:1054D0005B490A66C1B25B4A116009E440F2A2402E
:1054E00020801420A070207940F0800020710120DD
:1054F00005F1020525F8020C5148C06DE8605048DE
:10550000006D28604E48406D68604D48806DA86011
:105510004B4890F860004B49098841EA00202882F6
:10552000A5F102054FF001001890CFE499F80200B0
:105530004249896E60F386114048816699F80200FD
:10554000C0F340013D48806E61F3C7103B49886657
:105550003D4840690A2805D191F86810C1F38010D0
:10556000FEF72FFA384880690A2806D1334991F8A6
:105570006810C1F3C010FEF752FAA7E440F21520FC
:1055800020802E4890F86800C0F380102B4991F8D5
:105590006810C1F3C01100EB4100A0700020E07062
:1055A0000120189092E47088254988637068C86368
:1055B000B0680864B08900B2A1F84400D6F80E00C3
:1055C0002149C860D6F812101F4801610068159083
:1055D0001D48406814901C4880681390F08A1A494E
:1055E0000860308B38B9708B28B941F27070486010
:1055F000022088600EE0708B13498860308B18B9E8
:105600006FF00040486005E0308B4FF4167148435E
:105610000D4948600C4801681598814209D10A4833
:1056200041681498814204D10748816813988142E7
:105630000CD001200BE00000C0030020600400201B
:10564000F8020020D0010020640300200020129006
:105650001B9840B9129830B10020FB498861FB4982
:105660000868FCF7FAF831E400BF40F222502080CD
:105670002420A070207940F0800020710120288033
:10568000F348008F6880F248C06B6860F048006C97
:10569000A860EF48B0F84400A881EC48C068C5F89D
:1056A0000E00EA480069C5F81200E8480088E88260
:1056B000E64840686FF00041884202D1002028830C
:1056C00006E0E24840684FF4167190FBF1F0288341
:1056D000DE4800896883002706E0002105F11C00F0
:1056E00000EB470001807F1C042FF6DB012018909F
:1056F0005BE47088D5494861B088C861F188D348B7
:1057000081613189016203F0C5FDD048C2694169F8
:105710000120FCF7B5F81790CC48026A8169022095
:10572000FCF7AEF816901798012802D016980128B9
:1057300001D103F0A7FDEDE340F2255020801620B3
:10574000A070207940F08000207101202880BF489F
:10575000808A6880BD48808BA880BC48008BE88028
:10576000BA48008C2881002706E0002105F10A00D4
:1057700000EB470001807F1C062FF6DB012018900C
:10578000C8E356F8020FB14948627168AF488162B8
:10579000B168C162F1680163316941637169816314
:1057A000B169C163F169A6F102060164B2E34FF485
:1057B000A56020802E20A070207940F0800020710C
:1057C000012005F1020525F8020CA048406A286076
:1057D0009E48806A68609D48C06AA8609B48006BCC
:1057E000E8609A48406B28619848806B68619748E8
:1057F000C06BA8619548006CE861A5F102054FF007
:10580000000706E0002105F1220000EB47000180BF
:105810007F1C062FF6DB012018907BE330888D4932
:10582000086070888860B088C860F08808610846A1
:10583000017A0B9861F315400B908648017B0B9819
:1058400061F30E200B908348017C0B9861F30600F6
:105850000B900B98FEF799FC7E490868FBF756FF02
:1058600058E340F6022020800A20A070207940F002
:1058700080002071774800882880764800896880F9
:1058800074488089A8807348008AE88000202881B5
:10589000012018903EE399F802006E49486049687B
:1058A000012900D100E000210846FEF7D5FB694838
:1058B0004068012801D168A000E069A001466AA003
:1058C00002F06CFF01206349486123E340F60520A4
:1058D000208060480079A0705E48007DE070012063
:1058E000189017E399F802005A490864096C0129D5
:1058F00000D100E000210846FEF733F85548006C5F
:10590000012801D15FA000E05FA001465FA002F086
:1059100045FFFFE240F6122020804E4890F84000FC
:10592000A0700020E07001201890F3E23088C0F3EE
:105930000A00484988610846008BC0F30A015AA052
:1059400002F02CFFE6E240F6152020800420A07033
:10595000207940F0800020713E48008BC0F30A009F
:1059600028800020688001201890D3E23088C0F39E
:105970000A0010903748C06B082815D23549109896
:10598000CA6BC96B491C334BD96303F11C0141F845
:1059900022000021109803F07AF92E48C16B48A02C
:1059A000109A02F0FBFE05E02A48C16B51A0109A44
:1059B00002F0F4FEAEE240F6182020800420A07031
:1059C000207940F08000207199F80200119021495F
:1059D0001C31119831F820002880002068800120B7
:1059E000189097E203F03DF94FA002F0D7FE91E244
:1059F00030880F900F98802824D21422314602A8B4
:105A000004F0D4FA1348006F00EBC01000EB8001E3
:105A10001048743000EB810A0F9901EB81020AF102
:105A2000140101EB8200142202A904F004FB43A03C
:105A30000F9902F0B3FE0698009002A80FC802F07A
:105A40000FFA00BF66E2000060040020640300203B
:105A5000F8020020AC1900206D61737465720000BB
:105A6000736C6176650000000D0A525443206E6F1E
:105A7000772073796E6368656420617320612025E7
:105A8000730000006F6E00006F6666000D0A4341F0
:105A90004E207465726D696E6174696F6E206973F2
:105AA0002025730D0A0000000D0A43414E204D735E
:105AB000672049442073657420746F2025640000BA
:105AC0000D0A43414E2052782066696C746572203D
:105AD0006E756D6265722025642C2077697468206C
