:020000040800F2
:1000000020710020150300083303000835030008A1
:1000100037030008390300083B0300080000000014
:100020000000000000000000000000003D03000888
:100030003F03000800000000AD3B00084303000838
:100040004503000845030008450300084503000870
:100050004503000845030008450300084503000860
:100060004503000845030008450300084503000850
:100070004503000845030008450300084503000840
:100080004503000845030008450300084D500008DB
:10009000554F0008450300084503000845030008C4
:1000A0004503000845030008450300084503000810
:1000B00045030008134B00084503000845030008EA
:1000C00045030008450300084503000845030008F0
:1000D000334B0008450300084503000845030008AA
:1000E000450300081B1100084503000845030008EC
:1000F00045030008450300084503000845030008C0
:1001000045030008450300084503000845030008AF
:10011000450300084503000845030008450300089F
:10012000450300084503000845030008450300088F
:10013000450300084503000845030008450300087F
:10014000450300084503000845030008450300086F
:10015000450300084503000845030008450300085F
:10016000450300084503000845030008450300084F
:10017000450300084503000845030008450300083F
:10018000450300084503000800F002F800F0B2F84B
:100190000AA090E8000C82448344AAF10107DA45E2
:1001A00001D100F0A7F8AFF2090EBAE80F0013F082
:1001B000010F18BFFB1A43F0010318476CD400006D
:1001C0008CD400000A444FF0000C10F8013B13F0EF
:1001D000070408BF10F8014B1D1108BF10F8015BA0
:1001E000641E05D010F8016B641E01F8016BF9D193
:1001F00013F0080F1EBF10F8014BAD1C0C1B09D1EA
:100200006D1E58BF01F801CBFAD505E014F8016B5B
:1002100001F8016B6D1EF9D59142D6D370470000ED
:100220000023002400250026103A28BF78C1FBD8FF
:10023000520728BF30C148BF0B6070476E2909F0D4
:10024000C781702909F01C8266290BF01683652985
:100250000BF0138367290BF010836129AFF3008043
:1002600003681B0A28BF41F08001692909F07481E5
:10027000642909F07181752909F06E816F290AF0EE
:100280005180782909F0E881E92909F0E987E42912
:1002900009F0E687F52909F0E387EF290AF04E8097
:1002A000F82909F0E7810368DB0928BF41F08001E4
:1002B000632909F06A87732909F06F87E3290AF037
:1002C0002781F3290AF02C81002070471FB50BF01D
:1002D000CFFA0AF081F80400002000210AF09EFF06
:1002E000401C6060002000210AF082FFE0601FBD1A
:1002F00010B510BD0AF066FB1146FFF7E7FF01F0ED
:10030000E3FF0AF08DFB03B4FFF7F2FF03BC0AF032
:100310008DFB00000F481049026800608A4203D03C
:100320000E4880470E4800470E48D0F800D040687D
:100330000047FEE7FEE7FEE7FEE7FEE7FEE7FEE733
:10034000FEE7FEE7FEE7000007480849084A094BB8
:1003500070470000F01F0020EFBEADDEC71200089E
:10036000890100080000FF1F206B00202071002081
:10037000206D0020206D00200020FC49096841F01C
:100380000101FA4A11604FF40031F94A91611146B6
:10039000096841F0040111601146096821F0080163
:1003A00011601146896861F00C019160042191612E
:1003B0001146096841F0100111601146096821F0E9
:1003C000200111601146896861F03001916091004F
:1003D00091611146096841F04001116011460968B8
:1003E00021F0800111601146896861F0C0019160BF
:1003F0001146096821F4406111601146C96821F471
:100400004061D16011460969C1F3401040219161FA
:100410001146096841F4805111601146096821F4C0
:10042000005111601146896861F440519160CF49D3
:10043000096841F00201CD4A11604FF48031CD4A84
:100440001160CC491839096841F00101C94A183ACC
:1004500011601146096821F002011160C549103987
:10046000096861F00301C34A103A11604FF400318A
:10047000C04A1160BF491839096841F00401BD4AFA
:10048000183A11601146096821F008011160B94954
:100490001039096861F00C01B64A103A1160102158
:1004A000B44A1160B3491839096841F48071B14AFE
:1004B000183A11601146096821F400711160AD49C4
:1004C0001039096861F44071AA4A103A1160A749CD
:1004D000096841F00401A54A11600121A64A116092
:1004E000A5491839096841F00101A34A183A116079
:1004F0001146096821F0020111609F49103909680D
:1005000061F003019C4A103A116002219A4A11607D
:1005100099491839096841F00401974A183A11605D
:100520001146096821F008011160934910390968E2
:1005300061F00C01904A103A116004218E4A11605A
:100540008D491839096841F010018B4A183A116039
:100550001146096821F020011160874910390968A6
:1005600061F03001844A103A11604FF48011824AE0
:10057000116081491839096841F480717E4A183A3E
:1005800011601146096821F4007111607A4910392F
:10059000096861F44071784A103A11604021764A46
:1005A000116075491839096841F48051724A183A46
:1005B00011601146096821F4005111606E4910392B
:1005C000096861F440516C4A103A11604FF40041DF
:1005D000694A116068491839096841F08041664AE2
:1005E000183A11601146096821F000411160624912
:1005F0001039096861F040415F4A103A11605D4965
:100600001839096821F440615A4A183A1160594969
:100610000C39096821F44061564A0C3A1160554979
:100620001839096821F44041524A183A1160514979
:100630000C39096821F440414E4A0C3A11604D4989
:100640001839096821F040714A4A183A116049493D
:100650000C39096841F08071464A0C3A1160114624
:10066000096821F00071116043491839096821F0C7
:10067000C001414A183A11603F490C39096821F01C
:10068000C0013D4A0C3A11603B491839096821F014
:100690004061394A183A116037490C39096821F02C
:1006A0004061354A0C3A116033491839096821F024
:1006B0004051314A183A11602F490C39096821F02C
:1006C00080512D4A0C3A11601146096841F00051E1
:1006D0001160704708B1402101E04FF48001244AC5
:1006E0009161704708B1022101E04FF40031204AC6
:1006F000916170471F4808380068012121EA5010B5
:10070000704701211C4A11601B491839086820F004
:10071000030040F0010020F0020008607047154817
:100720001838006820F440401249183908608020C9
:1007300011490860BFF35F8F0E4808380068C0F3A6
:10074000C01070474FF480310B4A116008B180210E
:1007500001E04FF40001074A1160064918390968A1
:1007600041F48041034A183A116070473038024022
:10077000000002401804024018080240284800689F
:1007800020F0C00026490860022025491831086081
:10079000BFF35F8F224810300068C0F3C00070477D
:1007A0004FF400311E4A1832116008B1082101E0EF
:1007B0004FF400211A4A183211601949096841F0B2
:1007C0004001174A1160704708B1082101E04FF459
:1007D0000021144A9161704710B101280ED106E042
:1007E0004FF48031104A1160022111600DE04FF486
:1007F00000310D4A11600121116006E04FF4803193
:10080000094A11604900116000BF00BF704708B17C
:10081000042101E04FF48021014A18321160704731
:1008200000080240000002401804024084480068AA
:1008300040F480208249086081481038006881496E
:1008400008437F49103908607F48006820F4801011
:100850007D4908600846006840F400100860081DE3
:10086000006820F48060091D086077480C3000683B
:1008700020F4401074490C310860081F006820F40F
:100880004010091F08607048406A20F4706040F40E
:10089000E0616D484162006820F480006A490860A8
:1008A0000846006840F40000086067480C300068A3
:1008B00020F4400064490C3108606348406A20F429
:1008C000704040F4E0416048416240F26D105F4981
:1008D000088000205D4908310880091D08805B48B8
:1008E000001D008840F400505849091D08805748F1
:1008F0000C30008840F0C00054490C310880544846
:10090000806D20F001005249886500E000BF50482A
:10091000806D10F0010FF9D14D48806D20F06060BE
:100920004B4988650846806D40F000608865084640
:10093000806D40F4886088654448001F0866002088
:10094000C8650846806A20F00100886200E000BFA8
:100950003F48806A10F0010FF9D13D48806A20F0CD
:1009600060603B4988620846806A40F000608862A7
:100970000846806A40F4A06088623448001F08631B
:10098000344848630815C86230480838008820F0A9
:1009900040002E49083908802C48001D008840F08E
:1009A0000C002A49091D08802948806A40F001008E
:1009B0002749886270472649C96AC1F58061264A7D
:1009C0001268914202D14FF6FF700FE022490A6887
:1009D0000968491C204B19601E49885C1946096842
:1009E000B1F5806F02D100211A4611607047184A94
:1009F000926D22F00102164B9A6500E000BF144A86
:100A0000926D12F0010FF9D1114A5066D1650F4A6B
:100A1000083A128822F040020C4B083B1A804FF033
:100A200000620B4B9A601A46926D42F001029A6581
:100A3000704706480838008800F040007047000002
:100A400040380240020020000004024008480040F4
:100A5000006002409C02002000000020FE48006868
:100A600040F40030FC490860A720FC49088040F2AF
:100A7000E730091D08604010F8490C310860F7485C
:100A80000838008840F00100F44908390880F3482C
:100A90001038008840F06000F04910390880081FC5
:100AA000008840F00100091F0880EC4828380088C1
:100AB00040F00100E94928390880E748006840F41F
:100AC0008030E54908602020E54908810846008912
:100AD00040F007000881002008854FF6FF70C862CB
:100AE0000846008840F001000880DB4814380068A0
:100AF00040F00400D849143908604FF00070D9491B
:100B00000860D8481838006820F48020D549183982
:100B100008600846006840F400200860081D00686E
:100B200020F40070091D0860CE480C38006820F4DD
:100B30004020CC490C390860081F006860F4402050
:100B4000091F0860C7481838406A20F0F00040F0DC
:100B50003001C44818384162BF48006840F00200C4
:100B6000BD4908600020C0490880091F086042F2A2
:100B70007440BD49091D086041F23920BA49183155
:100B80000860B9480C38008840F4E040B6490C3998
:100B90000880081D008840F48050091D0880B24874
:100BA0001438008840F00100AF4914390880AE487D
:100BB0002838008840F00100AB4928390880AA484D
:100BC0001C30008840F40040A7491C310880704761
:100BD000A348406A80B270470246501A80B27047FC
:100BE0009D48001F006840F010009B49091F0860E5
:100BF00053209E4908854FF6FF704862C862084638
:100C0000008840F0080008800846008840F0010095
:100C100008807047414295484162018841F00101D6
:100C200001800188C907FCD170478B48001F00680C
:100C300040F008008849091F086087482438006888
:100C400040F0080084492439086000E000BF824871
:100C50002438006810F0080FF8D07F482438006866
:100C600020F008007C492439086000208049088071
:100C7000091F086078481438006840F00100764980
:100C8000143908607B48006820F001007949086049
:100C90000846006840F0020008600846006A20F03C
:100CA0000F00801C08624FF0FF307149091D086079
:100CB00057206F49203908806D481038008840F06F
:100CC00001006B4910390880081F008840F00100BE
:100CD000091F088066482838008840F001006449F0
:100CE000283908805C481438006840F002005A49EE
:100CF000143908606048006820F480505E4908603C
:100D00000846006840F4005008605B4820300068E6
:100D100020F0706040F000705749203108600846AC
:100D2000006820F0704040F0005008604A48001F02
:100D3000006840F004004849091F086000204F493E
:100D40000880091F086041F267004C49091D0860CE
:100D500040104A490C31086008460068091D0860C7
:100D600047F2700045491039088044480838008827
:100D700040F0010041490839088040481438008893
:100D800040F001003D4914390880704730B50346F2
:100D9000FFF71EFF044600E000BFFFF719FF0546FE
:100DA0002146FFF719FF9842F6DB30BD0246344872
:100DB00050434FF47A73B0FBF3F1B1F1807F01D36C
:100DC000012070474FF0E020006940F001004FF033
:100DD000E0231861184641610020F2E74FF0E0205F
:100DE000006900F4803070470CB558B9254909688E
:100DF0000191244928390968234A1160214924397D
:100E0000096800911449091F096841F08051124A8C
:100E1000121F11601D49096841F480711B4A11605D
:100E20000D492C31096841F480310B4A2C32116094
:100E30001146096821F4803111601146096841F4B6
:100E4000407111601146096841F400411160CA21E6
:100E50000C4A121F11601BE0443802402844014034
:100E600000400140180802402804014000100040E2
:100E7000280C004000000240000402402808004006
:100E8000406F40012828004004000020007000400E
:100E900053211160B049096841F08001AE4A1160E8
:100EA00000E000BFAC49096811F0400FF9D0AA4931
:100EB000091D09686FF30E0142F20F721144A64A30
:100EC000121D11601146096821F4FE0141F4C601AA
:100ED0001160A2490968A04A0C3A1160A049121D8C
:100EE00011609D49096821F080019B4A116000E072
:100EF00000BF9949096811F0800FF9D1FF21964A86
:100F0000183211609449096821F02001924A116059
:100F10000CBD9449096841F08051924A1160924990
:100F2000096841F48071904A11608E493031096836
:100F300041F480318B4A303211601146096821F446
:100F4000803111601146096840F205121143854A4B
:100F5000303211601146096841F40041116028B136
:100F60008249098841F00101804A1180CA217A4AE8
:100F700018321160532111607749096841F08001EE
:100F8000754A116000E000BF7349096811F0400F15
:100F9000F9D07149091D09686FF30E0142F20F7211
:100FA00011446D4A121D11601146096821F4FE01B9
:100FB00041F48031116069490968674A0C3A11604F
:100FC0006749121D11606449096821F08001624A75
:100FD000116000E000BF6049096811F0800FF9D18D
:100FE000FF215D4A183211605B49096821F0200138
:100FF000594A116070475E490140584A1160704774
:10100000CA21554A183211605321116052490968AA
:1010100041F08001504A116000E000BF4E4909686C
:1010200011F0400FF9D0524901404B4A0C3A11607F
:101030004949096821F08001474A1160FF21464A69
:1010400018321160704730B50246CA20424B18333F
:101050001860532018604048001F006820F480701A
:101060003D4B1B1F1860181D006840F001001B1D40
:10107000186000E000BF3848006810F0010FF9D098
:101080003B48104040F00040334B10331860C1F330
:101090000E0040F07060304B383318602E48006806
:1010A00020F001002C4B18601846006820F4807076
:1010B0001860181F006840F488501B1F1860181D26
:1010C000006820F001001B1D1860FF20224B183320
:1010D00018602848006840F40030264B1860254806
:1010E0000838006840F40030224B083B1860214863
:1010F0000C30006840F400301E4B0C33186029207F
:1011000000F01F040123A34044094FF0E02505EB44
:101110008404C4F8003100BF30BD10B50E4800682B
:1011200020F480700C49086000E000BF0A480068A5
:1011300010F4807FF9D10F480C30006840F4003083
:101140000C490C3108600C4A9069516988470BA022
:1011500001F09EFE10BD00000C280040040000209D
:101160000244130040380240007000400008004074
:101170007F7F3F00083C0140C02700200D0A5254E9
:101180004320416C61726D210D0A00000021002096
:10119000634A126842F48032614B1A6000BF604AB1
:1011A000126802F40030491C10B9B1F5705FF6D135
:1011B0005B4A1268C2F3404000287CD0584A403253
:1011C000126842F08052564B40331A60554A1268FA
:1011D00042F48042534B1A6040F20562524B1A604F
:1011E0004F4A083212684E4B08331A601A4612688A
:1011F00042F400421A601A46126842F4A0521A6081
:101200001A46126822F4F81242F440221A601A4672
:10121000126822F07C521A601A46126842F0C062CC
:101220001A601A46126842F060521A601A46126832
:1012300022F4C0021A601A46126842F480021A6050
:101240001A46126822F040421A601A46126842F0AA
:1012500080421A60354A1B1F1A601A1F126842F03A
:1012600080721B1F1A6000E000BF2D4A126812F046
:10127000007FF9D02A4A0832126822F00302284B74
:1012800008331A601A46126842F002021A6000E03F
:1012900000BF234A0832126802F00C02082AF7D174
:1012A000234A1F4B84331A601D4A126842F0806241
:1012B0001B4B1A6001E005E000BF194A126812F0EA
:1012C000006FF9D0704710B51A48006840F47000FC
:1012D000184908601248006840F001001049086091
:1012E00000200F49083108600D4800681249084085
:1012F0000B4908601148091D0860081F006820F4A8
:101300008020091F0860002005490C310860FFF7A4
:101310003DFF4FF0006007498039086010BD0000B4
:101320000038024000700040003C02400C5440076E
:101330000040005088ED00E0FFFFF6FE1030002472
:1013400004462146FEA001F0A3FD01E001F01AFED3
:10135000FCE70FB47FB509A80390BDF8200000900A
:1013600000200190FCA00290BDF82000812818D137
:10137000039810C80390039820C8039000200090A1
:10138000F648806BA0420CD0B4F5004F07D0812006
:101390000090019402952946F1A001F079FDEF48F3
:1013A000846300200390ED48406D02280ED1F24A7C
:1013B0006946002000F00CF90646012E06D1EE48E1
:1013C00003F0A3FA0021EC4802F0FBFB7FBC5DF8C0
:1013D00014FB10B568220021E84802F0DCFE044648
:1013E000012C05D0E6A248F2D0418120FFF7B1FFE1
:1013F000012368220021E14802F08AFE04462CB154
:10140000E1A248F2D0418120FFF7A3FF10BD10B543
:1014100004221102DF4802F0BEFE0446012C08D06F
:10142000D7A248F2D0418120FFF793FFDAA001F064
:101430002FFD012304221102D64802F069FE044662
:1014400044B1D1A248F2D0418120FFF782FFD9A058
:1014500001F01EFD10BD70B50024C048C068002812
:1014600052D044F0005424F0804444F00104BB48BE
:1014700090F83C0010F0010F08D1B84890F83C00FB
:10148000C0F3400010B944F0010443E0B34890F8C1
:101490003C0010F0010F28D1B04890F83C00C0F398
:1014A000400010B3FFF794FB0546C9480188284661
:1014B000FFF792FBB0F5FA7F0BDDFFF789FBC4491C
:1014C0000880C448006808B9012000E00020C14934
:1014D0000860C0480068012802D144F0100401E00F
:1014E00024F0100444F0200414E09C4890F83C00E0
:1014F00010F0010F0ED0994890F83C00C0F3400066
:1015000040B944F0100405E024F0005444F0804455
:1015100024F01004B048007800F07000102804D0C7
:10152000202807D040280FD109E044F4805424F447
:10153000C0440AE044F4005424F4A04405E044F418
:10154000804424F4405400E000BF00BFA248006B78
:10155000012819D1A048806B012808D1FFF7DFF8D6
:1015600010B144F4801411E024F480140EE09A4881
:10157000806B02280AD1FFF7D2F810B124F480144E
:1015800004E044F4801401E024F480149248406B99
:1015900001281BD19048C06B012808D1FFF7EEF855
:1015A00010B144F4001411E024F400140EE08A4851
:1015B000C06B022808D1FFF7E1F810B124F4001441
:1015C00004E044F4001401E024F40014204670BD4B
:1015D0002DE9F74F86B083469146BBF1000F08D046
:1015E000CDF814B0BBF8000080B204900BF10606F1
:1015F00008E0079830B10020059000260798008881
:1016000080B204904D46AC1D0020E8700120287186
:101610005020687100200390C9F800010498B0F5CB
:10162000FA6F7DD029DC40F21322A0EB0201904238
:1016300077D00EDC142875D006DC052844D011289C
:1016400071D0122870D10BE115286ED01628F9D16F
:10165000A5E240F24D42881A914267D008DC102979
:1016600065D0A1F580613D3962D00829EAD1F2E365
:1016700001285ED00228E5D138E140F2DD72811AFE
:10168000904257D014DC40F2DA72A0EB0201904293
:1016900051D008DCA0F5E060D1384DD001284CD005
:1016A0000228CFD1F6E3012948D00229CAD1F2E3BA
:1016B000A1F11900062837D2DFE810F0DF04110588
:1016C000100543055B055A05062028805420A870A4
:1016D000287940F08000287154224049204608F0C3
:1016E000F3F92648006820601C488089A4F84C0063
:1016F0001A48806C012801D1022000E00120A4F8E2
:101700004E0037A0007884F8420035A0417843208D
:10171000015533A0C1784420015531A0017965E01D
:101720006EE3F6E3E6E092E0DDE039E2C1E082E07C
:10173000F0E399E0EFE37BE3EEE3EEE3E0E30000C8
:101740000D0A457869742077697468206572726F34
:10175000723A20257300000000000000C02700201E
:101760000D0A415054206E6F746966696361746933
:101770006F6E3A20257300003C130020F8260020ED
:1017800045455772697465004545566572696679C5
:1017900000000000400200200D0A454550524F4D08
:1017A000205772697465204661696C7572650D0A0F
:1017B000000000000D0A454550524F4D20566572FD
:1017C000696679204661696C7572650D0A000000D2
:1017D00008000020140000206027002044BD0008FD
:1017E00031303A32363A313100000000452001559F
:1017F000FBA00079202801D1302001E0F8A0007979
:1018000046210855F6A0417947200155F4A00178FA
:1018100048200155F2A0417849200155F0A0817877
:101820004A20015500214B20015501200390022040
:10183000EE494865FBE2EE48006A10B14020EB49F2
:101840000863EB4AD16C106A04F030F8F2E701202B
:10185000E649886500204863FA20FFF797FAE9E730
:101860000020E2498865E5E740F2616028800A20AF
:10187000A8700020E870287940F0800028710120CD
:101880002080DB4800896080DA484088A080FFF72C
:10189000E2FDC4F8060001200390D44890F85800F7
:1018A00010F0010F04D0D148406B322800DDC1E7B1
:1018B00000BF40F2616028800A20A8700020E87014
:1018C000287940F08000287101202080C8480089D4
:1018D0006080C8484088A080FFF7BDFDC4F80600BE
:1018E00001200390A6E700200390A3E70020BF4952
:1018F00048639FE73068BD4948660846406E0C283B
:1019000070D009DC0B286ED2DFE800F06D19323F91
:101910004E606D6D6D7E8700142870D006DC0D283A
:101920006ED00E286DD012285DD1C8E0632869D032
:10193000B0F5C87F67D0B0F5167FF5D11EE17068AD
:10194000AD49086008460168ACA001F0A1FAAA48B8
:10195000A84AD2E900319268C0E90131C26049F673
:101960005A20A5494866FFF734FD0020039014E192
:10197000A14800689D49886600200867C8669E489F
:101980000168A6A001F084FA07E1706897494860F1
:10199000084680889749888008468188A6A001F07B
:1019A00077FA00200390F8E0B088924948803089A7
:1019B000088008464188ABA001F06AFA8D4801888A
:1019C000B2A001F065FA00200390E6E08948408863
:1019D0008649886687480088C86600200867854869
:1019E000418801E02AE0D5E0B3A001F051FA814836
:1019F0000188BAA001F04CFA00200390CDE07EE00F
:101A00002FE03FE080E093E0BE48006877498866B9
:101A100000200867C8660390BFE0B08880B2B9496B
:101A20000860086805F065FA7149086AB6490968EE
:101A3000884700206D49C8640390AEE0B08800B2CA
:101A40006C49C8800846B0F90610B0A001F020FA31
:101A50006849B1F90600002103F0C9FD0020039098
:101A60009BE06448B0F9060060498866002008677A
:101A7000C8666048B0F90610AFA001F009FA00206E
:101A800003908AE07068A0F5E061D63916D145F67A
:101A9000A5205849886058480B46D3E900219B6827
:101AA000C0E90213426049F65A2053494866FFF7DD
:101AB00090FCABA001F0ECF9002003906DE07068A1
:101AC000A0F5E061D63919D145F6A52049498860CD
:101AD00049480B460ECB001D0EC049F65A20464918
:101AE0004866FFF776FC4349B1F90600012103F08F
:101AF0007EFDA4A001F0CCF9002003904DE0FFF79B
:101B000086FC0020039048E005F080FA5422384912
:101B10003948103008F01DF849F65A203649486611
:101B2000FFF757FCA2A001F0B3F90020039034E0C6
:101B3000A7A001F0ADF96420FFF728F972B6AB4811
:101B4000006820F48000A94908600846006820F475
:101B500000100860A648A749086000BFBFF34F8F78
:101B6000A548006800F4E060A4490843001DA249AC
:101B70000860BFF34F8F00BF00BFFEE770681C49CD
:101B800008620846006A632801DD632008620020BD
:101B9000039002E00020039000BF00BF83E300BF7A
:101BA000162028802820A870287940F0800028710D
:101BB000002704E0002004EB870108607F1C0A2F47
:101BC000F8DB0A48406E20600848806E6060074875
:101BD000C06EA0600548006FE0600120039062E3E2
:101BE000536570203235203230313700C027002055
:101BF00060270020B4270020F82600200D0A536536
:101C00007269616C206E756D6265722073657420F7
:101C1000746F3A202575200D0A0000000D0A5365E7
:101C20007269616C206E756D6265722069733A200D
:101C30002575200D0A0000000D0A43616C6962726F
:101C40006174696F6E2076616C756520284441432C
:101C5000205A45524F292073657420746F3A20250D
:101C6000640D00000D0A43616C6962726174696FF2
:101C70006E2076616C756520285343414C452920C0
:101C800073657420746F3A2025640D000D0A43615A
:101C90006C6962726174696F6E2076616C75652023
:101CA000284F4646534554292073657420746F3A73
:101CB0002025640D0A0000000D0A43616C69627200
:101CC0006174696F6E2076616C756520285343419D
:101CD0004C45292069733A2025640D000D0A4361A3
:101CE0006C6962726174696F6E2076616C756520D3
:101CF000284F4646534554292069733A2025640DE0
:101D00000A000000400200201C0200200D0A43616E
:101D10006C6962726174696F6E2076616C756520A2
:101D2000285452494D292073657420746F3A202538
:101D300064200D0A000000000D0A43616C696272A4
:101D40006174696F6E2076616C7565202854524904
:101D50004D292069733A202564200D0A00000000F7
:101D60000D0A454550524F4D2063616C69627261A6
:101D700074696F6E2064617461207361766564219B
:101D8000200D0A000D0A454550524F4D2063616CED
:101D90006962726174696F6E20646174612073613D
:101DA000766564205452494D21200D0A0000000040
:101DB0000D0A556E69742073657420746F20646514
:101DC0006661756C742073746174652E0D0A000071
:101DD0000D0A456E746572696E6720626F6F746C70
:101DE0006F616465722E2E2E0D0A0000303802409D
:101DF000EFBEADDEF01F00200CED00E00000FA05A4
:101E00007788FE48FE4BD3E900219B68C0E90213A6
:101E100042605422FB49103007F09BFE49F65A20DD
:101E2000F6494866FFF7D5FAF7A001F031F83AE233
:101E300070880290B6F804A0D6F80600F149486010
:101E40000A46D16C106A03F031FD0298012803D0D4
:101E5000022821D10FE0A9E0EA48006840F0020022
:101E6000E84908600846006820F004000860012086
:101E700003F0CEFA11E0E348006840F00400E149C5
:101E800008600846006820F002000860022003F0A5
:101E9000BFFA02E0C4E032E000BF00BFBAF1010FB8
:101EA00006D0BAF1020F0FD0BAF1030F24D117E018
:101EB000D448006840F01000D24908600846006825
:101EC00020F06000086018E0CE48006840F0200074
:101ED000CC4908600846006820F0500008600CE01B
:101EE000C848006840F04000C649086008460068DD
:101EF00020F03000086000E000BF00BFD3E100BF69
:101F0000C048007800F00600022807D004280BD152
:101F100007E05FE139E099E061E082E001200290B2
:101F200003E00220029000E000BF00BFB548007847
:101F300000F07000102804D0202805D0402809D1D6
:101F400005E04FF0010A06E04FF0020A03E04FF00F
:101F5000030A00E000BF00BF40F2DC7028800E20C2
:101F6000A870287940F08000287101202080029814
:101F70006080A4F804A0A3484068C4F806000020CC
:101F80006081A081012003908DE140F251602880A2
:101F90000420A870287940F080002871012020805A
:101FA0009E4880896080012003907CE147F6FF70A5
:101FB0009A4948600846C06B20F00200801CC86344
:101FC0000846C06B20F00100C863002008640A20A6
:101FD000C8618C4AD16C106A03F068FC63E1B6F802
:101FE0000080B8F11A0F05D2B8F1000F02D04FF0FF
:101FF0000A0805E0642008FB00F0FF21B0FBF1F8BF
:102000000A20B8FBF0F000EB80004FEA40087D4862
:10201000C0F820800246D16C106A03F047FC42E110
:1020200000BF7848006AC0EB0020632190FBF1F804
:1020300040F2D37028800220A870287940F08000F8
:102040002871A4F80080012003902CE140F2DE709A
:1020500028800620A8700020E870287940F08000D1
:102060002871012020806748008900B260806448A0
:102070004088A0800120039015E17088632803DD6B
:1020800063206049086202E070885E490862B08897
:1020900040B9F08830B941F270705A498864022022
:1020A000C8640EE0F0885749C864B08818B96FF06A
:1020B0000040886405E0B0884FF4167148435149E8
:1020C00088645048006A642802DD64204D49086233
:1020D0004C4AD16C106A03F0E9FBE4E000BF4948C8
:1020E000D0F820804FF4FF6028801020A870287955
:1020F00040F08000287101202080A4F8028041482F
:10210000806C6FF00041884202D10020A08006E080
:102110003C48806C4FF4167190FBF1F0A080394878
:10212000B0F84C00E080002706E0002104F1080030
:1021300000EB470001807F1C042FF6DB0120039099
:10214000B1E070882F490863B0888863F1882D4812
:1021500041633189C163D6F80A002A498862D6F8FA
:102160000E00C862708A086401202C4948649AE015
:1021700000BF40F2FB7028802020A870287940F032
:1021800080002871012020801E48008E60801D483C
:10219000008FA0801B48808EE0801A48808F2081AD
:1021A0001848806AC4F80A001648C06AC4F80E00CD
:1021B0001448B0F840006082002706E0002104F1D6
:1021C000140000EB470001807F1C082FF6DB012084
:1021D000039068E01248807801900A48806B0128DB
:1021E00024D10848006B0A2820D1019810F0010F73
:1021F00018D00120FEF7A6FA2BE00000F8260020F8
:10220000B4270020602700200D0A53617665642002
:102210004545506172616D730D0A0000C0270020B2
:10222000440000200020FEF78DFA12E0FD48806B8C
:1022300002280ED1FB48006B0A280AD1019810F041
:10224000010F03D00020FEF77DFA02E00120FEF727
:1022500079FAF448C06B01280FD1F248406B0A2884
:102260000BD1019810F0020F03D00120FEF798FA6D
:1022700016E00020FEF794FA12E0EA48C06B02284C
:102280000ED1E848406B0A280AD1019810F0020FDD
:1022900003D00020FEF784FA02E00120FEF780FA66
:1022A0000020039000BF00BF039848B1287910F0C8
:1022B000800F02D0A878801D00E00620C9F8000138
:1022C000039809B0BDE8F08F08B509F0D1FAFEF720
:1022D00053F88046B8F1010F01D1012000E0002041
:1022E000D1498864FEF7BAFB6420FEF75FFDFEF774
:1022F00077FCFEF79AFC0020FEF77DFE0120FEF73A
:1023000073FD1020C949086000F082FF02F07CF9DB
:10231000FEF78CFA00F068FE01F0D6FD01F096FFA2
:1023200002F0A8FF02F0CAFC62B6C820FEF72EFD3C
:102330000120FEF76CFA04F0FCFDC820FEF726FD34
:10234000BBA000F0A5FDC4A000F0A2FDB8A000F065
:102350009FFDCB48D0F80E10CAA000F099FD9FED6C
:10236000CF0B53EC102BCFA000F092FDD5480068A6
:1023700010F4005F01D0D4A000E0D6A00146D8A0A0
:1023800000F086FDA848806C012801D1D7A000E0AC
:10239000D7A00146D8A000F07BFD00230422110243
:1023A000DB4801F0B5FEDA480068002807DBD848B2
:1023B0000068632803DCD6480068D649086001201D
:1023C00004F026FFB8F1010F01D1022100E0012144
:1023D000084605F066F906F0B9FF9348806C0128BD
:1023E0000FD1CD4802F06DFBCC4804F089FDC949FE
:1023F000086804F07EFDC7480168C9A000F048FDE8
:1024000008E08948806C28B9002002F05AFBC948CE
:1024100004F076FD002007F010F806F0B3FEC64881
:1024200005F0E4FC4FF4207006F0CEFF05F0CCFA86
:102430003220C24909688847002368221946C048EB
:1024400001F066FEBE480068BE4990FBF1F03B28F3
:1024500002D0BD48BA4908603220FEF797FCB84860
:10246000406EA0F51A415A3936D1B848B44AD2E97B
:102470000113D268C0E901320160806820B904F01C
:10248000B8FDB3A000F004FDB0488068A0F5B441E9
:10249000A53907D1AD49AA4B1B1D0DCB0DC1BB48BA
:1024A00000F0F6FC5422A64910315E4807F051FBBB
:1024B0005C48806C28B941F270705A4988640220E7
:1024C000C864B348C06820F080008030B049C8605C
:1024D000B0A000F0DDFC02E0B8A000F0D9FC02F0F2
:1024E000A9FF5149C86002F049FFFEF70AF94D48BB
:1024F000007800F00600022802D0042808D103E08A
:10250000012002F085FF04E0022002F081FF00E0DC
:1025100000BF00BFB1A000F0BBFC44480838006811
:10252000012131EA501005D103203F49C86206F06D
:1025300029FE5FE0B1A006F01BFE5148D0F80E2046
:10254000B2A1B54806F0A0FF0221002005F0CEFCA4
:10255000B14806F00DFEFEF73BFB814601E004F0BA
:102560007FFDFEF735FB82464946FEF735FBB0F5A9
:10257000FA6FF4DB06F006FE2B48C068E8B12A4883
:10258000C0686F280DD0A5A006F0F2FD2648C068EF
:102590000A21B0FBF1FA5246A4A19F4806F074FF4D
:1025A00012E0A4A006F0E4FDA4A19B4806F06CFF95
:1025B0004FF47A701C49C86006E098A006F0D8FD78
:1025C000A1A1954806F060FF0621002005F08EFCD1
:1025D000914806F0CDFDFEF7FBFA814601E004F0DC
:1025E0003FFDFEF7F5FA82464946FEF7F5FAB0F5EB
:1025F000FA6FF4DB5549B1F90600002102F0F7FF4C
:1026000000209FED940B02F065FFFEF7E1FA93497D
:10261000088002F0B9F947F6FF74034844600148A6
:10262000006A1DE160270020C02700201804024036
:102630000D0A2D2D2D2D2D2D2D2D2D2D2D2D2D2D0D
:102640002D2D2D2D2D2D2D2D2D2D2D2D2D2D2D2DBA
:102650002D2D2D2D000000000D0A7C2020204B5335
:10266000473130312053747261696E20476175675C
:1026700065205265616465722020207C00000000A6
:1026800044BD00080D0A0A4669726D7761726520C3
:102690007265763A092530365800000000000000C7
:1026A000000065400D0A53797374656D20636F7285
:1026B0006520636C6F636B203D20252E3266204DB4
:1026C000487A0000100802406F6E20746865206828
:1026D000756200007374616E64616C6F6E650000FA
:1026E0000D0A4D6F64653A20257300004C43440089
:1026F0004F4C4544000000000D0A446973706C6142
:102700007920747970653A202573090A0000000069
:102710004402002040020020B76E00089D6E0008B1
:102720000D4C434420636F6E74726173743A2025BC
:1027300064090A00716E0008DCD100081C02002048
:10274000F826002040420F00C0448403B427002034
:102750000D0A556E6974206973206E6F7420636171
:102760006C696272617465642E2044656661756C83
:10277000742063616C6962726174696F6E20646158
:102780007461206C6F61646564210D0080B800087D
:10279000342800200D454550524F4D20636F6E7414
:1027A000656E74206C6F6164656420737563636526
:1027B000737366756C6C79210D0000000D454550F2
:1027C000524F4D20636F6E74656E74206E6F74206F
:1027D0006C6F61646564210D000000000D0A507289
:1027E00065737320456E74657220666F7220646530
:1027F000627567206D656E752E00000054686F72FB
:102800006C616273204B534731303100537752650E
:102810007620302530345800C40600205374616798
:10282000652074726176656C3A00000025342E31A3
:1028300075856D0053746167653A000050474D31EE
:1028400030302D53470000004E6F20737461676570
:1028500021000000000000000094D140080000208A
:1028600048B90020F649486205F0A9F80020F5496A
:102870000968884709E0F249086AF2490968884707
:102880000120EF49486205F09FF8FCE2EE4801F0B4
:10289000F5FF0646902E02D1ECA0FEF751FDEA4866
:1028A000D0F80001012816D10121E74801F089F98B
:1028B000ED4A0021E448FEF78BFE0746012F06D1C2
:1028C000E94802F022F80021E74801F07AF90220F5
:1028D000DD49C1F8000102F030F8FEF77FFA002868
:1028E0007ED0E24890F8580010F0010F03D040F27B
:1028F0006160FEF72EFDDD48006B00280EDDDB4831
:1029000090F83010006B401ED84A106311F0040F8D
:1029100002D005F054F801E005F056F802F0BBFFD4
:10292000D2494862084690F83C00C0F340000028B5
:102930005FD00846C16DCE480088801C81420ADD08
:10294000092D08DDC94840682044C8494860C9A02D
:1029500000F09EFA10E0C548C16DC5480088401ED1
:10296000814209DA092D07DDC0484068001BBF49D4
:102970004860C3A000F08CFABC48C16DBC48008818
:10298000801C814206DAB948C16DB9480088801EB2
:10299000814201DC012C15D1092D13DDB348C06B38
:1029A00020F00200B149C8630846C06B20F0010066
:1029B000401CC863B6A000F06BFA47F6FF74002015
:1029C000AA490864092D09DD204604EBD0714C109A
:1029D000A648006C401CA549086400256D1C00E059
:1029E0000EE2A248009543682146026CAAA000F0BE
:1029F0004FFA02F026FF9D49886202F08DFF03F036
:102A0000B3FC04F0C7F88E48806B012878D18C485D
:102A1000006B012874D08A48006B0A2870D088485F
:102A2000006B00286CD08648006B0B38062865D2F6
:102A3000DFE800F003111F2D3B4F8C488068804970
:102A4000896A884203DA0120FDF77CFE02E000205B
:102A5000FDF778FE53E0854880687949896A8842A5
:102A600003DD0120FDF76EFE02E00020FDF76AFEA7
:102A700045E07E4880687249C96A884203DA0120CD
:102A8000FDF760FE02E00020FDF75CFE37E07748CE
:102A900080686B49C96A884203DD0120FDF752FE58
:102AA00002E00020FDF74EFE29E07048806864498E
:102AB000896A884209DD6D4880686149C96A88422F
:102AC00003DA0120FDF73EFE02E00020FDF73AFEAA
:102AD00015E0664880685A49896A884205DB634880
:102AE00080685749C96A884204DD0120FDF72AFE43
:102AF00003E005E00020FDF725FE00E000BF7BE0DD
:102B00004F48806B022877D14D48006B012873D065
:102B10004B48006B0A286FD04948006B78B348488F
:102B2000006B0B38062865D2DFE800F003111F2E7A
:102B30003C504E4880684249896A884203DA002046
:102B4000FDF700FE02E00120FDF7FCFD53E04748E1
:102B500080683B49896A884203DD0020FDF7F2FD69
:102B600002E00120FDF7EEFD45E040488068344971
:102B7000C96A884204DA0020FDF7E4FD03E03BE087
:102B80000120FDF7DFFD36E0384880682C49C96A2E
:102B9000884203DD0020FDF7D5FD02E00120FDF7AE
:102BA000D1FD28E0314880682549896A884209DDDD
:102BB0002E4880682249C96A884203DA0020FDF75E
:102BC000C1FD02E00120FDF7BDFD14E0274880684B
:102BD0001B49896A884205DB244880681849C96A0C
:102BE000884203DD0020FDF7ADFD02E00120FDF786
:102BF000A9FD00E000BF00BF1148C06B01281ED135
:102C00000F48406B01281AD00D48406B0A2816D097
:102C10000B48406B98B10A48406B0B38062873D2BA
:102C2000DFE800F0035A6877859910488068044906
:102C3000896A88424CDA0120FDF7B2FD4BE0A0E042
:102C4000602700201C02002044000020496E7661AD
:102C50006C696420415054206D6573736167652011
:102C6000666F726D61742E003C130020C027002037
:102C7000B42700200D0A426967676572210D0A00BA
:102C80000D0A536D616C6C6572210D0A0000000025
:102C90000D0A4F4B210D0A000D0A537465703A203E
:102CA00025642C20697465726174696F6E3A202501
:102CB000642C204441432076616C75653A2025647C
:102CC00020636F756E7465723A2025640D0A0000EA
:102CD0000020FDF765FD53E06B4880686B49896A09
:102CE000884203DD0120FDF75BFD02E00020FDF7D7
:102CF00057FD45E0644880686449C96A884204DA3F
:102D00000120FDF74DFD03E039E00020FDF748FD0F
:102D100036E05D4880685D49C96A884203DD01206C
:102D2000FDF73EFD02E00020FDF73AFD28E05648A1
:102D300080685649896A884209DD5348806853494A
:102D4000C96A884203DA0120FDF72AFD02E000206B
:102D5000FDF726FD14E04C4880684C49896A88429A
:102D600005DB494880684949C96A884203DD01207A
:102D7000FDF716FD02E00020FDF712FD00E000BFA8
:102D80007BE04248C06B022877D14048406B012865
:102D900073D03E48406B0A286FD03C48406B78B3F4
:102DA0003A48406B0B38062865D2DFE800F0031183
:102DB0001F2E3C50344880683449896A884203DABF
:102DC0000020FDF7EDFC02E00120FDF7E9FC53E0F7
:102DD0002D4880682D49896A884203DD0020FDF76F
:102DE000DFFC02E00120FDF7DBFC45E026488068BF
:102DF0002649C96A884204DA0020FDF7D1FC03E0C5
:102E00003BE00120FDF7CCFC36E01F4880681F49FD
:102E1000C96A884203DD0020FDF7C2FC02E0012000
:102E2000FDF7BEFC28E0184880681849896A884286
:102E300009DD154880681549C96A884203DA00200F
:102E4000FDF7AEFC02E00120FDF7AAFC14E00E48FD
:102E500080680E49896A884205DB0B4880680B4907
:102E6000C96A884203DD0020FDF79AFC02E00120D8
:102E7000FDF796FC00E000BF00BF04F0F1F800F0A1
:102E800081F800F045FE01E5C02700206027002002
:102E90000FB438B505A800904D4909684D4A12682D
:102EA0008818009A049906F0DDFA0446494800683B
:102EB00020444849086000200090204638BC5DF856
:102EC00014FB2DE9F04105460E46002742480068F4
:102ED00008B9424805603DE0082C04D00A2C1DD0FA
:102EE0000D2C20D119E03C480068A8B108213CA075
:102EF000FFF7CEFF20213AA0FFF7CAFF082138A034
:102F0000FFF7C6FF34480068401E33490860334865
:102F10000068401E314908601BE000BF0127002007
:102F20002D49086015E02C480068B04210D22146B7
:102F30002BA0FFF7ADFF294909680C7027480068EE
:102F4000401C2649086024480068401C224908604B
:102F500000BF00BFFDF72FFD0446A0F57F41FF39FC
:102F6000BAD16FB100201D49096808701B4800687C
:102F7000401C1A49086008460068401BBDE8F08103
:102F80000020FBE710B513480068B0B1FDF751FD14
:102F900098B1104801680E480068FDF728FD0C48FC
:102FA00000681049884202D101F5806000E00D48B8
:102FB0000749086000200749086010BD10B500E00F
:102FC00000BFFDF736FD0028FAD0FFF7DBFF10BD8C
:102FD0001C000020200000202400002028000020E9
:102FE00025630000DC06002008B58448006840F036
:102FF0000100824B186081481430006840F4805012
:103000007E4B143318607E48006820F480407C4B6F
:1030100018601846006840F4004018601846406880
:1030200020F0800058601846C06820F44040D86006
:103030001846806860F4404098601846006A20F0A6
:10304000704040F0A04018621846006820F480608C
:1030500018601846006840F4006018601846406820
:1030600020F0200058601846C06820F44060D86006
:10307000202098611846806860F440609860184687
:10308000006A20F4700040F4A00018625B480068F9
:1030900040F00100594B18601020594B98611846B8
:1030A000006840F4807018601846006820F40070D2
:1030B00018601846406820F0100058601846C06834
:1030C00020F44070D8601846806860F440709860C2
:1030D0004C48808820F040004A4B98801846008871
:1030E00020F0400018802A23B3FA83F3C3F12001B3
:1030F000481E382303EAC00242F44170414B188055
:103100001846808840F0020098803C48006840F4EF
:1031100080003A4B18603C48006820F001003A4BB0
:10312000186000E000BF3848006810F0010FF9D1C6
:103130004FF40060344B7C3B18603348006820F04B
:103140006060314B18601846006840F0C06018603D
:103150001846006840F4806018601846006840F027
:103160004000186027480C30274B083318600020B7
:103170001B1F18602348008840F04000214B188036
:1031800018468089009001208840204BB3FBF0F066
:1031900008BD08B1102101E04FF48011184A916177
:1031A0007047194A126822F00102174B1A6000E0BA
:1031B00000BF154A126812F0010FF9D1124A0C3201
:1031C0001060114A121D1160D2140F4B7C3B1A6023
:1031D0000D4A126842F001020B4B1A6070470A4810
:1031E0008438006810F4006F06D00648008910F09B
:1031F000800F01D1012070470020FCE730380240E9
:1032000000000240003001408864024000BD01051A
:103210003948006840F003003749086037480068C3
:1032200020F08040354908600846006840F00040C2
:1032300008600846C06840F08040C8600846C06822
:1032400020F00040C8600846406A20F0704040F01E
:1032500080512A4841622A48006820F040002849ED
:1032600008600846006840F08000086024480C3080
:10327000006840F0400022490C31086008460068B0
:1032800020F0800008601E482030006820F4704064
:1032900040F480501A492031086017481030006807
:1032A00040F001001449103108604FF0FF3009066A
:1032B000C8620846008B40F2011108438907088361
:1032C000022008814007008840F001000880704714
:1032D0004FF08040406A70474FF08041098821F0EC
:1032E00001014FF08042118011464862098841F087
:1032F0000101118070470000303802400000024098
:103300000004024070472DE9F0432DED068B9FB07D
:10331000804600201C901D901E9015271CAAFDA120
:10332000404606F07FFA00240AE0FB4800EB041058
:1033300041681CA806F040FC08B9274602E0641C5E
:10334000152CF2DD00BF152F77D2DFE807F00B2236
:103350002A4149606696A4B4BAD3FDFCFBFAF9F899
:10336000F7F6F50018AAEDA1404606F05BFA1899A9
:1033700009B1012100E000210846FDF7E3F91898A2
:1033800008B1012000E000200146E6A0FFF780FD23
:10339000A3E3FDF7C4F981464946E9A0FFF778FDAC
:1033A0009BE318AADDA1404606F03CFA189909B142
:1033B000012100E000210846FDF7F2F9189808B154
:1033C000012000E000200146E3A0FFF761FD84E357
:1033D000FDF7D4F981464946E6A0FFF759FD7CE3A5
:1033E00018AACEA1404606F01DFA189909B101218C
:1033F00000E000210846FDF775F9189808B1E3A030
:1034000000E0E3A00146E3A0FFF742FD65E301F021
:1034100020FDE7A0FFF73CFD5FE319AAE9A14046C4
:1034200006F000FAE9480078E949086019A806F0B2
:103430002CFBE7490873002406E01CE319A8015D92
:10344000E348001D0155641C19A806F01EFBA042AC
:10345000F4D80020DE4948738873084601F075FEF1
:103460000020DC49086019A806F00FFB81464A4697
:1034700019A9D9A0FFF70CFD2FE318AAA7A1404670
:1034800006F0D0F9D1491898087008460178DBA0F9
:10349000FFF7FEFC21E318AAA0A1404606F0C2F9FE
:1034A0001899C8B2002101F0EAFC1898C1B2D9A05D
:1034B000FFF7EEFC11E301F084FEDDA0FFF7E8FC6E
:1034C0000BE318AA95A1404606F0ACF9189801281C
:1034D00003D10005DB49086002E01020D9490860EB
:1034E000189808B9D8A000E0D9A00146DAA0FFF7E3
:1034F000CFFCF2E216A817AB18AAE0A10090404654
:1035000006F090F91899159861F3154015901799E0
:10351000159861F30E201590DDE9150161F30600A1
:1035200015901598FDF76CFD159800F07F03C0F31A
:103530000622C0F3054108E062E24BE236E227E2F0
:1035400000E2E6E1D2E145E009E0CFA0FFF7A0FC10
:10355000D6A0FFF79DFC0220D5490860BDE216A861
:1035600017AB18AAC5A10090404606F05BF9189960
:10357000159861F3154015901799159861F30E2071
:103580001590DDE9150161F30600159000211598ED
:10359000FDF759FDC7480069042808D10020FDF750
:1035A000FFF8C548C34948610120886107E0002051
:1035B000FDF7C8F8C148BF494861012088611598E6
:1035C00000F07F03C0F30622C0F30541BCA0FFF763
:1035D0005FFC82E218AA51A1404606F023F9C148D7
:1035E0000468C048283800681690BE48243800682F
:1035F000169815901598C0F303401599C1F3015121
:1036000001EB810100EB410017901598C0F30320F6
:103610001599C1F3023101EB810100EB41001690D5
:10362000159800F00F001599C1F3021101EB81010B
:1036300000EB41054FF46161179848431699C1EBBF
:10364000011100EB81002844189908441890A649FC
:10365000189890FBF1F201FB120018904FF4616191
:10366000189890FBF1F017900A21179890FBF1F150
:10367000159861F3155015900A21179890FBF1F2F7
:1036800001FB1201159861F3134015904FF461612D
:10369000189890FBF1F201FB120017903C2117984B
:1036A00090FBF1F01690179890FBF1F201FB1205D8
:1036B0000A21169890FBF1F1159861F30E301590E0
:1036C0000A21169890FBF1F201FB1201159861F3A3
:1036D0000B2015900A2095FBF0F1159861F3061068
:1036E00015900A2095FBF0F100FB1151159861F33C
:1036F0000300159021461598FDF7A5FC159800F0DC
:103700007F03C0F30622C0F305416DA0FFF7C0FBA5
:10371000E3E1000025397300C4B80008252A7325A9
:10372000640000000D0A5472696720492F4F20235E
:10373000312073657420746F2025640D0A00000029
:103740000D0A5472696720492F4F20233120697375
:103750002025640D0A0000000D0A54726967204993
:103760002F4F2023322073657420746F2025640D41
:103770000A0000000D0A5472696720492F4F202368
:10378000322069732025640D0A0000006F6E00006E
:103790006F6666000D0A43414E207465726D696E56
:1037A0006174696F6E2069732025730D0A00000033
:1037B0000D0A43414E20737461727465642E0D0AC4
:1037C00000000000252A7325387300003C0000200B
:1037D0002C0F0020340000200D0A43414E206D7351
:1037E000672073656E743A20222573222C2025648D
:1037F0002062797465732E0D0A0000000D0A4341A2
:103800004E2049442073657420746F2025640D0A8E
:10381000000000000D0A43414E2052782066696C7A
:103820007465722025642061646465642E0D0A004D
:103830000D0A43414E2073746F707065642E0D0A3B
:103840000000000018080240696E707574000000E6
:103850006F757470757400000D0A53796E6368207B
:1038600070696E2069732073657420746F206265BF
:1038700020616E2025730D0A00000000252A7325A3
:1038800058202558202558000D0A525443207469A9
:103890006D652073657420746F20253032583A2589
:1038A0003032583A25303258000000000D0A00002E
:1038B00038000020C0270020A107000845070008A5
:1038C0000D0A52544320616C61726D20736574203F
:1038D000746F20253032583A253032583A2530322C
:1038E00058000000282800408051010018AAAFF2BB
:1038F000D411404605F096FF1898FDF70AFB18987A
:1039000008B1DAA000E0DBA00146DCA0FFF7C0FAB6
:10391000E3E018AAAFF2FC11404605F083FF1898C7
:1039200001F0A6FE40B9DB49189808610846016914
:10393000D9A0FFF7ADFA04E0D6480169DDA0FFF792
:10394000A7FACAE016A817AB18AAAFF2D0010090E8
:10395000404605F067FF1899159861F315401590DA
:103960001799159861F30E201590DDE9150161F3A3
:10397000060015901598FDF73EFB159800F07F03A3
:10398000C0F30622C0F30541D6A0FFF781FAA4E0F8
:10399000DE48006810F0200F02D1DDA0FFF778FAB2
:1039A0004FF48010D9490831086096E018AAAFF2A8
:1039B0009421404605F036FF189801F029FD18982B
:1039C000012801D1DCA000E0DEA00146E0A0FFF765
:1039D0005FFA82E018AAAFF2BC21404605F022FF50
:1039E0006422189901FB02F007F0B5FD41EC190BB8
:1039F0000A20B0EE490AF0EE690A01F06BFD6CE0B6
:103A0000A44890ED000AF8EEC00AD848008800EEFD
:103A1000100AB8EE400A70EEC00A9FEDD51A81EE8A
:103A2000200ADFEDD40A20EE208A18EE100A07F0F3
:103A3000A7FE41EC100BB0EE40AAF0EE60AA53ECEA
:103A40001A2BCDA0FFF724FA18EE100A07F0C3FED8
:103A500000F310063146CDA0FFF71AFA8D48016831
:103A6000D1A0FFF715FAD6488168D6A0FFF710FA63
:103A7000BE494E8031E00020DA490860DAA0FFF745
:103A800007FA002423E0DB4800EB0410806800788C
:103A900040B9D84800EB0410D7A1426801A805F04E
:103AA000F3FC0BE0D34800EB04108368D14800EB33
:103AB0000410D2A1426801A805F0E6FCCD4800EB55
:103AC000041001A9C268CFA0FFF7E2F9641C152C0D
:103AD000D9DBCFA0FFF7DCF900BF00BF1FB0BDEC02
:103AE000068BBDE8F08310B54F21CA48FFF7E9F90E
:103AF000044654B104E000222046641CC5490A541F
:103B00004F2CF8DDC348FFF7FEFBFFF73BFA10BD73
:103B1000FEB5FFF7E8FFFFF7F5FB01F06BFA0500D4
:103B200013D0002404E0281D005D0DF80400641C7F
:103B3000287BA042F7DC0021601C0DF800102A7BD6
:103B40006B46B5A02968FFF7A3F901F072FB0646A2
:103B50004EB1BA48006830B93146B9A0FFF798F9BC
:103B60000120B6490860FEBD00B585B09D480078CB
:103B700010F0020F18D0BA4800680290B8482838F0
:103B800000680490B64824380068039004980190B7
:103B900002980090019800F07F03C0F30622C0F362
:103BA0000541B0A0FFF774F905B000BD10B5B648E7
:103BB000006820F08050B4490860B4A0FFF768F9AD
:103BC00010BD2DE9F04705460C46002628881FFA4F
:103BD00080F9012C05D1B5480068022801D10120E7
:103BE00000E000200643012C09D1B04800680128FC
:103BF00005D1A9F5C060623801D0012000E00020A5
:103C000006432CB9A9484068022801D1012000E0F0
:103C1000002006434CB9A5484068012805D1A9F504
:103C2000C060613801D0012000E000200643012E71
:103C300019D1012C01D19EA100E09FA10846FFF7F8
:103C400027F9287910F0800F01D0A87800E0002033
:103C500000F10608002704E0E95D99A0FFF718F9D4
:103C60007F1C4745F8DBBDE8F08700006D61737489
:103C700065720000736C6176650000000D0A525495
:103C8000432073796E636865642061732061202529
:103C900073000000C02700200D0A53796E6368206E
:103CA0006D6F64652073657420746F2025642E0D1C
:103CB0000A0000000D0A496E76616C69642070612B
:103CC00072616D657465722C2073796E6368206D06
:103CD0006F64652072656D61696E732025642E0DB9
:103CE0000A0000000D0A5254432077696C6C20735F
:103CF0007461727420617420253032583A25303254
:103D0000583A253032580D0A0000000010040240D5
:103D10000D0A55736520706F776572206275747433
:103D20006F6E20746F207475726E206375626520EB
:103D30006F66662E0D0A00006368616E6E656C200A
:103D4000410000006368616E6E656C2042000000F7
:103D50000D0A53656C6563746564206368616E6EFB
:103D6000656C206973202573200D0A00B42700209C
:103D70000000004800409C460D0A66706172616D4B
:103D80003A20252E3366200D0A0000000D0A4D61F1
:103D9000676963206E756D6265722069733A2025CC
:103DA00064200D0A000000000D0A414443207265A2
:103DB0006164696E672069733A202564200D0A00EA
:103DC000602700200D0A506F736974696F6E20724E
:103DD000656164696E672069733A202564200D0A65
:103DE00000000000380000200D0A4D656E753A0A8B
:103DF00000000000C4B8000825733A002573202590
:103E0000733A00000D0A252D313073092573000027
:103E10000D0A3E00DC0E00200D0A43414E20527870
:103E20002066726F6D2025642C20256420627974D1
:103E300065733A20222573220D0A00003400002009
:103E40000D0A43414E206572726F723A207374619D
:103E5000747573203D20307825582E0D0A0000001F
:103E6000282800400D0A53796E63682054696D65F7
:103E7000203D20253032583A253032583A2530320C
:103E8000582E25640000000004ED00E00D0A466590
:103E90006174757265206E6F742079657420696D28
:103EA000706C656D656E7465642100002C000020E7
:103EB0000D0A52783A2000000D0A54783A2000008A
:103EC000253032582000000018B58B48006840F0BB
:103ED00002008949086088481030006840F480403A
:103EE0008549103108608548006820F0804083498A
:103EF00008600846006840F000400860081D00683F
:103F000020F40040091D08607C480C30006820F057
:103F100040407A490C310860081F006860F040405A
:103F2000091F08607548406A20F0704040F0A041C9
:103F300072484162006820F080607049086008465D
:103F4000006840F000600860081D006820F4005020
:103F5000091D086069480C30006820F0406067491E
:103F60000C310860081F006860F04060091F08609D
:103F70006248406A20F4700040F4A0015F4841624A
:103F8000006820F080505D4908600846006840F0F5
:103F90000050086059480C30006840F08050574984
:103FA0000C3108600846006820F000500860534853
:103FB000406A20F0706040F0A061504841624E4875
:103FC000006840F004004C49086088154C490860BE
:103FD0004B481838006840F4803049491839086067
:103FE0000846006820F400300860081D006820F4CE
:103FF0008070091D086042480C38006820F4403089
:104000003F490C390860081F006860F44030091F00
:1040100008603C48008820F040003A490880081FAA
:10402000008820F04000091F088040F61430088006
:104030000846008840F040000880081D008840F0D5
:104040004000091D088024200121002807DA0A0702
:10405000140E2D4A00F00F031B1FD45403E00A076F
:10406000130E2A4A135400BF242000F01F0201211E
:10407000914042094FF0E02303EB8202C2F80011A5
:1040800000BF204808300088009018BD10B14FF4E0
:10409000807101E04FF08071194A1160704708B1DA
:1040A000802101E04FF40001154A1160704701467C
:1040B00000E000BF134A121D128812F0020FF8D060
:1040C000104B0833198000E000BF0E4A121D128801
:1040D00012F0010FF8D00B4A0832128810B2704764
:1040E00010B504460020FFF7D1FF2046FFF7DFFFA1
:1040F0000120FFF7CBFF10BD303802400004024022
:10410000180802400438004018ED00E000E400E028
:104110002DE9F05F81460C4617469A464FF0010B99
:104120004E46E019B0F5006F02D30120BDE8F09FC4
:10413000002000F0B1F9032000F0B6F9C4F3072025
:1041400000F0B2F9E0B200F0AFF94FF0000816E06D
:10415000002000F0A9F90546BAF1000F02D106F8D7
:10416000015B0AE0BBF1000F05D016F8011BA94264
:1041700001D1012000E00020834608F10108B84584
:10418000E6D3012000F088F9BBF1010F01D0012036
:10419000CCE70020CAE72DE9F05F81460D461646C0
:1041A000A819B0F5006F02D30120BDE8F09FC84602
:1041B0002C4643E004F01F07AC4200D0AFB900200A
:1041C00000F06AF9062000F06FF9012000F064F9B0
:1041D000002000F061F9022000F066F9C4F3072026
:1041E00000F062F9E0B200F05FF918F8010B00F09E
:1041F0005BF91F2F03D0A819401EA0421DD14FF01C
:10420000000B012000F048F900BF002000F044F945
:10421000052000F049F9002000F046F9824601200F
:1042200000F03AF958460BF1010BB0F57A7F01D94D
:104230000220BAE71AF0010FE7D1641CA819A042C6
:10424000B8D8012000F028F90120AEE708B5E84809
:10425000006840F00400E64908600846006840F045
:1042600008000860E2481030006840F40040E0496F
:1042700010310860DF48006820F08070DD49086078
:104280000846006840F000700860081D006820F4CF
:104290008050091D0860D7480C30006820F040703D
:1042A000D4490C310860081F006860F04070091F95
:1042B0000860D048406A20F4702040F4C021CD4806
:1042C0004162006820F48010CA490860084600680E
:1042D00040F400100860081D006820F48060091D8B
:1042E0000860C4480C30006820F44010C1490C310B
:1042F0000860081F006860F44010091F0860BD488E
:10430000406A20F4706040F4C061BA4841620068BD
:1043100020F48000B74908600846006840F40000B7
:104320000860B4480C30006840F48000B1490C319A
:1043300008600846006820F400000860AD48406A44
:1043400020F4704040F4C041AA4841620420AA49C8
:104350000860A9481838006840F01000A6491839CC
:1043600008600846006820F020000860081D00680A
:1043700020F00400091D08609F480C38006820F0F8
:1043800030009D490C390860081F006860F030005B
:10439000091F086040209749183108609548006857
:1043A00040F48050934908600846006820F40050AB
:1043B0000860081D006820F04000091D08608D4855
:1043C0000C30006820F440508A490C310860081F06
:1043D000006860F44050091F0860042087490860A5
:1043E00086481838006840F0100084491839086081
:1043F0000846006820F020000860081D006820F0D2
:104400000400091D08607D480C38006820F0300069
:104410007A490C390860081F006860F03000091FF5
:1044200008604FF08070764988610846006840F463
:10443000003008600846006820F4803008600846B4
:10444000406820F4807048600846C06820F440301E
:10445000C8600846806860F4403088600846406A5A
:1044600020F00F0048626748008820F0400065494E
:104470000880081F008820F04000091F08804FF4C2
:10448000497008800846008840F0400008805D4878
:1044900008300088009008BD08B1042101E04FF405
:1044A0008021554A11607047014600E000BF554A1F
:1044B000121D128812F0020FF8D0524A08321180F1
:1044C00000E000BF4F4A121D128812F0010FF8D011
:1044D0004C4A08321288D0B2704708B1402101E03E
:1044E0004FF48001434A18321160704708B104212B
:1044F00001E04FF48021414A1160704708B54148FE
:10450000008820F040003F490880081F008820F004
:104510004000091F08800846008820F0020008803B
:104520000846008820F0010008800846008820F432
:10453000006008804FF4497008800846008840F009
:10454000400008802F4808300088009008BD08B55A
:104550002C48008820F040002A490880081F008865
:1045600020F04000091F08800846008840F4497088
:1045700008800846008840F40060088008460088EB
:1045800040F0020008800846008840F040000880A3
:104590001C4808300088009008BD08B519480088FC
:1045A00020F0400017490880081F008820F04000D4
:1045B000091F08800846008820F00200088008468D
:1045C000008820F0010008800846008840F4497007
:1045D00008800846008840F400600880084600888B
:1045E00040F040000880074808300088009008BD6F
:1045F0003038024000080240180C02401804024003
:1046000000000240043C00409548006840F0100063
:1046100093490860924814380068924908439049C9
:10462000143908609048006820F480208E490860A2
:104630000846006840F4002008600846406820F4FE
:10464000007048600846C06820F44020C8600846F2
:10465000806820F4402088600846406A20F0F0001E
:1046600040F0700180484162006820F480107E496B
:1046700008600846006840F4001008600846C068FA
:1046800020F40010C8600846C06840F48010C8607C
:104690000846406A20F4706040F4E061724841626C
:1046A000C002714988610846006840F08070086067
:1046B0000846006820F0007008600846806840F0F6
:1046C000407088600846006820F440000860084692
:1046D000C06820F40000C8600846C06840F480004C
:1046E000C86040F2D9206149088100200882888290
:1046F0000846808940F4005088810846808A40F04E
:10470000C00088825A48006820F0010058490860BB
:1047100000E000BF5648006810F0010FF9D154487E
:10472000006820F06060524908600846006840F068
:10473000006008600846006840F4886008604B48E4
:10474000001D4B49083108600020091F08604848D7
:104750007838006820F0010045497839086000E0A9
:1047600000BF43487838006810F0010FF8D1404886
:104770007838006820F060603D4978390860084664
:10478000006840F0006008600846006840F4A060DF
:1047900008603648001D3649703908603548091DE3
:1047A000086008153249743908603048008820F0E4
:1047B00040002E4908800846808940F00C0088811E
:1047C0002B487838006840F00100294978390860A2
:1047D0007047274974390968C1F58061264A126813
:1047E000914202D14FF6FF700FE023490A68096831
:1047F000491C214B19601F49885C19460968B1F5AD
:10480000806F02D100211A4611607047184A126861
:1048100022F00102164B1A6000E000BF144A126831
:1048200012F0010FF9D1124A0C321060104A121D19
:1048300011600E4A128822F040020C4B1A804FF091
:1048400000620B4BAC3B1A60094A126842F001024D
:10485000074B1A6070470548008800F04000704719
:1048600044380240010040000000024000100140B6
:10487000B86402403C0F00204000002070B50446A0
:104880000126D4F80001022801D0022070BD2FE0DB
:10489000384802680068401C364B1860A55418461A
:1048A0000068062817D1207910F0800F01D0A07879
:1048B00000E00020801D30490860207900F07F0072
:1048C000502806D16079012803D108460068802865
:1048D00001D99020DAE7274800682749096888420B
:1048E00006D10020234908600120C4F800010326F6
:1048F000D4F80001012806D0FFF76BFF0546A0F5AC
:104900007F41FF39C4D13046C0E730B5D0F800311F
:1049100002461A4C24681A4D2D686119184C2468F7
:104920001C44174D2C6003E012F8014B01F8014BB9
:104930001C00A3F10103F7D130BD10B51048006889
:10494000B0B1FFF788FF98B10D4801680B480068C7
:10495000FFF75CFF094800680A49884202D101F567
:10496000807000E00748054908600020044908609D
:1049700010BD00005001002054010020480100201B
:104980004C0100204014002010B5B748006840F0EA
:104990000400B54908604FF40000B4490860B3480A
:1049A0001838006820F48040B0491839086008467B
:1049B000006840F400400860081D006820F0800096
:1049C000091D0860A9480C38006820F44040A74938
:1049D0000C390860081F006840F44040091F086057
:1049E000A2480830006820F0704040F000509F4915
:1049F000083108609C481030006840F002009A4975
:104A00001031086053209A4908803120091D086040
:104A1000052097491031086095481038008840F407
:104A2000C04093491039088091480838008840F008
:104A300010008F49083908808D481438008840F0EC
:104A400001008B491439088089481C38008840F0DF
:104A5000040087491C39088085482838008840F0C0
:104A6000010083492839088003200246814B1968D8
:104A70004FF6FF031940804B0B4343EA02217D4B65
:104A8000196000BF1D200121002808DA0A07140E52
:104A9000784A0C3200F00F031B1FD45403E00A07BE
:104AA000130E764A135400BF1D2001218140420994
:104AB0004FF0E02303EB8202C2F8001100BF10BDEB
:104AC000704710B501466A481C38008820F0040081
:104AD000674A1C3A1080101D008820F00100121D4A
:104AE00010801D2001228240654B440943F8242098
:104AF00000BF11B16348016002E06348614A106081
:104B00005B481C38008840F00400594A1C3A108069
:104B100010BD10B556481838008820F004005449DC
:104B20001839088057480068804700205749088096
:104B300010BD08B5002000904C48001F006810F41C
:104B4000807F7DD05148008851490860084690ED2B
:104B5000000AB8EEC00A4F4880ED000A90ED000A46
:104B6000DFED4D0A20EE200A4C48D0ED000AF8EEA9
:104B7000E00A9FED4B1A01EE200ABDEEC00A80ED5F
:104B8000000A90F8440010F0010F18D000204549A9
:104B9000086045490860454908600AE0002044492A
:104BA000424A126841F8220040480068401C3F49D0
:104BB00008604048006C3D4909688842EEDC0020EE
:104BC000364948643A483749096850F8210036495F
:104BD0000968081A3449086008460068002802DAA3
:104BE00000202E4908662D4800682F4909680844AE
:104BF0002D490860294801682A4802680068401C5D
:104C0000284B18602A4840F822102A48006C1946A0
:104C10000968884202D10020194608602548006CC6
:104C20002149096891FBF0F01C49C8651E480068DD
:104C30000866C96D204A1288881A00EBD07100E01E
:104C40000AE049101B4A91600020FFF71FFA134841
:104C500080880E49088005E00C48008800900120FB
:104C6000FFF714FA08BD000030380240180802406F
:104C7000280400400CED00E00000FA0500E400E02C
:104C800080E200E058010020C14A00080C380040D2
:104C900088010020700100200AD7233CC027002093
:104CA000A4707D3F7C01002078010020900100204D
:104CB0004016002060270020B42700202DE9F04195
:104CC0000020F749086048608860F649086048603D
:104CD0008860F548006840F00200F3490860F34836
:104CE000006820F48020F14908600846006840F41C
:104CF00000200860081D006820F40070091D08608D
:104D0000EA480C30006820F44020E8490C31086083
:104D1000081F006840F44020091F0860E348406A0B
:104D200020F0F00040F09001E0484162006820F47B
:104D30008030DE4908600846006840F400300860B2
:104D4000DA480C30006820F44030D8490C31086053
:104D5000D648406A20F00F0040F00901D348416274
:104D6000D1481030006840F00070CF491031086021
:104D7000CD481038006840F00070CB491039086009
:104D800000E000BFC8481038006810F0007FF8D07D
:104D9000C5481038006820F00070C3491039086019
:104DA0000120C34908600320C149143108602A2446
:104DB0001520B4FBF0F8B4FBF0F100FB114010B18A
:104DC0000120BDE8F0810E25681CC0F11506771E94
:104DD0000FB90120F5E7B6481C300068B549084016
:104DE000B3491C310860781E4FF0407101EA006041
:104DF000711E4FF4E00202EA01510843691E4FF4AC
:104E0000702202EA01410843A8F10101C1F309013E
:104E10000843A7491C3109680843A5491C310860AB
:104E2000132000F00AFA142000F007FA0020C8E767
:104E30009F491C31096821F040419D4A1C32116094
:104E40001146096800F040421143994A1C32116032
:104E500070479748006820F001009549086000E01D
:104E600000BF9348006810F0010FF9D100E000BFC7
:104E70008F480830006810F0806FF8D0704730B568
:104E800002460B4600218C4800880D2801DD0120D8
:104E900030BD0BB9012000E0002018B1002040EA2D
:104EA000425001E0D000001D01438448006840F0FA
:104EB0000100824C206081481C3000687E4C2578BF
:104EC0000124AC40A0437D4C1C3420607B480C3056
:104ED0000068794C25780124AC402043774C0C3491
:104EE00020607648001D0068734C25780124AC4092
:104EF0002043724C241D2060704840306E4C248842
:104F000040F834106C4C248800EBC40041606B48BE
:104F100014300068684C25780124AC40A043674CED
:104F20001434206065481C300068634C25780124E7
:104F3000AC402043614C1C3420606048006820F085
:104F400001005E4C20605C480088401C5A4C208068
:104F500000209DE756490C31096811F0030F48D035
:104F60004F494A684968491C4D4B596003F10C018F
:104F700001EB021051495039096811F0040F0AD1B0
:104F8000002141734D495039096840F2FF7202EA2D
:104F90005151016008E001214173484950390968C5
:104FA000474A02EAD1010160444950390968C1F316
:104FB000400181734349096801F00F0101734249BF
:104FC0000968416041490A68826035494968082991
:104FD00002D10021324A516031490968491C304AE6
:104FE000116033490C31096841F02001304A0C321C
:104FF000116070472E491431096821F002012C4AD2
:10500000143211602649096809B9002015E02449C5
:105010008A688968491C224B996003F10C0101EBF5
:1050200002100C398968082902D100211A469160C2
:105030001B490968491E1A4A11601D491431096843
:1050400041F002011A4A14321160704718490831C0
:10505000096811F0010F77D015491431096821F062
:105060000101134A143211600E49096800296BD0FE
:105070000C498A688968491C0A4B996003F10C0144
:1050800001EB021000210F4A343A116011460A6800
:10509000417BE9B90188002343EA41511BE000004C
:1050A000E02500206C260020303802400004024039
:1050B0000064004000FC80FC980100200066004075
:1050C000FFFF0300B4650040B8650040BC650040C8
:1050D0000168C900091D0A435E490A600968827BAC
:1050E0000AB9002200E0022211435A4A11605A49CB
:1050F00042680A6001F1040182680A605749096840
:1051000021F00F0255490A600968027B02F00F0284
:1051100041EA0201514A11605149096841F0010117
:105120004F4A11604B49096841F00101494A116039
:105130004C498968082902D100214A4A91604949AD
:105140000968491E474A1160704770B50146444AD4
:10515000126822F00102424B1A60424A1268082A81
:1051600001D3012019E03F4A53685268521C3D4C5C
:10517000626004F10C0202EB031391E8740074C343
:10518000384A5268082A02D10022364B5A60354A02
:105190001268521C334B1A600020314A126842F0E8
:1051A00001022F4B1A60304A1268012A08D1294A9D
:1051B000126842F00102274B1A6000222A4B1A6043
:1051C00070BD2748006820F001002549086000BF35
:1051D00023480C38006840F0800021490C390860F1
:1051E0000846006810F0800FF2D10846006820F0F1
:1051F000010008601A48001D00681C490840184951
:10520000091D086000201749086048608860012077
:1052100015490860132001218140154A430942F8CD
:10522000231000BF0E48006840F001000C490860E0
:1052300070470B48001D0068704700F01F020121F5
:10524000914042094FF0E02303EB8202C2F80011C3
:10525000704700008065004088650040846500401C
:10526000146400406C260020940100208CFF00FF95
:1052700080E200E05E4800685E4908435C490860DF
:105280005D48006840F003005B4908605A480C30F4
:10529000006820F0030058490C3108605648006847
:1052A00040F440605449086053480C30006820F4D2
:1052B000406051490C3108604D481430006840F49A
:1052C00080704B49143108604C48006840F440300D
:1052D0004B49C1F8040340F2033088604948C86074
:1052E0000846C06A20F47000C8620846C06A40F4EC
:1052F0008010C86240F24F1048634348006820F0B5
:1053000001004149086000E000BF3F48006810F01C
:10531000010FF9D13C48006820F060603A4908600C
:105320000846006840F45060086035484C30364903
:10533000083108603548091D086002203249091DFE
:1053400008602F48406840F480702D494860084646
:10535000406820F0007048600846406840F0807067
:1053600048602948006840F0010027490860244847
:10537000806840F080402249886070472248006879
:1053800020F001002049086000E000BF1E480068CE
:1053900010F0010FF9D11A48806820F00100184977
:1053A00088600846C06A20F47000C8620846C06A77
:1053B000C86201201449091D08600F201049486384
:1053C0000846806840F0010088600F48006840F09F
:1053D00001000D4908600A48806840F08040084993
:1053E000886070470146094830F811007047000096
:1053F000303802400400400000080240042301400D
:105400000020014007800300706402409A010020E0
:1054100010B50446012C02D0022C08D103E0012073
:10542000FBF7DAF904E00020FBF7D6F900E000BF53
:1054300000BF10BD70B50020FFF7D4FF4FF47A71A4
:1054400000FB01F50120FFF7CDFFB5FBF0F4322C96
:1054500001D2C82070BDF32C01D26420FAE7B4F564
:10546000AB7F02D84FF49670F4E7B4F5D97F02D23F
:105470004FF4C870EEE7B4F5037F02D24FF4FA7030
:10548000E8E740F25B20844201D2C01EE2E740F22E
:105490009220844202D24FF4FA60DBE740F2C3204C
:1054A000844202D24FF44870D4E740F2E6208442AE
:1054B00001D29620CEE740F21630844201D26F200E
:1054C000C8E740F25230844202D24FF47A70C1E70A
:1054D0000020BFE72DE9F0412DED068BB0EE408AAC
:1054E000F0EE608A05469FED5D0B53EC102B51ECFE
:1054F000180B06F047F841EC100BB0EE40AAF0EEA6
:1055000060AA9FED580B53EC102B51EC1A0B05F0D1
:105510009BFE41EC100BB0EE409AF0EE609A51EC1D
:10552000190B05F0E9FF0446C4F30D0000F58040B7
:1055300006B2A40BC4F30D0000F5804007B22803A7
:105540004FF4B471B0FBF1F808F54048FEF7FFFFE7
:105550000020FEF7C2FF4FF40450444908800120A8
:10556000FBF714FC0120FEF7B8FF0520FBF70EFC4B
:105570000020FEF7B2FF3D490E800120FBF706FC3C
:105580000120FEF7AAFF0520FBF700FC0020FEF734
:10559000A4FF36490F800120FBF7F8FB0120FEF73E
:1055A0009CFF0520FBF7F2FB0020FEF796FF4FF46F
:1055B00040402E4908800520FBF7E8FB0120FEF75C
:1055C0008CFF0520FBF7E2FB0020FEF786FF4FF47F
:1055D0000050264908800520FBF7D8FB0120FEF784
:1055E0007CFFFEF78BFFBDEC068BBDE8F08170B54C
:1055F00004460D460120FEF74FFF0120FEF76DFF28
:10560000FEF7CBFF0020FEF771FF0A20FBF7BEFB81
:1056100084F3080415B915490C8012E013490C8075
:105620000A20FBF7B3FB0120FEF760FF0A20FBF71F
:10563000ADFB0020FEF75AFFA0B240F400500B492A
:1056400008800A20FBF7A2FB0120FEF74FFF0A208B
:10565000FBF79CFBFEF752FF70BD0000000000004E
:105660000000B0410000000060E346410C3C0040F7
:1056700070B504460025062C7ED2DFE804F0031E38
:10568000446181B1FE48006840F48040FC490860F4
:105690000846006820F400400860FA48008820F0BE
:1056A0000100F84908801020F7490860C003F74955
:1056B00088610020FBF798FBC0E0F148006840F4E7
:1056C0008040EF4908600846006820F40040086008
:1056D000EC48008820F01100EA490880E9482038A9
:1056E000008820F00100E749203908801020E649B1
:1056F0000860C003E54988610003E34908600420AD
:10570000E24988619AE0DE48006840F48040DC4964
:1057100008600846006820F4004008600820DB4963
:1057200088614004D8490860401108600420D749C6
:105730008861D448008840F00100D24908807DE0AB
:10574000CF48006840F48040CD49086008460068B2
:1057500020F400400860CB48008820F00100C949CF
:1057600008801020C8490860C003C849886100113A
:10577000C5490860042000E05EE0C44988615DE03E
:105780004FF48030C0490860BF481838006840F0C6
:105790000100BD49183908600846006820F0020081
:1057A0000860B748006820F48040B54908600846A2
:1057B000006840F4004008604FF48010B24908606F
:1057C0000820B24988610003AF4908600420AF494E
:1057D0008861AC48008840F01100AA4908802DE09B
:1057E000A748006840F48040A54908600846006862
:1057F00020F400400860A4481838006820F0C00079
:10580000A1491839086001209F4908609E4818384E
:10581000006840F001009C4918390860084600689B
:1058200020F002000860102097490860C0039749E3
:1058300088614010886101E0012500BF00BF284653
:1058400070BD70B58E4810300068012121EA103417
:105850008F480068844207D08D480460012C01D134
:10586000202000E0002004437CB1FBF7B1F905469D
:10587000884801882846FBF7AFF9B0F5FA6F01D9DF
:10588000102000E00020044303E0FBF7A1F9814968
:105890000880204670BD70B5FDF71AFDC401E01701
:1058A00004EBD060451105F3070070BD70B50446E8
:1058B0000D4675B96CB101207749486202F084F851
:1058C0007549086A75490968884700207449C864A1
:1058D00021E075B16CB101206F49486202F074F8A3
:1058E0006D49086A6D490968884700206C49C86499
:1058F00011E05DB954B900206749486202F05FF8D1
:105900006549086A65490968884704E000206249DA
:10591000486202F054F870BD70B56148C06C5E49D1
:10592000896C88420FDA5E48C06C401C5C49C864D0
:105930005948006A30BB5848806C401CC86400203D
:10594000554948621EE05648C06C5349896C8842EC
:1059500018D15148C06C38B101204F494862C86C19
:105960004E490968884708E000204B49486202F028
:1059700026F800204949096888474948C06C401CFE
:105980004749C8644648C06900283BD0FBF720F966
:1059900005464348018C2846FBF71EF941F2883141
:1059A00088422FD93C48406A70B93D4890F83C0085
:1059B000C0F3400040B900203749486201F0FFFFC2
:1059C0000020364909688847354890F83C00C0F304
:1059D000400018B10A203249C86113E00020304964
:1059E000C86403F0CFFB2C48006A40B900202A4964
:1059F000486201F0E4FF0020284909688847002038
:105A00002749C8612648C06A40B101202449C861BD
:105A100001F0DAFF32202149096888472048406AAE
:105A2000042801DD012000E000201D49496A11F130
:105A3000040F01DA012100E00021441AFBF7C8F845
:105A400005461748018C2846FBF7C6F8462800DAB9
:105A500000240020FDF740FC002011494862084660
:105A6000806A00B91CB1FBF7B3F80D4908840C48F3
:105A7000C1692A2970D02EDC1E296ED01EDC11E0EF
:105A800000040240200800401808024000000240C4
:105A90002402002020020020602700201C02002099
:105AA000C027002014297DD003DC79B30A297AD1DC
:105AB0002FE1152978D01629F9D19BE1212974D03D
:105AC00004DC1F2972D02029F1D154E228296ED09C
:105AD0002929ECD10DE340F2E932881A91424FD0E6
