:020000040800F2
:10000000E86A0120195C0108375C0108395C0108C5
:100010003B5C01083D5C01083F5C010800000000FA
:10002000000000000000000000000000415C01082A
:10003000435C010800000000455C0108475C0108C2
:10004000495C0108495C0108495C0108495C0108F8
:10005000495C0108495C0108495C0108495C0108E8
:10006000495C0108495C0108495C0108495C0108D8
:10007000495C0108495C0108495C0108495C0108C8
:10008000495C0108495C0108495C0108495C0108B8
:10009000495C0108495C0108495C0108495C0108A8
:1000A000495C0108495C0108495C0108495C010898
:1000B000694F0108C98F0008AF9A0008495C010820
:1000C000495C0108495C0108495C0108495C010878
:1000D000495C0108495C0108495C0108495C010868
:1000E000495C0108495C0108495C0108495C010858
:1000F000495C0108495C0108495C0108495C010848
:10010000495C0108495C0108495C0108495C010837
:10011000495C0108495C01085D8B0008934F0108A8
:10012000495C0108495C0108495C0108495C010817
:10013000495C0108495C0108495C0108495C010807
:10014000495C0108495C0108495C0108495C0108F7
:10015000495C0108495C0108495C0108495C0108E7
:10016000495C0108495C0108495C0108495C0108D7
:10017000495C0108495C0108495C0108495C0108C7
:10018000495C0108495C010800F002F800F0B2F88F
:100190000AA090E8000C82448344AAF10107DA45E2
:1001A00001D100F0A7F8AFF2090EBAE80F0013F082
:1001B000010F18BFFB1A43F0010318478CCC010054
:1001C000BCCC01000A444FF0000C10F8013B13F0C6
:1001D000070408BF10F8014B1D1108BF10F8015BA0
:1001E000641E05D010F8016B641E01F8016BF9D193
:1001F00013F0080F1EBF10F8014BAD1C0C1B09D1EA
:100200006D1E58BF01F801CBFAD505E014F8016B5B
:1002100001F8016B6D1EF9D59142D6D370470000ED
:100220000023002400250026103A28BF78C1FBD8FF
:10023000520728BF30C148BF0B6070476E2918F0C5
:100240006981702918F0B98166291BF0DF81652961
:100250001BF0DC8167291BF0D98161291BF0D88153
:1002600003681B0A28BF41F08001692918F0168134
:10027000642918F01381752918F010816F2918F07E
:10028000E986782918F08581E92918F08386E42920
:1002900018F08086F52918F07D86EF2918F0E6869B
:1002A000F82918F084810368DB0928BF41F0800138
:1002B000632918F00486732918F00986E32919F0D8
:1002C0003381F32919F03881002070471FB51BF0E6
:1002D00093F918F00BFF0400002000211AF072FCC3
:1002E000401C6060002000211AF056FCE0601FBD39
:1002F00010B510BD19F070FB1146FFF7E7FF07F0CE
:1003000045FA19F097FB03B4FFF7F2FF03BC19F0AD
:10031000DBFB0000BFF34F8FFE48006800F4E06095
:10032000FD490843001DFB490860BFF34F8F00E003
:1003300000BFFDE710B50446B4F5886F20D011DC8E
:1003400040F22341A4EB01008C421FD005DCA4F253
:10035000134090B1032833D110E0032829D0172887
:100360002ED10CE0B4F5966F17D0A4F2B340A8B12B
:10037000032811D04D2823D121E022E021E020E004
:100380004AF65521E548C0F800111AE04AF6552111
:10039000E248C0F8181114E013E012E0E048B0F8A9
:1003A0007810DE48C0F804124AF65521C0F8081249
:1003B00007E04AF65521D948C0F8281201E000E0CC
:1003C00000BF00BFD748D54948600AF0D0FB10BD38
:1003D000D548A0F17401D1F8BC21D049C1F8E4207E
:1003E000A0F17401D1F8C021CC49C1F8E8204AF647
:1003F0005522C1F8EC20CD49D1F89410C74A51617B
:10040000CA49D1F89820C5498A61C84991F89C2009
:10041000C2490A77C54991F89D20C0494A77C34926
:1004200091F89E20BD498A774AF655220A622C30FF
:10043000426BC1F8F020826BC1F8F420C26AC1F8A7
:10044000F820C26BC1F8FC204AF65522C1F8002101
:10045000026EC1F81C21426EC1F82021826EC1F8E3
:100460003421C26EC1F83821026FC1F84C21426FAD
:10047000C1F85021826FC1F86421C26FC1F86821B0
:10048000A0F1A001D1F8D021A449C1F8D021A0F158
:10049000A001D1F8D421A149C1F8D421A0F1A00133
:1004A000D1F8D8219D49C1F8D821A0F1A001D1F8F7
:1004B000DC219A49C1F8DC21A0F1A001D1F8E021AA
:1004C0009649C1F8E021A0F1A001D1F8E4219349B7
:1004D000C1F8E421A0F1A001D1F8E8218F49C1F8C9
:1004E000E821A0F1A001D1F8EC218C49C1F8EC2160
:1004F000426CC1F8F02150F80C2CC1F8F421026DC7
:100500002C38C1F8F821A0F174010A688349C1F8B8
:10051000FC214AF65522C1F800228549098F8AB28A
:100520007E49A1F834228249898F8AB27B49A1F899
:1005300036227F49098A8AB27849A1F838227C4953
:1005400009898AB27549A1F83A227949898A8AB219
:100550007249A1F83C22764989898AB26F49A1F88B
:100560003E224AF65522C1F8402272490A686B4978
:10057000C1F844226F494A686849C1F848226D4968
:100580008A686649C1F84C226A49CA686349C1F859
:10059000502268490A696149C1F8542265494A698B
:1005A0005E49C1F8582263498A695C49C1F85C22F6
:1005B0006049CA695949C1F860224AF65522C1F812
:1005C00064225C490A6A5549C1F8682259494A6A55
:1005D0005249C1F86C2257498A6A5049C1F87022C1
:1005E0005449CA6A4D49C1F8742252490A6B4B49B1
:1005F000C1F878224F494A6B4849C1F87C224D49DD
:100600008A6B4649C1F880224A49CA6B4349C1F8FE
:1006100084224AF65522C1F8882246490A6C3F498D
:10062000C1F88C2243494A6C3C49C1F890224149A7
:100630008A6C3A49C1F894223E49CA6C3749C1F8DC
:1006400098223C490A6D3549C1F89C2239494A6DC6
:100650003249C1F8A02237498A6D3049C1F8A42235
:100660003449CA6D2D49C1F8A8224AF65522C1F86D
:10067000AC2230490A6E2949C1F8B0222D494A6E90
:100680002649C1F8B4222B498A6E2449C1F8B82200
:100690002849CA6E2149C1F8BC2226490A6F1F4960
:1006A000C1F8C02223494A6F1C49C1F8C42221491C
:1006B0008A6F1A49C1F8C8221E49CA6F1749C1F882
:1006C000CC224AF65522C1F8D0221B490A6F1349A1
:1006D0000A671A490A6F11494A6717494A6F0F4951
:1006E0008A6716494A6F0D49CA671349D1F88020B5
:1006F0000A49C1F880201149D1F880200749C1F882
:1007000084200D49D1F884200449C1F888200B4980
:1007100016E000000CED00E00000FA050C6001207E
:100720000806002004000100F85B01208C5D012018
:10073000080000207863012044070020C40800203E
:10074000D1F88420FE49C1F88C20FE49D1F88820D8
:10075000FB49C1F89020FC49D1F88820F849C1F83C
:100760009420F849D1F88C20F549C1F89820F64931
:10077000D1F88C20F249C1F89C20F2490A6EF04968
:10078000C1F8A020F0490A6EED49C1F8A420ED4956
:100790004A6EEB49C1F8A820EB494A6EE849C1F816
:1007A000AC20E8498A6EE649C1F8B020E6498A6E75
:1007B000E349C1F8B420E349CA6EE149C1F8B82061
:1007C000E149CA6EDE49C1F8BC204AF65522C1F89B
:1007D000D420DC498A6DDA49CA65DB498A6DD8497B
:1007E0000A66D849CA6DD6494A66D749CA6DD449FE
:1007F0008A664AF65522CA66D2498A6CD0498A640A
:10080000D1498A6CCE49CA64CE49CA6CCC490A65C2
:10081000CD49CA6CCA494A65CA498A6BC8498A63C4
:10082000C9498A6BC649CA63C649CA6BC4490A64C6
:10083000C549CA6BC2494A64C249D1F8D420C049EB
:100840008A62C149D1F8D420BD49CA62BD49D1F8F4
:10085000D820BB490A63BC49D1F8D820B8494A63BB
:100860004AF655228A65A0F17401D1F8D021B44925
:10087000C1F8D021A0F17401D1F8D421B049C1F858
:10088000D421A0F17401D1F8D821AD49C1F8D82103
:10089000A0F17401D1F8DC21A949C1F8DC21A0F153
:1008A0007401D1F8E021A649C1F8E021A0F174015A
:1008B000D1F8E421A249C1F8E421A0F17401D1F8F2
:1008C000E8219F49C1F8E821A0F17401D1F8EC2199
:1008D0009B49C1F8EC21026FC1F8F021026AC1F80E
:1008E000F421C26FC1F8F821A0F174010A6894499B
:1008F000C1F8FC214AF65522C1F8002291498A6AC2
:100900008F49C1F8D4228F49CA6A8D49C1F8DC22C7
:100910008D498A6A8A49C1F8D8228B49CA6A8849AE
:10092000C1F8E02287490A6B8549C1F8E42285496C
:100930004A6B8349C1F8E82283490A6B8049C1F8B0
:10094000EC2281494A6B7E49C1F8F0224AF65522D1
:10095000C1F8F4227D49CA6B7949C1F8F8227B4974
:100960000A6C7749C1F8FC2278494A6C7449C1F88D
:10097000002376498A6C7249C1F804237349CA6C12
:100980006F49C1F8082371490A6D6D49C1F80C23FC
:100990006E494A6D6A49C1F810236C498A6D6849ED
:1009A000C1F814236949CA6D6549C1F8182367491C
:1009B0000A6E6349C1F81C236549CA6B6049C1F8D6
:1009C000202363490A6C5E49C1F8242360494A6CBC
:1009D0005B49C1F828235E498A6C5949C1F82C2328
:1009E0005B49CA6C5649C1F8302359490A6D5449CC
:1009F000C1F8342356494A6D5149C1F83823544946
:100A00008A6D4F49C1F83C235149CA6D4C49C1F820
:100A100040234F490A6E4A49C1F844234AF65522F9
:100A2000C1F848234B490969454AD16070471FB551
:100A300004460E20484988700020C8708120087143
:100A4000012C0BD10120ADF8000044480068CDF81E
:100A500002000020CDF80600CDF80A00022C0BD1D0
:100A60000220ADF800003D484068CDF802000020AB
:100A7000CDF80600CDF80A00042C0BD10420ADF807
:100A8000000036488068CDF802000020CDF806004E
:100A9000CDF80A00082C0BD10820ADF800002F4833
:100AA000C068CDF802000020CDF80600CDF80A009D
:100AB0000621294807F0F3FF0E21684607F0EFFFF3
:100AC0001FBD2DE9F04701460020844600228046E4
:100AD000234CDFF8909099F80230172B7BD010DC74
:100AE0000B2B79D006DC032B5CD0052B65D0072BB4
:100AF00073D11EE10F2B71D0132B70D0152BF7D1B2
:100B0000DAE2302B6CD006DC192B6AD02B2B40D0CC
:100B10002D2BEDD182E0322B72D0342B71D0382BBB
:100B2000E6D108200B804FF00109A1F80290DFF810
:100B30002490D9F81090B9F1200F1AD114E00000D8
:100B40000C60012044070020C4080020400C002055
:100B5000BC0C0020BC5F012089000020440A00205A
:100B6000F85B0120C01100204FF00109A1F80490AA
:100B70000AE0DFF8B89CD9F81090B9F1210F03D141
:100B80004FF00209A1F804904FF00009A1F8069077
:100B900091E204200B80DFF8989CB9F89890A1F8B6
:100BA000029088E208200B804FF00109A1F8029022
:100BB0004FF06409C1F804907DE2DFF8789C99F861
:100BC00003200C200B804A80012A0BD1DFF8689C9F
:100BD000D9F800501CE0D3E29BE1FDE37CE1D3E1D6
:100BE00002E106E3022A04D1DFF8509CD9F8005054
:100BF0000EE0042A06D1DFF8409CD9F8045007E043
:100C000014E13EE1082A03D1DFF8309CD9F8045002
:100C10004D604FF00009C1F808904CE2DFF8149CD9
:100C200099F8032016200B804A80012A1ED1DFF894
:100C3000089CB9F87090A1F80490DFF8FC9BD9F8F3
:100C40008090C1F80690DFF8F09BD9F88890C1F841
:100C50000A90DFF8E49BD9F86890C1F80E90DFF8AD
:100C6000D89BD9F86090C1F8129061E0022A1ED199
:100C7000DFF8C89BB9F87090A1F80490DFF8BC9B2E
:100C8000D9F88090C1F80690DFF8B09BD9F8889029
:100C9000C1F80A90DFF8A49BD9F86890C1F80E90CB
:100CA000DFF8989BD9F86090C1F8129040E0042AD0
:100CB0001ED1DFF8849BB9F87490A1F80490DFF896
:100CC000789BD9F88490C1F80690DFF86C9BD9F82E
:100CD0008C90C1F80A90DFF8609BD9F86C90C1F84D
:100CE0000E90DFF8549BD9F86490C1F812901FE081
:100CF000082A1DD1DFF8449BB9F87490A1F804903C
:100D0000DFF8389BD9F88490C1F80690DFF82C9B67
:100D1000D9F88C90C1F80A90DFF8209BD9F86C9034
:100D2000C1F80E90DFF8149BD9F86490C1F81290C6
:100D300084E3DFF8009B99F803200E200B804A80A3
:100D4000012A12D1DFF8F09AB9F8D490A1F80490F2
:100D5000DFF8E49AD9F84890C1F80690DFF8D89AFD
:100D6000D9F83890C1F80A903DE0022A12D1DFF894
:100D7000CC9AB9F8D490A1F80490DFF8C09AD9F8C9
:100D80004890C1F80690DFF8B49AD9F83890C1F8C5
:100D90000A9028E0042A12D1DFF89C9AB9F8D8907A
:100DA000A1F80490DFF8909AD9F84C90C1F8069019
:100DB000DFF8849AD9F83C90C1F80A9013E0082A29
:100DC00011D1DFF8789AB9F8D890A1F80490DFF83B
:100DD0006C9AD9F84C90C1F80690DFF8609AD9F86F
:100DE0003C90C1F80A9029E3DFF8489A99F803206B
:100DF00012200B804A80DFF8489AB9F8BC91A1F81C
:100E00000490DFF83C9AD9F8C091C1F806904FF0F1
:100E10000009A1F80A904FF0000A01F10A09A1F8AF
:100E20000CA0A1F80EA0A1F810A007E3DFF8049A27
:100E300099F803200820012A06D1DFF8FC99D9F897
:100E40003090C1F8049019E0022A06D1DFF8EC993D
:100E5000D9F83090C1F8049010E0042A06D1DFF8E8
:100E6000D899D9F83490C1F8049007E0082A05D140
:100E7000DFF8C899D9F83490C1F804900B804A8003
:100E8000DCE2DFF8B09999F8032008200B804A8053
:100E9000012A06D1DFF8A099D9F82890C1F804906A
:100EA00019E0022A06D1DFF89499D9F82890C1F800
:100EB000049010E0042A06D1DFF87C99D9F82C9030
:100EC000C1F8049007E0082A05D1DFF87099D9F835
:100ED0002C90C1F80490B1E210200B804FF0010972
:100EE000A1F80290012A08D1A1F80490A1F8069077
:100EF00032278F600A26CE600AE0022A08D1914686
:100F0000A1F80490A1F8069032278F600C26CE60DD
:100F100094E2DFF8209999F803200A200B804A8098
:100F2000012A08D1B4F88C90A1F80490B4F89090FC
:100F3000A1F8069023E0022A0CD1B4F89490A1F80D
:100F40000490B4F89890A1F806904FF00109A1F828
:100F5000089014E0042A08D1B4F89C90A1F80490F9
:100F6000B4F8A090A1F8069009E0082A07D1B4F8D7
:100F7000A490A1F80490B4F8A890A1F806904FF0BE
:100F80000109A1F8089059E2DFF8A89899F8032020
:100F900012200B804A80012A22D14FF00109A1F8CA
:100FA0000290DFF8A098B9F8A090A1F80490DFF8BB
:100FB0009498D9F8A890C1F80690DFF88898D9F8E5
:100FC000B090C1F80A90DFF87C98B9F8B890A1F811
:100FD0000E90DFF87098B9F8C090A1F810906AE010
:100FE000022A21D19146A1F80290DFF85898B9F869
:100FF000A490A1F80490DFF84C98D9F8AC90C1F80F
:101000000690DFF84098D9F8B490C1F80A90DFF85C
:101010003498B9F8BC90A1F80E90DFF82898B9F888
:10102000C490A1F8109046E0042A21D19146A1F87D
:101030000290DFF81098B9F8A890A1F80490DFF8B2
:101040000498D9F8B090C1F80690DFF8F897D9F86D
:10105000B890C1F80A90DFF8EC97B9F8C090A1F801
:101060000E90DFF8E097B9F8C890A1F8109022E050
:10107000082A20D19146A1F80290DFF8C897B9F864
:10108000AC90A1F80490DFF8BC97D9F8B490C1F8FF
:101090000690DFF8B097D9F8BC90C1F80A90DFF855
:1010A000A497B9F8C490A1F80E90DFF89897B9F812
:1010B000CC90A1F81090C1E1DFF8789799F803205F
:1010C0001E200B804A80012A0CD1DFF87497D9F8D2
:1010D000D091C1F80C90DFF86897D9F8D491C1F895
:1010E00010902BE0022A0CD1DFF85497D9F8D89150
:1010F000C1F80C90DFF84897D9F8DC91C1F810904E
:101100001CE0042A0CD1DFF83897D9F8E091C1F837
:101110000C90DFF82C97D9F8E491C1F810900DE00D
:10112000082A0BD1DFF81897D9F8E891C1F80C908C
:10113000DFF80C97D9F8EC91C1F81090B4F8209032
:1011400009F10109A1F80490D4F87090C1F8069053
:10115000B4F87C90A1F80A90DFF8E496B9F8009012
:10116000A1F814904FF00009A1F81690CA4601F1B9
:101170001609A1F818A0A1F81AA0A1F81CA05DE119
:101180001A200B80DFF8C096B9F83890A1F80290C9
:10119000DFF8B496B9F83C90A1F80490DFF8A8966F
:1011A000B9F81090A1F80690DFF89C96B9F808906D
:1011B000A1F80890DFF89096B9F81490A1F80A9079
:1011C000DFF88496B9F80C90A1F80C904FF0000964
:1011D000A1F80E904FF0000A01F10E09A1F810A03D
:1011E000A1F812A0A1F814A0A1F816A0A1F818A0C7
:1011F00024E1DFF8409699F8032030200B804A80E4
:10120000012A06D0022A37D0042A68D0082A7DD1C4
:101210009AE0DFF83896D9F80090DFF834A6CAF8DB
:101220000090DFF82896D9F80490CAF80490DFF807
:101230001C96D9F80890CAF80890DFF81096D9F8EB
:101240000C90CAF81090DFF80496D9F81090CAF8FC
:101250001490DFF8F895D9F81490CAF81890DFF8D0
:10126000EC95D9F81890CAF80C90DFF8E095D9F809
:101270001C90CAF820909BE0DFF8D095D9F8209018
:10128000DFF8CCA5CAF80090DFF8C095D9F8249013
:10129000CAF80490DFF8B495D9F82890CAF80890F5
:1012A000DFF8A895D9F82C90CAF81090DFF89C9533
:1012B000D9F83090CAF81490DFF89095D9F83490A6
:1012C000CAF81890DFF88495D9F83890CAF80C90CD
:1012D000DFF87895D9F83C90CAF8209068E0DFF8FC
:1012E0006C95D9F84090DFF868A5CAF80090DFF84F
:1012F0005C95D9F84490CAF80490DFF85095D9F875
:101300004890CAF80890DFF8449500E04FE0D9F81B
:101310004C90CAF81090DFF83495D9F85090CAF87C
:101320001490DFF82895D9F85490CAF81890DFF88F
:101330001C95D9F85890CAF80C90DFF81095D9F898
:101340005C90CAF8209033E0DFF80095D9F86090FF
:10135000DFF8FCA4CAF80090DFF8F094D9F86490A4
:10136000CAF80490DFF8E494D9F86890CAF80890B5
:10137000DFF8D894D9F86C90CAF81090DFF8CC94C4
:10138000D9F87090CAF81490DFF8C094D9F8749026
:10139000CAF81890DFF8B494D9F87890CAF80C908D
:1013A000DFF8A894D9F87C90CAF8209000E000BF3C
:1013B00000BFDFF89C94D9F80090C1F80490DFF8E2
:1013C0009094D9F80490C1F80890DFF88494D9F883
:1013D0000890C1F80C9000E02FE0DFF87494D9F881
:1013E0001090C1F81090DFF86894D9F81490C1F803
:1013F0001490DFF85C94D9F81890C1F81890DFF8D1
:101400005094D9F80C90C1F81C90DFF84494D9F8A6
:101410002090C1F820904FF00009A1F82490CA460E
:1014200001F12409A1F826A0A1F828A0A1F82AA07A
:10143000A1F82CA0A1F82EA000E000BF00BFBDE8DD
:10144000F0872DE9F047FE4D7435FA4CA41DA01F1E
:10145000C0881FFA80F9B9F12B0F5BD019DCB9F104
:10146000130F7DD00ADCB9F1050F7AD0B9F1070F5F
:1014700078D0B9F10B0F41F0978321E0B9F1150F46
:1014800071D0B9F1170F6FD0B9F1190FF3D101F085
:1014900073B9B9F1340F68D009DCB9F12D0F7CD0E4
:1014A000B9F1300F7AD0B9F1320FE4D1E4E2B9F1F9
:1014B000360F01F0E781B9F1380FDCD101F045BA00
:1014C0006788012F06D0022F0BD0042F10D0082FD1
:1014D0001CD114E0A088C5F88C00E088C5F8900005
:1014E00015E0A088C5F89400E088C5F898000EE0E3
:1014F000A088C5F89C00E088C5F8A00007E0A08897
:10150000C5F8A400E088C5F8A80000E000BF00BF4F
:1015100001F04BBBB4F80280CE48806A28B100BF0E
:1015200000200CF085FF0028FAD1CA48C06A28B113
:1015300000BF00200CF09BFF0028FAD1C548006BCB
:1015400028B100BF01200CF073FF0028FAD1C14878
:10155000406B60B100BF01200CF089FF002805E05E
:1015600031E225E13DE1C1E22CE3A2E2F3D1B8F1A1
:10157000070F7CD2DFE808F00416406B98C3EE003A
:101580000020AB49C1F894004FF40060B249886173
:10159000401088610020A64901E0A3E1F3E1C1F811
:1015A000980003E10120A249C1F89400C1F8980015
:1015B000432081F89C0068219D4880F89D103121CE
:1015C00080F89E104FF40060A34988614010886144
:1015D0004004886100209849C1F814019749C1F876
:1015E00014019548D0F8D4009549C1F8B801D1F854
:1015F000B8010FF06AF8D9E001208D49C1F89400D4
:101600000220C1F89800432081F89C006821884896
:1016100080F89D10322180F89E104FF400608E49B2
:101620008861401088614004886100208249C1F8C7
:1016300014018249C1F814010846D0F8D400804949
:10164000C1F8B801D1F8B8010FF03FF8AEE00120C1
:101650007749C1F894000320C1F89800432081F82D
:101660009C006821724880F89D10332100E09CE0C6
:1016700080F89E104FF400607749886140108861BF
:101680000004886101206C49C1F814016B49C1F85C
:1016900014016948D0F8D8006949C1F8B801D1F8F7
:1016A000B8010FF012F881E001206149C1F89400FF
:1016B0000420C1F89800432081F89C0068215C4810
:1016C00080F89D10342180F89E104FF4006062492C
:1016D0008861401088610004886101205649C1F882
:1016E00014015649C1F814015348D0F8D8005449A0
:1016F000C1F8B801D1F8B8010EF0E7FF56E00220BA
:101700004B49C1F894000520C1F89800312081F8B8
:101710009C002B21464880F89D10322180F89E10B5
:101720004FF400604C498861401088614004886132
:1017300000204149C1F814014049C1F814013E4854
:10174000D0F8D4003E49C1F8B801D1F8B8010EF084
:10175000BCFF2BE002203649C1F894000620C1F8F6
:101760009800332081F89C002B21314880F89D108F
:10177000342180F89E104FF4006037498861401092
:1017800088610004886101202B49C1F814012B49AC
:10179000C1F814012848D0F8D8002949C1F8B80187
:1017A000D1F8B8010EF091FF00E000BF00BFAFE636
:1017B0006788012F03D100201F49086010E0022F25
:1017C00003D100201D4908600AE0042F03D1002046
:1017D0001949486004E0082F02D1002017494860E9
:1017E00096E6668801201749C1F8E800012E06D068
:1017F000022E33D0042E47D0082E70D159E0A08895
:101800000D49C1F8D4000846D0F8D4000C49C1F8FD
:10181000B801D1F8B8010EF058FFD4F80600064917
:101820008864D4F80A0088635AE00000BC5F012095
:101830008C5D0120C011002044070020C408002056
:10184000845B0120440A0020080000207863012006
:10185000E4040020E406002000100240A088FE49B5
:10186000C1F8D4000846D0F8D400FC49C1F8B8014A
:10187000D1F8B8010EF029FFD4F80600F6498864C3
:10188000D4F80A0088632BE0A188F548C0F8D81086
:10189000D0F8D800F149C1F8B801D1F8B8010EF07C
:1018A00014FFD4F80610EE48C164D4F80A10C163DE
:1018B00016E0A188E848C0F8D810D0F8D800E74969
:1018C000C1F8B801D1F8B8010EF0FFFED4F8061047
:1018D000E148C164D4F80A10C16301E0FFE700BF2A
:1018E00000BF15E66688012E06D0022E15D0042E04
:1018F00024D0082E44D132E0A41D34F8020CD8497B
:1019000008672068C1F880006068C1F88800A06896
:101910008866E068A41F086633E0A41D34F8020C52
:10192000CD4908672068C1F880006068C1F8880068
:10193000A0688866E068A41F086622E0A41D34F849
:10194000021CC74841672168C0F884106168C0F86C
:101950008C10A168C166E168A41F416611E0A41D56
:1019600034F8021CBC4841672168C0F884106168E3
:10197000C0F88C10A168C166E168A41F416600E050
:1019800000BF00BFC4E56688A088B449C1F8BC01A7
:10199000D4F80600C1F8C0010846D0F8BC0110B95F
:1019A0000EF00EFD0EE0AD48D0F8BC01012802D1CA
:1019B0000EF006FD06E0A948D0F8BC01022801D1CE
:1019C00013F0E3F8A4E56688012E06D0022E17D0A6
:1019D000042E28D0082E4CD138E0A088A049C1F8A8
:1019E000A000D4F80600C1F8A800D4F80A00C1F895
:1019F000B000E089C1F8B800208AC1F8C00039E021
:101A0000A0889549C1F8A000D4F80600C1F8A80044
:101A1000D4F80A00C1F8B000E089C1F8B800208A03
:101A2000C1F8C00026E0A1888D48C0F8A410D4F801
:101A30000610C0F8AC10D4F80A10C0F8B410E18950
:101A4000C0F8BC10218AC0F8C41013E0A1888248F5
:101A5000C0F8A410D4F80610C0F8AC10D4F80A10DE
:101A6000C0F8B410E189C0F8BC10218AC0F8C410D5
:101A700000E000BF00BF4BE56688012E06D0022EB5
:101A800008D0042E0AD0082E10D10BE060687449EB
:101A900008630CE060687049086308E0616870489A
:101AA000416304E061686C48416300E000BF00BF2F
:101AB0002EE56688012E06D0022E08D0042E0AD00C
:101AC000082E10D10BE06068654988620CE0606800
:101AD0006149886208E061686148C16204E0616848
:101AE0005D48C16200E000BF00BF11E56788012FBB
:101AF00007D1E1685948C0F8D0112169C0F8D41164
:101B00001CE0022F07D1E1685448C0F8D8112169C0
:101B1000C0F8DC1112E0042F07D1E1684F48C0F88B
:101B2000E0112169C0F8E41108E0082F06D1E1684E
:101B30004A48C0F8E8112169C0F8EC11A088401E9D
:101B40002862D4F8060028676089E867A08A4349BC
:101B5000086008680EF082FC4FF47A71286F91FBE0
:101B6000F0F03F49C1F8D0004FF47A71286F91FB33
:101B7000F0F03949C1F8D0003948D0F8D000B0F5BC
:101B80007A7F08DD4FF47A703549C1F8D0003249C8
:101B9000C1F8D0000BE03248D0F8D000012806DAB6
:101BA00001202F49C1F8D0002B49C1F8D000286F7F
:101BB0000CF05FF82B498862286F0CF05AF82A491C
:101BC0008862A5E4608829498863A088C863E088A2
:101BD00008612089886060894861A089C8600846DA
:101BE00000690D2807D0084600690E2803D0084672
:101BF00000690F2812D11D48806B1C4908640846F3
:101C000040690D2807D0084640690E2803D00846D1
:101C100040690F2802D100201449486113484069E7
:101C20000D2807D0114840690E2803D00F4840699D
:101C30000F281FD10D48C06B0C4908640846006985
:101C40000D2807D0084600690E2803D00846006911
:101C50000F280FD100200BE0C4080020845B012076
:101C600044070020400C0020BC0C0020080000208D
:101C7000FB490861FA480069132870D2DFE800F0D8
:101C80000A162740596F6F6F6F6F708099B2FEFD13
:101C9000FCFBFA00012006F038FD0020F149486203
:101CA000F14808600020EE490863A4E2012006F034
:101CB0002CFDEB488068012802D1EA49086102E066
:101CC0000020E8490861E948E649086093E20120FC
:101CD00006F01BFD0220E2498861002008620846E8
:101CE0008068012802D1DF49086102E00220DD4955
:101CF0000861DF48DB4908600020D94908637AE2BF
:101D0000012006F002FD0420D54988610020086208
:101D100008468068012802D1D249086102E0022009
:101D2000D0490861D348CF4908600020CC490863F6
:101D300061E2012006F0E9FC0820C9498861002021
:101D4000086208468068012802D1C649086102E09D
:101D50000220C4490861C848C24908604BE249E210
:101D6000022006F0D2FCC548BE498860BC488068A5
:101D7000012801D1086102E00020BA4908613AE275
:101D8000022006F0C2FC0120B64948622020B44976
:101D900008620020886108468068012802D1B149A4
:101DA000486102E00220AF494861B548AD4988600A
:101DB00021E2022006F0A9FC0120AA494862802005
:101DC000A74908620020886108468068012802D17E
:101DD000A449486102E00220A2494861A948A149FA
:101DE000886008E2A848D0F89800012818D1A748D0
:101DF0000068A7490860A54840684860A348806813
:101E00008860A248C0680861A048006948619F488E
:101E1000406988619D488069C8609C48C0690862C3
:101E20009948D0F89800022818D19848006A984933
:101E300008609648406A48609448806A8860934881
:101E4000C06A08619148006B48619048406B8861A6
:101E50008E48806BC8608D48C06B08628A48D0F895
:101E6000980003281ED18948006C8949086087487A
:101E7000406C04E0B7E1AFE1A7E10FE14FE048605B
:101E80008248806C88608148C06C08617F48006D22
:101E900048617E48406D88617C48806DC8607B48A1
:101EA000C06D08627848D0F89800042818D17748A7
:101EB000006E774908607548406E48607348806ED0
:101EC00088607248C06E08617048006F48616F4852
:101ED000406F88616D48806FC8606C48C06F086251
:101EE000022006F012FC5E48806B5D4908640846DB
:101EF0008068012805D167486549886201204862E9
:101F000004E065486249886200204862604812F037
:101F1000DAFF12F00AFF01205D49C8626BE15A48FE
:101F2000D0F89800012818D158480068584908602E
:101F30005648406848605548806888605348C06883
:101F400008615248006948615048406988614F48BB
:101F50008069C8604D48C06908624B48D0F8980055
:101F6000022818D14948006A494908604748406A30
:101F700048604648806A88604448C06A08614348AF
:101F8000006B48614148406B88614048806BC86085
:101F90003E48C06B08623C48D0F89800032818D12E
:101FA0003A48006C3A4908603848406C4860374805
:101FB000806C88603548C06C08613448006D4861A9
:101FC0003248406D88613148806DC8602F48C06DCF
:101FD00008622D48D0F89800042818D12B48006ECC
:101FE0002B4908602948406E48602848806E886008
:101FF0002648C06E08612548006F48612348406F3D
:1020000088612248806FC8602048C06F0862022043
:1020100006F07BFB1248806B114908641C4800697C
:102020001B4908600846406940424860084680698C
:1020300088600B488068012804D116488862012016
:10204000486204E01448124988620020486210483F
:1020500012F039FF12F069FE01200D49C862CAE092
:10206000080000201C0500207B320108E332010833
:102070004B3301081D370108FB3C0108A33201085E
:10208000EB3D0108334001088C5D0120786301209D
:10209000E40400200D4B01081D4B0108F948D0F85D
:1020A0009800012818D1F8480068F8490860F648F7
:1020B00040684860F44880688860F348C0680861F8
:1020C000F14800694861F04840698861EE488069DC
:1020D000C860ED48C0690862EA48D0F89800022854
:1020E00018D1E948006AE9490860E748406A486051
:1020F000E548806A8860E448C06A0861E248006B8D
:102100004861E148406B8861DF48806BC860DE4809
:10211000C06B0862DB48D0F89800032818D1DA4871
:10212000006CDA490860D848406C4860D648806C3A
:102130008860D548C06C0861D348006D4861D248BA
:10214000406D8861D048806DC860CF48C06D08621E
:10215000CC48D0F89800042818D1CB48006ECB4961
:102160000860C948406E4860C748806E8860C648AD
:10217000C06E0861C448006F4861C348406F886101
:10218000C148806FC860C048C06F0862022006F076
:10219000BCFABF48806BBE490864084680680128C5
:1021A00005D1BC48B94988620120486204E0BA48B8
:1021B000B649886200204862B44812F084FE12F0EA
:1021C000B4FD0120B149C86215E0022006F09DFA75
:1021D000B248B34988600EE0022006F096FAB14892
:1021E000AF49886007E0022006F08FFAAE48AC499C
:1021F000886000E000BF00BFA548406913286FD287
:10220000DFE800F00A15263F586E6E6E6E6E6F7F27
:1022100098B1FEFDFCFBFA00012006F04BFAA34842
:102220009F4948600020886299494863A2E20120E2
:1022300006F040FA9648C068012802D198498861A2
:1022400002E000209649886199489549486091E2EA
:10225000012006F02FFA02208D49C8610020486253
:102260000846C068012802D18D49886102E0022039
:102270008B4988618F488A494860002084494863B7
:1022800078E2012006F016FA04208149C861002096
:1022900048620846C068012802D18149886102E08D
:1022A00002207F49886184487D4948600020784940
:1022B00048635FE2012006F0FDF908207449C86117
:1022C000002048620846C068012802D1744988612C
:1022D00002E002207249886178487149486049E209
:1022E00047E2022006F0E6F975486D49C860684883
:1022F000C068012801D1886102E000206849886136
:1023000038E2022006F0D6F90120654988622020D3
:102310005F4948620020C8610846C068012802D1B0
:102320005F49C86102E002205D49C86165485C49B7
:10233000C8601FE2022006F0BDF9012058498862FA
:102340008020534948620020C8610846C0680128BF
:1023500002D15349C86102E002205149C8615A487C
:102360004F49C86006E24748D0F89800012818D1C4
:10237000454800684549086043484068486042480D
:10238000806888604048C06808613F4800694861CB
:102390003D48406988613C488069C8603A48C069E6
:1023A00008623848D0F89800022818D13648006AE8
:1023B000364908603448406A48603348806A88601B
:1023C0003148C06A08613048006B48612E48406B54
:1023D00088612D48806BC8602B48C06B0862294813
:1023E000D0F8980003281ED12748006C27490860C0
:1023F0002548406C486004E0B4E1ACE1A4E10CE1A4
:1024000074E02148806C88601F48C06C08611E48D9
:10241000006D48611C48406D88611B48806DC86034
:102420001948C06D08621748D0F89800042818D1E0
:102430001548006E154908601348406E4860124800
:10244000806E88601048C06E08610F48006F486158
:102450000D48406F88610C48806FC8600A48C06FA3
:102460000862022006F026F90948C06B0849086492
:102470000846C06801282BD114480449886201200D
:1024800048622AE08C5D012078630120E40400208A
:10249000080000200D4B01081D4B01080B490108E5
:1024A0001C050020F9470108734601087B3201082A
:1024B000053301082B350108F9390108733D01087E
:1024C000C5320108033F01083F4101082D4B0108B7
:1024D000F948FA49886200204862F84812F0F3FC93
:1024E00012F023FC0120F549C86243E1F448D0F81A
:1024F0009800012818D1F3480068F0490860F148B5
:1025000040684860EF4880688860EE48C0680861AD
:10251000EC4800694861EB4840698861E948806996
:10252000C860E848C0690862E548D0F89800022809
:1025300018D1E448006AE1490860E248406A48600E
:10254000E048806A8860DF48C06A0861DD48006B47
:102550004861DC48406B8861DA48806BC860D948C4
:10256000C06B0862D648D0F89800032818D1D54827
:10257000006CD2490860D348406C4860D148806CF8
:102580008860D048C06C0861CE48006D4861CD4875
:10259000406D8861CB48806DC860CA48C06D0862D4
:1025A000C748D0F89800042818D1C648006EC3491F
:1025B0000860C448406E4860C248806E8860C14868
:1025C000C06E0861BF48006F4861BE48406F8861B7
:1025D000BC48806FC860BB48C06F0862022006F02C
:1025E00069F8B948C06BB84908640846C068012852
:1025F00005D1B648B14988620120486204E0AE487E
:10260000AE49886200204862AC4812F05CFC12F0CF
:102610008CFB0120A949C862ACE0A948D0F8980019
:10262000012818D1A7480068A4490860A548406857
:102630004860A44880688860A248C0680861A148D2
:10264000006948619F48406988619E488069C86008
:102650009C48C06908629A48D0F89800022818D1AE
:102660009848006A954908609648406A48609548CD
:10267000806A88609348C06A08619248006B48612C
:102680009048406B88618F48806BC8608D48C06BF4
:1026900008628B48D0F89800032818D18948006C4C
:1026A000864908608748406C48608648806C88602E
:1026B0008448C06C08618348006D48618148406D62
:1026C00088618048806DC8607E48C06D08627C4823
:1026D000D0F89800042818D17A48006E774908602D
:1026E0007848406E48607748806E88607548C06E54
:1026F00008617448006F48617248406F8861714892
:10270000806FC8606F48C06F0862022005F0D2FF7A
:102710006D48C06B6C4908640846C068012805D143
:102720006A48664988620120486204E06248634959
:10273000886200204862614812F0C5FB12F0F5FA89
:1027400001205E49C86215E0022005F0B3FF604831
:102750006049C8600EE0022005F0ACFF5E485D49AC
:10276000C86007E0022005F0A5FF5C485949C86031
:1027700000E000BF00BF18E2606850490860A06830
:102780004860E06888602069086160694861A06904
:102790008861E069C860206A08626088012806D004
:1027A00002281ED0042836D0082868D14DE04348BE
:1027B0000068444908604148406848603F48806874
:1027C00088603E480069C8603C48406908613B48F1
:1027D000806948613948C06888613848006AC861C2
:1027E0004EE036480068374908623448406848621D
:1027F00032488068886231480069C8622F48406961
:1028000008632E48806948632C48C06888632B4859
:10281000006AC86334E0294800682A4908642748E8
:102820004068486425488068886424480069C86412
:102830002248406908652148806948651F48C0688A
:1028400088651E48006AC8651AE01C4800681D4972
:1028500008661A48406848661848806888661748BD
:102860000069C86615484069086714488069486768
:102870001248C06888671148006AC86700E000BF56
:1028800000BF92E12688012E06D0022E2AD0042E07
:1028900038D0082E56D145E054F8020F1049086090
:1028A00060684860A0688860E068C860208AA41EEC
:1028B00048610020086146E03D4B0108E404002027
:1028C0008C5D012078630120080000202D4B010859
:1028D000614501081C0500204F440108DD42010844
:1028E000380D002054F8020FFE4908606068486007
:1028F000A0688860E068C860208AA41E4861002043
:10290000086120E054F8020FF749086060684860E9
:10291000A0688860E068C860208AA41E4861002022
:10292000086110E054F8020FF049086060684860E0
:10293000A0688860E068C860208AA41E4861002002
:10294000086100E000BF00BF2FE1A088012802D18C
:102950002020E7490861A088022802D12120E4490B
:102960000861E348006920287ED10520E149C86359
:102970000A2008640F2048640A2088640520C8647F
:1029800008654865462088653C20C86514200866AF
:102990000520D949C8630A2008640F2048640A202A
:1029A00088640520C86408654865462088653C2021
:1029B000C86514200866CF48C16BD048C0F8F8122B
:1029C000CC48016CCD48C0F8FC12CA48416CCB48D9
:1029D000C0F80013C748816CC848C0F80413C54844
:1029E000C16CC648C0F80813C248016DC348C0F89E
:1029F0000C13C048416DC148C0F81013BD48816D2B
:102A0000BE48C0F81413BB48C16DBC48C0F81813C9
:102A1000B848016EB948C0F81C13B748C16BB74835
:102A2000C0F82013B448016CB448C0F82413B2486D
:102A3000416CB248C0F82813AF48816CAF48C0F869
:102A40002C13AD48C16CAD48C0F83013AA48016DD5
:102A5000AA48C0F83413A848416DA848C0F83813F4
:102A6000A548816DA54800E00FE0C0F83C13A248DE
:102A7000C16DA248C0F840139F48016E9F48C0F83E
:102A800044134AF65521C0F8481399480069212893
:102A90007DD105209749C8630720086448640A204F
:102AA00088643220C8640F20086548658865C86559
:102AB000086605209049C8630720086448640A2016
:102AC00088643220C8640F20086548658865C86539
:102AD00008668848C16B8948C0F8F8128548016CBF
:102AE0008648C0F8FC128348416C8448C0F8001343
:102AF0008048816C8148C0F804137E48C16C7F48CF
:102B0000C0F808137B48016D7C48C0F80C13794865
:102B1000416D7A48C0F810137648816D7748C0F847
:102B200014137448C16D7548C0F818137148016ECC
:102B30007248C0F81C137048C16B7048C0F820136D
:102B40006D48016C6D48C0F824136B48416C6B48AC
:102B5000C0F828136848816C6848C0F82C13664890
:102B6000C16C6648C0F830136348016D6348C0F813
:102B700034136148416D6148C0F838135E48816D77
:102B80005E48C0F83C135C48C16D5C4800E00AE058
:102B9000C0F840135848016E5848C0F844134AF62C
:102BA0005521C0F8481300E000BF00BFBDE8F08722
:102BB00010B5034600205249524A00BF012B06D0EF
:102BC000022B28D0042B4AD0082B7DD16BE08C6AD5
:102BD000012C07D08C6A022C04D091F83C4004F000
:102BE00001041CB140F0100040F02000464CA46BE2
:102BF000012C05D1D2F8C440012C01D140F4801041
:102C0000414CE46B012C05D1D2F8C840012C01D114
:102C100040F4001083E0CC6A012C07D0CC6A022C6F
:102C200004D091F83C4004F001041CB140F01000C5
:102C300040F02000344CA46B022C05D1D2F8C440E3
:102C4000012C01D140F480102F4CE46B022C05D1F3
:102C5000D2F8C840012C01D140F400105FE00C6BA9
:102C6000012C07D00C6B022C04D091F83C4004F0EE
:102C700001041CB140F0100040F02000224CA46B75
:102C8000042C05D1D2F8C440012C01D140F48010AD
:102C90001D4CE46B042C05D1D2F8C840012C01D1A5
:102CA00040F400103BE04C6B012C07D04C6B022C25
:102CB00004D091F83C4004F001041CB140F0100035
:102CC00040F02000104C00E028E0A46B082C05D157
:102CD000D2F8C440012C01D140F480100A4CE46BBE
:102CE000082C13E0500D0020680D0020800D0020FE
:102CF000BC5F0120400C0020BC0C00200C600120B7
:102D0000E4060020F85B01200800002005D1D2F87D
:102D1000C840012C01D140F4001000E000BF00BF0A
:102D200010BD30B58FB00446FB4D5020FB494871B3
:102D30000C70200A4870382088700020C8708120EC
:102D4000087140F24440844204D10020C870012040
:102D5000887008710120ADF80400F1480068CDF8D2
:102D600006000020CDF80A000120FFF721FFCDF872
:102D70000E000220ADF81200EA480068059000201D
:102D800006900220FFF714FF07900420ADF8200002
:102D9000E3484068CDF822000020CDF8260004204A
:102DA000FFF706FFCDF82A000820ADF82E00DD4819
:102DB00040680C9000200D900820FFF7F9FE0E905F
:102DC0000621D64805F06BFE40F24440844203D011
:102DD000382101A805F063FE0FB030BD2DE9F04F9A
:102DE0002DED048BABB000200B909FEDCF0AB0EE21
:102DF000409A0A909FEDCD0AF0EE409ADFF830B38A
:102E0000C5480890CB480990CB48008880B2129002
:102E100014A81390851DC84CA41D00211398C170DF
:102E200001211398017150211398417100201190D4
:102E3000109040F223521299881A91427CD031DCD2
:102E400040F21322A1EB0200914276D014DC122949
:102E500074D007DC022972D0052958D0112942F01C
:102E6000AB85B1E0142901F01185152902F04D85DB
:102E7000B1F5047FF3D1F0E040F27F22811A904255
:102E800074D008DC102872D0A0F2322000286FD055
:102E90000B28E4D1FEE36E296BD08E296AD08F29EE
:102EA000DDD1F8E3B0F56C7F00F0F48619DC40F278
:102EB0006312A0EB020190427BD006DC012879D09E
:102EC000032878D00428CAD1E6E3A1F23A210029E8
:102ED00001F03B83012901F03D831029BFD101F0AE
:102EE00050BB40F2B632811A904201F0A48009DC56
:102EF000A0F2B130002873D0012800F0C987032860
:102F0000ADD1FDE307296CD00929A8D185E00621C0
:102F1000139801805421139881701398007940F020
:102F200080011398017154228449284615F0A2FCAF
:102F300083480068286003E0DCE0A2E052E070E033
:102F400080A0007885F842007EA04178432041555A
:102F50007CA0C178442041557AA001794520415593
:102F60007BA00079202806D1302006E054E023E041
:102F7000FEE3BEE096E376A000794621485574A0B2
:102F800041794720415572A001784820415570A0F1
:102F90004178492041556EA081784A204155002151
:102FA0004B2041550120119002206C49086002F02D
:102FB00003BD24E045E3FDE301206949C1F8980021
:102FC0000020C1F89C00F2E70898406A20F4806075
:102FD00000F5806008994862002108984164E6E79E
:102FE000E9E32AE00898406A20F480610898416289
:102FF0000898406A20F4006108984162D7E70AF017
:10300000C6FAFDF7E5F9012005F07DFC07F0AFFDFC
:10301000022005F078FCCAE700BF0021089841644F
:10302000C5E704204D490860002011900898406AC7
:1030300020F4006108984162B9E70898406A20F4DA
:10304000006000F500600899486240F6E100FFF773
:1030500068FE002108984164A9E7374880780E90FF
:103060000E98012806D0022805D0042804D008288C
:1030700004D102E003E002E001E000E000BF00BF95
:1030800095E72D4880780E900E9800F0010050B121
:1030900034488068012802D1CBF8CC000EE0002033
:1030A000CBF8CC000AE02F488068012803D100202B
:1030B000CBF8CC0002E00120CBF8CC000E9800F059
:1030C000020050B12748C068012802D1CBF8D000D7
:1030D0000EE00020CBF8D0000AE02248C0680128AA
:1030E00003D10020CBF8D00002E00120CBF8D000C3
:1030F0005DE75CE760891B498863A089C8636088D5
:103100000861E0884861A08888602089C860084616
:10311000006913286FD227E0E40600204D0000204C
:1031200044070020C40800200000803D000000008B
:10313000F85B012058630120C011002070040020BA
:103140000C60012031313A31383A3430000000004F
:103150004A756E202034203230313900A85F0120BA
:103160000806002008000020DFE800F00A161D36DF
:10317000504545454545666D869FBCE3F2F1F0003C
:10318000012005F0C2FA0020FB494862FB480860B4
:103190000020FB49086300E1012005F0B6FAF94878
:1031A000F5490860F9E0012005F0AFFA0220F44982
:1031B00088610020086208468068012802D1EE4933
:1031C000086102E00220EC490861EF48EA49086022
:1031D0000020EB490863E0E0012005F096FA0420A6
:1031E000E74988610020086208468068012803D109
:1031F000E149086103E0CFE00220DF490861E348CC
:10320000DD4908600020DE490863C6E0012005F0C2
:103210007CFA0820DA498861002008620846806844
:10322000012802D1D449086102E00220D249086194
:10323000D748D1490860B0E0022005F066FAD548C9
:10324000CD498860A9E0022005F05FFA0120CA4953
:1032500048622020CA4908620020886108468068C8
:10326000012802D1C449486102E00220C2494861F4
:10327000C948C149886090E0022005F046FA012063
:10328000BD4948628020BE49086200208861084626
:103290008068012802D1B849486102E00220B6499D
:1032A0004861BE48B449886077E0022005F02DFAF5
:1032B000B3488068012805D1B948BA49886201201D
:1032C000486204E0B848B749886200204862B548BF
:1032D00011F0F9FD11F029FD0020B249086201202A
:1032E000C8625AE0022005F010FAAE480069AD4904
:1032F0000860084640694042486008468069886026
:103300009F488068012804D1A5488862012048624E
:1033100004E0A548A349886200204862A14811F052
:10332000D2FD11F002FD00209E4908620120C86212
:1033300033E0022005F0E9F991488068012808D1BE
:103340009748984988620120486207E01DE015E02F
:103350000DE095489349886200204862914811F039
:10336000B2FD11F0E2FC01208E49C86215E0022096
:1033700005F0CBF98D48804988600EE0022005F009
:10338000C4F98B487C49886007E0022005F0BDF94C
:1033900088487949886000E000BF00BF78484069EC
:1033A00013287DD2DFE800F00A151C354E7C7C7CAA
:1033B0007C7C646B869FBCE6E5E4E300012005F0BD
:1033C00079F96E486C494860002088626C4948630E
:1033D00035E1012005F06EF97748674948602EE134
:1033E000012005F067F902206549C86100204862A4
:1033F0000846C068012802D15F49886102E00220C6
:103400005D4988616D485C49486000205C494863BB
:1034100015E1012005F04EF904205949C86100204A
:1034200048620846C068012802D15349886102E019
:1034300002205149886162484F4948600020504944
:103440004863FCE0012005F035F908204C49C861CB
:10345000002048620846C068012802D146498861B8
:1034600002E0022044498861564843494860E6E04A
:10347000022005F01FF954483F49C860DFE00220F0
:1034800005F018F901203C49886220203C49486237
:103490000020C8610846C068012804D1364900E010
:1034A000CCE0C86102E002203349C8614748324994
:1034B000C860C4E0022005F0FDF801202E498862B2
:1034C00080202F4948620020C8610846C068012852
:1034D00002D12949C86102E002202749C8613C485D
:1034E0002549C860ABE0022005F0E4F82448C06834
:1034F000012805D137482B4988620120486204E041
:1035000035482849886200204862264811F0DBFCD3
:1035100011F00BFC0020234908620120C8628EE0F4
:10352000022005F0C7F81F4800691E4908600846D8
:103530004069404248600846806988601048C06819
:10354000012804D1234888620120486204E022480F
:103550001449886200204862124811F0B4FC11F04E
:10356000E4FB00200F4908620120C86267E05EE0CA
:1035700056E04EE032E000001C0500207B320108DE
:1035800008000020E33201084B3301081D37010811
:10359000FB3C0108A3320108EB3D01083340010860
:1035A0000D4B0108E40400201D4B01080B490108E4
:1035B000F947010873460108053301082B35010856
:1035C000F9390108733D0108C5320108033F0108BC
:1035D0003F4101082D4B01083D4B0108022005F039
:1035E00069F8FE48C068012805D1FD48FD49886298
:1035F0000120486204E0FC48FA49886200204862E1
:10360000F84811F060FC11F090FB0120F549C86208
:1036100015E0022005F04EF8F448F549C8600EE0C8
:10362000022005F047F8F348F149C86007E002209E
:1036300005F040F8F048EE49C86000E000BF00BF68
:10364000B5E440F22551139801601621139881705A
:103650001398007940F0800113980171DF48008FC2
:103660002880DE48008F6881DC48808FA881DB4895
:10367000008A6880D948808AE880D8480089A88074
:10368000D648808928810020E881002105F10E00BC
:10369000298202E00EE152E0C8E06982A98201209D
:1036A000119084E4D54880780E906088401ECBF855
:1036B00020006068CBF86C00A068CBF87400A0898B
:1036C000CBF87C000E98012808D1D4F80E10CC4815
:1036D000C0F8D011D4F81210C0F8D4110E980228F6
:1036E00008D1D4F80E10C648C0F8D811D4F812107A
:1036F000C0F8DC110E9804280AD1D4F80E1000E0AE
:103700007DE2BF48C0F8E011D4F81210C0F8E4110F
:103710000E98012808D1D4F80E10B948C0F8E81165
:10372000D4F81210C0F8EC117F21DBF86C0090FB8C
:10373000F1F0B4490867E08AB149086037E440F223
:1037400022511398016024211398817013980079F5
:1037500040F0800113980171A84880780E900E986F
:103760002880BBF82000401E6880DBF86C0000E079
:1037700098E06860DBF87400A860BBF87C00A88162
:103780009F480088E8820E98012809D19C48D0F80B
:10379000D001C5F80E009A48D0F8D401C5F80E0043
:1037A0000E9802280CD19648D0F8D801C5F80E0022
:1037B000934801E024E085E0D0F8DC01C5F80E0074
:1037C0000E98042809D18E48D0F8E001C5F80E0003
:1037D0008B48D0F8E401C5F80E000E98082809D1EE
:1037E0008748D0F8D801C5F80E008548D0F8D80130
:1037F000C5F80E00002068832883012011900AE498
:1038000054F8020F7749086060684860A0688860D3
:10381000A069C860E06808612069486160698861E2
:10382000A069C861E069A41E086205E44FF4A561BF
:10383000139801602E21139881701398007940F03D
:103840008001139801710120AD1C25F8020C654818
:103850000068286063484068686062488068A860C3
:103860006048C068A8615F48006AE8615D48006917
:1038700044F80E0F5B48406960605A488069A06058
:103880005848C069A0600E3C00202884AD1E00216D
:1038900005F12200A984E98429856985A98501208B
:1038A000119025E42688D4F802000C9056490C9813
:1038B00008601DE42688D4F802000C9052490C9848
:1038C000486015E45148D0F87401082804D05048E5
:1038D000D0F87401082806D100204C49C1F87401C1
:1038E0004B49C1F874012688D4F802000C9049486D
:1038F000D0F8980007286FD2DFE800F004052E57B3
:10390000A3CCFE0077E14448806A28B100BF0020C4
:103910000AF08EFD0028FAD106F00100D8B100208F
:103920003A49C1F814010C98886008468068096813
:10393000401A3649C1F8EC00012100200AF079FB59
:103940008146B9F5807F03D100203349886202E0C7
:103950000120314988624EE12F48C06A28B100BF7A
:1039600000200AF084FD0028FAD106F00200D8B148
:1039700000202749C1F814010C9888600846806827
:103980000968401A2249C1F8EC00012100200AF020
:10399000DBF98146B9F5807F03D100211E48C16261
:1039A00002E001211C48C16225E11B48006B28B1DF
:1039B00000BF01200AF03CFD0028FAD106F0040007
:1039C00058B101201149C1F814010C98C86008468B
:1039D000C0684968411A21E00CE131E0080000208C
:1039E0002D4B0108E40400203D4B0108614501080E
:1039F0001C0500204F440108DD420108C0110020D1
:103A0000845B0120080600200000002044070020FD
:103A1000C40800208C5D0120E4060020FB48C0F8AB
:103A2000F010012108460AF004FB8146B9F5807FB9
:103A300003D10021F648016302E00121F44801634B
:103A4000D9E0F348406B28B100BF00200AF00FFD19
:103A50000028FAD106F00800D8B10120ED49C1F8DC
:103A600014010C98C8600846C0684968411AE948C2
:103A7000C0F8F010012108460AF066F98146B9F550
:103A8000807F03D10021E248416302E00121E04848
:103A90004163B0E0DE48806A40B106F0010028B121
:103AA00000BF00200AF0C4FC0028FAD1D848C06A40
:103AB00040B106F0020028B100BF00200AF0D7FC98
:103AC0000028FAD106F00100E8B10020CF49C1F882
:103AD00014010C988860084680680968401ACB4930
:103AE000C1F8EC00012100200AF0A3FA8146B9F5E3
:103AF000807F05D1002000E025E0C549886202E012
:103B00000120C349886206F00200D8B10020C149F3
:103B1000C1F814010C988860084680680968401A4A
:103B2000BC49C1F8EC00012100200AF00DF98146E2
:103B3000B9F5807F03D10021B548C16202E00121BF
:103B4000B348C16257E0B248006B40B106F00400D0
:103B500028B100BF01200AF06BFC0028FAD1AC4864
:103B6000406B40B106F0080028B100BF01200AF008
:103B70007EFC0028FAD106F00400D8B10120A34948
:103B8000C1F814010C98C8600846C0684968411A19
:103B90009E48C0F8F010012108460AF04AFA814612
:103BA000B9F5807F03D100219948016302E001212A
:103BB0009748016306F00800D8B101209549C1F883
:103BC00014010C98C8600846C0684968411A9148B9
:103BD000C0F8F010012108460AF0B6F88146B9F5A0
:103BE000807F03D100218A48416302E00121884897
:103BF000416300E000BF00BF0020119020E586482F
:103C0000867806F0010070B1002080490864804881
:103C1000806A28B100BF00200AF00AFC0028FAD10F
:103C20000120FCF704FF06F0020070B10020794982
:103C300008647748C06A28B100BF00200AF017FC6A
:103C40000028FAD10220FCF7F2FE06F0040070B161
:103C500000216E4841646E48006B28B100BF01200E
:103C60000AF0E6FB0028FAD10420FCF7E0FE06F09B
:103C7000080070B10021674841646548406B28B175
:103C800000BF01200AF0F3FB0028FAD10820FCF75E
:103C9000CEFED5E42688D4F802000C905F48D0F818
:103CA000980007287ED2DFE800F0040525456586E8
:103CB000D500E9E05648806A28B100BF00200AF02C
:103CC000B7FB0028FAD106F0010090B14F490C98DB
:103CD000C1F8EC00012100200AF0ABF98146B9F5EA
:103CE000807F03D100204A49886202E001204849D0
:103CF0008862C9E04648C06A28B100BF00200AF0C7
:103D0000B6FB0028FAD106F0020090B141490C98A8
:103D1000C1F8EC00012100200AF016F88146B9F53F
:103D2000807F03D100213A48C16202E00121384876
:103D3000C162A9E03648006B28B100BF01200AF03B
:103D400077FB0028FAD106F0040090B12F490C98B7
:103D5000C1F8F000012108460AF06BF98146B9F577
:103D6000807F03D100212A48016302E00121284815
:103D7000016389E02648406B28B100BF00200AF0AB
:103D800076FB0028FAD106F0080098B121490C987A
:103D9000C1F8F0000121084609F0D6FFB9F5807F8F
:103DA00005D100E06FE000211948416302E00121E4
:103DB0001748416368E01648806A40B106F0010088
:103DC00028B100BF00200AF033FB0028FAD11048C8
:103DD000C06A40B106F0020028B100BF00200AF01E
:103DE00046FB0028FAD106F00100E0B107490C9823
:103DF000C1F8EC00012100200AF01BF98146B9F559
:103E0000807F0DD10020024988620CE04407002029
:103E1000E4060020C4080020C01100208C5D0120B1
:103E20000120F749886206F0020090B1F5490C982C
:103E3000C1F8EC000121002009F086FF8146B9F5A8
:103E4000807F03D10021EE48C16202E00121EC48ED
:103E5000C16219E0EA48006B40B106F0040028B1E5
:103E600000BF01200AF0E4FA0028FAD1E448406BD0
:103E700040B106F0080028B100BF01200AF0F7FAAF
:103E80000028FAD100E000BF00BF0020119008E434
:103E9000DD48C7788678DD48D0F89800072874D2C6
:103EA000DFE800F004051D354D659500BFE006F024
:103EB000010098B1012F08D1D548D649C1F8EC00CE
:103EC000012100200AF0B5F808E0D1484042D1496C
:103ED000C1F8EC00012100200AF0ABF8A7E006F0E1
:103EE000020098B1012F08D1C948C649C1F8EC00B9
:103EF0000121002009F028FF08E0C5484042C149DF
:103F0000C1F8EC000121002009F01EFF8FE006F04F
:103F1000040098B1012F08D1BD49BE48C0F8F01087
:103F2000012108460AF085F808E0B9494942B94834
:103F3000C0F8F010012108460AF07BF877E006F09F
:103F4000080098B1012F08D1B149AE48C0F8F0106F
:103F50000121002009F0F8FE08E0AD484042A949DF
:103F6000C1F8EC000121002009F0EEFE5FE006F050
:103F70000100A0B1012F09D1A548A649C1F8EC0064
:103F8000012100200AF055F809E04FE0A048404226
:103F9000A049C1F8EC00012100200AF04AF806F01F
:103FA000020098B1012F08D199489649C1F8EC0058
:103FB0000121084609F0C8FE08E0954840429149B1
:103FC000C1F8EC000121084609F0BEFE2FE006F022
:103FD000040098B1012F08D18D498E48C0F8F01027
:103FE000012108460AF025F808E089494942894834
:103FF000C0F8F010012108460AF01BF806F008008E
:1040000098B1012F08D182497E48C0F8F0100121F3
:10401000084609F099FE08E07D4840427949C1F818
:10402000EC000121084609F08FFE00E000BF00BF50
:104030000020119035E474488678C7787348D0F82A
:10404000980007287ED2DFE800F00405519FF8E8C9
:10405000E70076E26A48806A28B100BF00200AF0D3
:10406000E7F90028FAD106F0010078B36948006F3B
:10407000022820D1012F06D16648D0F8800065497A
:10408000C1F8EC0008E0022F06D16248D0F88800A1
:1040900040426049C1F8EC000221002009F0C9FF4C
:1040A0008146B9F5807F03D100205549886202E03E
:1040B0000220534988625748006F012815D1012F0B
:1040C00005D153485349C1F8EC0007E00DE0022F39
:1040D00004D14F4840424F49C1F8EC000221002072
:1040E00009F0A7FF0220464988622AE24448C06AD4
:1040F00028B100BF00200AF0BAF90028FAD106F072
:10410000020088B33F48006F022822D1012F06D158
:104110003C48D0F880003B49C1F8EC0008E0022F91
:1041200006D13848D0F8880040423649C1F8EC0042
:104130000221002009F008FE8146B9F5807F05D1F3
:10414000002100E0FCE12E48C16202E002212C487F
:10415000C1622C48006F012815D1012F05D12C48D0
:104160002849C1F8EC0007E00DE0022F04D12848EF
:1041700040422449C1F8EC000221002009F0E4FD8E
:1041800002211F48C162DCE11D48006B28B100BF5D
:1041900001200AF04DF90028FAD106F0040070B3AE
:1041A0001C48406F02281FD1012F05D11948D0F8B3
:1041B0008410C0F8F01008E0022F06D11548D0F89E
:1041C0008C0041421348C0F8F0100221012009F090
:1041D00030FF8146B9F5807F03D100210848016393
:1041E00002E00221064801630A48406F012823D1FA
:1041F000012F14D106490748C0F8F01015E01BE064
:10420000E4060020C4080020C01100208C5D0120BD
:1042100078FDFF7F44070020F7E059E00DE0022F12
:1042200003D1FE49FE48C0F8F0100221012009F038
:1042300000FF0221FB48016383E1FA48406B28B18B
:1042400000BF01200AF013F90028FAD106F0080097
:1042500078B3F548406F02281FD1012F05D1F248ED
:10426000D0F88410C0F8F01008E0022F06D1EE4814
:10427000D0F88C004142EC48C0F8F0100221012037
:1042800009F062FD8146B9F5807F03D10021E54840
:10429000416302E00221E3484163E348406F0128A3
:1042A00015D1012F06D1DD494942DF48C0F8F01091
:1042B00006E00CE0022F03D1D849DB48C0F8F0102B
:1042C0000221012009F040FD0221D648416338E176
:1042D000D448806A40B106F0010028B100BF002038
:1042E0000AF0A6F80028FAD1CE48C06A40B106F01C
:1042F000020028B100BF00200AF0B9F80028FAD166
:1043000006F0010080B3C648006F022820D1012FBB
:1043100006D1C348D0F88000C149C1F8EC0008E0DC
:10432000022F06D1BE48D0F888004042BC49C1F8EF
:10433000EC000221002009F07CFE8146B9F5807F67
:1043400003D10020B749886202E00220B5498862A3
:10435000B348006F012815D1012F06D1AF48404264
:10436000AF49C1F8EC0006E00CE0022F03D1AB48E6
:10437000AB49C1F8EC000221002009F05AFE0220EE
:10438000A849886206F0020080B3A748006F02289F
:1043900020D1012F06D1A448D0F88000A249C1F84D
:1043A000EC0008E0022F06D19F48D0F88800404278
:1043B0009D49C1F8EC000221002009F0C5FC8146AE
:1043C000B9F5807F03D100219648C16202E0022145
:1043D0009448C1629448006F012815D1012F06D17D
:1043E0008E4840429049C1F8EC0006E00CE0022FF4
:1043F00003D18A488C49C1F8EC000221002009F061
:10440000A3FC02218748C1629BE08648006B40B153
:1044100006F0040028B100BF01200AF009F80028C6
:10442000FAD18048406B40B106F0080028B100BFC7
:1044300001200AF01CF80028FAD106F0040078B335
:104440007748406F02281FD1012F05D17448D0F85A
:104450008410C0F8F01008E0022F06D17048D0F8A0
:104460008C0041426E48C0F8F0100221012009F092
:10447000E0FD8146B9F5807F03D1002169480163E1
:1044800002E00221674801636548406F012815D1A9
:10449000012F06D1614949426148C0F8F01006E099
:1044A0000CE0022F03D15D495D48C0F8F0100221F5
:1044B000012009F0BEFD02215A48016306F0080000
:1044C00078B35948406F02281FD1012F05D15648B3
:1044D000D0F88410C0F8F01008E0022F06D152483E
:1044E000D0F88C0041425048C0F8F0100221012061
:1044F00009F02AFC8146B9F5807F03D100214948A3
:10450000416302E00221474841634748406F012868
:1045100015D1012F06D1414949424348C0F8F01056
:1045200006E00CE0022F03D13C493F48C0F8F010F0
:104530000221012009F008FC02213A48416300E011
:1045400000BF00BF00201190A1E4FCF77AFF00201B
:1045500011909CE42846FCF7B4FA1090C2211398FD
:1045600001700821139841701098C1B2139881709E
:104570001398007940F08001139801710120119087
:1045800085E420881290129819287DD008DC07282D
:104590001BD00B2879D0152878D0172877D148E17F
:1045A0002B2804D02D2855D0302870D1EAE01F48A0
:1045B000D0F894001E4948611C48D0F898101C4857
:1045C00081614AF6552101625EE11548D0F8D410A8
:1045D000174881621248816B154881631048816CCD
:1045E000134881641048D0F8D4101148C1620E48B5
:1045F000816B0F48C1630C48816C0D48C164084849
:10460000D0F8D8100A4801630548C16B0848016416
:104610000348C16C0648016503480BE0880200802E
:1046200044070020E4060020C40800208C5D01201F
:104630000C600120D0F8D810F8484163F848C16BED
:10464000F6484164F648C16CF44841654AF6552184
:10465000816519E1F348016FF0480167F048016F87
:10466000EE484167EF48416FEC488167EC48416F85
:10467000EA48C167EB48D0F88010E848C0F88010DD
:10468000E748D0F8801003E0FCE055E08BE0FAE06A
:10469000E248C0F88410E348D0F88410DF48C0F83E
:1046A0008810DF48D0F88410DC48C0F88C10DD4852
:1046B000D0F88810D948C0F89010D948D0F88810A0
:1046C000D648C0F89410D748D0F88C10D348C0F81A
:1046D0009810D348D0F88C10D048C0F89C10D1481E
:1046E000016ECE48C0F8A010CD48016ECB48C0F88E
:1046F000A410CC48416EC948C0F8A810C848416E03
:10470000C648C0F8AC10C748816EC448C0F8B010A5
:10471000C348816EC148C0F8B410C248C16EBF48DA
:10472000C0F8B810BE48C16EBC48C0F8BC104AF60C
:104730005521C0F8D410A7E0B848DBF88C10C0F8B9
:104740001C11DBF89010C0F82011DBF89410C0F8B1
:104750003411DBF89810C0F83811DBF89C10C0F861
:104760004C11DBF8A010C0F85011DBF8A410C0F811
:104770006411DBF8A810C0F868114AF65521C0F89A
:10478000181181E0A848D0F8BC11A448C0F8E41082
:10479000A548D0F8C011A148C0F8E8104AF6552144
:1047A000C0F8EC1070E0A048D0F8D0119B48C0F8D9
:1047B000D0119D48D0F8D4119848C0F8D4119A4827
:1047C000D0F8D8119548C0F8D8119748D0F8DC1126
:1047D0009248C0F8DC119448D0F8E0118F48C0F836
:1047E000E0119148D0F8E4118C48C0F8E4118E48EB
:1047F000D0F8E8118948C0F8E8118B48D0F8EC11DE
:104800008648C0F8EC11DBF87010C0F8F011DBF846
:104810002010C0F8F411DBF87C10C0F8F8118248C1
:1048200001687E48C0F8FC114AF65521C0F8001214
:104830002AE07E48008F81B27848A0F834127B4885
:10484000808F81B27548A0F836127848008A81B20C
:104850007248A0F838127548808A81B26F48A0F873
:104860003C127248008981B26C48A0F83A126F4835
:10487000808981B26948A0F83E124AF65521C0F8F5
:10488000401201E000E000BF00BF5DE62068079035
:10489000D4F80480D4F808A0E06806902069059058
:1048A00060690490A0690390E0690290206A019019
:1048B000606A009007982E2872D032DCA0F10200C6
:1048C0002C2881F01F80DFE810F064011D089B0098
:1048D0001D081D081D081D081D081D081D085C0178
:1048E00060011D08AD045101590155011D081D0845
:1048F0001D081D081D081D081D081D081D081D0890
:104900001D081D081D08C0046A01EC03FA031F04FA
:10491000350439043F04700282044901DD03E003D9
:104920004D013C2879D00ADCA0F12F000A28C8D21A
:10493000DFE800F0F1F0EFEEEDECEBEAE93740F202
:104940002352811A904275D012DCB0F5C87F00F076
:10495000BD8705DC3D286ED03E2840F0D387C5E0FA
:10496000A0F21320B0B3A0F2ED200028F5D1FCE3B3
:1049700003296ED0A1F2631028B1A0F2512050B3E8
:104980000228EAD128E008F002FEFBF721FD012011
:1049900003F0B9FF06F0EBF8022003F0B4FF51E397
:1049A00076E32148C0F8BC81D0F8BC0110B90BF007
:1049B00007FD0EE01C48D0F8BC01012802D10BF025
:1049C000FFFC06E01848D0F8BC01022801D110F025
:1049D000DCF8E4E7A8E09FE04746012F04D1144843
:1049E0001049C1F8EC0006E0022F04D11048404203
:1049F0000C49C1F8EC000221002009F01AFBCEE7B7
:104A000000210648C0F8D410012003F07CFF06F016
:104A1000AEF8022003F077FFC1E70DE00C60012043
:104A2000C408002044070020845B01200800002007
:104A300078FDFF7FF2E34CE0B8F1010F0AD0B8F146
:104A4000020F16D0B8F1040F22D0B8F1080F3DD1F3
:104A50002DE0F9E3FE48C0F800A0FD490698486043
:104A6000059888600498C860039848610020086130
:104A70002DE0F848C0F800A0F6490698486005986F
:104A800088600498C86003984861002008611EE0AF
:104A9000F148C0F800A0F049069848600598886081
:104AA0000498C86003984861002008610FE0EB4853
:104AB000C0F800A0E9490698486005988860049805
:104AC000C860039848610020086100E000BF00BF93
:104AD00065E7E348C0F81880E248C0F818A0E0494C
:104AE0000698C861DF490598C86158E7DC48C0F8F6
:104AF0007881C0F87CA1DB490698C1F87801059857
:104B0000C1F87C014BE7AEE29DE20DE287E179E17D
:104B10006BE15DE14FE1C0E20421002009F089FA78
:104B20000120FBF784FF3AE7CDF83880DDF83880C4
:104B300008F0010018B10120CBF8CC0002E0002001
:104B4000CBF8CC000E9800F0020018B10120CBF891
:104B5000D00002E00020CBF8D00020E74046FBF771
:104B6000E9FB1CE740460BF079FC18E7BE48C0F8AB
:104B7000408114E7BD48C0F8008010E70BF0E8F969
:104B80000DE76068CBF84C0009E76068CBF8480097
:104B900005E76068B649086000201190FFE64FF411
:104BA0000060B449886140108861B8F57A7F2BD1E4
:104BB00040048861401488610020A949C1F81401AB
:104BC0000846D0F81401AC49486011200860012063
:104BD00048610F20C8610846C0F834A00698886074
:104BE0000020A049C1F814010846D0F81401A349D7
:104BF000486011200860012048610F20C861084604
:104C0000C0F834A00698886018F57A7F2DD14FF04F
:104C10000060984988614014886100209049C1F87B
:104C200014010846D0F81401934948601220086026
:104C3000012048610520C8610846C0F834A00698E4
:104C4000886000208749C1F814010846D0F8140193
:104C50008A49486012200860012048610520C86127
:104C60000846C0F834A006988860B8F5FA6F0BD1F2
:104C7000112082490860012048610F20C861084660
:104C8000C0F834A00698886018F5FA6F0BD112208E
:104C90007A490860012048610520C8610846C0F8CB
:104CA00034A00698886040F6B83080452DD14FF486
:104CB000006070498861C003886101206849C1F8BB
:104CC00014010846D0F814016B49486011200860AF
:104CD000012048610F20C8610846C0F834A006983A
:104CE000886001205F49C1F814010846D0F814011A
:104CF0006249486011200860012048610F20C861A6
:104D00000846C0F834A0069888605D4880452DD1DB
:104D10004FF4006057498861C00388610120504901
:104D2000C1F814010846D0F8140153494860122014
:104D30000860012048610F20C8610846C0F834A00F
:104D40000698886001204749C1F814010846D0F848
:104D500014014A49486012200860012048610F2070
:104D6000C8610846C0F834A006988860B8F57A6F24
:104D70000BD1112041490860012048610F20C86112
:104D80000846C0F834A00698886018F57A6F0BD1F1
:104D900012203A490860012048610520C861084690
:104DA000C0F834A006988860F9E52F48C0F838802C
:104DB000C0F848A0F3E53048C0F83C80C0F840A0F7
:104DC0002D4906984864059888640498C864E6E507
:104DD0002948C0F85080C0F854A027490698886533
:104DE0000598C86504980866D9E52448C0F83C8051
:104DF000C0F840A021490698486405988864049842
:104E0000C864CCE51D48C0F85080C0F854A01B49C8
:104E1000069888650598C86504980866BFE5164831
:104E2000C16B1348C0F8F8121348016C1048C0F861
:104E3000FC121148416C0E48C0F800130E48816CFA
:104E40000B48C0F804130C48C16C09481AE0000074
:104E5000380D0020500D0020680D0020800D00202E
:104E600044070020C4080020440A0020281C0040F9
:104E70000C60012000100240400C0020BC0C0020FF
:104E800048F4FFFFC0F80813FC48016DFC48C0F867
:104E90000C13FA48416DFA48C0F81013F748816DB9
:104EA000F748C0F81413F548C16DF548C0F8181359
:104EB000F248016EF248C0F81C13F248C16BF0488A
:104EC000C0F82013EF48016CED48C0F82413ED48FA
:104ED000416CEB48C0F82813EA48816CE848C0F8F8
:104EE0002C13E848C16CE648C0F83013E548016D62
:104EF000E348C0F83413E348416DE148C0F8381383
:104F0000E048816DDE48C0F83C13DE48C16DDC48E6
:104F1000C0F84013DB48016ED948C0F844134AF684
:104F20005521C0F848133AE50520D449C8630A2042
:104F300008640F2048640A2088640520C864086556
:104F40004865462088653C20C86514200866052011
:104F5000CC49C8630A2008640F2048640A2088648A
:104F60000520C86408654865462088653C20C865FA
:104F700014200866C148C16BC148C0F8F812BF4888
:104F8000016CBF48C0F8FC12BC48416CBC48C0F87A
:104F90000013BA48816CBA48C0F80413B748C16C12
:104FA000B748C0F80813B548016DB548C0F80C13F0
:104FB000B248416DB248C0F81013B048816DB04896
:104FC000C0F81413AD48C16DAD48C0F81813AB4814
:104FD000016EAB48C0F81C13AA48C16BA848C0F8C2
:104FE0002013A848016CA648C0F82413A548416CBA
:104FF000A348C0F82813A348816CA148C0F82C131B
:10500000A048C16C9E48C0F830139E48016D9C4872
:10501000C0F834139B48416D9948C0F8381399483B
:10502000816D9748C0F83C139648C16D9448C0F80C
:1050300040139448016E9248C0F844134AF6552133
:10504000C0F84813F2E300208F49C1F85801C1F8B5
:105050005C01C1F86001C1F864010FF090FE00200E
:105060000FF09CFEE2E308F092FA0DF0C5FCFBF7AE
:10507000AFF9012003F047FC05F079FD022003F0B1
:1050800042FCD3E30BF04DFAD0E30BF027FACDE36B
:1050900040460BF01AFB0E90C8E37C48C0F8C8816C
:1050A000C4E3B8F57A7F02D17948C0F868A018F552
:1050B0007A7F03D14FF0FF3075490860B6E3B8F549
:1050C0007A7F03D14FF0806072490860B8F5FA6FBB
:1050D00003D14FF480606F49086040F6B8308045D6
:1050E00002D101206A49C866B8F57A6F03D1012060
:1050F0006649C1F8B40041F28830804503D1AA2046
:105100006249C1F8CC00FEE3B8F1000F02D160485B
:10511000C0F87080B8F1010F02D15D48C0F870800E
:10512000BAF1000F05DDBAF5FA6F02DA5848C0F897
:1051300008A0E8E35848C0F84481E4E35648C0F8C2
:105140004C80C0F83CA0DEE3B8F1010F0CD1BAF1FD
:10515000000F03D14FF4803050498861BAF1010F3C
:1051600002D101204D49886100E086E3B8F1020FC9
:105170000CD1BAF1000F03D14FF4003047498861D8
:10518000BAF1010F02D1022044498861B8F1030F3E
:105190000CD1BAF1000F03D14FF480203F49886150
:1051A000BAF1010F02D104203C498861B8F1040F23
:1051B0000CD1BAF1000F03D14FF4002037498861B8
:1051C000BAF1010F02D10820344988619BE3B8F19C
:1051D000000F09D0B8F1010F0DD0B8F1020F10D0B7
:1051E000B8F1030F1BD113E04FF400102C490860F5
:1051F0004000086014E0202029490860400408604D
:105200000EE04FF40010264908604020086007E0D7
:105210002020234908604020086001E046E000BFEC
:1052200000BF70E361681648C0F82C124AF6552199
:10523000C0F8301205F09BFC1148D0F82C02CBF8D6
:10524000C000002011905EE303E01648A0F8D4806F
:1052500059E3606814490860A0684860E0688860A5
:105260002069C86060690861A0694861E069886177
:10527000206AC861606A086245E30000400C0020B3
:105280000C600120BC0C0020845B01208C5D01209F
:10529000C40B0020180C0240440A00200000024009
:1052A0001804024008060020E40400206068F84961
:1052B0008863A068C863E068086120694861606924
:1052C0008860A069C860E069F2490860206A4860A7
:1052D000EF4800690D2807D0ED4800690E2803D07B
:1052E000EB4800690F2812D1E948806BE84908644F
:1052F000084640690D2807D0084640690E2803D0AB
:10530000084640690F2802D10020E1494861E04881
:1053100040690D2807D0DE4840690E2803D0DC48DC
:1053200040690F2812D1DA48C06BD9490864084691
:1053300000690D2807D0084600690E2803D00846EA
:1053400000690F2802D10020D1490861D0480069C6
:10535000132873D2DFE800F00A13243A50727272F5
:105360007272667790A9CAF9F7F6F500012003F08A
:10537000CCF90020C8494862C84808601AE10120F9
:1053800003F0C3F9C2488068012802D1C24908610C
:1053900002E00020C0490861C148BF49086009E136
:1053A000012003F0B2F90220B949886100200862A7
:1053B00008468068012802D1B749086102E002204E
:1053C000B5490861B748B4490860F3E0012003F02B
:1053D0009CF90420AE498861002008620846806874
:1053E000012802D1AC49086102E00220AA49086103
:1053F000AD48A9490860DDE0012003F086F90820E6
:10540000A34988610020086208468068012802D10B
:10541000A149086102E002209F490861A3489E4912
:105420000860C7E0022003F070F9A1489A4988603B
:1054300097488068012802D1086103E0B9E00020A4
:1054400095490861B6E0022003F05FF90120924916
:10545000486220208E4908620020886108468068E2
:10546000012802D18C49486102E002208A49486142
:105470009048894988609DE0022003F046F90120A8
:105480008549486280208249086200208861084678
:105490008068012802D18049486102E002207E49EB
:1054A000486185487C49886084E0022003F02DF93A
:1054B0007748806B7649086408468068012805D1E2
:1054C0007E487F4988620120486204E07D487C492B
:1054D0008862002048627A480FF0F5FC0FF025FC46
:1054E0000020774908620120C86263E0022003F0CF
:1054F0000CF96748806B6649086471480069704917
:1055000008600846406940424860084680698860F3
:105510005F488068012804D1684888620120486299
:1055200004E06848664988620020486264480FF0D9
:10553000CAFC0FF0FAFB0020614908620120C86232
:1055400038E02FE027E01FE0FFE7022003F0DDF85E
:105550004F48806B4E49086408468068012805D191
:105560005648574988620120486204E0554854492A
:1055700088620020486252480FF0A5FC0FF0D5FB6E
:1055800001204F49C86215E0022003F0BEF84E48E2
:10559000414988600EE0022003F0B7F84B483E49CD
:1055A000886007E0022003F0B0F849483A49886073
:1055B00000E000BF00BF36484069132867D2DFE82B
:1055C00000F00A13243A50666666666691A1BAD363
:1055D000F9F7F6F5F400012003F06CF82F482E4996
:1055E00048600020886246E1012003F063F8284803
:1055F000C068012802D12849886102E000202649BC
:10560000886134482449486035E1012003F052F8AC
:1056100002201F49C861002048620846C06801286E
:1056200002D11D49886102E002201B4988612A4895
:10563000194948601FE1012003F03CF80420144997
:10564000C861002048620846C068012802D112499A
:10565000886102E002201049886120480E494860B4
:1056600009E1012003F026F808200949C86100205B
:1056700048620846C068012802D10749886102E0F3
:10568000022005498861164803494860F3E0F1E0CB
:1056900008000020000000201C0500207B320108CB
:1056A000E33201084B3301081D370108FB3C0108B8
:1056B000A3320108EB3D0108334001080D4B0108FE
:1056C000E40400201D4B01080B490108F9470108BB
:1056D00073460108053301082B350108F939010823
:1056E000733D0108022002F0E5FFFE48FE49C86054
:1056F000FE48C068012801D1886102E00020FA4913
:105700008861B8E0022002F0D5FF0120F6498862E6
:105710002020F64948620020C8610846C068012878
:1057200002D1F149C86102E00220EF49C861F048A6
:10573000ED49C8609FE0022002F0BCFF0120EA4969
:1057400088628020E94948620020C8610846C06834
:10575000012802D1E449C86102E00220E249C8619F
:10576000E448E149C86086E0022002F0A3FFDF4878
:10577000C06BDE4908640846C068012805D1DE48D0
:10578000DE4988620120486204E0DD48DB49886226
:1057900000204862D9480FF096FB0FF0C6FA0020AF
:1057A000D64908620120C86265E05CE054E04CE044
:1057B0002BE0FFE7022002F07DFFCC48C06BCB4915
:1057C0000864CE480069CD490860084640694042F7
:1057D0004860084680698860C448C068012804D1D0
:1057E000C54888620120486204E0C548C349886210
:1057F00000204862C1480FF066FB0FF096FA0020C7
:10580000BE4908620120C86235E0022002F052FF62
:10581000B648C06BB54908640846C068012806D17F
:10582000B548B64988620120486205E06BE0B4489B
:10583000B249886200204862B0480FF044FB0FF084
:1058400074FA0120AD49C86215E0022002F032FF6F
:10585000AC48A549C8600EE0022002F02BFFAA4820
:10586000A149C86007E0022002F024FFA7489E4932
:10587000C86000E000BF00BF45E060680F90A0680E
:105880000D900F98012802D19849886002E000200D
:10589000964988600D9830B1022808D004280AD0B3
:1058A000082810D10BE00020904988610CE002200C
:1058B0008E49886108E004208C49886104E0082052
:1058C0008A49886100E000BF00BF1CE040F2C5705B
:1058D000804516D1BAF1000F13D1642003F013F8FC
:1058E00072B68B48006820F4800089490860084639
:1058F000006820F400100860864887490860FAF7BD
:1059000009FD00E000BF00BF56E0162113980170AA
:105910000021139841702821139881701398007901
:1059200040F08001139801717C4890ED000AD0EDA1
:10593000010A30EE200AD0ED020A30EE208AB0EEE5
:10594000080AC8EE008A90ED000ABDEEC00A10EE0B
:10595000100A2860714890ED010ABDEEC00A10EEF1
:10596000100A68606D4890ED020ABDEEC00A10EEA4
:10597000100AA860694890ED030ABDEEC00A10EE57
:10598000100AE8606648D0F8400128616348006E5C
:1059900068616248D0F8D000A8616048D0F8D400AF
:1059A000E8615E48D0F8D80028625C48D0F8DC0096
:1059B00068620120119000BF00BF119870B19DF87E
:1059C000540000F0800018B19DF85200801D00E0E6
:1059D0000620109014A8109903F061F82BB0BDECCC
:1059E000048BBDE8F08F70B54E4C00234FF453721A
:1059F00019464D4805F01CF805464B48006A4AF622
:105A0000552188426CD1484840694449C1F8940006
:105A100045488069C1F898004348007F81F89C00A0
:105A20004148417F3D4880F89D103F48817F3B4879
:105A300080F89E10D0F89800072852D2DFE800F0D6
:105A400004133E96C1ECFE0000203449C1F89400D6
:105A50004FF40060354988614010886100202F496B
:105A6000C1F8980031E101202C49C1F89400C1F837
:105A70009800432081F89C006821284880F89D10F8
:105A8000312180F89E104FF4006028498861401051
:105A900088614004886100202549C1F81401254926
:105AA000C1F814012248D0F8D4001E497439C1F855
:105AB000B801D1F8B8010AF008FE06E10120174943
:105AC000C1F894000220C1F89800432081F89C009E
:105AD0006821124880F89D10322180F89E102BE03A
