:020000040800F2
:1000000090EC01201503000833030008FF380008B6
:1000100037030008390300083B0300080000000014
:100020000000000000000000000000003D03000888
:100030005703000800000000E73800085B030008D1
:100040005D0300085D0300085D0300085D03000810
:100050005D0300085D0300085D0300085D03000800
:100060005D0300085D0300085D0300085D030008F0
:100070005D0300085D0300085D0300085D030008E0
:100080005D0300085D030008833600088341000813
:10009000C54000085D0300085D0300085D0300081B
:1000A0005D0300085D0300085D0300085D030008B0
:1000B0005D0300085D0300085D0300085D030008A0
:1000C0005D0300085D0300085D0300085D03000890
:1000D0005D0300085D0300085D0300085D03000880
:1000E0005D0300085D0300085D0300085D03000870
:1000F0005D0300085D0300085D0300085D03000860
:100100005D0300085D0300085D0300085D0300084F
:100110005D0300085D0300085D0300085D0300083F
:100120005D0300085D0300085D0300085D0300082F
:100130005D0300085D0300085D0300085D0300081F
:100140005D0300085D0300085D0300085D0300080F
:100150005D0300085D0300085D0300085D030008FF
:100160005D0300085D0300085D0300085D030008EF
:100170005D0300085D0300085D0300085D030008DF
:100180005D0300085D03000800F002F800F0B2F81B
:100190000AA090E8000C82448344AAF10107DA45E2
:1001A00001D100F0A7F8AFF2090EBAE80F0013F082
:1001B000010F18BFFB1A43F00103184798B4000061
:1001C000B8B400000A444FF0000C10F8013B13F0E3
:1001D000070408BF10F8014B1D1108BF10F8015BA0
:1001E000641E05D010F8016B641E01F8016BF9D193
:1001F00013F0080F1EBF10F8014BAD1C0C1B09D1EA
:100200006D1E58BF01F801CBFAD505E014F8016B5B
:1002100001F8016B6D1EF9D59142D6D370470000ED
:100220000023002400250026103A28BF78C1FBD8FF
:10023000520728BF30C148BF0B6070476E2907F0D6
:10024000B183702907F00184662909F01B836529B1
:1002500009F01883672909F015836129AFF300803D
:1002600003681B0A28BF41F08001692907F05E83FB
:10027000642907F05B83752907F058836F2908F01C
:10028000DB81782907F0CD83E92908F07581E4291D
:1002900008F07281F52908F06F81EF2908F0D88104
:1002A000F82907F0CC830368DB0928BF41F08001FF
:1002B000632908F0F680732908F0FB80E32908F031
:1002C000E382F32908F0E882002070471FB509F0A7
:1002D000D4FA08F03DFA04000020002109F05CF98E
:1002E000401C60600020002109F040F9E0601FBD63
:1002F00010B510BD08F020FD1146FFF7E7FF01F033
:10030000A5FC08F047FD03B4FFF7F2FF03BC08F0BB
:100310004BFD000015481649026800608A4203D070
:1003200014488047144800471448D0F800D040686B
:100330000047FEE7FEE7FEE7FEE7FEE71EF0040FDC
:100340000CBFEFF30880EFF30980806910F8020C0E
:1003500003F0D1BAFEE7FEE7FEE7FEE7FEE70000A6
:1003600007480849084A094B70470000F01F002061
:10037000EFBEADDE9D100008890100080000FF1FE0
:1003800090E6012090EC012090E8012090E8012007
:100390003B48016841F0040141F4800101603948A3
:1003A000016840F23F3211430160374801689143D0
:1003B00001603648016841F4807101603448D0F82A
:1003C000041341F48031C0F8041340F2033181601A
:1003D00044F23611C16044F22611C160C16A21F4B1
:1003E0007001C162C16A41F44011C162294941638F
:1003F00029490A6822F001020A600A6812F0010F16
:1004000003D00A6812F0010FFBD10A6822F0606283
:100410000A600A6842F450620A60214B1F4A1A605F
:100420001B1D204A1A60204B04221A60426842F4C5
:1004300080724260426822F000724260426822F09C
:10044000807242600A6842F001020A60816841F0ED
:1004500080418160016821F002010160416841F042
:10046000200141601149102081F800044FF0E02183
:100470008003C1F8000170470A4931F81000704745
:1004800030380240000802400C0802404438024064
:10049000002001406A310700706402404C20014096
:1004A00078640240000000207464024012E000E022
:1004B0002DE9F001DD48016841F0010101600168AA
:1004C00041F002010160016841F004010160D84877
:1004D000016821F00C010160C16821F00C01C160CC
:1004E0004FF480218161026842F0100202600268CC
:1004F00022F020020260826862F030028260820094
:100500008261026842F040020260026822F08002CA
:100510000260826862F0C0028260402787610268E0
:1005200042F480520260026822F400520260826843
:1005300042F44052826082158261026842F4803245
:100540000260026822F400320260826842F44032A3
:100550008260B84E0A113260B74A136843F0805384
:100560001360136823F000531360B44C236843F006
:1005700040532360136823F00C03136004F1040C50
:10058000DCF8003023F00C03CCF800303160116847
:1005900041F010011160116821F020011160216803
:1005A00021F030012160116821F470711160DCF8D4
:1005B000001021F47071CCF80010A14DC101296028
:1005C000A0490B6843F480330B600B6823F40033BD
:1005D0000B609D4BD3F8008028F44038C3F80080AE
:1005E0004FF08008C5F80080D1F8008048F48048BA
:1005F000C1F80080D1F8008028F40048C1F80080DC
:10060000D3F8008028F44048C3F800804FF0080871
:10061000C5F80080D1F8008048F04008C1F800809B
:10062000D1F8008028F08008C1F80080D3F800805D
:1006300028F0C008C3F800802F600F6847F4805787
:100640000F600F6827F400570F601F6827F44057AA
:100650001F60176827F440771760DCF8007027F4F4
:100660004077CCF8007047152F600F6847F480275B
:100670000F600F6827F400270F601F6827F44027DA
:100680001F60176827F0C0071760DCF8007027F0BC
:10069000C007CCF80070176827F040471760DCF8F7
:1006A000007027F04047CCF80070176827F04067CB
:1006B0001760DCF8007027F04067CCF80070D1F8C4
:1006C00000C02CF4406CC1F800C003F1040CDCF84D
:1006D000007027F44067CCF800700F6827F040578F
:1006E0000F60DCF8007027F08057CCF80070DCF861
:1006F000007047F00057CCF800704FF4004CC5F87C
:1007000000C00D6845F080450D600D6825F000457E
:100710000D60196821F040411960C0F818C00168E7
:1007200041F080410160016821F000410160816871
:1007300021F04041816020203060106840F48060EA
:100740001060106820F400601060206820F44060A1
:100750002060BDE8F0017047002814BF40204FF42E
:10076000800033498861704770473348016821F041
:100770000C0101602F4920200860BFF35F8F3348D0
:100780000068C0F3400070472A490A6842F400122A
:100790000A60002814BF02204FF400300860264889
:1007A000016841F004010160704725490A6842F080
:1007B00000420A60002814BF02204FF400301C4998
:1007C0008861086840F004000860704718480168B4
:1007D00021F00C0101601A4A4FF400411160BFF38F
:1007E0005F8F0069C0F3400070471648016821F42C
:1007F000405101601648016821F440510160704782
:100800000F49402008600F48026842F4805202609D
:10081000026822F4005202600B48026822F440523F
:1008200002604FF4800008607047000030380240DA
:100830000000024018040240000402400804024084
:100840001808024000080240080802401004024054
:100850000C0802402DE9F0410446D0F800010125C2
:10086000324E022816BF02204FF6FF77BDE8F08116
:1008700026E0B1686054481CB060062812D1217986
:1008800011F0800218BFA278921D01F07F01F26082
:10089000502904BF6179012901D1802A02D9902011
:1008A000BDE8F081F168884206D10020B0600120E7
:1008B0000325C4F8000107E0D4F80001012803D0A3
:1008C00000F0D5F9B842D4D12846BDE8F081DFF870
:1008D0005CC0D0F80032DCE9001211441A44CCF8B4
:1008E00004205A1E38BF704710F8013B01F8013B45
:1008F000521EF9D2704710B50C4C6068002808BF32
:1009000010BD00F0E8F9002808BF10BDD4E90001CF
:1009100000F0C2F90648216881420CBF00F5007062
:10092000034820600020606010BD00000C01002022
:10093000840600206748016841F480210160664810
:10094000016841F0020141F400110160634801684F
:1009500021F480110160016841F400110160011D62
:100960000A6822F480620A605D490A6822F4401233
:100970000A600A1F136823F440131360594A13686E
:1009800023F4706343F4E0631360036823F480038B
:100990000360036843F400030360086820F4400028
:1009A0000860106820F4704040F4E04010604E4948
:1009B00040F26D1008804D4800230380001D038025
:1009C0000A1D118841F400511180018841F0C001D5
:1009D00001804748816D21F001018165816D11F031
:1009E000010F03D0816D11F0010FFBD1816D21F05A
:1009F00060618165816D41F000618165816D41F4C7
:100A000088618165DFF8ECC0C0F860C0C365816AA9
:100A100021F001018162816A11F0010F03D0816A26
:100A200011F0010FFBD1816A21F060618162816A5E
:100A300041F000618162816A41F4A0618162C0F885
:100A400030C02D4941634FF40061C1622B490B88CE
:100A500023F040030B80118841F00C011180816A62
:100A600041F00101816270472148C06A244AC0F503
:100A700000601168884204BF4FF6FF7070471E483F
:100A8000405C491C1160B1F5006F04BF002111608A
:100A90007047174A936D23F001039365936D13F02C
:100AA000010F03D0936D13F0010FFBD15066D16598
:100AB0001248018821F0400101804FF000609060F1
:100AC000906D40F00100906570470C48008800F080
:100AD0004000704740380240303802400004024075
:100AE0000C04024024040240084800401048004022
:100AF0000060024004480040840A00200048004092
:100B00001C0100207648016841F010010160754821
:100B1000016841F0010141F48001016072480168FF
:100B200021F480210160016841F4002101604168E5
:100B300021F400714160C16821F44021C1608168E5
:100B400021F440218160416A21F0F00141F07001FF
:100B50004162016821F480110160016841F40011D3
:100B60000160C16821F40011C160C16841F48011C5
:100B7000C160416A21F4706141F4E0614162C102E7
:100B80008161016841F080710160016821F00071AC
:100B90000160816841F040718160016821F4400189
:100BA0000160C16821F40001C160C16841F48001A5
:100BB000C1604E4A40F2D9201081002313829382F3
:100BC000908940F400509081908A40F0C00090825B
:100BD0004748016821F001010160016811F0010F2F
:100BE00003D0016811F0010FFBD1016821F06061B1
:100BF0000160016841F000610160016841F48861B1
:100C000001603D48DFF8ECC0C0F800C0001F036081
:100C10003A48016821F001010160016811F0010FFB
:100C200003D0016811F0010FFBD1016821F0606170
:100C30000160016841F000610160016841F4A06158
:100C400001602F49C1F800C02F4B2E49196099153A
:100C50002E4B1960118821F040011180918941F0DB
:100C60000C019181016841F0010101607047274842
:100C70000068274AC0F580701168884204BF4FF6AB
:100C8000FF7070471F48405C491C1160B1F5807FC0
:100C900004BF002111607047154A136823F0010357
:100CA0001360136813F0010F03D0136813F0010FE2
:100CB000FBD1184B1860184801600C48018821F0DE
:100CC0004001018015494FF000600860106840F055
:100CD0000100106070470548008800F04000704730
:100CE0004438024030380240000002400010014009
:100CF000B864024004100140C064024040640240F5
:100D000048640240841200204C6402404464024063
:100D100020010020C4640240BC6402400C64024014
:100D2000B948016841F400310160B849A7220A803E
:100D3000B74A40F2E7311160B64A49101160B6492E
:100D40000A8842F001020A80B4490A8842F060022F
:100D50000A80091F0A8842F001020A80B0490A8805
:100D600042F001020A80016841F480310160AD481F
:100D700020210181018941F00701018100210185C4
:100D80004FF6FF71C162018841F001010180704797
:100D9000A448406A80B27047401A80B27047A248A7
:100DA000016841F010010160A048532101854FF610
:100DB000FF714162C162018841F008010180018830
:100DC00041F0010101807047974B186840F008001E
:100DD00018609748016841F008010160016811F04E
:100DE000080F03D1016811F0080FFBD0016821F052
:100DF000080101608F4800210180001F01608E4AB8
:100E0000106840F0010010608C48D0F800C02CF051
:100E1000010CC0F800C0D0F800C04CF0020CC0F8C3
:100E200000C0D0F820C02CF00F0C4CF0020CC0F821
:100E300020C0DFF80CC2481ECCF80000DFF804C266
:100E40005720ACF800008048B0F800C04CF0010C0E
:100E5000A0F800C0001FB0F800C04CF0010CA0F8D2
:100E600000C07A48B0F800C04CF0010CA0F800C0F7
:100E7000186840F00200186075480180001F01608A
:100E8000106840F0020010607248016821F0010112
:100E90000160016841F0020101606F48016821F0C2
:100EA0000F0141F002010160016821F0F00141F001
:100EB00020010160694941F26700086041106848FB
:100EC0000160006867490860674947F27000088060
:100ED000081D018841F4807101806448018841F057
:100EE0000101018070474F4B596A5A6A89B2521A00
:100EF00092B2824228BF70475A6A521A92B2824214
:100F0000FAD370475A4948434FF47A71B0FBF1F075
:100F1000B0F1807F24BF012070474FF0E0210A69C3
:100F200042F001020A614861002070474FF0E02062
:100F3000006900F48030704778B44E4BDFF838C158
:100F40001C1D38B94D48006800901868CCF80000A6
:100F5000206800903448016841F0805101604848A1
:100F6000016841F4807101604648016841F48031B4
:100F70000160016821F480310160016841F4407131
:100F80000160016841F4004101603F4ACA201060DD
:100F9000532010603D48016841F080010160016804
:100FA00011F0400F03D1016811F0400FFBD0384918
:100FB0000D6842F20F766FF30E0535430D600D6834
:100FC00025F4FE0545F4C6050D60DCF80010196037
:100FD00030492160016821F080010160016811F051
:100FE000800F03D0016811F0800FFBD1FF21116049
:100FF000016821F02001016078BC70472649084053
:101000001D490860704700004438024028440140F0
:101010002C44014034440140204401401844014024
:1010200000440140004001404038024000100040B0
:1010300020380240280C00403038024000000240B6
:101040002C0C0040080C0040180C0040000C004024
:101050002804004000040240200402402C04004008
:101060003C040040400400401C04004014040040C4
:10107000406F400100280040240100202828004043
:101080000070004070380240242800400C280040C6
:1010900010280040024413007F7F3F004B48016846
:1010A00041F4700101604A4B186840F0010018607B
:1010B0004849002008601A6822F4102222F0807249
:1010C0001A60A1F1040C444ACCF800201A6822F4FA
:1010D00080221A600A1D10601A6842F480321A6079
:1010E0001A6800F1010012F4003F02D1B0F5705F00
:1010F000F6D11868C0F34040002861D03748026834
:1011000042F0805202603648026842F48042026037
:10111000344840F20562026008680860086840F4DC
:1011200000400860086840F4A0500860086820F497
:10113000F81040F440200860086820F07C500860F7
:10114000086840F080600860086840F060500860FF
:10115000086820F040400860086840F0804008605F
:101160002148CCF80000186840F0807018601868BA
:1011700010F0007F03D1186810F0007FFBD00868E2
:1011800020F003000860086840F00200086008686A
:1011900000F00C00082804D0086800F00C000828B3
:1011A000FAD1134911480860186840F0806018604F
:1011B000186810F0006F03D1186810F0006FFBD0B2
:1011C0000C494FF0006008607047000088ED00E0B7
:1011D00000380240083802401030002440380240F5
:1011E00000700040003C02400C544007004000509A
:1011F0008438024008ED00E030B40188FE4B002442
:10120000FE4A4FF0010C0B295AD013DC4FF0030CAF
:1012100001291ED0042904BF30BC704705291CBF1A
:1012200030BC70474088186282F85800C3F834C058
:1012300030BC70470D296CD010295CD014291CBF1C
:1012400030BC70474088C3F84801508430BC04F07B
:1012500012BDC3F834C0B2F92010DFEDE90A01294C
:1012600012D002291CBF30BC7047408800EE100A23
:10127000B8EE401A81EE200ADFEDE20A20EE200AE5
:1012800083ED440A30BC70474088DF4900EE100A05
:1012900092F85000B8EE401A01EB800081EE200A6F
:1012A000D0ED000A9FEDD91A60EE810A20EE800A87
:1012B000D2ED150A20EE800A83ED430A30BC704758
:1012C0004188C3F848118088C3F84C01022808BF40
:1012D000DC8105D0032812BFA3F80EC00220D881FC
:1012E00064204843CA49A1FB0010C00900B25084E1
:1012F00030BC04F0C0BC418851628188D162C18891
:10130000516301899162418911638089906330BC86
:1013100070471C64C188012914BF82F8594082F8C3
:1013200059C08378BB490B70C3784B7003798B70BD
:101330004379CB7091ED000A82ED150A00890128EE
:101340000CBF82F85AC082F85A4030BC704770B463
:101350000022A94BDFF8A4C214460A2970D008DC89
:10136000012911D0042940D0052954D0072957D08C
:10137000C1E0022601250B297CD00D297BD0102944
:101380007AD0142979D0B6E00180BCF9201004226B
:101390009FED9B1A012902D0022916D01DE0DCED39
:1013A000150AD3ED431A9CF850C0974981EEA00A64
:1013B00001EB8C01D1ED000ADFED941A60EEA11A69
:1013C000C0EE210A20EE810A07E0D3ED441ADFEDDA
:1013D0008D0A81EEA00A20EE010ABDEEC00A10EED1
:1013E000101AC3F84411418085E0BCF82020022A7D
:1013F00008BFC3F820410C220180D3F8181100293E
:10140000B8BF49424180B3F820118180B3F824115C
:10141000C18044816FE0018004229CF85810E2E70B
:10142000018093F84C108170B3F84C100A22090A1D
:10143000C170D96C0B0C0371090E41715BE0FFE7C1
:101440000180DCF81C104FF0FA0C01FB0CF147F6A0
:10145000FF7C91FBFCF1DFF8C0C1C1EBC1318CFB1B
:1014600001C14FEAA11CACEBE171C3F8D01004221A
:10147000418040E002E041E020E034E0DA89002AE7
:1014800008BF5E6207D0012A08BF5D6203D0022A4E
:1014900004BF03225A6208220180BCF92210DFF83F
:1014A0007CC1C1EB01218CFB01C14FEA611CACEB9B
:1014B000E1714180998C8180C4801CE00180BCF87E
:1014C00024104180BCF82C108180BCF83410C180FD
:1014D000BCF828100181BCF830104181BCF83810EC
:1014E0000E22818107E00180BCF8221041808480B7
:1014F000C4800A22048170BC1046704701804549AF
:101500009CED150A0A2281ED000A0B7883704B7856
:10151000C3708B780371C97841719CF85910012907
:1015200014BFC680C5809CF85A1001290CBF0581E4
:101530000481E0E72DE9F05F394F00231446B7F945
:10154000005084461E469846002D1CBFABB2A7F83B
:1015500000800BD1BCF1000F1CBFBCF80030821D15
:1015600004D119B10B88002002469BB284F8038095
:101570000127277150276771A51D40F6010B1E4FEB
:10158000DFF87890A3F6010A4FF0320EC4F800821B
:101590005B457DD053DC40F2132AA3F2132C534554
:1015A00077D017DC4FF08100122B73D007DC022BB1
:1015B00071D0052B56D0112B6ED000F014BA142B1D
:1015C00000F03681152B00F04281812B00F019814B
:1015D00000F009BABCF13E0F00F0F28122DCBCF150
:1015E000010F71D0BCF1100F70D0BCF13D0F04BFE2
:1015F000C078387000F0F7B928010020D83D0120EC
:1016000000FEFF46000066438898000800007A4408
:101610008180808020020020B71A3C471F85EB5153
:10162000C8020020ACF58060733800F0B281B0F5DC
:10163000BD7F04BF1046FFF7DFFD00F0D4B9AAF16B
:101640000F01182980F0CF81DFE801F0977377F15F
:10165000F0EFEEEDECEBEAE9EBEBEBEBEBEBEBEBCE
:10166000EB68EBA6062222805422A2702071F74973
:10167000284606F0EDFBD9F800002860312085F8F7
:101680004200342185F8431085F84410332104E0EA
:1016900057E085E02AE030E01DE085F8451085F848
:1016A000460085F847104A2085F84800752085F8DF
:1016B00049006E2085F84A00E549012685F84B80EF
:1016C0000220486300F086B98EE0FFE7E048402141
:1016D000816200F088B9DE48816BC0F82C8041F04F
:1016E00001018163C7F818E000F07DB9D848816B2B
:1016F00021F00101816300F076B9D5480029C0F8D6
:101700003480826B22F00102826300F06C8102203F
:10171000208084F8028084F80380B2E0CC48C7F8C7
:1017200018E0816B41F0010181630F20786100F0C6
:101730005AB90120F86200F056B9C7F8408000F0AD
:1017400052B9C44BB3F90020002A1CBF91B2A3F8D0
:1017500000800BD02846FFF7FAFD40F602022280F7
:10176000A070207940F0800121718AE0BCF1000F67
:1017700014BF8078486881B2ECE70320B871B6489E
:10178000C9F8080001265C220021B44802F00EF8D6
:101790000120B87100F01EB9C7F818E000F023B9B5
:1017A000AB4C8278A16B62F34101A163807810F0A9
:1017B000020F14BF41F0040021F00400A063D9F827
:1017C00024100A2904BFC0F34000FEF7EEFFD9F849
:1017D00028000A2840F0078194F83800C0F3800000
:1017E000FEF7D2FF00F0FFB8994840F215212180A2
:1017F000008F0221C0F3400201EA50001118A170CD
:101800003FE020804423A3702071A5F800808888E1
:1018100068808A6892A1281D06F022F831E095E0E0
:101820009BE07BE07BE03DE02DE0D2E0ABE090E0B0
:101830001068C9F800005068C9F80C009068C9F831
:101840001000107E00F0030089F85000CBE0162253
:1018500022802822A2702071D9F800002860D9F8CF
:101860000C006860D9F81000A860D7F82C01E86077
:10187000D7F828012861D7F83001686199F850003D
:10188000A8610126A6E08178022918BF87F80580A3
:1018900044D101217971C078022808BF39647FF4EE
:1018A0004CAFA0E07979012938D10221A9F82010A4
:1018B000817800EE101AB8EE400A5FEDAE0A60EED5
:1018C000200A9FED6A1A80EE810A5FEDB30A60EE8E
:1018D000200A9FED671AC0EE811AFDEEE10AC9EDFC
:1018E000070AF6EE000A30EE200ABDEEC00AB8EE96
:1018F000C00A87ED440A396C29B99FED5E0A87ED6D
:10190000440A87ED430AC178042908BF89F8598041
:10191000C078082804BF012089F8590063E0192124
:10192000217008216170D9F81C004FF60611484358
:10193000514990FBF1F0C7F8D400FF28C4BFFF2045
:10194000C7F8D40097F8D400A0709AE780780228EE
:1019500049D10220A9F8200045E0807810B1022882
:1019600008D040E00120387287F80280787087F84C
:10197000038038E087F8088087F8028001207870BB
:1019800087F803802FE00120A9F82000C7F84080E5
:1019900029E04B20A9F822006FF00101A9F80410FA
:1019A00004F069F989F85A80B87903281BD12A48CC
:1019B000C9F808005C220021284801F0F7FE12E077
:1019C00040F2522222808178A1703978E17001269C
:1019D00000E046B1207910F0800F1ABFA078801D7A
:1019E0000620C4F800023046BDE8F09F0FB4002284
:1019F00000B583B021A3BDF81000CDE9000205A910
:101A00000293812812D0A0F50062023A04BF086850
:101A100001901B4A69460020FFF78CFD012804BF96
:101A20001748FEF754FF03B05DF814FBDDE905012C
:101A30000092074A136B8342EBD0B0F5004F03D0FE
:101A400081230093CDE901011063E2E7A09B000828
:101A5000343E0120CA02002001000200D83D0120CE
:101A6000252D36332E3633730000000000007F43EF
:101A700000007A43000000001AFF7200000000001E
:101A8000800400202DE9F041FE4C00210325D4F80C
:101A9000C0200127FC4E052A4CD2DFE802F00308E3
:101AA00025404F00002808BFC4F8C07042E0216400
:101AB000A7714FF4004004F044F84FF480203060E8
:101AC000F24EB780A571FFF763F9A0810220C4F838
:101AD000C000A07903282DD1ED48B0605C22002120
:101AE000304601F063FE25E0002818BFC4F8C0109E
:101AF00020D1FFF74DF9A189FFF74EF9B0F5FA6F44
:101B000018D90220FFF772FFE248816B21F0010132
:101B100081630020C4F8C05004F0ADF80AE0FFF77C
:101B200037F9A189FFF738F9B0F57A6F84BF04203F
:101B3000C4F8C000D4F8C000BDE8F08140F6B83069
:101B4000FFF7D1F94FF080443460FEF74EFE208855
:101B500020F001002080D048816A21F001018162DB
:101B6000816A11F0010F03D0816A11F0010FFBD1DE
:101B7000816D21F001018165816D11F0010F03D0AC
:101B8000816D11F0010FFBD1C448016821F0010102
:101B90000160016811F0010F03D0016811F0010F1D
:101BA000FBD1BF48016821F001010160016811F01B
:101BB000010F03D0016811F0010FFBD1B948016892
:101BC00021F001010160016811F0010F03D00168EB
:101BD00011F0010FFBD1B448016821F480010160CC
:101BE000016821F40011016072B6B048016821F06B
:101BF000F0010160016841F0F0010160016821F02D
:101C000003010160016841F001010160016801F018
:101C10000C01042904D0016801F00C010429FAD157
:101C2000A348016821F080710160A248016811F4A5
:101C3000004FFBD0BFF34F8F9F4801689F4A01F4CC
:101C4000E06111430160BFF34F8FFEE72DED088B7C
:101C50004FF0000BFEF72CFCDFF85882D8F800009C
:101C6000D8F80010000940EAD10010F0010F08BFB9
:101C70004FF0010B4FF48020834F386007F0FDFDDB
:101C80008948016841F0010101608D48016841F017
:101C900000510160DFF82CA2DAF8000040F4407037
:101CA000CAF80000DAF80C0020F44070CAF80C0002
:101CB0008548016841F00101016084490020086005
:101CC00048063860FFF72CF86420FFF71BF9FFF790
:101CD00066F8FFF779F80020FFF790F90120FFF789
:101CE0002BF902F0C7FAFEF70DFFFEF723FE02F014
:101CF000E7F802F013F8FEF778FDDFF88891012588
:101D0000E80389F8065003F01CFF002489F8084016
:101D10006848006810F4004FFAD0032089F80600E4
:101D20000A20FFF7E0F858484FF480410160002393
:101D30005C221946554801F0FBFC4FF0E02189F880
:101D400006504FF48020C1F88001C1F80001FEF771
:101D50001FFB4E4F5E48396891FBF0F062281CBFB4
:101D60005C4838603220FFF7BEF84A484FF0000860
:101D7000816B21F00101816340F65C30C9E93B4091
:101D80000620FFF7B0F80120FEF776FBD9F8EC103B
:101D900008F101080844C9F8EC00B8F1100FEFDBB6
:101DA000001147F64458C9F8EC00404603F0C9FE5C
:101DB0000520FFF798F80020FEF75EFB40F65B3148
:101DC000884205D248F2BC2008F10A088045ECDBC5
:101DD000C7F83C80BBF1000F00F001843EA001F089
:101DE00017FF6FF00100B8803248016811F0100F42
:101DF000FBD00320FEF740FBA0F57061FF3940F0F7
:101E0000EE83FEF7FDFC4FF08070CAF818001E4903
:101E1000801108609620FFF766F84FF00008C9F8B7
:101E20005C41F86B03F08DFED9F85C110844C9F8E9
:101E30005C010520FFF757F808F10108B8F1100F11
:101E4000EFDBD9F85C01C11700EB11700011C9F884
:101E50005C010120FEF7A9FC0120FEF795FCC9F802
:101E60005441D9F85410D9F8EC008142AABF1DA002
:101E7000C9F8545101F0CCFED9F85010D9F8EC0053
:101E8000884237E02801002018040240D83D012094
:101E900001000200343E0120006002404064024024
:101EA00088640240B864024030380240083802407A
:101EB00000380240100402400CED00E00400FA0576
:101EC000403802400000024000740040207400408E
:101ED00040420F00805CD7050D0A53656C6674653F
:101EE00073740000696F66667365745F6176675F1F
:101EF0006D696E0006DAD9F8540140F00200C9F8A5
:101F0000540102E0FEA001F083FEF86BD9F85C10EA
:101F1000884206DDD9F8540140F00400C9F85401A4
:101F200002E0FBA001F074FEF86BD9F8581088426B
:101F300006DAD9F8540140F00800C9F8540102E06B
:101F4000F7A001F065FE47F60C6003F0FAFDDFF83C
:101F5000E0830420C8F800009620FEF7C4FF47F68F
:101F60000C6003F0EEFD0146C9F85801F1A001F044
:101F70004FFED9F86010D9F85801884206DAD9F82E
:101F8000540140F01000C9F8540102E0F0A001F043
:101F90003FFE0120FEF770FA0146C9F85801EFA094
:101FA00001F036FED9F86810D9F85801884206DDEC
:101FB000D9F8540140F02000C9F8540102E0EAA029
:101FC00001F026FED9F86410D9F85801884206DAE3
:101FD000D9F8540140F04000C9F8540102E0E5A0EE
:101FE00001F016FE0020FEF747FA0146C9F8580135
:101FF000E3A001F00DFED9F87010D9F8580188421D
:1020000006DDD9F8540140F08000C9F8540102E01F
:10201000DEA001F0FDFDD9F86C10D9F85801884216
:1020200006DAD9F8540140F48070C9F8540102E08E
:10203000D9A001F0EDFD002003F083FD9620FEF70E
:1020400052FF0120FEF718FA0146C9F85801D5A041
:1020500001F0DEFDD9F87810D9F85801884206DD84
:10206000D9F8540140F40070C9F8540102E0D0A03E
:1020700001F0CEFDD9F87410D9F85801884206DA7B
:10208000D9F8540140F48060C9F8540102E0CBA0B3
:1020900001F0BEFD0020FEF7EFF90146C9F8580136
:1020A000C9A001F0B5FDD9F88010D9F858018842CF
:1020B00006DDD9F8540140F40060C9F8540102E08B
:1020C000C4A001F0A5FDD9F87C10D9F858018842C8
:1020D00006DAD9F8540140F48050C9F8540102E0FE
:1020E000BFA001F095FD48F2E83003F02AFDFEF7AD
:1020F00087FB4FF08070CAF818009620FEF7F3FEB9
:1021000048F2E83003F01DFD0146C9F85801B7A0B8
:1021100001F07EFDD9F88810D9F85801884206DD13
:10212000D9F8540140F40050C9F8540102E0B7A0B6
:1021300001F06EFDD9F88410D9F85801884206DA0A
:10214000D9F8540140F48040C9F8540102E0B2A02B
:1021500001F05EFD0120FEF78FF90146C9F8580134
:10216000B0A001F055FDD9F89010D9F85801884277
:1021700006DDD9F8540140F40040C9F8540102E0EA
:10218000ABA001F045FDD9F88C10D9F85801884270
:1021900006DAD9F8540140F48030C9F8540102E05D
:1021A000A6A001F035FD0020FEF766F90146C9F84A
:1021B0005801A5A001F02CFDD9F89810D9F85801C4
:1021C000884206DDD9F8540140F40030C9F85401C2
:1021D00002E0A0A001F01CFDD9F89410D9F8580134
:1021E000884206DAD9F8540140F48020C9F8540135
:1021F00002E09BA001F00CFDFEF7F7FA9620FEF737
:1022000072FE48F2E83003F09CFC0146C9F8580120
:1022100096A001F0FDFCD9F89C10D9F8580188422D
:1022200006DAD9F8540140F40020C9F8540102E05C
:1022300096A001F0EDFC0120FEF71EF90146C9F859
:10224000580195A001F0E4FCD9F8A410D9F8580180
:10225000884206DDD9F8540140F48010C9F85401D1
:1022600002E090A001F0D4FCD9F8A010D9F85801F0
:10227000884206DAD9F8540140F40010C9F8540134
:1022800002E08BA001F0C4FC0020FEF7F5F8014647
:10229000C9F8580189A001F0BBFCD9F8AC10D9F8F5
:1022A0005801884206DDD9F8540140F48000C9F88D
:1022B000540102E084A001F0ABFCD9F8A810D9F8D1
:1022C0005801884206DAD9F8540140F40000C9F8F0
:1022D000540102E07FA001F09BFC4FF6FF7003F079
:1022E00030FC0120FEF7C8F80146C9F858017CA06F
:1022F00001F08EFCD9F8B410D9F858018842F5E005
:10230000696F66667365745F6176675F6D6178009B
:102310006F6F66667365745F4176675F6D696E00A7
:102320006F6F66667365745F4176675F6D61780095
:10233000180402400D0A5220473120523939206ECC
:102340006567617469766520736174202564200077
:102350007361746E65675F6D617800000D0A4331CB
:102360003A2025640000000063315F6176675F6D8D
:10237000696E000063315F6176675F6D61780000B0
:102380000D0A56313A2025640000000076315F6165
:1023900076675F6D696E000076315F6176675F6DAD
:1023A000617800000D0A43323A20256400000000E5
:1023B00063325F6176675F6D696E000063325F61F3
:1023C00076675F6D617800000D0A56323A20256409
:1023D0000000000076325F6176675F6D696E000015
:1023E00076325F6176675F6D617800000D0A52207A
:1023F00047312052393920706F73697469766520CE
:1024000063757272656E7420256420005465737460
:10241000525F6D696E00000054657374525F6D61A8
:10242000780000000D0A43333A20256400000000C4
:1024300063335F6176675F6D696E000063335F6170
:1024400076675F6D617800000D0A56333A20256487
:102450000000000076335F6176675F6D696E000093
:1024600076335F6176675F6D617800000D0A5220F8
:102470004731205231304B20706F73697469766533
:102480002073617420256420000000007361747063
:102490006F735F6D617800000D0A43343A20256444
:1024A0000000000063345F6176675F6D696E000055
:1024B00063345F6176675F6D617800000D0A5634A2
:1024C0003A2025640000000076345F6176675F6D16
:1024D000696E000076345F6176675F6D6178000039
:1024E0000D0A43353A2025640000000006DDD9F8C6
:1024F000540140F08070C9F8540102E0FEA001F0E0
:1025000087FBD9F8B010D9F85801884206DAD9F813
:10251000540140F00070C9F8540102E0F9A001F044
:1025200077FB0020FDF7A8FF0146C9F85801F8A085
:1025300001F06EFBD9F8BC10D9F85801884206DDCD
:10254000D9F8540140F08060C9F8540102E0F3A0CA
:1025500001F05EFBD9F8B810D9F85801884206DAC4
:10256000D9F8540140F00060C9F8540102E0EEA02F
:1025700001F04EFB47F6FF7003F0E3FA4FF48020C2
:10258000C8F80000D9F85421EAA0114601F040FB38
:10259000D9F854016FF07041884219D0EBA001F0D6
:1025A00037FBC9F858410420C8F800006420FEF742
:1025B0009AFC4FF48020C8F800006420FEF793FCDA
:1025C000D9F85801401CC9F858010328EBDB02E098
:1025D000E1A001F01DFBFEF7F9F8FEF7C6F8B88898
:1025E000F2EE04AA012827D07D62FD62BD62C7E930
:1025F0000C544B20BC637884DA48F8604FF40040F8
:102600003861C7ED06AA42F21070786140F63100D9
:10261000F8610220388487F85A403C647C64BC64CA
:10262000B7EE000AFC6487ED150A87F8595087F861
:102630005040042087F85800DFF82C83C8F8005079
:1026400004F02CFA002004F07FFA04F04BF9C7489C
:1026500003F0A8FC4FF4207004F068FAFEF7D0F8FD
:102660004FF08070CAF81800C148C2A1D0F80E20FF
:102670004FF4FA6003F025F9FEF776F8C44FB7F986
:10268000220003F0F8FAC8F80040F86BA0F52F70AC
:102690009FEDC09ADFEDC09A9FEDC08A9FEDC0BA52
:1026A0009FEDC0AA0A27DFEDC08AC9F8C800DFF88D
:1026B000E08240F63C71D8F81C0090FBF1F0C9F8BC
:1026C000DC0098F85800012807BFB8F8200002285D
:1026D0000020C9F8E00008BFC9F8E05098F8590098
:1026E000DFF8C8A2C9F8E400DAF80000410BB048EE
:1026F000006841EA501010F0010F0BD00020C9F81B
:102700004000DAF8000010F0080F04BF0F20C9F8ED
:1027100064011FE0D9F82C00012808BFC9F8405017
:10272000DAF80000D9F86C1125EAD00088420BD005
:10273000D9F8480040B94FF47A70C9F84800DAF87F
:10274000000010F0080F29D0DAF8000025EAD000C8
:10275000C9F86C010024C9F82C40D9F848000028B9
:102760001CBF401EC9F84800D9F8400001281FD0FE
:1027700090494FF480200860D9F8D800002808BF9D
:10278000C9F84C4098F85A0000280CBFC9F80871E5
:10279000C9F8084199F80800E8BB23E0D9F84000DF
:1027A00000281ABF0020C9F84000C9F84050CBE704
:1027B000D9F8440070B9D8F83C0003F0C2F9D8F851
:1027C0003C00A0F52F70C9F8C800D9F83C00401EA5
:1027D000C9F83C00774804210160D9F84C0040F06A
:1027E00001002FE0D9F8CC00411CC9F8CC106428B6
:1027F00024DDC9F8CC40D8F83C10D9F8C80001F560
:102800002F729042D4BF401CA1F52F70C9F8C800A8
:1028100003F097F900E011E099F8C80010F0010FFB
:102820000CD10020FDF728FE40F65C31884205D32C
:10283000D8F83C00A0F52F70C9F8C800D9F84C00B2
:1028400020F00100C9F84C00D9E91001814206D0FE
:102850000321C9F8341041F23421C9F83010C9F805
:1028600044005548FDF7F6FF90281AD05248D0F89A
:102870000001012818BF002050490988002918BF0D
:10288000012108430DD04E4A00214B48FEF752FE6D
:10289000012804BF4A48FEF71AF802214648C0F84A
:1028A0000011FEF728F8FEF741FB002800F0E08653
:1028B000D9F8D8000028C4BF401EC9F8D8003B484A
:1028C000006810F4005FD9F84C000CBF40F008001D
:1028D00020F00800C9F84C003548006810F0200FBF
:1028E000D9F84C000CBF40F0020020F0020020F0AC
:1028F000F000C9F84C0065E063355F6176675F6D95
:10290000696E000063355F6176675F6D6178000016
:102910000D0A56353A2025640000000076355F61C7
:1029200076675F6D696E000076355F6176675F6D13
:10293000617800000D0A4572726F7220636F6465E2
:102940003A20256420282578290000000D0A4641F8
:10295000494C4544210000000D0A506173736564C1
:1029600021000000968E3B0068040020FCAA0008AD
:10297000A09B000854686F726C616273204B4C44DA
:102980003130310A537752657620253036580000B1
:10299000D83D0120CDCCCC3DCDCC9C4000000000EA
:1029A0009A99993E00007A4400FEFF4610040240C6
:1029B000100802401804024008000020C80200204D
:1029C0008004002098F85010032908BF40F0100040
:1029D0000ED0022908BF40F0200009D0012908BF0D
:1029E00040F0400004D0002908BF40F0800001D131
:1029F000C9F84C0098F859000128D9F84C000CBFD0
:102A000040F4807020F48070C9F84C00B8F92000C0
:102A1000D9F84C1001280CBF41F0040121F0040149
:102A2000C9F84C10D9F820114FF6E85291420CDD4C
:102A3000D9F84020012A11D1D9F84C20C9F8D87012
:102A400042F40052C9F84C2008E0D9F8D8202AB93D
:102A5000D9F84C2022F40052C9F84C20012811D199
:102A60003F290CDAD9F84010012911D1D9F84C10BE
:102A7000C9F8D87041F48041C9F84C1008E0D9F881
:102A8000D81029B9D9F84C1021F48041C9F84C105C
:102A900098F85810B9F90A20914206D0A9F80A10FE
:102AA00089F807500321C9F83410DFF804A49AF814
:102AB000381011F0010F2DD0D9F814100A299CBF3D
:102AC000481CC9F8140025D9022808BFC9F82041BC
:102AD000B9F81C11F7488171090AC171B9F82011C0
:102AE0000172090A4172B9F824118172090AC1728E
:102AF000D9F84C1001740A0A42740A0C8274090E47
:102B0000C174FEF7E8F818B11421EA48FEF7C4F8DA
:102B1000C9F8144098F858000128D9F84C001CBF97
:102B200020F40070C9F84C007AD099ED430AD9ED31
:102B30000A0A30EE600ABDEEC00A10EE100A002844
:102B4000B8BF404206F04AFD9FEDDB1B53EC112B52
:102B500006F0ECFD08D20320C9F8340099ED430AD1
:102B600089ED0A0AC9F8684199F80000012830D0B7
:102B700003F074F8CAF8040098F858100429DAF839
:102B800018107DD059B1122909D04000CAF80400AC
:102B9000B8F922000A28BCBF0A2003F06CF8C84824
:102BA000006825EA1010CAF8100001F095FCCAF878
:102BB0001400DAF8040000281CBF41F23420C9F8E0
:102BC0003000DAF8100000281CBF41F23420C9F8A8
:102BD000300099F80800012804BF0F20CAF8180037
:102BE000D9F84C000CBF40F4004020F40040DFF85E
:102BF000C0A2C9F84C00DAF8180001F039FEDAF882
:102C00001800C9F83000D9F8640100281CBF401E24
:102C1000C9F8640199F8080098B300F0DBB9FFE740
:102C200040F40070C9F84C00B8F8200001281DD10C
:102C30000320FDF721FC00EE100AA249B8EE400A7D
:102C400010EE100A89ED430A8842C4BF9FED9E0A28
:102C500089ED430AD9ED3A0A60EE200A98ED030A9D
:102C6000B8EEC00A80EE801A89ED431AB8F8200049
:102C700002287FF45AAF99ED310AF8EEC00A01E05C
:102C800007E0ACE09FED911A80EE810A89ED440ADD
:102C90004BE700297FF477AF002880D0D9F8501196
:102CA000884218BFC9F86041D9F83C10491EC9F8DC
:102CB0003C10B8F92030012B63D199ED3A0A844ACF
:102CC00010EE101A914226DDD9ED430A122860EE6B
:102CD000AA0AFDEEE00AB8EEE01AC1EE2A0AC9ED32
:102CE000430AC4BF70EEC90AC9ED430A10F1120FBE
:102CF000BCBF70EE890AC9ED430A5F28C4BF70EEFD
:102D0000E90AC9ED430A10F15F0FBCBF70EEA90AD2
:102D1000C9ED430A2AE0122808DDD9ED430A9FEDE8
:102D20006D1A70EEC10AC9ED430A0BE010F1120FE3
:102D300008DAD9ED430A9FED671A70EE810AC9EDF2
:102D4000430A08E05F2806DDD9ED430A9FED621AC9
:102D500070EEC10A08E010F15F0F07DAD9ED430AFF
:102D60009FED5D1A70EE810AC9ED430AC0EE0A0AB2
:102D700099ED430AF4EEC00AF1EE10FA98BFC9EDDE
:102D8000430A022B27D199ED440A122820EE2A0A81
:102D9000BDEEC00AF8EEC00A80EEAA0A89ED440A28
:102DA000C4BF30EE490A89ED440A07DC10F1120F66
:102DB000BCBF30EE090A89ED440A04DB5F28C8BFB6
:102DC00030EE690A05DC10F15F0FB8BF30EE290A5A
:102DD00001DA89ED440A0320C9F83400DFE698F8E7
:102DE0005800042804BFB8F82000022804D0B8F81E
:102DF0002000012874D174E098F85A00002808BF18
:102E0000C9F8087198F8590099ED420AD9ED440AB9
:102E10009FED321AB8EE400A0128D8F83C0060EE67
:102E2000200A80EE810A20EE280ABDEEC00A10EECC
:102E3000101A2DD0411AC9F83810D8F81C20821A5F
:102E4000531E8B42C8BFC9F83820D9F838108842C1
:102E500001DAC9F83800D9F808010A283CBF401C3B
:102E6000C9F8080199ED440AB5EEC00AF1EE10FA6E
:102E700004BFD8F83C00C9F83800D9E90E018142F6
:102E800018BF02F05EFED9F83800C9F83C00AEE782
:102E90000144C9F83810D8F81C200244531C8B4256
:102EA000B8BFC9F83820D9F838108842D3DDD0E748
:102EB000343E0120980200209A9999999999A93F46
:102EC0001004024000C0734500C073457B140343E7
:102ED00000007A440AD7233C48E1FA3E00401C45F2
:102EE00078E098F85000042828BFC9F8304171D222
:102EF000D9F8400001287DD0C9F83041D8F83C000D
:102F0000C9F8380099ED4C0A98F85010F848F8EED6
:102F1000C00A00EB810080EEA80AD0ED000A60EE46
:102F20008A0A20EE800A89ED450AD8ED150A20EEBE
:102F3000800A89ED070AD9ED430A30EEC00A20EE77
:102F40000A0ABDEEC00A10EE101AC9F81010D8F81F
:102F50001C00B1EB201FC4BF0111C9F810100111F2
:102F6000D9F8102049429142C8BFC9F8101098F80A
:102F70005910D9F810200129D9F838106FD08A1AC1
:102F8000C9F83820D8F83C10081A9042D4BF10462F
:102F9000C9F838008142B8BFC9F83810D9F83800EC
:102FA000081AFA21484300EE100AB8EEC00A80EE73
:102FB000281A89ED441AF5EEC00AF1EE10FA05D18F
:102FC000D8F83C00C9F8380089ED448AD9F83800AF
:102FD00002F0B7FD99ED430AB5EEC00AF1EE10FA22
:102FE00038BF89ED438A99ED440AB5EEC00AF1EE87
:102FF00010FA00E034E038BF89ED448AFA21D8F8AD
:103000001C0047F6FF7A484390FBFAF100EE101AD5
:10301000D9ED440AB8EEC00AB4EEE00AF1EE10FAB7
:1030200007D890FBFAF000EE100AB8EEC00A89ED5E
:10303000440A0120FDF720FA00B2C9F83C01D8F893
:103040003C20D8F81C10D9F838C0531A634538D141
:10305000D9F84C1041F48061C9F84C1057E013E0E6
:10306000D9F8380002F06DFD4010C9F8300198F829
:10307000501008EB8101096CB0EB610FC4BFA0EBED
:103080006100C9F830013DE70A44C9F83820D8F892
:103090003C1008449042B4BFC9F838001046814241
:1030A000C8BFC9F83810D9F83800401AFA21484387
:1030B00000EE100AB8EEC00A80EE281A89ED441A14
:1030C00079E71144614504BFD9F84C1041F480619F
:1030D0001BD0A0F1FA0140F6E95291420CD3D9F885
:1030E000401001291DD1D9F84C10C9F8D87041F40D
:1030F0008061C9F84C100EE0D9F8D810002904BF3F
:10310000D9F84C1021F4806101D1C9F84C10D9F8DC
:103110004010012905D1D9F84C1021F48061C9F87B
:103120004C10D9F8EC1001F114029042DEBFA1F16D
:103130001402824289ED4E8A0ADD401A00EE100A1E
:10314000B8EEC00ADFED6B0A80EE201A89ED4E1A48
:1031500099ED4E0A20EE280ADFED67BAC0EE2B0A81
:10316000BDEEE00A10EE100AC9F82C01B0F5004FD0
:10317000A8BFC9F82CA105DA10F5004FDCBF5F48E5
:10318000C9F82C010020FDF777F900B2C9F8400119
:10319000D9F84C10A0F2B77241F4805140F24A7352
:1031A000C9F84C109A4215D3D9F84020012A08D00A
:1031B000D9F8D820002A04BF21F40061C9F84C10C6
:1031C00005E041F40061C9F8D870C9F84C10C9F89D
:1031D000404007E0D9F8D820002A04BF21F400615C
:1031E000C9F84C10D9F8F01001F1270290420BDD1C
:1031F000401A00EE100AB8EEC00ADFED410A80EE78
:10320000201A89ED4D1A11E0A1F127029042A8BFC2
:1032100089ED4D8A0ADA401A00EE100ADFED390A0C
:10322000B8EEC00A80EE201A89ED4D1A99ED4D0ACC
:10323000B5EEC00AF1EE10FAC4BF30EE4B0A89EDCC
:103240004D0AB5EEC00AF1EE10FA3CBF30EE0B0AA3
:1032500089ED4D0A99ED4E0ADFED2B0A43F69821D0
:1032600020EE200A89ED4E0A99ED4D0A20EE0A0A59
:10327000BDEEC00A10EE100AC9F82801884202DC2F
:103280004942884201DAC9F82811D9F8400070B3E0
:10329000D9F82001D9F8301100EBC00008441B49CF
:1032A00081FB00208210A2EBE070C9F82001D9F860
:1032B0002401D9F8282100EBC000104481FB001044
:1032C0008110A1EBE070C9F8240199ED440A20EEC9
:1032D000280AC0EE2B0ABDEEE00A89ED470AD9F8AC
:1032E000D800002808BFD9F84C002CD02FE00FE000
:1032F000889800081D5A0441000066430180FFFFC2
:103300000000A8420000AA42C217863F67666666B0
:10331000C9F82441C9F81841C9F81C41C9F820412D
:1033200099F80800002804BFD8F83C00C9F8380014
:10333000D9F8D80058B9D9F84C0020F4904020F0C2
:103340008040C9F84C0020F08040C9F84C0099F842
:10335000080001285ED116F0080F06F10101B8F946
:1033600022000EB204BF00EBD070401002F083FCCC
:10337000E3490868C0F34032E2480068C0F34010F7
:1033800010430AD00F20C9F8640189F8084089F871
:103390000140B9F8F400A8F82000086810F0100FF8
:1033A00005D189F80840B8F92000C9F8F40099F867
:1033B00002000B282ED2DFE800F0061F2E415462D7
:1033C0006F97ACBEE500042088F85800B8F92000DB
:1033D000C9F8F4000220A8F82000C9F8404088F895
:1033E000504089F80440D8F83C00A0F58070C9F836
:1033F000FC0089F8025074E0D9F84000002808BFAA
:10340000022018D089F8084089F80140B9F8F40082
:10341000A8F82000C7E0D9F8FC0002F092FBC8F839
:10342000400088F85050D9F84000002804BF99F8AF
:103430000200401CE6D189F80200B4E0D9F8FC0093
:1034400002F07FFBC8F84400022088F85000D9F849
:1034500040000028D6D199F80200401C89F80200EB
:10346000A1E0D9F8FC0002F06CFBC8F8480003208A
:1034700088F85000D9F840000028ECD0C2E7D9F80D
:10348000FC0002F05EFBC8F84C0088F85040D9F808
:1034900040000028DFD0B5E70220FCF7EDFF0A2846
:1034A00011D2D8F83C0000F58071D9F8FC008842B0
:1034B00028BF99F8020000F101002CBF89F8020032
:1034C000C9F8FC000BE0C9F8405099F80200401C14
:1034D00089F80200D9F8FC00401EC8F83C00D9F871
:1034E000FC0002F02EFB5EE0D9F84000012889D1F3
:1034F000082089F8020098F85900B8F81C10012833
:10350000B8F83C0014BF401A084400B2C9F80001E2
:10351000E7E7D9F8000102F014FB40F6CC41C9F806
:10352000040188423FBF98F850000328401C88F8E7
:10353000500038D38FE7D9F804014008C9F80401D6
:1035400098F8501008EB8102126CB0EB620F84BF48
:10355000A0EB6200C9F8040100EE100A6A48F8EE18
:10356000400A00EB810080EEA80AD0ED000A9FED32
:10357000671A60EE810A20EE800A89ED070A89F851
:10358000027010E00B20C9F8404089F8020089F869
:10359000084089F80350B9F8F400A8F82000B8F9F9
:1035A000220002F068FB98F85000012812D002288F
:1035B0001FD003282CD0FDF723F955494FF0807018
:1035C000886198ED150ADFED530A20EE200A89ED97
:1035D0003A0A2BE0FDF714F94D484FF480718161F0
:1035E00098ED150ADFED4C0A20EE200A89ED3A0A23
:1035F0001CE0FDF7FAF846494FF08070886198EDBD
:10360000150ADFED460A20EE200A89ED3A0A0DE0A0
:10361000FDF7EBF83E484FF48071816198ED150A93
:10362000F2EE060A20EE200A89ED3A0A3C4C04F13B
:103630001C036068E2684142606900F092FFA0618B
:103640002F480068C0F3C030FEF71CFAE060A06AA3
:1036500000280BDD10F0040FA0F10100A06212BFE2
:103660000020B8F92200401C02F005FB00F062FEC9
:1036700002F092FABBF1000F18BF00F0F3F8FFF769
:1036800016B810B5274CA079012804BFD4F8E00083
:10369000012827D1002002F04BFA0320FCF7ECFEB2
:1036A00040F63C71C4F8C4008842C8BFC4F8C410D6
:1036B000D4F8DC10D4F8C4004843C4F8C400226C29
:1036C0001949012A18BFCC6B12D0C4F3072000F0AF
:1036D000CBFBE0B200F0C8FB002002F029FA012089
:1036E00002F026FA1148016821F00401016010BDC2
:1036F000D4F8E420C96B012A0CBF0C180C1AE4E7BB
:103700001004024010080240889800080024744900
:103710000000024000401C46008089440000C8426E
:10372000343E012028010020D83D01200020014026
:103730002DE9F04104464A4801269846007817468C
:103740000D4603282FD1E819B0F5006F2BD20020C9
:1037500000F082FB032000F087FBC5F3072000F098
:1037600083FBE8B200F080FB0025002F13D9002076
:1037700000F07AFBB8F1000F08BF04F8010B07D086
:103780002EB114F8011B814208BF012600D000268B
:103790006D1CBD42EBD3012000F05EFB012E04BF87
:1037A0000020BDE8F0810120BDE8F0812DE9F0475F
:1037B0008F1888460646B7F5006F24BF0120BDE884
:1037C000F0870C46B94238BFA7F1010942D204F094
:1037D0001F05444518BF002D15D1002000F03CFB0B
:1037E000062000F041FB012000F036FB002000F035
:1037F00033FB022000F038FBC4F3072000F034FB59
:10380000E0B200F031FB16F8010B00F02DFB1F2D8C
:1038100018BFA1451BD10025012000F01DFB002091
:1038200000F01AFB052000F01FFB002000F01CFB3D
:103830008246012000F010FB28466D1CB0F57A7F0F
:1038400002D90220BDE8F0871AF0010FE7D1641C0D
:10385000A742BCD8012000F0FFFA0120BDE8F087A4
:103860002E01002010B584B000F04AF8FDF790FA60
:103870007B4C2188FDF790FAB0F5FA7F08D9FDF767
:1038800087FA2080A06800280CBF01200020A060DB
:1038900000F056FCA0B1037B00216A46002B06DD38
:1038A00043181B795354037B491C8B42F8DC1144A9
:1038B00000234B70027B01686B466AA000F0A8F9F8
:1038C00000F0BAFC002804BF04B010BD6268002AF2
:1038D0001CBF04B010BD01466BA000F099F9012097
:1038E000606004B010BD7048016821F08051016033
:1038F0006EA000F08DB9014674A000F089B9FEE712
:103900002DE9F04198B04F21774800F095F9002853
:1039100052D000264F28D8BF734903DC0E54401CF8
:103920004F28FBDDDFF8C081159616961B2515AADA
:103930006EA14046179604F057F96D4F002407EB2F
:103940000410416815A804F0C9FA68B1641C1B2C66
:10395000F5DD684C072D5DD008DC042D31D0052D38
:1039600041D0062D44D006E02546F2E7172D58D069
:10397000182D00F06880206820F01F00C4E90006C0
:103980005DA0A66000F044F9002407EB0415AB68C5
:103990006A681878002800F05E805AA1684603F033
:1039A0005FFF694659A0EA6800F032F9641C1B2CDD
:1039B000EBDB59A000F02CF918B0BDE8F04100F0A5
:1039C0008CB914AA55A1404604F00EF914980028A9
:1039D00018BF0120FCF7E9FE1498002814BF01214C
:1039E000002150A01AE0FCF7F1FE014654A015E0BA
:1039F00014AA4AA1404604F0F7F81498002818BF0A
:103A00000120FCF7C1FE1498002814BF01210021F9
:103A100051A003E0FCF7A9FE014656A000F0F8F81B
:103A2000CAE714AA3DA1404604F0DEF81498012824
:103A3000206814BF20F0100040F01000206014BF78
:103A400052A05DA0B6E76648006810F4004F18BFAA
:103A500064A0AFD1B0E76DA1684603F001FFA0E715
:103A6000AC0200200D0A43414E2052782066726F4E
:103A70006D2025642C2025642062797465733A20BA
:103A8000222573220D0A00000D0A43414E20657263
:103A9000726F723A20737461747573203D203078B0
:103AA00025582E0D0A00000004ED00E00D0A4665C1
:103AB0006174757265206E6F742079657420696D0C
:103AC000706C656D656E7465642100000D0A535657
:103AD00043206E756D6265722025752077617320B5
:103AE00063616C6C656400009013002025397300DD
:103AF00098980008841300200D0A4D656E753A0AE7
:103B00000000000025732025733A00000D0A252DC2
:103B100031387309257300000D0A3E00252A7325EC
:103B2000640000000D0A5472696720492F4F20235A
:103B3000312073657420746F2025640D0A00000025
:103B40000D0A5472696720492F4F20233120697371
:103B50002025640D0A0000000D0A5472696720498F
:103B60002F4F2023322073657420746F2025640D3D
:103B70000A0000000D0A5472696720492F4F202364
:103B8000322069732025640D0A0000000D0A506F71
:103B9000736974696F6E20747269676765722072E9
:103BA00065706F7274696E672064697361626C65B9
:103BB000642E0D0A000000000D0A506F73697469CD
:103BC0006F6E2074726967676572732077696C6CB9
:103BD000206265207265706F727465642E0D0A0034
:103BE000100402400D0A55736520706F77657220CE
:103BF000627574746F6E20746F207475726E2063BA
:103C0000756265206F66662E0D0A000025733A0006
:103C10000FB410B53E4C03AA6068B0F57A7F00D3AC
:103C200001BE21680844029903F008FE616801445E
:103C3000616010BC5DF814FB2DE9F047344E074677
:103C40000025B0688846002808BFF760FCF70CFF25
:103C50004FF6FF7A0446504518BF4FF0000939D09F
:103C6000082C21D00A2C19BF0D2CB0680125C6F8EC
:103C7000089018BF40450AD2214626A0FFF7C8FF8A
:103C8000F06800F8014BF060B068401CB060FCF7D1
:103C9000EBFE04465045E3D1E5B1F06800F8019B26
:103CA000F060C01BBDE8F087B0680028EFD00821A5
:103CB00018A0FFF7ADFF202116A0FFF7A9FF0821EC
:103CC00014A0FFF7A5FFB068401EB060F068401E6A
:103CD000F060DCE70020BDE8F08710B50C4C6068B0
:103CE000002808BF10BDFCF7F0FE002808BF10BD7B
:103CF000D4E90001FCF7CDFE0748216881420CBFE2
:103D000000F57A70044820600020606010BD00005B
:103D1000B802002025630000E013002038B45D4B9A
:103D2000186840F0040018605B48016841F40041E5
:103D300001605A48016821F080710160016841F01A
:103D40000071016000F1040CDCF8001021F48051D6
:103D5000CCF8001052490A6822F040720A600C1F29
:103D6000226862F0407222604E4A156825F4702580
:103D700045F4C0251560056825F4801505600568C3
:103D800045F400150560DCF8005025F48065CCF89A
:103D90000050D1F800C02CF4401CC1F800C0D4F889
:103DA00000C06CF4401CC4F800C0D2F800C02CF471
:103DB000706C4CF4C06CC2F800C0D0F800C02CF499
:103DC000800CC0F800C0D0F800C04CF4000CC0F863
:103DD00000C0086840F480000860086820F4000013
:103DE0000860106820F4704040F4C040106018680B
:103DF00040F0080018602C49042008602B48016836
:103E000041F010010160016821F020010160001DF6
:103E1000016821F0040101602548016821F03001AA
:103E20000160001F016861F03001016021480188D4
:103E300021F040010180001F018821F04001018034
:103E40004FF449710180018841F0400101801A4816
:103E50000088009038BC7047002814BF04204FF43D
:103E6000802011490860704714490A8812F0020F37
:103E700003D10A8812F0020FFBD00F4A1080088885
:103E800010F0010F03D1088810F0010FFBD010884B
:103E9000C0B270473038024040380240000802404B
:103EA0000C08024024080240180C0240000C02409A
:103EB0000C0C0240043C00400C3C0040083C00401C
:103EC000714981B0086840F0010008606F480268DD
:103ED00042F4805202606E48026822F4804202601E
:103EE000026842F400420260426822F080024260AE
:103EF000C26822F44042C260826842F4404282605A
:103F0000026A22F0704242F0A0420262026822F489
:103F100080620260026842F400620260426822F03D
:103F200020024260C26822F44062C26020228261A4
:103F3000826842F440628260026A22F4700242F4B3
:103F4000A0020262086840F00200086051488A142A
:103F500002605148026842F080720260026822F0FA
:103F600000720260001D026822F4805202604B4819
:103F7000026822F040720260001F026842F0407244
:103F80000260474A908820F040009080108820F01E
:103F9000400010800920B0FA80F0C0F12003D80062
:103FA000083800F0380040F441701080908840F0EC
:103FB00002009080086840F4800008603948016879
:103FC00021F001010160016811F0010F03D00168C7
:103FD00011F0010FFBD1DFF8D0C04FF40061CCF835
:103FE0000010016821F060610160016841F0C0616A
:103FF0000160016841F480610160016841F04001A5
:1040000001602B49294808600020091F08601088BA
:1040100040F0400010809089009001202549984090
:10402000B1FBF0F001B07047002814BF4FF480508E
:104030004FF080501749086070471A4A136823F000
:1040400001031360136813F0010F03D0136813F01A
:10405000010FFBD1184B1860184801601249C014B9
:104060000860106840F00100106070471448006854
:1040700010F4006F06D00A48008910F0800F04BFCA
:104080000120704700207047303802404438024019
:104090000000024018040240000402400C040240E8
:1040A00000300140886402400C6402400C30014042
:1040B0009064024000BD0105946402408C6402409B
:1040C000046402405E4B186810F0030F08BF70478D
:1040D00010B45C4A516802EB0110491C51605A4906
:1040E000D1F800C000F10C001CF0040F4FF0000CE0
:1040F0000EBF80F80DC0012444730C680CBF640D22
:10410000C4F3D10404600968C1F3400181734F49CD
:10411000096801F00F0101734D49096841604D497B
:10412000096881605068082808BFC2F804C0106898
:10413000401C1060186840F02000186010BC7047E8
:10414000DFF814C1DCF8000020F00200CCF8000019
:104150003C4B1968002908BF00200BD09A6803EB7C
:104160000210521C0C309A60082A04BF00229A6088
:10417000491E1960DCF8001041F00201CCF8001073
:1041800070473648006810F0010F08BF70472DE9EE
:10419000F001314D286820F001002860304C226881
:1041A000002A04BFBDE8F0017047A16804EB0110CC
:1041B000491CDFF8B0C00026A160CCF80060DCF834
:1041C0000070437E0C30002B07BF03885B054FF067
:1041D0000408036818BF48EAC3033B43CCF8003027
:1041E000DCF80070837B002B18BF02233B43CCF824
:1041F00000301D4F43683B603F1D83683B601B4B95
:104200001F6827F00F071F601F68007B00F00F007A
:1042100038431860286840F001002860DCF800008E
:1042200040F00100CCF80000082908BFA660501E2D
:104230002060BDE8F00170470D480068704700003D
:104240000C640040B01B0020B0650040B465004025
:10425000B8650040BC65004014640040086400403C
:104260003C1C00208065004088650040846500405B
:1042700018640040264881B0016841F002010160E5
:104280002448016821F480510160016841F4005123
:104290000160016821F480410160016841F400413E
:1042A00001601D48016821F0706141F000710160FA
:1042B000016821F0704141F0005101601748016828
:1042C00041F00401016016494FF0FF3008601548C5
:1042D000018840F201121143018013490320088034
:1042E0001248018841F001010180002100910098ED
:1042F000401C0090B0F57A7FF9DB0D48016001B0F9
:1043000070470B49086800220A6000B2704700003D
:10431000303802400004024020040240403802408D
:104320002C08004018080040080800400008004021
:10433000240800402DE9F047504C554D504E606A1E
:10434000504FA0F10A022046DFF83C81C06ADFF836
:104350003C912968062A04D2DFE802F011061E2DDE
:10436000343EFCF733FA0AE03168012902D0012813
:104370000ED00FE001280BD10CE0FCF716FAA06A72
:104380000A38062832D2DFE800F077353F4F59640B
:104390000020F2E70120F0E73968D8F80020490B47
:1043A00041EA521111F0010F02D00128F2D1EFE7DA
:1043B0000128EFD0ECE711B10128EBD0E8E70128A4
:1043C000E8D1E5E7D9F80010092902D00128E1D1A8
:1043D000DEE70128DED0DBE711B10128DAD1D7E72B
:1043E0004FF0FF3129600128D4D0D1E7BDE8F04774
:1043F000FCF7BBB930680128206B02D0012831D00E
:1044000035E001282ED132E03868D8F80010400B92
:1044100040EA511010F0010F206B02D0012821D08A
:1044200025E001281ED122E028680028206B02D058
:1044300001281CD016E0012819D113E0D9F800009A
:104440000928206B02D001280CD010E0012809D1E6
:104450000DE028680028206B02D0012802D006E079
:10446000012804D0BDE8F0470020FCF78DB9BDE875
:10447000F0470120FCF788B9BDE8F087D83D01205E
:104480006801002010040240100802409002002041
:104490005C01002010B484460020FF4B024603EB71
:1044A00002142468644502D0521C142AF7D900294A
:1044B00001BF03EB0210406810BC7047012901BF27
:1044C00003EB0210806810BC7047022904BF03EBA5
:1044D0000210C06810BC704770B5F04D044600264D
:1044E0002869052106283AD2DFE800F0030C3919C3
:1044F0002C30012C33D1012020262861FCF748FC08
:10450000A8802CE0FCF744FCA988FCF745FCC828EF
:1045100025D9012C0CBF0320002028611FE0012CAD
:1045200004D02961FCF734FCE88018E0FCF730FC8B
:10453000A988FCF731FCB0F57A7F10D90420102649
:1045400028610CE0002C08BF296108E0FCF720FC82
:10455000E988FCF721FCC82884BF00202861304688
:1045600070BD2DE9F05FCD4E824698467069B0610E
:10457000CB4891460D460078012802D1FCF708FC93
:10458000308170690027002818BF132809D0FCF774
:10459000FFFB3189FCF700FC42F21071884288BFB2
:1045A0007761B9F1010F04D1706913281CBF132082
:1045B0007061192DCCBF0120002015F1190FB4BF77
:1045C00001210021441AFCF7E3FB3189FCF7E4FBED
:1045D000C82838BF00245AEA040002D0FCF7D8FBF0
:1045E0003081002DACBF284668426428D8BFF761EF
:1045F00004DDF0690528BCBF401CF061012C23D00C
:10460000B4F1FF3F26D01AF0200F04D002217069C8
:10461000FFF740FF706170690123A0F10B0B9FED64
:10462000A10AA149DFF884C2DFF884A2A14840F6BC
:104630000102BBF1090F80F00D81DFE80BF03E6253
:104640007BA4E1EB5711F10000217069FFF722FF15
:104650007061E0E701217069FFF71CFF7061DAE724
:1046600000EE105AB8EEC00ADFED930A20EE200AE1
:10467000BDEEC00A10EE101A002900F0EB8000EE2B
:10468000105A428CB8EEC00A20EE200ABDEEC00AD5
:1046900010EE101A114409B241841429B8BF142134
:1046A00003DB6429C8BF642100DD4184D8F8001011
:1046B00041F02001C8F80010CCE0B4F1FF3F02D077
:1046C000012C09D0C6E0028C022A04BF81ED000A49
:1046D0008CED000A0384BDE0028C012A04BF81ED49
:1046E000000A8CED000A02210184B3E0B4F1FF3F1F
:1046F00008BF80F85A3045D0012C08BF80F85A70A6
:10470000A8E0002C0ADA90F85920002A04BF8CEDAA
:10471000000A81ED000A80F859309BE032DD90F804
:104720005920012A04BF8CED000A81ED000A80F8AF
:1047300059708FE0002C25D0DAF80410122902DD20
:10474000C369793BC36111F1120F02DAC36979338E
:10475000C3615F2903DDC369A3F2B643C36111F1ED
:104760005F0FC169BCBF01F2B641C16147F2C253DC
:10477000994203DC40F63103994200DCC361328088
:104780000A21718066E0002C64D0DFED4C0A9FEDB9
:104790004C0ADAF80410122906DD90ED151A31EEF4
:1047A000401A80ED151A09E011F1120F06DA90EDAA
:1047B000151A31EE001A80ED151A06E05F29C4BF04
:1047C00090ED151A71EE600A07DC11F15F0FBCBFA6
:1047D00090ED151A71EE200A01DAC0ED150A394B79
:1047E000416D8B42BCBFDFED380AC0ED150A374B77
:1047F000416D9942B8BF80ED150A32800D21C0E7A6
:104800001CB327490B7032490F7032490F7032497F
:104810000B701FE0B4F1FF3F03D0012C07D011E073
:1048200014E090F85810002918BF042308E090F80D
:104830005810012901D0042902D080F8587001E0F5
:1048400080F8583032800521718003E0B9F1000F03
:1048500008BF7761D6E90512914206D0B0F922006F
:10486000002918BF401C01F006FA7069BDE8F09FEE
:10487000F0B50A4C0546A1B0206A4FF6FF77A84272
:1048800032D040B9002001F007FA18237F2210210E
:104890000020009722E026E0EC020020C802002061
:1048A0003001002000000000380200203402002007
:1048B000343E0120D83D0120CDCC4C3D6666663F9C
:1048C000CDCCCC3D8096184B8096184BCDCCCC3DB2
:1048D0002A0100202B0100202901002002F03AF8D3
:1048E000384601F0D9F92562142D80F0AF87DFE852
:1048F00015F01400F90026018C015103990391046D
:1049000073061005C10639075301B9018203C104BA
:10491000C903A4065D06F5068307F94E96F858000C
:10492000012816D0F7A216A8E16802F099FFFA480C
:104930000068012813D0F948006800281ED0F84804
:10494000006810F4005F0FD0F6A102A802F088FF03
:1049500018E0F8A216A8E16802F082FFE7E7FAA1E2
:1049600002A802F07DFF0DE0FC48006810F0200F67
:1049700004D0FBA102A802F073FF03E0FDA102A88E
:1049800002F06EFF0221002001F03AFB02A801F0C4
:104990009CFFFD48008810F4006F04D0FBA102A822
:1049A00002F05EFF0BE0FD48006804F0F5FE41EC0C
:1049B000100BFBA153EC102B02A802F051FF0421B5
:1049C000002001F01DFB02A801F07FFF308C0128C0
:1049D00057D0F7A102A802F043FF0621002001F002
:1049E0000FFB02A801F071FFF6A102A802F038FF48
:1049F000308C012852D0F8A102A802F031FF02AA9F
:104A00000CA8E16802F02CFFE44890ED000ADFED0D
:104A1000F70AF748F26920EE200A80FB0220BCEE7C
:104A2000C00AC210A2EBE07010EE101AB1FBF0F059
:104A3000461C4AF6555001F02FF918237F22102109
:104A4000002001F087FB4FF6FF7001F025F9022EE0
:104A500007D9701EC2B2162312210220009701F05E
:104A600079FF002001F018F9F0B216237E221221FE
:104A7000009701F06FFF4FF6FF7001F00DF900F0A5
:104A80000EBFDC48006804F087FE41EC100BDAA191
:104A900053EC102B02A802F0E3FE9EE7DA4890EDFB
:104AA000000A10EE100AB0F17E5FDFEDD80A20EEAA
:104AB000200A10EE100A0ADA04F06EFE41EC100B28
:104AC000D3A153EC102B02A802F0CAFE97E704F022
:104AD00063FE41EC100BD3A153EC102B02A802F0A3
:104AE000BFFE8CE7D3A216A8E16802F0B9FED6A1FA
:104AF00002A802F0B5FE0221002001F081FA02A80E
:104B000001F0E3FED5A102A802F0AAFE04210020D4
:104B100001F076FA02A801F0D8FED5A102A802F0B1
:104B20009FFE0621002001F06BFA02A801F0CDFEE5
:104B3000A4A20CA8E16802F093FE00F0B0BED1A2DE
:104B400016A8E16802F08CFED3A102A802F088FE4C
:104B50000221002001F054FA02A801F0B6FED2A111
:104B600002A802F07DFE0421002001F049FA02A80B
:104B700001F0ABFED1A102A802F072FE06210020D6
:104B800001F03EFA02A801F0A0FED1A20CA8E16853
:104B900002F066FE00F083BECEA216A8E16802F025
:104BA0005FFE5748B0F92000012806D0022808D13E
:104BB000CDA102A802F054FE03E0D0A102A802F0A9
:104BC0004FFE0221002001F01BFA02A801F07DFE39
:104BD0009DA102A802F044FE0421002001F010FA79
:104BE00002A801F072FEB5A102A802F039FE06216A
:104BF000002001F005FA02A801F067FEB4A20CA89B
:104C0000E16802F02DFE00F04ABEC1A216A8E168DC
:104C100002F026FEA0A102A802F022FE022100203E
:104C200001F0EEF902A801F050FE9FA102A802F0E7
:104C300017FE0421002001F0E3F902A801F045FE6F
:104C40009EA102A802F00CFE0621002001F0D8F976
:104C500002A801F03AFE9EA20CA8E16802F000FE54
:104C600000F01DBEAFA216A8E16802F0F9FDB2A1E6
:104C700002A802F0F5FD224890F85900012827D03B
:104C8000B0A102A802F0ECFD0221002001F0B8F969
:104C900002A801F01AFEB0A102A802F0E1FD042171
:104CA000002001F0ADF902A801F00FFE66A102A8F4
:104CB00002F0D6FD0621002001F0A2F902A801F0C1
:104CC00004FE7EA20CA8E16802F0CAFD00F0E7BD78
:104CD000A6A102A802F0C4FD0221002001F090F973
:104CE00002A801F0F2FDA6A202A8E16802F0B8FD58
:104CF0000421002001F084F902A801F0E6FDD5E7C7
:104D0000D83D012020204F5554505554204C455635
:104D1000454C202000000000680100208C0200208B
:104D200010040240496E7465726C6F636B206F7083
:104D3000656E21004D4F44554C4154494F4E204C17
:104D40004556454C00000000878820204C415345C3
:104D500052204F4E2020878800000000100802409B
:104D60005475726E20746865206B6579206F6E21B2
:104D7000000000002020204C4153455220204F4687
:104D8000462020200000000074010020204F7065A4
:104D90006E20436972637569742120003802002017
:104DA00020497365743A25362E3266206D41200005
:104DB00020507365743A202D204E41202D20202054
:104DC0000000000020202020202020202020202063
:104DD00020202020000000002050443A202D204EAA
:104DE00041202D2020202020000000000000024350
:104DF000D34D6210340200202A507365743A253670
:104E00002E3266206D5720003C02002000007A44BC
:104E10002050443A202025352E316620754120202F
:104E2000000000002050443A2025352E31662075C0
:104E3000412020004F5054494F4E204D454E5520A3
:104E40002020202000000000557365207468652034
:104E5000776865656C82202000000000746F207305
:104E6000656C656374207468652020200000000074
:104E70007375626D656E752E202020202020202005
:104E80000000000031204D4F4445202020202020EC
:104E900020202020000000005072657373204D45D3
:104EA0004E5520616E64200075736520746865201E
:104EB000776865656C82202000000000746F2063B5
:104EC00068616E67652E20202020202000000000F1
:104ED0000909090053454C454354204D4F44452092
:104EE0002020202000000000434F4E5354414E54D8
:104EF0002043555252454E5400000000434F4E533C
:104F000054414E5420504F5745522020000000007D
:104F10003220504F4C41524954592020202020200B
:104F200020000000504F4C415249545920545950D0
:104F30004520202000000000090909090909090984
:104F400020000000414E4F44452047524F554E44EB
:104F50004544202000000000436F6E6E6563746955
:104F60006F6E3A20208B8920000000004341544896
:104F70004F44452047524F554E44454400000000E1
:104F8000436F6E6E656374696F6E3A2020898A2064
:104F900000000000F7A216A8E16802F061FCAFF281
:104FA000081102A802F05CFC0221002001F028F8A0
:104FB00002A801F08AFCAFF2101102A802F050FC26
:104FC0000421002001F01CF802A801F07EFCAFF2E1
:104FD000141102A802F044FC0621002001F010F890
:104FE00002A801F072FCAFF218120CA8E16802F0FE
:104FF00037FC00F054BCE4A216A8E16802F030FCD3
:10500000AFF2CC0102A802F02BFCE448FA21C069FF
:10501000484347F6FF7190FBF1F2E1A102A802F0CC
:105020001FFCCEE5E2A216A8E16802F019FCAFF27F
:10503000981102A802F014FC0221002000F0E0FF09
:1050400002A801F042FCAFF2A01102A802F008FC95
:105050000421002000F0D4FF02A801F036FCD9A101
:1050600002A802F0FDFB0621002000F0C9FF02A803
:1050700001F02BFCAFF2A8120CA8E16802F0F0FBE3
:1050800000F00DBCD3A216A8E16802F0E9FBAFF274
:10509000CC2102A802F0E4FBD3480078012812D00A
:1050A000D2480078012836D0D1480068D149C0F3F1
:1050B00040300968C1F3401108437DD0CEA102A859
:1050C00002F0CEFB81E0D1A102A802F0C9FB0221CF
:1050D000002000F095FF02A801F0F7FBD0A102A884
:1050E00002F0BEFB0421002000F08AFF02A801F0BC
:1050F000ECFBD0A102A802F0B3FB0621002000F0D7
:105100007FFF02A801F0E1FBCFA20CA8E16802F04A
:10511000A7FB00F0C4BBD1480078012827D0D0A15C
:1051200002A802F09DFB0221002000F069FF02A806
:1051300001F0CBFBCFA102A802F092FB04210020DA
:1051400000F05EFF02A801F0C0FBCEA102A802F0B1
:1051500087FB0621002000F053FF02A801F0B5FBF9
:10516000CDA20CA8E16802F07BFB00F098BBCFA1B8
:1051700002A802F075FB0221002000F041FF02A806
:1051800001F0A3FBCEA102A802F06AFB04210020DB
:1051900000F036FF02A801F098FBCEA102A802F0B1
:1051A0005FFB0621002000F02BFF02A801F08DFB21
:1051B000CDA20CA8E16800E003E002F051FB00F092
:1051C0006EBBCEA102A802F04BFB0221002000F032
:1051D00017FF02A801F079FBCDA102A802F040FB65
:1051E0000421002000F00CFF02A801F06EFBCCA10E
:1051F00002A802F035FB0621002000F001FF02A802
:1052000001F063FBAFF244420CA8E16802F028FB16
:1052100000F045BBC7A216A8E16802F021FBAFF27F
:10522000883102A802F01CFB0221002000F0E8FEF9
:1052300002A801F04AFBAFF2903102A802F010FB85
:105240000421002000F0DCFE02A801F03EFBAFF2DA
:10525000943102A802F004FB0621002000F0D0FEE9
:1052600002A801F032FBB8A20CA8E16802F0F8FA3B
:1052700000F015BBB8A216A8E16802F0F1FAAFF28F
:10528000483102A802F0ECFA4448406D04F084FA78
:1052900041EC100BB5A153EC102B02A802F0E0FA80
:1052A0000221002000F0ACFE02A801F00EFBAFF2DC
:1052B000684102A802F0D4FA0421002000F0A0FE08
:1052C00002A801F002FBAFF20C4102A802F0C8FAFA
:1052D0000621002000F094FE02A801F0F6FAA8488A
:1052E00090ED000ADFEDA70A20EE200A10EE100A6A
:1052F00004F052FA41EC100BA3A153EC102B02A8BE
:1053000002F0AEFA02AA0CA8E16802F0A9FA00F0D5
:10531000C6BAA1A216A8E16802F0A2FAAFF28841CB
:1053200002A802F09DFA0221002000F069FE02A806
:1053300001F0CBFAAFF2904102A802F091FA0421F9
:10534000002000F05DFE02A801F0BFFAAFF2944128
:1053500002A802F085FA0621002000F051FE02A802
:1053600001F0B3FAAFF298420CA8E16802F078FAC3
:1053700000F095BA33204D41582043555252454EC6
:105380005420202020000000534554204D41582037
:1053900043555252454E542000000000D83D012094
:1053A0004D415820493A202564206D41202020009D
:1053B00034204741494E2053454C4643414C202020
:1053C00000000000746F2063616C69627261746533
:1053D0002E20200053544152542053454C462D4317
:1053E000414C202000000000300100202901002055
:1053F0001004024010080240496E7465726C6F63BD
:105400006B206572726F72210000000043616C694D
:1054100062726174696E67206E6F77200000000011
:10542000706C656173652077616974202E2E202071
:10543000000000004D454E5520746F2061626F7270
:1054400074202020000000008788204C41534552E2
:1054500020204F4E20878820000000002B010020D4
:10546000878843414C20454E455247495A45532071
:1054700000000000544845204C41534552215052F1
:10548000455353004D454E5520544F2041424F52F5
:1054900054204F5200000000574845454C20544FBF
:1054A00020535441525487880000000043616C69C6
:1054B00062726174696F6E20446F6E650000000057
:1054C0004D6F76652074686520776865656C20206F
:1054D00000000000746F20706572666F726D20743A
:1054E00068652020000000006761696E2063616CC0
:1054F00020616761696E2E200000000043616E2705
:10550000742043616C69627261746521000000005F
:105510004D6F76652074686520776865656C8200DC
:10552000746F20737461727420616761696E2E2ECE
:10553000000000003520504420492F5020204641D3
:1055400043544F5200000000202020202020202023
:105550002020202020202000534554205044204962
:105560002F502076616C7565000000005044463A6B
:10557000202025352E316620572F412000000000C5
:105580003C02002000007A4450443A2025352E3158
:105590006620754120000000362052414D50555084
:1055A000204F55545055542000000000F0A216A87A
:1055B000E16802F055F9F34890F85A00012805D047
:1055C000F1A102A802F04CF9FFF7FBBAF2A102A880
:1055D00002F046F9FFF7F5BAF4A216A8E16802F066
:1055E0003FF9AFF24C7102A802F03AF90221002013
:1055F00000F006FD02A801F068F9AFF2547102A8AC
:1056000002F02EF90421002000F0FAFC02A801F0BB
:105610005CF9AFF2587102A802F022F906210020CD
:1056200000F0EEFC02A801F050F9AFF25C720CA899
:10563000E16802F015F900F032B9E1A216A8E168BC
:1056400002F00EF9CF4890F8580038B101280BD07D
:10565000E0A102A802F004F9FFF7B3BAE2A102A8A0
:1056600002F0FEF8FFF7ADBAE4A102A802F0F8F8E4
:10567000FFF7A7BAE6A102A802F0F2F802AA16A85C
:10568000E16802F0EDF8E7A102A802F0E9F80221D2
:10569000002000F0B5FC02A801F017F9AFF2F87194
:1056A00002A802F0DDF80421002000F0A9FC02A805
:1056B00001F00BF9AFF2FC7102A802F0D1F806215B
:1056C000002000F09DFC02A801F0FFF8AFF2881264
:1056D0000CA8E16802F0C4F800F0E1B8D6A102A875
:1056E00002F0BEF802AA16A8E16802F0B9F8A54EC9
:1056F000B6F922001E28B8BF1E2003DB6428C8BFED
:10570000642000DD7084B6F92220D0A102A802F046
:10571000A7F80221002000F073FC02A801F0D5F8E0
:10572000AFF2142102A802F09BF80421002000F03F
:1057300067FC02A801F0C9F8C9A102A802F090F81C
:105740000621002000F05CFC02A801F0BEF8B6F9CA
:10575000220000F090FAAFF210220CA8E16802F0EB
:105760007FF89CE0C3A216A8E16802F079F8AFF6D2
:10577000AC1102A802F074F8824EC3A196F8500052
:10578000421C02A802F06CF80221002000F038FC54
:1057900002A801F09AF8F069FA21484347F6FF7130
:1057A00090FBF1F2BDA102A802F05AF804210020FA
:1057B00000F026FC02A801F088F8706D03F0ECFF01
:1057C00041EC100BB9A153EC102B02A802F048F8E1
:1057D0000621002000F014FC02A801F076F8B7487A
:1057E000B7A1D0F80E2002A802F03AF802AA0CA83D
:1057F000E16802F035F852E0AFF6382216A8E16809
:1058000002F02EF8AFF6442102A802F029F8022196
:10581000002000F0F5FB02A801F057F80421002059
:1058200000F0EEFB02A801F050F8A9A102A802F0D6
:1058300017F80621002000F0E3FB02A801F045F86C
:10584000A8A20CA8E16802F00BF828E0AFF68C21C2
:1058500002A802F005F80221002000F0D1FB02A806
:1058600001F033F80421002000F0CAFB02A801F087
:105870002CF80621002000F0C3FB02A801F025F857
:105880009DA216A8E16801F0EBFF2A469FA102A89D
:1058900001F0E6FF02AA0CA8E16801F0E1FF002197
:1058A000084600F0ADFB16A801F00FF80821002013
:1058B00000F0A6FB0CA801F008F8256221B000203A
:1058C000F0BD0FB4F0B5BDB0044644AA6846439994
:1058D00001F0B4FF6A468EA1104601F0C1FF28AB6B
:1058E0001EAA8CA1684602F07FF98E4D1EAA14A84C
:1058F000E96801F0B5FF28AA32A8E96801F0B0FF15
:10590000002600F0EFFF4FF4784000F0C5F90022C8
:10591000854B1146104600F005FD4FF6FF7000F074
:10592000BBF90621002000F06BFB14A800F0CDFFAE
:1059300014A800F0CAFF0821002000F061FB32A883
:1059400000F0C3FF794D40F6FF702860FBF720FAA6
:105950000746FBF71DFA3946FBF71EFAA042F8D3BB
:105960002E6000F0BFFF3DB0F0BC5DF814FB0000FE
:10597000454E41424C452052414D5055502020202B
:1059800000000000D83D0120494D4D454449415497
:105990004520090920200000312F31307468205340
:1059A000544550204F4E2020000000003720434F28
:1059B0004E54524F4C20534F555243450000000067
:1059C00053454C45435420434F4E54524F4C202096
:1059D00000000000574845454C2B534F4654574153
:1059E0005245202000000000534F46545741524575
:1059F000204F4E4C592020200000000045585445AF
:105A0000524E414C204F4E4C5920202000000000A7
:105A100038204252494748544E45535320202020B5
:105A2000000000005072657373204D454E55206193
:105A30006E64202000000000534554204252494724
:105A400048544E45535320200000000042726967BD
:105A500068746E657373203D2025332E306400001A
:105A6000746F206368616E676520202020202020ED
:105A7000000000003920494E464F524D4154494FD5
:105A80004E202020000000004761696E2052616EA8
:105A900067653A2020256420200000004D617820B1
:105AA000493A20202564206D412020005044463A88
:105AB000202025352E316620572F4100A09B00085D
:105AC00053775265763A2020253036582020000042
:105AD000536176696E677320706172616D73202601
